:100000000C9400010C9428010C9428010C942801F4
:100010000C9428010C9428010C9428010C942801BC
:100020000C9428010C9428010C9428010C942801AC
:100030000C9428010C9428010C9428010C9428019C
:100040000C94DA0B0C9428010C94C20A0C949C0AB0
:100050000C9428010C9428010C9428010C9428017C
:100060000C941F060C942801204475726174696F0A
:100070006E3A2000205371756172653A2000467215
:1000800065713A200052657374617274696E6720FD
:1000900048414220436F6E74726F6C6C6572002031
:1000A0000000000008000201000003040700000037
:1000B0000000000000005EBCE2613FDD83C29C7E68
:1000C00020A3FD1F419DC3217FFCA2401E5F01E3D1
:1000D000BD3E6082DC237D9FC1421CFEA0E1BF5D6E
:1000E0000380DE3C62BEE0025CDF81633D7C22C0B7
:1000F0009E1D43A1FF4618FAA427799BC584DA38D0
:1001000066E5BB5907DB856739BAE406581947A588
:10011000FB7826C49A653BD987045AB8E6A7F91B31
:1001200045C6987A24F8A6441A99C7257B3A64866E
:10013000D85B05E7B98CD2306EEDB3510F4E10F29B
:10014000AC2F7193CD114FADF3702ECC92D38D6F38
:1001500031B2EC0E50AFF1134DCE90722C6D33D105
:100160008F0C52B0EE326C8ED0530DEFB1F0AE4C1E
:100170001291CF2D73CA947628ABF517490856B45F
:10018000EA6937D58B5709EBB536688AD495CB2900
:1001900077F4AA4816E9B7550B88D6346A2B7597B9
:1001A000C94A14F6A8742AC896154BA9F7B6E80AE6
:1001B00054D7896B35000000002300260029000475
:1001C00004040404040404020202020202030303FE
:1001D00003030301020408102040800102040810F8
:1001E0002001020408102000000000240027002A3B
:1001F0000000000000250028002B000044130C1410
:1002000011241FBECFEFD8E0DEBFCDBF11E0A0E0CC
:10021000B1E0E8EDFEE202C005900D92AC3AB10704
:10022000D9F713E0ACEAB1E001C01D92A637B107DF
:10023000E1F710E0CFEFD0E004C02197FE010E946B
:100240005917CE3FD107C9F70E94810D0C940D14A8
:100250000C940000FC01AC014E5F5F4F8FEF91E307
:100260002191822728E030E087FF03C0880F89278B
:1002700001C0880F21503109B9F7E417F50781F75C
:1002800008958091D50190E02091D601821B9109BB
:10029000089508950895E091D6018091D501E81759
:1002A00030F4F0E0EE5DFD4F808190E008958FEF37
:1002B0009FEF08959091D6018091D501981750F441
:1002C000E92FF0E0EE5DFD4F208130E09F5F9093DD
:1002D000D60102C02FEF3FEFC9010895CF92DF9200
:1002E000EF92FF920F931F93CF93DF937C018A01CC
:1002F0008091D401882389F0EB016B01C40ED51ED7
:10030000CC15DD05F1F06991D701ED91FC910190DB
:10031000F081E02DC7010995F3CF842F413288F495
:1003200090916802943069F44093FD01FB012BED3C
:1003300031E0D9019A2F921B981718F491919D934F
:10034000F9CFC801DF91CF911F910F91FF90EF90EE
:10035000DF90CF9008952091D4012223C9F02091FD
:10036000D301203240F021E030E0FC0133832283CE
:1003700080E090E008958091D201E82FF0E0EE5403
:10038000FE4F60838F5F8093D2018093D30109C0B9
:1003900080916802843029F481E08093FD016093AC
:1003A000DB0181E090E008950C94A5140F931F9356
:1003B000CF93DF938C01EB0188E2FB0111928A95C8
:1003C000E9F74BE050E063EA71E0CE010E9442158C
:1003D0001B8681E090E0A0E0B0E08C879D87AE872F
:1003E000BF87F80183819481A581B681888B998B21
:1003F000AA8BBB8B86E090E0A0E0B0E08C8B9D8B5D
:10040000AE8BBF8B1CA21DA21EA21FA28AE098EE7B
:10041000ACE1B3EC888F998FAA8FBB8F8AE098EEFE
:10042000ACE1B3E48C8F9D8FAE8FBF8F83EA9FEAE0
:10043000A0E2BDE388A399A3AAA3BBA3DF91CF91B8
:100440001F910F910895CF92DF92EF92FF92CF9379
:10045000DF936B017C01E0916902F0916A020190E7
:10046000F081E02D6DE289E692E00995EC016627C6
:100470007727CB016C197D098E099F094AE00E94FC
:100480005F078C0F9D1FDF91CF91FF90EF90DF9062
:10049000CF900895CF92DF92EF92FF92CF93C82F23
:1004A00080E48C0F0E94BE088C2F8F708430C1F0C6
:1004B00048F4882381F08230F1F463E070E080E05A
:1004C00090E017C0863089F08830A9F46AE070E0C7
:1004D00080E090E00EC08BE09EE00197F1F70BC04A
:1004E00064E070E080E090E004C066E070E080E0EE
:1004F00090E00E94A00B80E00E94BE086091330350
:10050000772767FD709543E050E080913403909128
:1005100035030E94E10C8091340390913503DC0196
:10052000ED91FC910680F781E02D09956C01EE2498
:10053000D7FCE094FE2C7601DD24CC24809134039A
:1005400090913503DC01ED91FC910680F781E02D5F
:100550000995AA2797FDA095BA2FBA2FA92F982FF2
:100560008827C80ED91EEA1EFB1E80913403909185
:100570003503DC01ED91FC910680F781E02D0995B2
:10058000AA2797FDA095BA2FC80ED91EEA1EFB1EFA
:1005900061E080913403909135030E945D0CC701A6
:1005A000B601CF91FF90EF90DF90CF900895DF924A
:1005B000EF92FF920F931F93CF93DF9300D000D061
:1005C00000D0CDB7DEB780E094E20E94D40764EF9C
:1005D00071E080E090E00E94A00B66E0809106034D
:1005E0000E9424081092D6018093D501863009F02C
:1005F0005FC0CE0101967C018C0186E0D82EDE0C16
:100600008FE093E00E945A01F80181938F01DE127E
:10061000F7CFD9800A811B81C7010E942A011813D4
:1006200047C0FC801D81EE80CE0104960E942A0105
:10063000E8123EC0602F70E07D2980E090E00E94CB
:10064000221620E030E04FE253E40E94D41620E06E
:100650003FEF4FE757E40E94BA1520E030E044E353
:1006600052E40E94511560930B0370930C03809326
:100670000D0390930E03612F70E07F2980E090E0DE
:100680000E94221620E030E048EC52E40E94D4168A
:1006900020E03FEF4FE757E40E94BA15609307034D
:1006A000709308038093090390930A0381E001C0CB
:1006B00080E026960FB6F894DEBF0FBECDBFDF9167
:1006C000CF911F910F91FF90EF90DF900895DC0183
:1006D000E0E0615038F08D91E827F0E0EB54FF4FF7
:1006E000E491F7CF8E2F0895FC0190810180F28173
:1006F000E02DF8948181892B81832281892F809537
:1007000028232283A7E0B0E01197F1F7218182230B
:100710008183A3E2B0E01197F1F780817894EFEC48
:10072000F0E03197F1F7982381E009F480E0089533
:10073000FC0190810180F281E02D892F809560FF7E
:1007400012C0F8942281822382838181892B818344
:10075000A3E2B0E01197F1F78281982B928378940D
:1007600087ED90E011C0F8942281822382838181F9
:10077000892B8183AFEFB0E01197F1F78281982B3D
:10078000928378948FE090E00197F1F70895CF92EB
:10079000DF92EF92FF920F931F93CF93DF931F92FD
:1007A000CDB7DEB76C01E62E08E010E0FF24F3942D
:1007B00061E08F2D8E2109F460E0C60149830E941B
:1007C0009803FF0C0150110949810115110581F7AA
:1007D000411115C0F894D6011196ED91FC91129734
:1007E00091818C918095892381831196ED91FC9163
:1007F000129792818C9180958923828378940F90AF
:10080000DF91CF911F910F91FF90EF90DF90CF90EC
:100810000895CF92DF92EF92FF920F931F93CF93A1
:10082000DF931F92CDB7DEB78C01F62E40E065E571
:1008300079830E94C703CF2C7981D72E760188E077
:10084000E80EF11CF60161916F0140E0C8010E94C1
:10085000C703CE14DF04B1F70F90DF91CF911F9142
:100860000F91FF90EF90DF90CF900895FC01908161
:100870000180F281E02DF8948181292F2095822337
:10088000818378948DE743E050E0815021F1DA01D3
:100890001197F1F730813923C1F3F89482818223D3
:1008A00082838181892B81837894ABE7B7E01197AC
:1008B000F1F7F894818128232183A3E1B1E0119716
:1008C000F1F78081982381E009F080E07894E3E6F5
:1008D000F6E03197F1F7089508957F928F929F92F5
:1008E000AF92BF92CF92DF92EF92FF920F931F933E
:1008F000CF93DF93C82E942E822E07E010E0712C48
:10090000EE24E394F12C70E0FB01EF55FF4FD491FE
:10091000FB01ED52FE4FD490FB01E154FE4FC49118
:10092000EC2FF0E0EE0FFF1FEB54FE4FA590B490BC
:10093000770C60E08C2D0E94340BB701002E01C0B3
:10094000660F0A94EAF76821892D0E94340B61E052
:100950008C2D0E94340BCC2349F0DD2319F08D2F10
:100960000E940B0BF50180818D2191F4015011093A
:10097000F8F6872DDF91CF911F910F91FF90EF90A7
:10098000DF90CF90BF90AF909F908F907F90089511
:10099000872D8160782EEACF0F931F93CF93DF933B
:1009A000EC01162F8D85882311F163E58FE093E02C
:1009B0000E94D70C612F8FE093E00E94AB010E9450
:1009C000CF0742E050E063E570E08FE093E00E94E3
:1009D000E10C8FE093E00E945A01C82F8FE093E072
:1009E0000E945A01982F88278C010C2B1EC060E0B2
:1009F0008C850E94340B212F206C4A856B8589855C
:100A00000E946D042FEF4A856B8589850E946D04D5
:100A1000082F2FEF4A856B8589850E946D0410E0B1
:100A2000182B61E08C850E94340BC801DF91CF91B7
:100A30001F910F9108950F931F93CF93DF938C0114
:100A4000EB0184E2FB0111928A95E9F784E290E0E0
:100A5000A0E0B0E088839983AA83BB83F8018381F7
:100A60009481A581B6818C839D83AE83BF8381E011
:100A700090E0A0E0B0E088879987AA87BB87188AB2
:100A8000198A1A8A1B8A62E3C8010E94CC04BC013D
:100A9000882777FD8095982F0E9424162FE632E153
:100AA00043E85BE30E94D4162AE038EE4CE151E4BF
:100AB0000E94D416F80126853785408951890E9405
:100AC000D4166C8B7D8B8E8B9F8B64E3C8010E9448
:100AD000CC04BC01882777FD8095982F0E942416AE
:100AE0002FE632E143E85BE30E94D4162AE038EEB9
:100AF0004CE151E40E94D416F801268537854089DF
:100B000051890E94D416688F798F8A8F9B8F66E3F4
:100B1000C8010E94CC04BC01882777FD8095982FDE
:100B20000E9424162FE632E143E85BE30E94D416CC
:100B30002AE038EE4CE151E40E94D416F8012685F3
:100B40003785408951890E94D4166C8F7D8F8E8F96
:100B50009F8F81E0DF91CF911F910F910895CF93E7
:100B6000DF93CCEBD0E018821092680281E0809392
:100B700067021092620261E082E10E94340B61E040
:100B800083E10E94340BE9EBF0E080818E7F80836B
:100B900080818D7F808388E48093B80085E488839A
:100BA000DF91CF910895882349F01092D7011092D8
:100BB000D8011092D9011092DA0113C08091D701A7
:100BC0009091D801A091D901B091DA010196A11DAF
:100BD000B11D8093D7019093D801A093D901B09310
:100BE000DA018091D7019091D801A091D901B091FB
:100BF000DA01803A9648A140B10560F01092D70121
:100C00001092D8011092D9011092DA010E94AF051A
:100C100081E0089580E0089585ED8093BC0081E037
:100C20000E94D3058091BC0084FF06C080E00E9432
:100C3000D3058823B9F302C01092680208951F9269
:100C40000F920FB60F9211242F933F934F935F9300
:100C50006F937F938F939F93AF93BF93EF93FF9384
:100C60008091B900887F803609F49CC068F588328D
:100C700009F45BC090F4803109F454C038F488233F
:100C800009F4F6C0883009F44DC0F6C0883109F483
:100C90004CC0803209F45DC0EFC0803409F468C0F4
:100CA00048F4803309F455C0883309F0E5C08093D7
:100CB0006602D8C0803509F44FC0883509F45DC09C
:100CC000883409F0D9C0D6C0883909F4C7C0A8F45F
:100CD000883709F467C038F4883609F463C0803770
:100CE00009F460C0C9C0883809F4B8C0803909F473
:100CF0005FC0803809F0C0C05BC0803B09F486C08B
:100D000038F4803A09F466C0883A09F47FC0B4C068
:100D1000803C09F4A7C0883C09F4A4C0883B09F4CE
:100D20008AC0AAC08091630210C090916502809130
:100D30006402981770F5E091650281E08E0F809350
:100D40006502F0E0EE5BFD4F80818093BB0085EC97
:100D500086C0809366028EC0E091650281E08E0FAE
:100D6000809365028091BB00F0E0EE5BFD4F8083D5
:100D700090916502809164026EC0E091650281E00D
:100D80008E0F809365028091BB00F0E0EE5BFD4F1B
:100D900080838091670281116DC081E0809362023F
:100DA00084EA61C083E08093680210922102CFCF71
:100DB00080912102803208F051C0E091210281E04F
:100DC0008E0F809321028091BB00F0E0EF5FFD4F1A
:100DD0008083BDCF85EC8093BC0010926802809127
:100DE0002102803230F4E0912102F0E0EF5FFD4F0C
:100DF00010826091210270E0E091FF01F091000209
:100E000081E092E009951092210236C084E080933F
:100E100068021092FE011092FD01E091FB01F09139
:100E2000FC0109958091FD01811105C081E080934D
:100E3000FD011092DB01E091FE0181E08E0F8093B5
:100E4000FE01F0E0E552FE4F80818093BB0090915F
:100E5000FE018091FD01981708F479CF85E8809311
:100E6000BC000AC085EC8093BC001092680204C0EC
:100E7000109266020E940C06FF91EF91BF91AF9114
:100E80009F918F917F916F915F914F913F912F91A2
:100E90000F900FBE0F901F901895009769F0FC01FE
:100EA00001900020E9F73197AF01481B590BBC01B5
:100EB00089E692E00C943D0A80E090E008958F92DC
:100EC0009F92AF92BF920F931F93CF93DF93CDB7B3
:100ED000DEB7A1970FB6F894DEBF0FBECDBF19A243
:100EE000423008F44AE08E010F5D1F4F842E912C92
:100EF000A12CB12CA50194010E943717E62FB9014E
:100F0000CA0101501109EA3014F4E05D01C0E95C46
:100F1000D801EC93232B242B252B61F7C8010E94C9
:100F20004D07A1960FB6F894DEBF0FBECDBFDF917F
:100F3000CF911F910F91BF90AF909F908F90089588
:100F40000F931F93CF93DF938C01C0E0D0E0F801A3
:100F5000EC0FFD1F6491662371F0E0916902F0913E
:100F60006A020190F081E02D89E692E00995892BD3
:100F700011F02196ECCFCE01DF91CF911F910F910F
:100F80000895CF93DF930E944D07EC0180E591E037
:100F90000E944D078C0F9D1FDF91CF91089561E056
:100FA0008FE093E00C945D0CCF93DF93EC016091A4
:100FB00006038FE093E00E94D70C6D2F8FE093E043
:100FC0000E94AB016C2F8FE093E00E94AB01DF9198
:100FD000CF910C94CF07CF93DF93D82FC62F80915A
:100FE0006603882399F063E58FE093E00E94D70CB5
:100FF0006D2F8FE093E00E94AB016C2F8FE093E0A8
:101000000E94AB01DF91CF910C94CF0760E08091FB
:1010100065030E94340B2D2F40916303609164039C
:10102000809162030E946D042C2F409163036091B4
:101030006403809162030E946D0461E08091650306
:10104000DF91CF910C94340BCF93DF93D82FC62F21
:1010500081E00E94D30580916802882329F080E016
:101060000E94D3058823B9F381E0809368028093BE
:1010700067029FEF90936602109265029C0F909317
:1010800064028093630280916302DD0FD82BD093BA
:10109000630280916202813061F410926202809159
:1010A00063028093BB008091BC0083FDF8CF85EC88
:1010B00001C085EE8093BC0081E00E94D305809141
:1010C0006802813029F480E00E94D3058823B9F3B7
:1010D000809165028C1710F4C0916502A2E4B2E021
:1010E00022E232E0F9018E2F821B8C1718F48D91C9
:1010F0008193F9CF8C2FDF91CF910895CF93C82F93
:10110000809166038823C9F063E58FE093E00E9435
:10111000D70C6C2F8FE093E00E94AB010E94CF07A9
:1011200041E050E063E570E08FE093E00E94E10C65
:101130008FE093E00E945A011FC060E08091650338
:101140000E94340B2C2F206840916303609164034C
:10115000809162030E946D042FEF409163036091C0
:101160006403809162030E946D04C82F61E0809146
:1011700065030E94340B8C2FCF9108951F93CF935A
:10118000DF93182FCBE1D3E0688D898D9A8D0E9473
:10119000D70C898D9A8DDC01ED91FC910190F08145
:1011A000E02D612F099561E0898D9A8DDF91CF91B6
:1011B0001F910C945D0C682F8FE093E00C94AB01B1
:1011C000AF92BF92CF92DF92EF92FF920F931F9355
:1011D000CF93DF93EC018B0180913D0390913E030F
:1011E0000E9436048823A1F1BE0180913D039091B5
:1011F0003E030E94090440E06EEB80913D03909114
:101200003E030E94C703E801680189E0C80ED11CB3
:10121000A0903D03B0903E0388E0E82EF12C01E061
:1012200010E0C5010E9474038111102B000F81E0B2
:10123000E81AF108B1F71993CC15DD0549F780914B
:101240003D0390913E030E94360491E0813009F005
:1012500090E0892FDF91CF911F910F91FF90EF9038
:10126000DF90CF90BF90AF900895CF93DF93EB01C5
:101270000E94E008882339F068E0CE010E946703ED
:1012800091E02885821390E0892FDF91CF91089516
:10129000CF93DF93CDB7DEB729970FB6F894DEBFB3
:1012A0000FBECDBFFC0120812031D1F0BE016F5FA8
:1012B0007F4F0E943509882389F08D818F3361F03B
:1012C00020F48F3159F489E00CC08F3519F08F3735
:1012D00039F004C08BE005C08AE003C080E001C0A3
:1012E0008CE029960FB6F894DEBF0FBECDBFDF911C
:1012F000CF910895AF92BF92CF92DF92EF92FF927B
:101300000F931F93CF93DF931F92CDB7DEB75C018E
:10131000D62EE72EFC018585811105C0C5010E94EE
:101320003604811106C0F50113861586148680E007
:1013300065C040E060EFC5010E94C70301E0F12CE9
:10134000C12C11E0C5010E947403682FC501698397
:101350000E9474036981613019F48130B9F433C09B
:101360004F2D50E068131BC0F5018385181730F42A
:10137000E40FF51F8381802349F402C0181731F070
:1013800060E0193058F4F501148708C0F501EF0D3D
:10139000F11D8381802B838361E009C0C12EF5019B
:1013A000E40FF51F9381802F809589238383C501E6
:1013B0000E9498031F5F000F11F4F39401E0F7E01F
:1013C000FF1508F0BFCF113408F4ADCFF501C38687
:1013D000C11002C081E08587F5018381882309F46B
:1013E000A2CFD5011396ED2DFE2D9501255F3F4F20
:1013F0008D918193A217B307D9F781E00F90DF9108
:10140000CF911F910F91FF90EF90DF90CF90BF9001
:10141000AF9008950F931F93CF93DF938C01D62F36
:10142000E0913D03F0913E03138615861486DF019B
:101430001B9633961E92AE17BF07E1F7C0E0B801C6
:1014400080913D0390913E030E947A09882381F0A8
:10145000CD130AC067E0C8010E946703F8019781B5
:10146000891302C081E004C0CF5FDC1740F780E041
:10147000DF91CF911F910F910895CF92DF92EF925C
:10148000FF920F931F93CF93DF936C017A018B012F
:10149000C0E0D0E0CE15DF0589F0D8016D918D0157
:1014A000D601ED91FC910190F081E02DC6010995E6
:1014B000892B11F47E0102C02196ECCFC701DF9188
:1014C000CF911F910F91FF90EF90DF90CF900895F3
:1014D0003FB7F89480916D0390916E03A0916F03D4
:1014E000B091700326B5A89B05C02F3F19F0019657
:1014F000A11DB11D3FBFBA2FA92F982F8827820F9A
:10150000911DA11DB11DBC01CD0142E0660F771FE9
:10151000881F991F4A95D1F7089508950E943D1597
:1015200089E692E00E94470C21E0892B09F420E033
:10153000822F08950C94A5141F920F920FB60F924C
:1015400011242F933F934F935F936F937F938F93C8
:101550009F93AF93BF93EF93FF9389E692E00E942E
:10156000F70CFF91EF91BF91AF919F918F917F9178
:101570006F915F914F913F912F910F900FBE0F9000
:101580001F9018951F920F920FB60F9211242F9350
:101590008F939F93EF93FF93E0917902F0917A02FA
:1015A0008081E0917F02F091800282FD12C09081E3
:1015B000809182028F5F8F7320918302821751F096
:1015C000E0918202F0E0E759FD4F958F809382020F
:1015D00001C08081FF91EF919F918F912F910F908A
:1015E0000FBE0F901F9018958E3008F08E508770A8
:1015F000806480937C0080917A00806480937A007C
:1016000080917A0086FDFCCF80917800209179004E
:1016100090E0922B0895833081F028F4813099F086
:101620008230A1F008958730A9F08830B9F0843075
:10163000D1F4809180008F7D03C0809180008F77EE
:1016400080938000089584B58F7702C084B58F7D24
:1016500084BD08958091B0008F7703C08091B00061
:101660008F7D8093B00008951F93CF93DF93282F31
:1016700030E0F901EF55FF4F8491F901ED52FE4F33
:10168000D491F901E154FE4FC491CC23C9F0162F37
:1016900081110E940B0BEC2FF0E0EE0FFF1FEF50BB
:1016A000FE4FA591B4918FB7F894111105C09C918C
:1016B000ED2FE095E92302C0EC91ED2BEC938FBF69
:1016C000DF91CF911F910895CF93DF9390E0FC01BC
:1016D000ED52FE4F2491FC01E154FE4F849188238A
:1016E00061F190E0880F991FFC01E951FE4FC5910F
:1016F000D491FC01EF50FE4FA591B491611109C046
:101700009FB7F8948881209582238883EC912E23BB
:101710000BC0623061F49FB7F8943881822F8095B6
:1017200083238883EC912E2B2C939FBF06C08FB709
:10173000F894E8812E2B28838FBFDF91CF910895F5
:101740008F929F92AF92BF92CF92DF92EF92FF92D1
:101750006B017C010E94680A4B015C01C114D10439
:10176000E104F104F1F00E94680ADC01CB01881960
:101770009909AA09BB09883E9340A105B10570F3F8
:1017800021E0C21AD108E108F10888EE880E83E052
:10179000981EA11CB11CC114D104E104F10419F775
:1017A000DDCFFF90EF90DF90CF90BF90AF909F90F4
:1017B0008F9008951F920F920FB60F9211242F93BE
:1017C0003F938F939F93AF93BF938091AC01909180
:1017D000AD01A091AE01B091AF0130916C0323E057
:1017E000230F2D3720F40196A11DB11D05C026E859
:1017F000230F0296A11DB11D20936C038093AC01B1
:101800009093AD01A093AE01B093AF0180916D03B1
:1018100090916E03A0916F03B09170030196A11D8A
:10182000B11D80936D0390936E03A0936F03B093EB
:101830007003BF91AF919F918F913F912F910F9026
:101840000FBE0F901F9018950895FC01918D828D09
:10185000981761F0828DDF01A80FB11D5D968C9104
:10186000928D9F5F9F73928F90E008958FEF9FEF0F
:101870000895FC01918D828D981731F0828DE80FCB
:10188000F11D858D90E008958FEF9FEF0895FC0185
:10189000918D228D892F90E0805C9F4F821B910952
:1018A0008F739927089580E090E0892B29F00E949A
:1018B000900A81110C94000008950F931F93CF9309
:1018C000DF931091D301D0917103113208F05EC003
:1018D000062F81E00E94D305C0916802CC2339F025
:1018E00080E00E94D3058823B9F3C5E054C082E0AC
:1018F00080936802009367028FEF809366021092D4
:10190000650210936402A2EBB1E022E432E0F90137
:101910008E2F821B811718F48D918193F9CF10922D
:101920006302909163028D2F880F892B809363024D
:1019300080916202813061F41092620280916302B0
:101940008093BB008091BC0083FDF8CF85EC01C083
:1019500085EE8093BC0081E00E94D30580916802EF
:10196000823031F480E00E94D3058111BECFF6CFE2
:10197000809166028F3F79F080916602803241F05B
:1019800080916602803331F0C4E005C0C1E003C03D
:10199000C2E001C0C3E01092D2011092D3011092B4
:1019A000D4018C2FDF91CF911F910F91089581E089
:1019B0008093D401609371031092D2011092D301ED
:1019C0000895862F413208F040E2642F0E942408D7
:1019D0001092D6018093D50108951092D6011092ED
:1019E000D5011092D2011092D3010C94AF05FC01E5
:1019F000848DDF01A80FB11DA35ABF4F2C91848D98
:101A000090E001968F739927848FA689B7892C93CC
:101A1000A089B1898C9180648C93938D848D981367
:101A200006C00288F389E02D80818F7D8083089530
:101A3000EF92FF920F931F93CF93DF93EC0181E01E
:101A4000888F9B8D8C8D981305C0E889F9898081DA
:101A500085FD24C0F62E0B8D10E00F5F1F4F0F7316
:101A60001127E02E8C8DE8120CC00FB607FCFACFC0
:101A7000E889F989808185FFF5CFCE010E94F70CB6
:101A8000F1CF8B8DFE01E80FF11DE35AFF4FF0827D
:101A90000B8FEA89FB898081806207C0EE89FF890C
:101AA0006083E889F98980818064808381E090E0A7
:101AB000DF91CF911F910F91FF90EF900895CF93F9
:101AC000DF93EC01888D8823C9F0EA89FB89808146
:101AD00085FD05C0A889B9898C9186FD0FC00FB618
:101AE00007FCF5CF808185FFF2CFA889B9898C9159
:101AF00085FFEDCFCE010E94F70CE7CFDF91CF91AC
:101B00000895CF93DF93CDB7DEB7C154D1090FB697
:101B1000F894DEBF0FBECDBF789484B5826084BDDB
:101B200084B5816084BD85B5826085BD85B58160E1
:101B300085BD80916E00816080936E00109281005F
:101B4000809181008260809381008091810081601A
:101B500080938100809180008160809380008091DB
:101B6000B10084608093B1008091B0008160809367
:101B7000B00080917A00846080937A0080917A002E
:101B8000826080937A0080917A00816080937A00ED
:101B900080917A00806880937A001092C10061E0A1
:101BA00084E00E94640B61E089E00E94640B8EE790
:101BB00090E00E94A0074AE068EE73E080E090E0C9
:101BC0000E945F0784E790E00E94A0074AE064EF6C
:101BD00071E080E090E00E945F0788E690E00E945C
:101BE000A0074AE068EE73E080E090E00E945F07A3
:101BF00080E591E00E944D0700E010E05BECE52EEF
:101C000057E0F52E61E084E00E94340BC701019794
:101C1000F1F760E084E00E94340BC7010197F1F70F
:101C20000F5F1F4F083E83E0180761F7E0917902CC
:101C3000F0917A0282E08083E0917502F091760261
:101C40001082E0917702F09178028FEC80831092FD
:101C50008102E0917D02F0917E0286E08083E09136
:101C60007B02F0917C02808180618083E0917B0225
:101C7000F0917C02808188608083E0917B02F0910A
:101C80007C02808180688083E0917B02F0917C02FD
:101C900080818F7D808385E890E00E94A00780E5A9
:101CA00091E00E944D07E0913D03F0913E031386C1
:101CB00015861486DF011B9633961E92AE17BF075A
:101CC000E1F710923C0311E0BE016F5F7F4F8091FE
:101CD0003D0390913E030E947A09882309F44AC08B
:101CE00067E0CE0101960E94670398858913ECCFC7
:101CF00080913803811127C080913D0390913E036C
:101D00000E943604BE016F5F7F4F80913D0390912A
:101D10003E030E94090440E064EB80913D039091F2
:101D20003E030E94C70380913D0390913E030E94B1
:101D30007403082F80913D0390913E030E94360466
:101D4000002309F49EC400913903CE0101960E943C
:101D50004809801718F48091390304C0CE01019618
:101D60000E9448098093390380913C038F5F8093E0
:101D70003C03AACF8AE080933903E12CF12C0FE5D4
:101D80002FE7D22E3FE1C32E4FE3B42E80913C03C8
:101D900090E0E816F9060CF09BC06E2DCE018596FA
:101DA0000E940A0A10913903193020F01D3018F0F2
:101DB0001CE001C019E0CE0185960E9448098117F8
:101DC00009F482C0BE016F5F7F4FCE0185960E94ED
:101DD0003509882309F478C08DA1803109F474C0D5
:101DE0001B3041F01C3021F01A3031F4BD8205C0A7
:101DF000DD8203C00D8301C0CD8280913D039091AF
:101E00003E030E943604BE016B5D7F4F80913D030F
:101E100090913E030E94090440E06EE480913D03EE
:101E200090913E030E94C70340E06B8180913D0387
:101E300090913E030E94C70340E06C8180913D0376
:101E400090913E030E94C7038DA1803141F040E094
:101E50006D8180913D0390913E030E94C703809164
:101E60003D0390913E030E943604BE016B5D7F4F9F
:101E700080913D0390913E030E94090440913803F4
:101E800068E480913D0390913E030E94C70364E1A2
:101E900070E080E090E00E94A00B809138038823DE
:101EA00031F06AE070E080E090E00E94A00B809149
:101EB0003D0390913E030E94360480913903181728
:101EC00008F4182F10933903AFEFEA1AFA0A5ECF1D
:101ED00010923A0380913D0390913E030E94360494
:101EE00040E06CEC80913D0390913E030E94C7035B
:101EF0004091380364E480913D0390913E030E9439
:101F0000C70380913A038823A9F0E0913903E9508F
:101F1000E33040F4F0E0EE0FFF1FEA5FFE4F608118
:101F2000718102C06EEE72E0882777FD8095982F50
:101F30000E94A00B6EE08FE093E00E94D70C81E13D
:101F400090E00E94DB0880E890E00E94DB080E949D
:101F5000CF076FE070E080E090E00E94A00B6EE0A1
:101F60008FE093E00E94D70C80E190E00E94DB08B4
:101F700081E090E00E94DB080E94CF078091660319
:101F8000882329F08FE093E00E94ED0C19C061E0F6
:101F9000809165030E94640B61E0809162030E945E
:101FA000640B61E0809162030E94340B61E08091D8
:101FB00063030E94640B60E0809164030E94640BE1
:101FC00080E00E947E08853E81F0682F70E080E00E
:101FD00090E040E10E945F0780E591E00E944D079C
:101FE00083E591E00E94C10704C068E08DE20E9491
:101FF000EB0780913403909135030E94ED0C6091C2
:10200000330380913403909135030E94D70C61E033
:1020100080913403909135030E945D0C882329F050
:1020200085E891E00E94C10755C08EE10E94BE087C
:1020300063E070E080E090E00E94A00B0BE113E011
:1020400020EAF80111821082822F22962FAF229768
:102050000E94BE0860913303772767FD709542E0C8
:1020600050E080913403909135030E94E10C8091FF
:10207000340390913503DC01ED91FC910680F781EA
:10208000E02D0995F80110828183809134039091AD
:102090003503DC01ED91FC910680F781E02D099577
:1020A000F80140815181840F951FD8018D939D9334
:1020B0008D0161E080913403909135030E945D0CA5
:1020C00022962FAD22972E5F203B09F0BACF81E0F8
:1020D0008093B00181E30E947E08807F682F686052
:1020E00081E30E94EB07109261031092600366E0A7
:1020F0008CE20E94EB078AEA98E4A9E6BFE38093AA
:10210000670390936803A0936903B0936A038FE019
:1021100093E00E94ED0C84E48093060382EA90E34E
:102120000E94D4076AE070E080E090E00E94A00B7B
:1021300081E08093B1018EE00E94F40A61E089E0C1
:102140000E94640BEAEAF0E0E491E33019F150F404
:10215000E130D1F0E230E1F584B5806284BD8FE7F3
:1021600088BD3AC0E73011F1E83049F1E43081F53B
:10217000809180008062809380008FE790E0909350
:102180008B0080938A0028C084B5806884BD8FE767
:1021900087BD22C0809180008068809380008FE797
:1021A00090E0909389008093880016C08091B000E1
:1021B00080688093B0008FE78093B3000DC080915A
:1021C000B00080628093B0008FE78093B40004C0B9
:1021D00060E089E00E94340B8091B101882321F0F6
:1021E0000E94D7020E94D7028091B001882309F48F
:1021F0007FC188E10E944A026B017C0188E00E9455
:102200004A022B013C01C701B6010E9422166B0154
:102210007C018091250390912603BC0180E090E031
:102220000E94221620E030E040E853E40E94D416D9
:102230009B01AC01C701B6010E9451154B015C0125
:1022400060911F037091200380E090E00E942216AD
:1022500020E030E040E058E40E94D4166B017C019D
:10226000609123037091240380E090E00E94221685
:102270009B01AC01C501B4010E94D41620E030E0FE
:1022800040E85CE30E94D4169B01AC01C701B60193
:102290000E9452156DAB7EAB8FAB98AF60911D0362
:1022A00070911E0380E090E00E94221620E030E052
:1022B00040E857E40E94D4166B017C016091210331
:1022C0007091220380E090E00E9422169B01AC01F5
:1022D000C501B4010E94D41620E030E040E05CE388
:1022E0000E94D4169B01AC01C701B6010E94521591
:1022F00069AF7AAF8BAF9CAF6091270370912803D1
:1023000080E090E00E9422169B01AC01C501B4015F
:102310000E94D41620E030E040E054E30E94D4163E
:1023200020E030E04AEF54E40E9452156B017C013A
:10233000C301B2010E94221621966CAF7DAF8EAF11
:102340009FAF219720E030E04AEF54E4C701B60187
:102350000E94B61587FF79C0A5019401C501B4019B
:102360000E94D41620E030E040E050E30E94D416F2
:1023700069AB7AAB8BAB9CAB20E030E04AEF54E426
:10238000C701B6010E9451154B015C0120E030E00D
:1023900044E752E40E94D416A50194010E94D41689
:1023A00020E030E040E85DE30E94D4166DA77EA7F0
:1023B0008FA798ABA5019401C501B4010E945215E5
:1023C000A50194010E94D4164B015C0120E030E885
:1023D0004BEB54ECC701B6010E94B61587FF40C015
:1023E00020E030E84BEB54E4C701B6010E945215DF
:1023F0002B013C0120E030E040E751E40E94D4167C
:10240000A30192010E94D4169B01AC016DA57EA58B
:102410008FA598A90E9452156DA77EA78FA798AB8C
:1024200020E030E040E051E4C301B2010E94D41644
:10243000A30192010E94D4169B01AC01C501B40115
:102440000E9452154B015C010BC0812C912C540150
:102450008DA69EA6AFA6B8AA89AA9AAAABAABCAA1C
:1024600029A93AA94BA95CA9C701B6010E94511537
:1024700060932F0370933003809331039093320362
:10248000A501940169AD7AAD8BAD9CAD0E9451154B
:102490009B01AC0121966CAD7DAD8EAD9FAD2197BA
:1024A0000E94D41620E030E040E055E30E94D416AC
:1024B0006B017C012DA53EA54FA558A96DA97EA94C
:1024C0008FA998AD0E9451159B01AC01C701B601BF
:1024D0000E94511520E030E040E058E30E94D416FD
:1024E00060932B0370932C0380932D0390932E0302
:1024F000BE016F5F7F4F80E090E00E94E00889811D
:10250000882309F486C060E0CE0185960E940A0AFD
:10251000882339F0BE016F5F7F4FCE0185960E9400
:10252000350960E0CE0185960E940A0ACE018596A3
:102530000E944809182F882309F46BC080913D033D
:1025400090913E030E943604882309F462C0BE01C4
:102550006B5D7F4F80913D0390913E030E94090483
:102560004091380364E480913D0390913E030E94C2
:10257000C70380913A03882309F44BC019501330E4
:1025800048F4E12FF0E0EE0FFF1FEA5FFE4F60819D
:10259000718102C06EEE72E080913B03882399F155
:1025A0008091380381112FC08FB7F8948090AC01CF
:1025B0009090AD01A090AE01B090AF018FBF6B01C4
:1025C000EE24D7FCE094FE2CBE016F5F7F4FCE015E
:1025D00085960E94E008898181111BC02FB7F8946D
:1025E0008091AC019091AD01A091AE01B091AF018D
:1025F0002FBF8C199D09AE09BF0988159905AA0539
:10260000BB0510F306C0882777FD8095982F0E94A0
:10261000A00BBE016F5F7F4F89E593E00E941B0511
:1026200081E10E94F40ABC01882777FD8095982FEC
:1026300097FF03C00E94230203C04AE00E945F0785
:102640008FE990E00E94A0078EE00E94F40ABC018E
:10265000882777FD8095982F97FF03C00E9423025B
:1026600003C04AE00E945F0780E591E00E944D07A9
:1026700068EE73E080E090E00E94A00B0E94530C93
:10268000ABCD109338035FCB10921203109211035D
:1026900088EE93E0A0E0B0E08093130390931403DE
:1026A000A0931503B093160320E131E0309310039B
:1026B00020930F0310926C0210926B0280936D02B4
:1026C00090936E02A0936F02B093700280E291E04B
:1026D00090936A028093690285EC90E09093760271
:1026E0008093750284EC90E0909378028093770257
:1026F00080EC90E090937A028093790281EC90E0F4
:1027000090937C0280937B0282EC90E090937E0217
:1027100080937D0286EC90E09093800280937F020C
:10272000109282021092830210928402109285020B
:1027300080E680936B0388E391E090935A03809343
:10274000590389E390E3A0E0B0E080935C039093A9
:102750005D03A0935E03B0935F0310926103109238
:10276000600381E08093660380E090E0A0E8BFE32F
:102770008093670390936803A0936903B0936A03FF
:1027800060E082E00E94640BE5EDF1E0E491E0930B
:102790004B03E1ECF1E0E491F0E0EE0FFF1FEB54AE
:1027A000FE4F8591949190934D0380934C0310922A
:1027B00056031092580310925703E6E5F3E0129285
:1027C00083E0EE34F807D9F789E491E090934A0367
:1027D000809349038BE493E090933E0380933D0301
:1027E00010923C031092380389E08093390381E012
:1027F00080933A0380933B0380E391E09093370307
:102800008093360386E7809333038FE093E09093C1
:1028100035038093340308950895F8940C945F175A
:10282000CF93DF938230910510F482E090E0E09145
:102830007403F091750320E030E0C0E0D0E0309701
:1028400011F14081518148175907C0F048175907C5
:1028500061F482819381209719F09B838A832BC036
:10286000909375038093740326C02115310519F0E8
:102870004217530718F49A01BE01DF01EF010280ED
:10288000F381E02DDCCF2115310509F1281B390B2F
:102890002430310590F412968D919C911397611517
:1028A000710521F0FB019383828304C0909375032B
:1028B00080937403FD01329644C0FD01E20FF31FC3
:1028C00081939193225031092D933C933AC02091EA
:1028D000720330917303232B41F420910201309154
:1028E0000301309373032093720320910001309110
:1028F00001012115310541F42DB73EB74091040186
:1029000050910501241B350BE0917203F091730384
:10291000E217F307A0F42E1B3F0B2817390778F0B6
:10292000AC014E5F5F4F2417350748F04E0F5F1F15
:1029300050937303409372038193919302C0E0E03C
:10294000F0E0CF01DF91CF9108950F931F93CF93C4
:10295000DF93009709F48CC0FC0132971382128236
:1029600000917403109175030115110581F4208104
:102970003181820F931F20917203309173032817C6
:10298000390779F5F0937303E093720371C0D801AE
:1029900040E050E0AE17BF0750F412962D913C91E5
:1029A0001397AD012115310509F1D901F3CF9D012F
:1029B000DA013383228360817181860F971F82172A
:1029C000930769F4EC0128813981260F371F2E5FA8
:1029D0003F4F318320838A819B8193838283452B60
:1029E00029F4F0937503E093740342C01396FC93AB
:1029F000EE931297ED01499159919E01240F351FD5
:102A0000E217F30771F480819181840F951F02967C
:102A100011969C938E938281938113969C938E93AF
:102A20001297E0E0F0E0D80112968D919C911397F7
:102A3000009719F0F8018C01F6CF8D919C919801C7
:102A40002E5F3F4F820F931F2091720330917303CB
:102A50002817390769F4309729F4109275031092FA
:102A6000740302C0138212821093730300937203E3
:102A7000DF91CF911F910F91089581E090E0F8943C
:102A80000C945F17FB01DC014150504048F001906D
:102A90000D920020C9F701C01D9241505040E0F74F
:102AA00008955058BB27AA270ED044C135D130F025
:102AB0003AD120F031F49F3F11F41EF42AC10EF4F4
:102AC000E095E7FB20C1E92F46D180F3BA176207F2
:102AD00073078407950718F071F49EF55EC10EF434
:102AE000E0950B2EBA2FA02D0B01B90190010C011E
:102AF000CA01A0011124FF27591B99F0593F50F436
:102B0000503E68F11A16F040A22F232F342F44278D
:102B1000585FF3CF469537952795A795F040539585
:102B2000C9F77EF41F16BA0B620B730B840BBAF055
:102B30009150A1F0FF0FBB1F661F771F881FC2F7C0
:102B40000EC0BA0F621F731F841F48F487957795D4
:102B50006795B795F7959E3F08F0B3CF9395880F8B
:102B600008F09927EE0F979587950895A8D008F457
:102B700081E008950CD0DEC0D6D040F0CDD030F04A
:102B800021F45F3F19F0BFC0511108C1C2C0E3D0AA
:102B900098F39923C9F35523B1F3951B550BBB2724
:102BA000AA2762177307840738F09F5F5F4F220FD1
:102BB000331F441FAA1FA9F333D00E2E3AF0E0E8CA
:102BC00030D091505040E695001CCAF729D0FE2F16
:102BD00027D0660F771F881FBB1F261737074807A8
:102BE000AB07B0E809F0BB0B802DBF01FF2793585E
:102BF0005F4F2AF09E3F510568F085C0CFC05F3F10
:102C0000ECF3983EDCF3869577956795B795F79545
:102C10009F5FC9F7880F911D9695879597F908953D
:102C2000E1E0660F771F881FBB1F621773078407D9
:102C3000BA0720F0621B730B840BBA0BEE1F88F7E8
:102C4000E0950895E89409C097FB3EF4909580952F
:102C5000709561957F4F8F4F9F4F9923A9F0F92F62
:102C600096E9BB279395F695879577956795B795E0
:102C7000F111F8CFFAF4BB0F11F460FF1BC06F5FC6
:102C80007F4F8F4F9F4F16C0882311F096E911C0D8
:102C9000772321F09EE8872F762F05C0662371F0F9
:102CA00096E8862F70E060E02AF09A95660F771F0D
:102CB000881FDAF7880F9695879597F90895990FE9
:102CC0000008550FAA0BE0E8FEEF16161706E807F6
:102CD000F907C0F012161306E407F50798F0621B17
:102CE000730B840B950B39F40A2661F0232B242BEC
:102CF000252B21F408950A2609F4A140A6958FEF0B
:102D0000811D811D089597F99F6780E870E060E05C
:102D100008959FEF80EC089500240A941616170674
:102D200018060906089500240A94121613061406BC
:102D300005060895092E0394000C11F4882352F01F
:102D4000BB0F40F4BF2B11F460FF04C06F5F7F4FD7
:102D50008F4F9F4F089557FD9058440F551F59F0BE
:102D60005F3F71F04795880F97FB991F61F09F3F78
:102D700079F087950895121613061406551FF2CFA1
:102D80004695F1DF08C0161617061806991FF1CFF1
:102D900086957105610508940895E894BB27662718
:102DA0007727CB0197F908950BD0C4CFB5DF28F072
:102DB000BADF18F0952309F0A6CFABCF1124EECFE0
:102DC000CADFA0F3959FD1F3950F50E0551F629F86
:102DD000F001729FBB27F00DB11D639FAA27F00D74
:102DE000B11DAA1F649F6627B00DA11D661F829F9B
:102DF0002227B00DA11D621F739FB00DA11D621F80
:102E0000839FA00D611D221F749F3327A00D611D9C
:102E1000231F849F600D211D822F762F6A2F11247E
:102E20009F5750408AF0E1F088234AF0EE0FFF1FD1
:102E3000BB1F661F771F881F91505040A9F79E3F08
:102E4000510570F060CFAACF5F3FECF3983EDCF302
:102E5000869577956795B795F795E7959F5FC1F745
:102E6000FE2B880F911D9695879597F90895A1E2FD
:102E70001A2EAA1BBB1BFD010DC0AA1FBB1FEE1FF4
:102E8000FF1FA217B307E407F50720F0A21BB30B3F
:102E9000E40BF50B661F771F881F991F1A9469F7BB
:102EA00060957095809590959B01AC01BD01CF0117
:102EB0000895EE0FFF1F0590F491E02D099411E0A5
:102EC000CFEFD0E004C0FE010E9459172196C03018
:082ED000D107C9F7F894FFCF08
:102ED8000000760320005E00BC00770100000000BF
:102EE800AB016E0141015A014B014A01000000008B
:102EF800180D3D0A470C250C390C5F0D0000000029
:102F08006C04D40100000000240C9A0A8D0A1B05E9
:102F1800D60100000000000000008D0A8E0A8E0A0B
:102F28000D0A004F6F6F70732C206E6F204144584C
:102F38004C333435206465746563746564202E2EC3
:102F48002E20436865636B20796F757220776972EC
:102F5800696E6721004572726F7220636F6E6E65CD
:102F68006374696E6720746F204D53353630372E81
:0C2F78002E2E004144584C33343500002C
:00000001FF
