:100000000C94DD030C940E040C940E040C940E045A
:100010000C940E040C940E040C940E040C940E0418
:100020000C940E040C940E040C9489170C9466170F
:100030000C940E040C940E040C940E040C940E04F8
:100040000C940E040C940E040C940E040C940E04E8
:100050000C940E040C940E040C940E040C941B17B8
:100060000C940E040C9488150C945E150C940E04DC
:100070000C940E040C940E040C940E040C940E04B8
:100080000C940E040C940E040C940E040C940E04A8
:100090000C94E7150C94BD150C940E040C94A20A54
:1000A0000C940E040C940E040C940E040C940E0488
:1000B0000C940E040C940E040C940E040C940E0478
:1000C0000C940E040C940E040C940E040C940E0468
:1000D0000C940E040C940E040C940E040C940E0458
:1000E0000C940E043D1F431F491F551F611FF51F30
:1000F0006D1F761F7F1F8B1F971FA31FB41FC01F6D
:10010000F51FCC1FD81FE41FA929BB29BE29C5296B
:10011000CC29FA29012A0E2A1B2A272A272A272A2C
:10012000272A272A272A272A272A272A272A272A47
:10013000272A272A272A272A272A272A272A272A37
:10014000272A272A272A272AA929B629BB29BE29EF
:10015000C529CC29D329E029ED294B164E163D1689
:10016000411645168516521656165C16601664160C
:100170006A166E167216851678167C1680160C9402
:10018000971F0C9446150C9414130C943D160C9464
:10019000431F0C945C150C94761F0C948C140C94D7
:1001A00052160C94C01F0C94E41F0C94CC1F0C949A
:1001B000F5140C94D3290C94D81F0C948B1F0C9419
:1001C000491F0C947C160C94E0290C946A160C942C
:1001D0001B2A0C945C160C9445160C94AB120C94D0
:1001E000BB120C94C5290C945E130C94CC290C946E
:1001F0003D130C940E2A0C9445150C947F1F0C94FF
:10020000BB290C940C2C0C94AC120C9465170C9418
:100210006D1F0C94551F0C94192F0C944B160C94B5
:10022000B6290C942B040C9464160C94D3140C94DF
:10023000012A0C9485160C9450130C94A9290C9443
:10024000FA290C94B41F0C9472160C944E160C944C
:1002500080160C9478160C9414090C94A31F0C941B
:1002600027040C9460160C94272A0C942A040C94EE
:1002700041160C94ED290C94CF120C94F51F0C949C
:1002800056160C943D1F0C94D7120C946E160C94B9
:10029000BE290C94611F204475726174696F6E3AB7
:1002A0002000205371756172653A200046726571B5
:1002B0003A20004572726F7220636F6E6E656374D0
:1002C000696E6720746F204D53353630372E2E2ED1
:1002D000004F6F6F70732C206E6F2054534C32356B
:1002E0003631206465746563746564202E2E2E207B
:1002F000436865636B20796F757220776972696EE8
:1003000067206F722049324320414444522100004B
:10031000002100240027002A002D003000330001B6
:10032000010000040107010A01446F75626C652D2C
:10033000636865636B20776972696E672E0046613A
:10034000696C656420746F20636F6D6D756E696391
:100350006174652077697468204C534D394453317A
:100360002E00544C53323536313A20002020534869
:100370005433313A20004C534D394453313A200024
:10038000204D53353630373A20004453313842320D
:10039000303A20002D2D2D2D2D2D2D2D2D2D2D2DB7
:1003A0002D000A53656E736F727320666F756E64ED
:1003B0000000000A0B02090C0D0E080703040100DF
:1003C000000000000000000000000000000000002D
:1003D00000000000000000000000000000121110EA
:1003E000000000000000000000000000000000000D
:1003F00000000000000000517569636B2D7374618B
:100400007274696E67206675656C206761756765D3
:100410002E2E2E00436F6E6669677572696E6720B7
:100420006675656C2067617567652E2E2E00436FBB
:100430006E6669677572696E672053485433312E52
:100440002E2E00436F6E6669677572696E67204C69
:10045000534D394453312E2E2E00436F6E6669671B
:100460007572696E672054534C323536312E2E2EFC
:1004700000436F6E6669677572696E67204D53350C
:100480003630372E2E2E00436F6E6669677572699F
:100490006E672044533138423230732E2E2E004383
:1004A0006F6E6669677572696E6720476569676513
:1004B00072732E2E2E00436F6E6669677572696EB9
:1004C00067204750532E2E2E004861726477617268
:1004D000652053657269616C20627566666572207D
:1004E00073697A653A200052657374617274696E3B
:1004F000672048414220436F6E74726F6C6C657266
:1005000000207365636F6E64730A00557020746910
:100510006D653A20002F002F004765696765723AC4
:100520002000435243204552524F523A2000206D42
:1005300000206D2C2056444F503A200020736174E7
:10054000732C2048444F503A2000206465672C20CB
:1005500000206D70732C2000206D2C20002C2000BA
:100560002C20002C20002C20002046200044533159
:10057000384232303A2000204620002050612000CE
:100580002F002F00473A002F002F00413A002F0084
:100590002F004D3A002F002F002F004C3A005858E2
:1005A0000020462000585800252000250020562015
:1005B00000566F6C746167653A2000005EBCE261B2
:1005C0003FDD83C29C7E20A3FD1F419DC3217FFC94
:1005D000A2401E5F01E3BD3E6082DC237D9FC142DD
:1005E0001CFEA0E1BF5D0380DE3C62BEE0025CDF7A
:1005F00081633D7C22C09E1D43A1FF4618FAA427BB
:10060000799BC584DA3866E5BB5907DB856739BA5B
:10061000E406581947A5FB7826C49A653BD9870498
:100620005AB8E6A7F91B45C6987A24F8A6441A9941
:10063000C7257B3A6486D85B05E7B98CD2306EED6E
:10064000B3510F4E10F2AC2F7193CD114FADF3702B
:100650002ECC92D38D6F31B2EC0E50AFF1134DCE44
:1006600090722C6D33D18F0C52B0EE326C8ED05311
:100670000DEFB1F0AE4C1291CF2D73CA947628AB2A
:10068000F517490856B4EA6937D58B5709EBB536E3
:10069000688AD495CB2977F4AA4816E9B7550B8810
:1006A000D6346A2B7597C94A14F6A8742AC89615C9
:1006B0004BA9F7B6E80A54D7896B35000020002310
:1006C00000260029002C002F00320000010000034A
:1006D00001060109010505050507050808080802C6
:1006E0000202020A0A0808040404040101010101CB
:1006F0000101010303030303030303040707070CBA
:100700000C0C0C0C0C0C0C0202020206060606066F
:100710000606060B0B0B0B0B0B0B0B01021020201C
:100720000808102040102040800201020108040245
:1007300001010204081020408080402010080402BB
:100740000180040201804020100804020108040214
:10075000010102040810204080010204081020401A
:100760008000002200250028002B002E00310034DC
:100770000002010000050108010B014E414E494EE7
:10078000495459494E46CDCCCC3D0AD7233C17B7E6
:10079000D13877CC2B329595E6241FB14F0A000053
:1007A00020410000C84200401C4620BCBE4CCA1B71
:1007B0000E5AAEC59D740C2C192F11241FBECFEFFD
:1007C000D1E2DEBFCDBF00E00CBF18E0A6E8B2E08A
:1007D00001C01D92A334B107E1F712E0A0E0B2E03E
:1007E000E4E3FAE600E00BBF02C007900D92A638E2
:1007F000B107D9F713E0CCEDD3E000E006C02197B4
:100800000109802FFE010E940035CB3DD10780E019
:100810000807A9F70E94D3170C94BA300C94000073
:10082000FC01AC014E5F5F4F8FEF91E32191822776
:1008300028E030E087FF03C0880F892701C0880FB8
:1008400021503109B9F7E417F50781F70895FC0144
:100850006583089508950F931F93CF93DF938C01C1
:10086000EB0188E2FB0111928A95E9F74BE050E039
:1008700066E672E0CE010E946A331B8681E090E05A
:10088000A0E0B0E08C879D87AE87BF87F8018285A6
:100890009385A485B585888B998BAA8BBB8B85E0C6
:1008A00090E0A0E0B0E08C8B9D8BAE8BBF8B1CA248
:1008B0001DA21EA21FA280E090EDA4E8B6E4888FDE
:1008C000998FAA8FBB8F1C8E1D8E1E8E1F8E80E06F
:1008D00090E0A0E8BFE388A399A3AAA3BBA3DF91FC
:1008E000CF911F910F9108951F93CF93DF93EC0148
:1008F000162F6B8184E497E00E944B14612F84E4EF
:1009000097E00E9414130E94DD106B81772767FD2A
:10091000709542E050E084E497E00E94551484E42E
:1009200097E00E94BB12EC0184E497E00E94BB12A6
:1009300020E030E0382FC9018C2B9D2BDF91CF9127
:100940001F9108951F93CF93DF931F92CDB7DEB70A
:10095000162FFC01638184E497E029830E944B14E5
:10096000612F84E497E00E9414132981622F84E4AC
:1009700097E00E9414130F90DF91CF911F910C9478
:10098000DD1020E030E0A90160E80C94A204EF92B1
:10099000FF920F931F93CF93DF93EC017B018A01AA
:1009A00023E030E040E050E060E80E94A2048E8145
:1009B0009F81009739F0019751F468E770E080E07B
:1009C00090E009C06FE070E080E090E004C062EC6D
:1009D00071E080E090E00E94D5166CEACE010E94A2
:1009E0007404F701918380836EEACE010E9474043F
:1009F000F80191838083CE01DF91CF911F910F91F8
:100A0000FF90EF900C94C104CF92DF92EF92FF928F
:100A1000CF93C82F80E48C0F0E94530C8C2F8F70C3
:100A20008430C1F048F4882381F08230F1F463E02F
:100A300070E080E090E017C0863089F08830A9F43B
:100A40006AE070E080E090E00EC08BE09EE00197ED
:100A5000F1F70BC064E070E080E090E004C066E075
:100A600070E080E090E00E94D51680E00E94530C78
:100A700060916807772767FD709543E050E08091AB
:100A8000690790916A070E945514809169079091B7
:100A90006A07DC01ED91FC910680F781E02D199544
:100AA0006C01EE24D7FCE094FE2C7601DD24CC24EE
:100AB0008091690790916A07DC01ED91FC910680B5
:100AC000F781E02D1995AA2797FDA095BA2FBA2F87
:100AD000A92F982F8827C80ED91EEA1EFB1E8091C9
:100AE000690790916A07DC01ED91FC910680F7811E
:100AF000E02D1995AA2797FDA095BA2FC80ED91EEB
:100B0000EA1EFB1E61E08091690790916A070E94CE
:100B1000D113C701B601CF91FF90EF90DF90CF9036
:100B20000895DF92EF92FF920F931F93CF93DF937D
:100B300000D000D0CDB7DEB780E094E20E94AE0EC8
:100B400064EF71E080E090E00E94D51666E080914D
:100B50003B070E94A80C8091D20290E02091D30222
:100B6000821B9109069709F05FC0CE0101967C01B6
:100B70008C0186E0D82EDE0C84E497E00E94BB1244
:100B8000F80181938F01DE12F7CFD9800A811B8192
:100B9000C7010E941004181347C0FC801D81EE801D
:100BA000CE0104960E941004E8123EC0602F70E04F
:100BB0007D2980E090E00E94F63020E030E04FE2B6
:100BC00053E40E94573120E03FEF4FE757E40E9483
:100BD000DE3320E030E044E352E40E947933609356
:100BE0004007709341078093420790934307612F1A
:100BF00070E07F2980E090E00E94F63020E030E055
:100C000048EC52E40E94573120E03FEF4FE757E4B1
:100C10000E94DE3360933C0770933D0780933E074C
:100C200090933F0781E001C080E026960FB6F894CC
:100C3000DEBF0FBECDBFDF91CF911F910F91FF900F
:100C4000EF90DF900895CF93DF93EC018A859B8529
:100C5000AC85BD858E839F83A887B9870E940F17B7
:100C60006A837B838C839D8381E089838883DF9182
:100C7000CF9108952F923F924F925F926F927F9201
:100C80008F929F92AF92BF92CF92DF92EF92FF929C
:100C90000F931F93CF93DF93D82FC92F8B010E94FF
:100CA000933024E630E040E050E00E94BF34490138
:100CB0005A019B01AC0160E876E988E990E00E9466
:100CC00087346B017C01F80191828082ED2FFC2F2B
:100CD0002191822F992787FD9095C0970A97C0F39D
:100CE0002E3239F51F0180E8882E86E9982E88E992
:100CF000A82EB12C9AE0492E512C612C712CF101B7
:100D0000C1911F01DD27C7FDD095E097CA30D105FD
:100D100080F4C501B401A30192010E94BF344901CE
:100D20005A01DE010E947F34C60ED71EE81EF91E4E
:100D3000E6CFA5E0B0E0A70196010E940E326F5FFA
:100D40007F4F8F4F9F4F23E030E040E050E00E9404
:100D5000BF34F80122833383448355831682DF91A5
:100D6000CF911F910F91FF90EF90DF90CF90BF90A8
:100D7000AF909F908F907F906F905F904F903F903B
:100D80002F900895FF920F931F93CF93DF93EC0161
:100D9000FF24F39488818D3211F0F12C01C021964B
:100DA000CE010E9493309B01AC01A4E6B0E00E940A
:100DB0000E32FE014991242F332727FD3095205311
:100DC00031092A303105A8F34E3241F5218133270C
:100DD00027FD3095205331092A303105F8F44AE0D7
:100DE000429F8001439F100D1124222717FD20955B
:100DF000322F600F711F821F931F0281112707FD81
:100E00001095005311090A30110540F4222717FDEF
:100E10002095322F600F711F821F931FFF2039F022
:100E200090958095709561957F4F8F4F9F4FDF9183
:100E3000CF911F910F91FF9008958EBD00000DB4CA
:100E400007FEFDCF8EB508958F929F92AF92BF920D
:100E5000CF92DF92EF92FF92FA01DC0116962D916C
:100E60003C9117972115310549F02130310519F4CE
:100E700048E850E905C048EE5DEF02C044E253E1A6
:100E80004617570708F4D0C04E175F0708F4CCC0C8
:100E90002115310581F02130310539F437EE832EEB
:100EA0003FE0932EA12CB12C0CC0812C24E0922E7B
:100EB000A12CB12C06C0B7E18B2EB5E79B2EA12C3F
:100EC000B12CDC0118968D919C911997892B39F4DE
:100ED000A4E0880C991CAA1CBB1CAA95D1F7DB01C5
:100EE000A50194010E940E326B017C016AE0F69428
:100EF000E794D794C7946A95D1F7DF010E940E3228
:100F00004B015C017AE0B694A794979487947A9504
:100F1000D1F7C114D104E104F10471F0C501B401A9
:100F20004AE0660F771F881F991F4A95D1F7A701DE
:100F300096010E94BF3403C020E030E0A901DA012D
:100F4000C9010196A11DB11DB695A79597958795E5
:100F500081349105A105B10530F181389105A105D4
:100F6000B10530F1813C9105A105B10530F1813029
:100F700021E09207A105B10528F1893331E09307FB
:100F8000A105B10520F18B3941E09407A105B10518
:100F900018F18B399240A105B10518F1E0E0F0E0BD
:100FA000A0E0B0E022C0EEEBF1E0A2EFB1E01DC0A6
:100FB000E1EDF2E0A4E1B2E018C0EBE7F3E0AFE36B
:100FC000B2E013C0EEEFF3E0A0E7B2E00EC0ECEF4A
:100FD000F1E0AFE6B1E009C0EBEFF0E0A2EDB0E088
:100FE00004C0E2E1F0E0A8E1B0E0A70196010E94B0
:100FF0000E326B017C01A0E2DA0EE11CF11CDF0174
:10100000A50194010E940E32A7019601261B370B01
:10101000480B590BCA01B9012EE096958795779533
:1010200067952A95D1F704C060E070E081E090E018
:10103000FF90EF90DF90CF90BF90AF909F908F90F8
:101040000895CF93DF93EC0184E497E00E9461144C
:101050006B8184E497E00E944B146AE084E497E09B
:101060000E9414130E94DD106B81772767FD709535
:1010700041E050E084E497E00E94551484E497E056
:101080000E94BB128A7089F081E08C836E817F811F
:10109000CE010E94740968857985CE010E945908A5
:1010A000CE010E94C10481E001C080E0DF91CF91B8
:1010B00008950F931F93CF93DF93EC018B018C81E5
:1010C000811103C0CE010E94210823E030E040E0FE
:1010D00050E060E8CE010E94A2042E813F81202BC7
:1010E000312B442737FD4095542F61E8CE010E94F3
:1010F000A20419870887CE01DF91CF911F910F912C
:101100000C94C1048F929F92AF92BF92CF92DF92C4
:10111000EF92FF920F931F93CF93DF9300D01F9214
:101120001F92CDB7DEB78C016B017A01FC0184817F
:10113000811103C0C8010E942108F8018581811135
:1011400006C0A701B601C8010E94C7045BC020E029
:10115000F80186819781009799F0019741F458EC46
:10116000852E912C60EAA62E6CE8B62E10C034EFC6
:10117000832E9924939448E1A42E46EFB42E07C001
:1011800084E6882E912C92EFA92E92E1B92EAE0121
:101190004F5F5F4FBE016D5F7F4FC8012D830E947F
:1011A000C7048B819C812D81211124C0881599054C
:1011B00040F4F80120853185232BE1F460E170E0F3
:1011C0000BC0A816B906B0F4F8012085318520318E
:1011D000310581F460E070E0C8010E945908AE0159
:1011E0004F5F5F4FBE016D5F7F4FC8010E94C70414
:1011F00021E0AECFF6019183808389819A81F70146
:10120000918380830F900F900F900F900F90DF913C
:10121000CF911F910F91FF90EF90DF90CF90BF90F3
:10122000AF909F908F900895EF92FF920F931F932E
:10123000CF93DF9300D01F92CDB7DEB77C018B0137
:1012400084E2FB0111928A95E9F784E290E0A0E044
:10125000B0E0FB0180839183A283B383F701828591
:101260009385A485B585FB0184839583A683B78385
:1012700085E090E0A0E0B0E080879187A287B38707
:101280000E940F17F801608B718B828B938BAE01DC
:101290004F5F5F4FBE016D5F7F4FC7010E948208A5
:1012A00049815A816B817C81C7010E9424070E9479
:1012B000F630F801648B758B868B978B11E020E0FC
:1012C00030E040E857E40E94F230811101C010E0A4
:1012D000812F0F900F900F900F90DF91CF911F9162
:1012E0000F91FF90EF9008950F931F93CF93DF938B
:1012F000EC018B018C81811103C0CE010E94210879
:1013000023E030E040E050E060E8CE010E94A2041B
:1013100028853985202B312B442737FD4095542FC4
:1013200061E8CE010E94A2041F830E83CE01DF91EB
:10133000CF911F910F910C94C104DC01E0E061504A
:1013400038F08D91E827F0E0E554FA4FE491F7CFBB
:101350008E2F0895FC0190810180F281E02DF89498
:101360008181892B81832281892F80952823228363
:10137000A7E0B0E01197F1F7218182238183A3E2F6
:10138000B0E01197F1F780817894EFECF0E03197BD
:10139000F1F7982381E009F480E00895FC01908141
:1013A0000180F281E02D892F809560FF12C0F894B2
:1013B0002281822382838181892B8183A3E2B0E011
:1013C0001197F1F78281982B9283789487ED90E0C2
:1013D00011C0F8942281822382838181892B8183A9
:1013E000AFEFB0E01197F1F78281982B9283789458
:1013F0008FE090E00197F1F70895CF92DF92EF929E
:10140000FF920F931F93CF93DF931F92CDB7DEB759
:101410006C01E62E08E010E0FF24F39461E08F2DCC
:101420008E2109F460E0C60149830E94CE09FF0CB9
:101430000150110949810115110581F7411115C0AC
:10144000F894D6011196ED91FC91129791818C91AF
:101450008095892381831196ED91FC911297928159
:101460008C9180958923828378940F90DF91CF911E
:101470001F910F91FF90EF90DF90CF900895CF9242
:10148000DF92EF92FF920F931F93CF93DF931F9200
:10149000CDB7DEB78C01F62E40E065E579830E947A
:1014A000FD09CF2C7981D72E760188E0E80EF11C5A
:1014B000F60161916F0140E0C8010E94FD09CE1460
:1014C000DF04B1F70F90DF91CF911F910F91FF9043
:1014D000EF90DF90CF900895FC0190810180F28120
:1014E000E02DF8948181292F20958223818378949F
:1014F0008DE743E050E0815021F1DA011197F1F7D7
:1015000030813923C1F3F8948281822382838181DF
:10151000892B81837894ABE7B7E01197F1F7F894C2
:10152000818128232183A3E1B1E01197F1F7808124
:10153000982381E009F080E07894E3E6F6E03197C3
:10154000F1F708951F920F920FB60F9211240BB668
:101550000F922F933F934F935F936F937F938F934C
:101560009F93AF93BF93EF93FF938091B900887FD0
:10157000803609F49CC068F5883209F45BC090F4A9
:10158000803109F454C038F4882309F4F6C0883057
:1015900009F44DC0F6C0883109F44CC0803209F41A
:1015A0005DC0EFC0803409F468C048F4803309F4AA
:1015B00055C0883309F0E5C080931803D8C0803542
:1015C00009F44FC0883509F45DC0883409F0D9C0EA
:1015D000D6C0883909F4C7C0A8F4883709F467C0B1
:1015E00038F4883609F463C0803709F460C0C9C094
:1015F000883809F4B8C0803909F45FC0803809F030
:10160000C0C05BC0803B09F486C038F4803A09F45E
:1016100066C0883A09F47FC0B4C0803C09F4A7C012
:10162000883C09F4A4C0883B09F48AC0AAC0809110
:10163000150310C09091170380911603981770F549
:10164000E091170381E08E0F80931703F0E0EC50D8
:10165000FD4F80818093BB0085EC86C0809318038A
:101660008EC0E091170381E08E0F80931703809165
:10167000BB00F0E0EC50FD4F808390911703809108
:1016800016036EC0E091170381E08E0F809317035D
:101690008091BB00F0E0EC50FD4F808380911903F6
:1016A00081116DC081E08093140384EA61C083E0FE
:1016B00080931A031092D102CFCF8091D102803251
:1016C00008F051C0E091D10281E08E0F8093D102E9
:1016D0008091BB00F0E0EF54FD4F8083BDCF85ECDF
:1016E0008093BC0010921A038091D102803230F4B2
:1016F000E091D102F0E0EF54FD4F10826091D102F1
:1017000070E0E091AF02F091B00281EB92E01995A8
:101710001092D10236C084E080931A031092AE0278
:101720001092A702E091AC02F091AD021995809160
:10173000A702811105C081E08093A7021092870261
:10174000E091AE0281E08E0F8093AE02F0E0E957A7
:10175000FD4F80818093BB009091AE028091A702E3
:10176000981708F479CF85E88093BC000AC085EC0F
:101770008093BC0010921A0304C0109218030E94B8
:101780009A13FF91EF91BF91AF919F918F917F91AC
:101790006F915F914F913F912F910F900BBE0F90E2
:1017A0000FBE0F901F901895882349F01092A80241
:1017B0001092A9021092AA021092AB0213C080915B
:1017C000A8029091A902A091AA02B091AB02019641
:1017D000A11DB11D8093A8029093A902A093AA0213
:1017E000B093AB028091A8029091A902A091AA02A5
:1017F000B091AB02803A9648A140B10560F01092DA
:10180000A8021092A9021092AA021092AB020E94A2
:10181000AD1381E0089580E00895CF92DF92EF92BA
:10182000FF921F93CF93DF93182F6A01C22F6F731C
:10183000D62FD06880911D07181304C0223010F0F5
:10184000D62FD06C60E0812F0E941C168D2F0E9435
:101850001D077601D0E0C7018C199D098C179D07E3
:101860003CF480E00E941D07F70181937F01F3CFD4
:1018700061E0812FDF91CF911F91FF90EF90DF907A
:10188000CF900C941C168EE692E00C949912CF9394
:10189000DF930E94BC10EC010E94430C8C0F9D1F33
:1018A000DF91CF9108951F93CF93DF93182FC0E559
:1018B000D7E0688D898D9A8D0E944B14898D9A8D01
:1018C000DC01ED91FC910190F081E02D612F1995E3
:1018D00061E0898D9A8DDF91CF911F910C94D11386
:1018E0001F93CF93DF93182FD62F8091AE068130B0
:1018F000A9F460911D0784E497E00E944B14612FC6
:1019000084E497E00E9414136D2F84E497E00E9412
:101910001413DF91CF911F910C94DD10811114C02D
:10192000C0911D0760E08C2F0E941C16812F8F73C1
:101930000E941D078D2F0E941D0761E08C2FDF91F3
:10194000CF911F910C941C16DF91CF911F91089598
:10195000613208F060E20E94E2101092D30280939C
:10196000D20208950F931F93CF93DF93D82FC62FE2
:101970008A01682F84E497E00E944B146C2F606802
:1019800084E497E00E94141361E084E497E00E94ED
:10199000D11366E08D2F0E94A80CC8EED3E0809191
:1019A000D20290E02091D302821B910906975CF449
:1019B000219738F061E070E080E090E00E94D51659
:1019C000EECF8FEF15C0CD2BE1F3E8010A5F1F4F7B
:1019D0008091D2029091D302C017D10741F08917AC
:1019E000D9F384E497E00E94BB128993F1CF86E09B
:1019F000DF91CF911F910F910895AB019091AE06A9
:101A0000913029F4682F80911E070C94B20C91112B
:101A100006C026E0682F80911E070C940D0C0895D7
:101A2000CF93DF93C82FD62F682F84E497E00E94CE
:101A30004B146D2F84E497E00E94141361E084E45A
:101A400097E00E94D11361E08C2F0E94A80CC8EE91
:101A5000D3E08091D20290E02091D302821B9109C1
:101A6000181619065CF0219738F061E070E080E00C
:101A700090E00E94D516EDCF8FEF06C0CD2BE1F39D
:101A800084E497E00E94BB12DF91CF910895CF9339
:101A9000DF9300D000D0CDB7DEB78091AE068130A5
:101AA00049F4AE014F5F5F4F68E280911D070E94CD
:101AB000B20C0BC0811109C026E0AE014F5F5F4F31
:101AC00068E280911D070E940D0C8A8190E0982F9A
:101AD00088272981822B9093E0068093DF068C81F2
:101AE00090E0982F88272B81822B9093E206809399
:101AF000E1068E8190E0982F88272D81822B90938C
:101B0000E4068093E30626960FB6F894DEBF0FBE78
:101B1000CDBFDF91CF910895CF93DF931F92CDB7C3
:101B2000DEB7682F8091AE06813029F480911D07C1
:101B30000E94100D0CC081110AC021E0AE014F5F60
:101B40005F4F80911D070E940D0C898100C00F908E
:101B5000DF91CF9108951F93CF93DF93182FD62F46
:101B60008091AE068130A9F460911E0784E497E06D
:101B70000E944B14612F84E497E00E9414136D2F90
:101B800084E497E00E941413DF91CF911F910C948D
:101B9000DD10811114C0C0911E0760E08C2F0E94DF
:101BA0001C16812F8F730E941D078D2F0E941D0709
:101BB00061E08C2FDF91CF911F910C941C16DF9167
:101BC000CF911F910895CF93DF931F92CDB7DEB7CA
:101BD000682F8091AE06813029F480911E070E9403
:101BE000100D0CC081110AC021E0AE014F5F5F4FA4
:101BF00080911E070E940D0C898100C00F90DF911B
:101C0000CF910895CF93DF9300D000D0CDB7DEB74A
:101C1000BE016F5F7F4F88E20E94FD0C8A8190E0D9
:101C2000982F88272981AC01422B5093DA064093E4
:101C3000D9062C8130E0322F22278B81282B30933C
:101C4000DC062093DB068E8190E0982F88276D813B
:101C5000862B9093DE068093DD0660912B0766232A
:101C6000F1F06091110770911207461B570B5093CA
:101C7000DA064093D9064091130750911407241BAC
:101C8000350B3093DC062093DB062091150730914D
:101C90001607821B930B9093DE068093DD06269633
:101CA0000FB6F894DEBF0FBECDBFDF91CF91089580
:101CB000CF93DF9300D000D0CDB7DEB7BE016F5F0A
:101CC0007F4F88E10E94FD0C8A8190E0982F882741
:101CD0002981AC01422B5093D4064093D3062C812A
:101CE00030E0322F22278B81282B3093D606209389
:101CF000D5068E8190E0982F88276D81862B909352
:101D0000D8068093D70660912B076623F1F0609187
:101D10000B0770910C07461B570B5093D40640934A
:101D2000D30640910D0750910E07241B350B3093BD
:101D3000D6062093D50620910F0730911007821BFD
:101D4000930B9093D8068093D70626960FB6F894F7
:101D5000DEBF0FBECDBFDF91CF910895CF93DF934C
:101D6000EC0160913B0784E497E00E944B146D2FD7
:101D700084E497E00E9414136C2F84E497E00E949F
:101D80001413DF91CF910C94DD10FC01A089B1896F
:101D900082E08C93A485B5851C92A685B7858FECCF
:101DA0008C93108EA489B58986E08C93A289B3891F
:101DB0008C9180618C93A289B3898C9188608C937B
:101DC000A289B3898C9180688C930288F389E02D75
:101DD00080818F7D808308958F929F92AF92BF9272
:101DE0000F931F93CF93DF93CDB7DEB7A1970FB6B5
:101DF000F894DEBF0FBECDBF19A2423008F44AE00E
:101E00008E010F5D1F4F842E912CA12CB12CA501AA
:101E100094010E94BF34E62FB901CA010150110993
:101E2000EA3014F4E05D01C0E95CD801EC93232BA7
:101E3000242B252B61F7C8010E949912A1960FB699
:101E4000F894DEBF0FBECDBFDF91CF911F910F91F0
:101E5000BF90AF909F908F900895CF92DF92EF92B6
:101E6000FF92CF93DF936B017C01E0911B03F09114
:101E70001C030190F081E02D6DE28BE193E0199558
:101E8000EC0166277727CB016C197D098E099F0924
:101E90004AE00E94EC0E8C0F9D1FDF91CF91FF90C6
:101EA000EF90DF90CF9008954F925F926F927F9264
:101EB0008F929F92AF92BF92CF92DF92EF92FF925A
:101EC0006B017C01B42E9B01AC010E947B34882302
:101ED00019F081E792E027C026013701E89477F8EE
:101EE0002FEF3FEF4FE75FE7C301B2010E947B3462
:101EF00081110DC02FEF3FEF4FE75FE7C301B20144
:101F00000E94F23018161CF485E792E00CC02FEF07
:101F10003FEF4FE75FE4C701B6010E947734181620
:101F200084F489E792E0FF90EF90DF90CF90BF902C
:101F3000AF909F908F907F906F905F904F900C9498
:101F400099122FEF3FEF4FE75FECC701B6010E94F8
:101F5000F23087FDE6CF20E030E0A901C701B601ED
:101F60000E94F23087FF11C0E0911B03F0911C0327
:101F70000190F081E02D6DE28BE193E019954C0129
:101F8000F7FAF094F7F8F09402C0812C912CA12C70
:101F900060E070E080E09FE3AB1441F020E030E0CF
:101FA00040E251E40E94DE33A394F6CF9B01AC01E2
:101FB000C701B6010E947A332B013C010E944B34C9
:101FC0006B017C010E94F6309B01AC01C301B201A0
:101FD0000E9479332B013C014AE0C701B6010E94FF
:101FE000EC0E7C01E80CF91CBB2031F08DE792E08F
:101FF0000E949912E80EF91EDB2CDD2069F120E029
:1020000030E040E251E4C301B2010E9457312B019C
:102010003C010E9446344B01AA2497FCA094BA2CA0
:10202000B7FE05C0C501B4010E942D0F05C04AE0EE
:10203000C501B4010E94EC0EE80EF91EC501B40101
:102040000E94F8309B01AC01C301B2010E947933B8
:102050002B013C01DA94D1CFC701FF90EF90DF90C4
:10206000CF90BF90AF909F908F907F906F905F9038
:102070004F900895CF93DF93BC01882777FD80951B
:10208000982F97FF03C00E942D0F03C04AE00E94C3
:10209000EC0EEC010E94430C8C0F9D1FDF91CF9141
:1020A00008950C94540FCF93DF9342E00E94540F95
:1020B000EC010E94430C8C0F9D1FDF91CF9108957E
:1020C00080917B00877F80937B0080E480937C00FD
:1020D00080917A00806480937A0080917A0086FDF6
:1020E000FCCF809178002091790090E0922B0895A8
:1020F0000F931F93CF93DF93C82F66E384E497E099
:102100000E944B146C2F84E497E00E94141360E04B
:1021100084E497E00E94D11342E050E066E370E06F
:1021200084E497E00E945514C9EED3E02091D202D6
:1021300030E08091D302281B3109223031054CF464
:10214000219739F061E070E080E090E00E94D516C0
:10215000EDCF84E497E00E94BB12C82F84E497E09F
:102160000E94BB121C2F00E09801282BC901DF91AF
:10217000CF911F910F9108950F931F93CF93DF93EA
:102180008C01C0E0D0E0F801EC0FFD1F64916623E4
:1021900071F0E0911B03F0911C030190F081E02DA0
:1021A0008BE193E01995892B11F02196ECCFCE01AC
:1021B000DF91CF911F910F91089561E084E497E042
:1021C0000C94D113CF93DF93D82FC62F81E00E94B8
:1021D000D40B80911A03882329F080E00E94D40B4D
:1021E0008823B9F381E080931A03809319039FEF4A
:1021F00090931803109217039C0F909316038093EB
:10220000150380911503DD0FD82BD0931503809112
:102210001403813061F410921403809115038093AC
:10222000BB008091BC0083FDF8CF85EC01C085EE3A
:102230008093BC0081E00E94D40B80911A0381300E
:1022400029F480E00E94D40B8823B9F3809117030E
:102250008C1710F4C0911703A4EFB2E024ED32E024
:10226000F9018E2F821B8C1718F48D918193F9CF71
:102270008C2FDF91CF910895AF92BF92CF92DF92D2
:10228000EF92FF920F931F93CF93DF93EC018B019B
:1022900080917007909171070E946C0A8823A1F1C8
:1022A000BE0180917007909171070E943F0A40E043
:1022B0006EEB80917007909171070E94FD09E80113
:1022C000680189E0C80ED11CA0907007B09071071A
:1022D00088E0E82EF12C01E010E0C5010E94AA0977
:1022E0008111102B000F81E0E81AF108B1F7199362
:1022F000CC15DD0549F780917007909171070E9418
:102300006C0A91E0813009F090E0892FDF91CF9144
:102310001F910F91FF90EF90DF90CF90BF90AF9003
:102320000895CF93DF93EB010E943C11882339F08D
:1023300068E0CE010E949D0991E02885821390E01B
:10234000892FDF91CF910895CF93DF93CDB7DEB77B
:1023500029970FB6F894DEBF0FBECDBFFC012081D8
:102360002031D1F0BE016F5F7F4F0E949111882311
:1023700089F08D818F3361F020F48F3159F489E039
:102380000CC08F3519F08F3739F004C08BE005C0D1
:102390008AE003C080E001C08CE029960FB6F89473
:1023A000DEBF0FBECDBFDF91CF910895AF92BF9238
:1023B000CF92DF92EF92FF920F931F93CF93DF9311
:1023C0001F92CDB7DEB75C01D62EE72EFC018585C6
:1023D000811105C0C5010E946C0A811106C0F5017A
:1023E00013861586148680E065C040E060EFC50165
:1023F0000E94FD0901E0F12CC12C11E0C5010E94F1
:10240000AA09682FC50169830E94AA096981613000
:1024100019F48130B9F433C04F2D50E068131BC05C
:10242000F5018385181730F4E40FF51F83818023AD
:1024300049F402C0181731F060E0193058F4F50182
:10244000148708C0F501EF0DF11D8381802B838374
:1024500061E009C0C12EF501E40FF51F9381802FC3
:10246000809589238383C5010E94CE091F5F000FD9
:1024700011F4F39401E0F7E0FF1508F0BFCF113439
:1024800008F4ADCFF501C386C11002C081E0858795
:10249000F5018381882309F4A2CFD5011396ED2D90
:1024A000FE2D9501255F3F4F8D918193A217B307B4
:1024B000D9F781E00F90DF91CF911F910F91FF909D
:1024C000EF90DF90CF90BF90AF9008950F931F9340
:1024D000CF93DF938C01D62FE0917007F0917107B5
:1024E000138615861486DF011B9633961E92AE174F
:1024F000BF07E1F7C0E0B8018091700790917107C4
:102500000E94D611882381F0CD130AC067E0C8016C
:102510000E949D09F8019781891302C081E004C0DF
:10252000CF5FDC1740F780E0DF91CF911F910F91D3
:102530000895009769F0FC0101900020E9F73197B8
:10254000AF01481B590BBC018BE193E00C94F514CF
:1025500080E090E008950895E091D3028091D20246
:10256000E81730F4F0E0EC52FD4F808190E00895E0
:102570008FEF9FEF08959091D3028091D202981728
:1025800050F4E92FF0E0EC52FD4F208130E09F5FE6
:102590009093D30202C02FEF3FEFC90108958091BD
:1025A000D20290E02091D302821B91090895CF922C
:1025B000DF92EF92FF920F931F93CF93DF937C01F3
:1025C0008A0180913008882389F0EB016B01C40EE9
:1025D000D51ECC15DD05F1F06991D701ED91FC9187
:1025E0000190F081E02DC7011995F3CF842F41327E
:1025F00088F490911A03943069F44093A702FB0188
:1026000027E832E0D9019A2F921B981718F491917C
:102610009D93F9CFC801DF91CF911F910F91FF904A
:10262000EF90DF90CF900895209130082223C9F0D9
:1026300020912F08203240F021E030E0FC0133836C
:10264000228380E090E0089580912E08E82FF0E04A
:10265000E25FF74F60838F5F80932E0880932F088F
:1026600009C080911A03843029F481E08093A70285
:102670006093870281E090E00895FC01918D828D46
:10268000981759F0828DDF01A80FB11D5D968C91CE
:10269000928D9F5F928F90E008958FEF9FEF089546
:1026A000FC01918D828D981731F0828DE80FF11D1C
:1026B000858D90E008958FEF9FEF0895FC01918D37
:1026C000828D981B892F90E0089580E090E0892BFF
:1026D00021F00E944815811121C080E090E0892BF3
:1026E00021F00E94521581111CC080E090E0892BDE
:1026F00041F080E090E0892B21F00E9400008111E0
:1027000013C080E090E0892BA1F080E090E0892B5D
:1027100081F00E94000081110AC008950E9400000B
:10272000DCCF0E940000E1CF0E940000EACF0C94B1
:102730000000089585ED8093BC0081E00E94D40BD9
:102740008091BC0084FF06C080E00E94D40B8823E7
:10275000B9F302C010921A030895CF93DF93CCEB24
:10276000D0E0188210921A0381E08093190310922E
:10277000140361E084E10E941C1661E085E10E947F
:102780001C16E9EBF0E080818E7F808380818D7F55
:10279000808388E48093B80085E48883DF91CF91BB
:1027A00008950F931F93CF93DF9310912F08D0912B
:1027B0000D08113208F05EC0062F81E00E94D40B94
:1027C000C0911A03CC2339F080E00E94D40B8823F7
:1027D000B9F3C5E054C082E080931A030093190353
:1027E0008FEF809318031092170310931603AEE037
:1027F000B8E024EF32E0F9018E2F821B811718F424
:102800008D918193F9CF10921503909115038D2F1F
:10281000880F892B8093150380911403813061F414
:1028200010921403809115038093BB008091BC002B
:1028300083FDF8CF85EC01C085EE8093BC0081E07C
:102840000E94D40B80911A03823031F480E00E9400
:10285000D40B8111BECFF6CF809118038F3F79F052
:1028600080911803803241F080911803803331F059
:10287000C4E005C0C1E003C0C2E001C0C3E01092E3
:102880002E0810922F08109230088C2FDF91CF91D4
:102890001F910F91089581E08093300860930D0897
:1028A00010922E0810922F080895862F413208F0BA
:1028B00040E2642F0E94E2101092D3028093D20271
:1028C00008951092D3021092D20210922E08109204
:1028D0002F080C94AD13FC01848DDF01A80FB11DEE
:1028E000A35EBE4F2C91848D90E001968F73992743
:1028F000848FA689B7892C93A089B1898C91806433
:102900008C93938D848D981306C00288F389E02DF3
:1029100080818F7D80830895EF92FF920F931F93A4
:10292000CF93DF93EC0181E0888F9B8D8C8D981382
:1029300005C0E889F989808185FD24C0F62E0B8DBC
:1029400010E00F5F1F4F0F731127E02E8C8DE812E0
:102950000CC00FB607FCFACFE889F989808185FFA2
:10296000F5CFCE010E946B14F1CF8B8DFE01E80FE5
:10297000F11DE35EFE4FF0820B8FEA89FB898081B7
:10298000806207C0EE89FF896083E889F9898081C8
:102990008064808381E090E0DF91CF911F910F915F
:1029A000FF90EF900895CF93DF93EC01888D8823FB
:1029B000C9F0EA89FB89808185FD05C0A889B989AC
:1029C0008C9186FD0FC00FB607FCF5CF808185FF87
:1029D000F2CFA889B9898C9185FFEDCFCE010E94F5
:1029E0006B14E7CFDF91CF910895CF92DF92EF92F2
:1029F000FF920F931F93CF93DF936C017A018B01AA
:102A0000C0E0D0E0CE15DF0589F0D8016D918D01D1
:102A1000D601ED91FC910190F081E02DC601199550
:102A2000892B11F47E0102C02196ECCFC701DF9102
:102A3000CF911F910F91FF90EF90DF90CF9008956D
:102A40003FB7F8948091390890913A08A0913B08DB
:102A5000B0913C0826B5A89B05C02F3F19F0019600
:102A6000A11DB11D3FBFBA2FA92F982F8827820F14
:102A7000911DA11DB11DBC01CD0142E0660F771F64
:102A8000881F991F4A95D1F7089508950E945533DC
:102A90008BE193E00E945E1321E0892B09F420E092
:102AA000822F089588E794E00E945E1321E0892B2D
:102AB00009F420E0822F08950C94BD321F920F92EA
:102AC0000FB60F9211240BB60F922F933F934F9393
:102AD0005F936F937F938F939F93AF93BF93EF9386
:102AE000FF938BE193E00E946B14FF91EF91BF91F4
:102AF000AF919F918F917F916F915F914F913F9196
:102B00002F910F900BBE0F900FBE0F901F90189536
:102B10001F920F920FB60F9211240BB60F922F93A4
:102B20008F939F93EF93FF93E0912B03F0912C03EE
:102B30008081E0913103F091320382FD11C09081D8
:102B4000809134038F5F20913503821751F0E0911B
:102B50003403F0E0E55EFC4F958F8093340301C0B1
:102B60008081FF91EF919F918F912F910F900BBEDC
:102B70000F900FBE0F901F9018951F920F920FB6D7
:102B80000F9211240BB60F922F933F934F935F93A5
:102B90006F937F938F939F93AF93BF93EF93FF9325
:102BA00088E794E00E946B14FF91EF91BF91AF9181
:102BB0009F918F917F916F915F914F913F912F9155
:102BC0000F900BBE0F900FBE0F901F9018951F9285
:102BD0000F920FB60F9211240BB60F922F938F9373
:102BE0009F93EF93FF93E0918804F0918904808193
:102BF000E0918E04F0918F0482FD11C0908180914C
:102C000091048F5F20919204821751F0E09191041A
:102C1000F0E0E858FB4F958F8093910401C08081CC
:102C2000FF91EF919F918F912F910F900BBE0F907D
:102C30000FBE0F901F901895362F90E0FC01EF54B7
:102C4000FC4F4491FC01E55EF84F2491FC01EB52EE
:102C5000F94F9491992309F46BC0442309F455C0AA
:102C600050E0FA013197E231F10508F04EC08827B3
:102C7000E355FF4F8F4F0C940035809180008F7784
:102C800007C0809180008F7D03C080918000877F86
:102C9000809380003AC084B58F7702C084B58F7D61
:102CA00084BD33C08091B0008F7703C08091B000A5
:102CB0008F7D8093B00029C0809190008F7707C0EE
:102CC000809190008F7D03C080919000877F8093DA
:102CD00090001BC08091A0008F7707C08091A0005A
:102CE0008F7D03C08091A000877F8093A0000DC0DE
:102CF000809120018F7707C0809120018F7D03C0D4
:102D000080912001877F80932001E92FF0E0EE0F72
:102D1000FF1FEF59F84FA591B4918FB7F894EC913C
:102D2000311103C020952E2301C02E2B2C938FBF71
:102D30000895CF93DF9390E0FC01E55EF84F249176
:102D4000FC01EB52F94F8491882361F190E0880FE8
:102D5000991FFC01E15FFC4FC591D491FC01EF5933
:102D6000F84FA591B491611109C09FB7F89488817B
:102D7000209582238883EC912E230BC0623061F46E
:102D80009FB7F8943881822F809583238883EC91B4
:102D90002E2B2C939FBF06C08FB7F894E8812E2B63
:102DA00028838FBFDF91CF9108958F929F92AF922A
:102DB000BF92CF92DF92EF92FF926B017C010E9453
:102DC00020154B015C01C114D104E104F104F1F0C0
:102DD0000E942015DC01CB0188199909AA09BB09B9
:102DE000883E9340A105B10570F321E0C21AD108D5
:102DF000E108F10888EE880E83E0981EA11CB11C42
:102E0000C114D104E104F10419F7DDCFFF90EF9074
:102E1000DF90CF90BF90AF909F908F9008952FB785
:102E2000F894609135087091360880913708909138
:102E300038082FBF08951F920F920FB60F921124DA
:102E40002F933F938F939F93AF93BF9380913508B8
:102E500090913608A0913708B09138083091340825
:102E600023E0230F2D3720F40196A11DB11D05C0CD
:102E700026E8230F0296A11DB11D209334088093EC
:102E8000350890933608A0933708B093380880919E
:102E9000390890913A08A0913B08B0913C080196FE
:102EA000A11DB11D8093390890933A08A0933B0867
:102EB000B0933C08BF91AF919F918F913F912F911B
:102EC0000F900FBE0F901F90189508951F920F92AC
:102ED0000FB60F9211242F938F939F932091060189
:102EE00027FD0DC08091330887FF09C08091EA0754
:102EF0009091EB0701969093EB078093EA0720935C
:102F000033089F918F912F910F900FBE0F901F90BC
:102F100018951F920F920FB60F9211242F933F9383
:102F20008F939F93809103019091060181FD0EC0C4
:102F30002091320821FF0AC02091E6073091E7076F
:102F40002F5F3F4F3093E7072093E60780FD0EC0C9
:102F50002091320820FF0AC02091E8073091E9074C
:102F60002F5F3F4F3093E9072093E80797FD0EC08E
:102F70002091310827FF0AC02091EA073091EB0722
:102F80002F5F3F4F3093EB072093EA07809332087F
:102F9000909331089F918F913F912F910F900FBE89
:102FA0000F901F901895CF93DF93CDB7DEB7E597BD
:102FB0000FB6F894DEBF0FBECDBF789484B58260A3
:102FC00084BD84B5816084BD85B5826085BD85B5CD
:102FD000816085BD80916E00816080936E0010924B
:102FE00081008091810082608093810080918100C6
:102FF0008160809381008091800081608093800057
:103000008091B10084608093B1008091B0008160B4
:103010008093B000809191008260809391008091B4
:1030200091008160809391008091900081608093F5
:1030300090008091A10082608093A1008091A10006
:1030400081608093A1008091A00081608093A000A6
:103050008091210182608093210180912101816012
:1030600080932101809120018160809320018091D3
:103070007A00846080937A0080917A0082608093E5
:103080007A0080917A00816080937A0080917A0042
:10309000806880937A001092C10061E084E00E9411
:1030A000991661E089E00E9499168CEA92E00E94EC
:1030B000BC104AE068EE73E080E090E00E94EC0E05
:1030C00082EA92E00E94BC104AE064EF71E080E086
:1030D00090E00E94EC0E86E992E00E94BC104AE06B
:1030E00068EE73E080E090E00E94EC0E0E94430CDA
:1030F00000E010E05BECE52E57E0F52E61E084E0A7
:103100000E941C16C7010197F1F760E084E00E945D
:103110001C16C7010197F1F70F5F1F4F083E23E010
:10312000120761F78BE193E00E94C50E87EE94E0F1
:103130000E94470C89EC94E00E94BC1080E091E072
:103140000E943A1086EB94E00E94470C88E794E0D6
:103150000E94C50E80EA8D8781EA8E871F8689E0EE
:10316000888BE6E0F2E0DE01119601900D928A95DF
:10317000E1F7FE0131969E01265F3F4F80E091917D
:103180008927E217F307D9F79DE09A8F9AE09B8F82
:10319000898F5091930440919404252F30E0842F1F
:1031A00090E0821B930B541710F0CF9601C001974B
:1031B0004097DCF044E050E0BE01635F7F4F88E75A
:1031C00094E00E94F51449E050E0BE016F5F7F4F2C
:1031D00088E794E00E94F51443E050E0BE01675E8A
:1031E0007F4F88E794E00E94F51480EA898381EAA2
:1031F0008A831B8283E08C8387E3898F81E08A8FB7
:103200001B8E8DE08E878AE08F8786E38D875091B5
:10321000930440919404252F30E0842F90E0821B8A
:10322000930B541710F0CF9601C001974097DCF034
:1032300044E050E0BE016F5F7F4F88E794E00E945A
:10324000F51443E050E0BE01675E7F4F88E794E0ED
:103250000E94F51443E050E0BE01635F7F4F88E7B2
:1032600094E00E94F5148FE994E00E94470C62E01C
:103270008EE00E94991662E08FE00E94991662E04B
:1032800085E40E949916F894809168008660809386
:10329000680080916C00866080936C0080916D0066
:1032A000806880936D00789487E894E00E94470CD2
:1032B000E0917007F0917107138615861486DF017F
:1032C0001B9633961E92AE17BF07E1F710926F0759
:1032D00011E0BE016F5F7F4F809170079091710781
:1032E0000E94D611882309F44BC067E0CE010196F5
:1032F0000E949D0998858913ECCF80916B078111FD
:1033000028C080917007909171070E946C0ABE01DD
:103310006F5F7F4F80917007909171070E943F0A05
:1033200040E064EB80917007909171070E94FD0965
:1033300080917007909171070E94AA09082F8091CF
:103340007007909171070E946C0A002311F40C948D
:103350001D2B00916C07CE0101960E94A4118017CD
:1033600018F480916C0704C0CE0101960E94A4114C
:1033700080936C0780916F078F5F80936F07A9CF51
:1033800080916F07882309F4E3C081E0809391075F
:103390008AE080936C07E12CF12C0FE52FE7D22E09
:1033A0003FE1C32E4FE3B42E80916F0790E0E81603
:1033B000F9060CF09BC06E2DCE010D960E94661290
:1033C00010916C07193020F01D3018F01CE001C07E
:1033D00019E0CE010D960E94A411811709F482C054
:1033E000BE016F5F7F4FCE010D960E949111882321
:1033F00009F478C08D85803109F474C01B3041F028
:103400001C3021F01A3031F4BD8205C0DD8203C0CA
:103410000D8301C0CD8280917007909171070E9449
:103420006C0ABE01635F7F4F8091700790917107B6
:103430000E943F0A40E06EE480917007909171070E
:103440000E94FD0940E06B818091700790917107A7
:103450000E94FD0940E06C81809170079091710796
:103460000E94FD098D85803141F040E06D818091A1
:103470007007909171070E94FD09809170079091EB
:1034800071070E946C0ABE01635F7F4F80917007D5
:10349000909171070E943F0A40916B0768E4809108
:1034A0007007909171070E94FD0964E170E080E06F
:1034B00090E00E94D51680916B07882331F06AE076
:1034C00070E080E090E00E94D516809170079091A6
:1034D00071070E946C0A80916C07181708F4182F66
:1034E00010936C073FEFE31AF30A5ECF10926D075B
:1034F00080917007909171070E946C0A40E06CEC1B
:1035000080917007909171070E94FD0940916B07AF
:1035100064E480917007909171070E94FD09809189
:103520006D078823A9F0E0916C07E950E33040F47F
:10353000F0E0EE0FFF1FE85EFD4F6081718102C079
:103540006EEE72E0882777FD8095982F0E94D51641
:1035500081E794E00E94470C8091690790916A0787
:103560000E946114609168078091690790916A07D1
:103570000E944B1461E08091690790916A070E9454
:10358000D113882329F083EB92E00E94470C51C0AD
:103590008EE10E94530C63E070E080E090E00E94B6
:1035A000D51600E517E020EAD8011D921C92822F63
:1035B0002DAB0E94530C60916807772767FD7095CB
:1035C00042E050E08091690790916A070E9455148B
:1035D0008091690790916A07DC01ED91FC9106806A
:1035E000F781E02D1995F801108281838091690798
:1035F00090916A07DC01ED91FC910680F781E02D46
:103600001995F80140815181840F951FD8018D9340
:103610009D938D0161E08091690790916A070E94F6
:10362000D1132DA92E5F203B09F0BECF81E08093FE
:103630008F078AE594E00E94470C8DE297E00E9494
:103640002108811105C081ED92E00E94BC100BC0E1
:1036500081E0809392078093320760E070E08DE212
:1036600097E00E94740983E494E00E94470C81E093
:103670008093AE068EE18093B0069BE69093AF06F2
:1036800090931E0780931D078091B2069091B30618
:10369000853F910569F0843FB1E09B0749F0803D8B
:1036A000974031F085EF90E09093B3068093B20697
:1036B0008091C206823049F0843039F0883029F098
:1036C000803119F082E08093C2068091CB06982F5A
:1036D000977F943039F0883029F0803119F084E0F8
:1036E0008093CB066091B2067091B30680E090E0C3
:1036F0000E94F63020E030E040E058E30E9457316D
:1037000060931F07709320078093210790932207EF
:103710008091CB06883089F038F48430F9F487EF53
:103720009CECA2E1B9E312C08C3061F08031B1F4BD
:1037300084E29BE0A8E1BAE309C084E29BE0A8E947
:10374000B9E304C08FE991E7A1EEB9E380932707BD
:1037500090932807A0932907B0932A076091C20687
:1037600070E080E090E00E94F63020E030E040E041
:1037700058E30E9457316093230770932407809386
:1037800025079093260784E497E00E9461148FE058
:103790000E948C0D182F8FE00E94E30D212F30E046
:1037A000382B2D33384611F00C94212B8091B10623
:1037B000882331F08091B4068295880F807E01C005
:1037C00080E02091B2063091B306243F41E03407F7
:1037D00029F0203D374019F4886101C0886060916C
:1037E000B5066370682B80E10E94AB0D60E081E15B
:1037F0000E94AB0D8091B606811102C060E001C04D
:1038000060E88091B706882329F08091B8068F7010
:103810008064682B82E10E94AB0D8091BF068823F3
:1038200011F060E201C060E08091BE06811160612C
:103830008091BD06811168608091C006811162602F
:103840008EE10E94AB0D8091B906882311F060E2F1
:1038500001C060E08091BA06811160618091BB0671
:103860008111686083E10E94AB0D8091C6068823B8
:1038700011F060E201C060E08091C50681116061D5
:103880008091C406811168608FE10E94AB0D809128
:10389000C106882331F06091C3066295660F607E91
:1038A00001C060E08091C206883031F0803131F093
:1038B000843029F4606103C0686101C06860809150
:1038C000C70687FD03C064608370682B80E20E9496
:1038D000AB0D8091C806882349F06091C9066370DA
:1038E00080E2689FB0011124606801C060E081E25D
:1038F0000E94AB0D8091CD06882311F060E801C0D5
:1039000060E02091CC06277094E0299F900111245B
:103910009091CE069370A0E29A9FC0011124822B51
:10392000682B80E20E94700CE091CB06E850E930F1
:1039300028F4F0E0E15FFD4F608101C060E081E2CA
:103940000E94700C8091D006882311F080E201C0A3
:1039500080E06091D1066370682B82E20E94700C57
:103960006091CF066370660F660F83E20E94700C51
:1039700060E084E20E94700C81E080938D071D86D8
:103980001E861F86188A198A1A8A1B8A1C8A1D8A13
:103990001E8A1F8A188E19821A821B821C821D821F
:1039A0001E821F82188619861A861B861C8683E251
:1039B0000E94E30D682F626083E20E94AB0D6FE30B
:1039C0008EE20E94AB0D8FE20E94E30D8F73C82E32
:1039D000BEE1B817C0F700E010E0E82EF12C0E159C
:1039E0001F050CF092C00E94580E8091D306909152
:1039F000D406AA2797FDA095BA2F49815A816B81D9
:103A00007C81840F951FA61FB71F89839A83AB8380
:103A1000BC838091D5069091D606AA2797FDA095E4
:103A2000BA2F4D815E816F817885840F951FA61F07
:103A3000B71F8D839E83AF83B8878091D7069091FF
:103A4000D806AA2797FDA095BA2F49855A856B8578
:103A50007C85840F951FA61FB71F89879A87AB8720
:103A6000BC870E94020E8091D9069091DA06AA279F
:103A700097FDA095BA2F4D855E856F857889840F57
:103A8000951FA61FB71F8D879E87AF87B88B809124
:103A9000DB069091DC06AA2797FDA095BA2F4989ED
:103AA0005A896B897C89840F951FA61FB71F898B44
:103AB0009A8BAB8BBC8B20912307309124074091CC
:103AC00025075091260760E070E080E89FE30E94A0
:103AD000DE330E9446342091DD063091DE06C901B6
:103AE000861B970BAA2797FDA095BA2F4D895E8953
:103AF0006F89788D840F951FA61FB71F8D8B9E8BA6
:103B0000AF8BB88F0F5F1F4F6ACF40901F07509049
:103B100020076090210770902207209123073091A1
:103B2000240740912507509126072BA33CA34DA3C2
:103B30005EA3AE014F5F5F4F58A34F8F8EEAA82E52
:103B400086E0B82E1E015DE0250E311C00E010E07D
:103B5000D12CE12CF12CAF8DB8A16D917D918D917F
:103B60009D91B8A3AF8FA70196010E94E134F501A2
:103B7000E35AFF4F31832083F801E255F94F4F019B
:103B8000B901882777FD8095982F0E94F8309B0116
:103B9000AC01C301B2010E945731D401D9966D9393
:103BA0007D938D939C93DC97F1016191719181914B
:103BB00091911F01A70196010E94E134F501ED5991
:103BC000FF4F31832083F5E48F0E911CB9018827C4
:103BD00077FD8095982F0E94F8309B01AC016BA176
:103BE0007CA18DA19EA10E945731D4016D937D933C
:103BF0008D939C9313970C5F1F4FB2E0AB0EB11CDB
:103C00000C30110509F0A7CF83E20E94E30D682F65
:103C10006D7F83E20E94AB0D60E08EE20E94AB0DEF
:103C200081E080932B071A8E198E1C8E1B8E1E8EA0
:103C30001D8E1E861D86188A1F861A8A198A00E81C
:103C4000E02EF12C8E010D5E1F4F87E20E948C0D3D
:103C500083FFFBCF0E94470D8091DF069091E00625
:103C60009A8389838091E1069091E2069C838B83FD
:103C70008091E3069091E4069E838D839E012F5FE1
:103C80003F4FFE013D966F01AE01475E5F4F5A0107
:103C9000BA01D9018D919D919D01408151814817B3
:103CA000590714F491838083DB014D915C91119746
:103CB0008417950714F48D939C9332966E5F7F4F13
:103CC000E017F10731F7B1E0EB1AF10809F0BDCFC9
:103CD0001FEF812E16E0912EF601019111916F01D7
:103CE000D5018D919D915D01080F191F17FF02C02D
:103CF0000F5F1F4F15950795F701E95EF84F118388
:103D00000083B801882777FD8095982F0E94F830AE
:103D10009B01AC01609127077091280780912907CA
:103D200090912A070E945731F40161937193819316
:103D300091934F01602F85E08E0D0E94700C612FD2
:103D400086E08E0D0E94700CF2E0EF0EF11C26E072
:103D5000E216F10409F68EE294E00E94470C84E436
:103D600097E00E94611484E480933B0782EA90E329
:103D70000E94AE0E6AE070E080E090E00E94D516EE
:103D800081E080938E078DE690E30E94AE0E84E181
:103D900094E00E94470C84E497E00E94611487EF4E
:103DA00093E00E94470C66E384E497E00E944B1482
:103DB00066E084E497E00E94141360E484E497E0F2
:103DC0000E94141360E084E497E00E9414130E94A0
:103DD000DD1082EA93E00E94470C84E993E00E94A0
:103DE000470C8AE893E00E94BC108091910790E014
:103DF0000E943A1080E893E00E94BC1080918F07E7
:103E000090E00E943A1086E793E00E94BC108091F7
:103E10008D0790E00E943A108CE693E00E94BC105F
:103E200080918E0790E00E943A1082E693E00E9413
:103E3000BC108091920790E00E943A100E94430CBF
:103E400068EE73E080E090E00E94D5160E9460105A
:103E500061E089E00E949916EAEBF3E0E4918E2F8D
:103E600090E0FC013197E231F10508F0BEC08827EF
:103E7000EE58FF4F8F4F0C94003584B5806884BD99
:103E80008FE787BDACC084B5806284BD8FE788BDF5
:103E9000A6C0809180008068809380008FE790E0CA
:103EA00090938900809388009AC0809180008062FE
:103EB000809380008FE790E090938B0080938A003E
:103EC0008EC0809180008860809380008FE790E0B2
:103ED00090938D0080938C0082C08091B0008068A8
:103EE0008093B0008FE78093B30079C08091B000D9
:103EF00080628093B0008FE78093B40070C080919F
:103F000090008068809390008FE790E090939900F4
:103F10008093980064C080919000806280939000AC
:103F20008FE790E090939B0080939A0058C0809117
:103F300090008860809390008FE790E090939D00C0
:103F400080939C004CC08091A00080688093A0006A
:103F50008091A0008F7B8093A0008FE790E09093EA
:103F6000A9008093A8003BC08091A000806280934C
:103F7000A0008FE790E09093AB008093AA002FC041
:103F80008091A00088608093A0008FE790E09093DC
:103F9000AD008093AC0023C08091200180688093A5
:103FA00020018FE790E0909329018093280117C0AA
:103FB000809120018062809320018FE790E09093B0
:103FC0002B0180932A010BC080912001886080938F
:103FD00020018FE790E090932D0180932C013324F2
:103FE0003394A2E02A2E11E0C9C760E089E00E9464
:103FF0001C16F5CF88E794E00E943D13082F8091AE
:104000009E0690919F06A091A006B091A1060196F0
:10401000A11DB11D80939E0690939F06A093A006BC
:10402000B093A106043211F40C945C2AE091980636
:1040300005320CF0ACC70A3009F0A5C7EF3008F420
:10404000B2C7809197068F5F80939706109298066B
:1040500081E00A3209F080E08093860688E794E0E8
:104060000E945E13892B31F680910106882311F49A
:104070000C94812A10920206609103067091040646
:1040800080E090E00E94F6306B017C0160910506B3
:104090007091060680910706909108060E94F630FE
:1040A00028E23BE64EE65EE40E94DE339B01AC0173
:1040B000C701B6010E947A3320910906DC01CB01C9
:1040C0002111B0588093EC079093ED07A093EE0771
:1040D000B093EF0760910A0670910B0680E090E0C4
:1040E0000E94F6306B017C0160910C0670910D0608
:1040F00080910E0690910F060E94F63028E23BE672
:104100004EE65EE40E94DE339B01AC01C701B601BE
:104110000E947A3320911006DC01CB012111B058A6
:104120008093F0079093F107A093F207B093F30701
:1041300080915B06882311F40C94932A10925C06FC
:1041400060916106709162068091630690916406A9
:104150000E94F83020E030E048EC52E40E94DE3368
:104160006093F4077093F5078093F6079093F70731
:1041700080912306882311F40C949D2A1092240622
:104180008091250690912606A0912706B0912806D9
:104190008093050890930608A0930708B093080839
:1041A00080913106882311F40C94A72A10923206CC
:1041B0008091330690913406A0913506B091360671
:1041C0008093090890930A08A0930B08B0930C08F9
:1041D00080916906882311F40C94B12A10926A0622
:1041E00080916F068093040880917706882311F4EC
:1041F0000C94B52A1092780660917D0670917E0627
:1042000080917F06909180060E94F83020E030E097
:1042100040E250E40E9457310E944B3470930108F1
:104220006093000880914D06882311F40C94BB2AFA
:1042300010924E0660915306709154068091550677
:10424000909156060E94F83020E030E048EC52E4AD
:104250000E94DE336093FC077093FD078093FE0796
:104260009093FF0780913F06882311F40C94C92A8C
:10427000109240066091450670914606809147066F
:10428000909148060E94F83021EA32EB43E05FE368
:104290000E94573120E030E048EC52E40E94DE33C7
:1042A0006093F8077093F9078093FA079093FB07E0
:1042B0008091F905882311F40C94D72A1092FA05FD
:1042C00060E070E085EE95E00E941A2F20E030E07B
:1042D00048EC52E40E94573120E030E040E250E4E4
:1042E0000E9457310E944B34709303086093020878
:1042F0000E94020EC0902307D0902407E09025076B
:10430000F09026076091D9067091DA06882777FD2C
:104310008095982F0E94F8309B01AC01C701B6012F
:104320000E9457316093BC077093BD078093BE070E
:104330009093BF076091DB067091DC06882777FDBC
:104340008095982F0E94F8309B01AC01C701B601FF
:104350000E9457316093C0077093C1078093C207D2
:104360009093C3076091DD067091DE06882777FD84
:104370008095982F0E94F8309B01AC01C701B601CF
:104380000E9457316093C4077093C5078093C60796
:104390009093C7070E94470DC0902707D090280729
:1043A000E0902907F0902A076091DF067091E006FF
:1043B000882777FD8095982F0E94F8309B01AC01EB
:1043C000C701B6010E9457316093C8077093C907AF
:1043D0008093CA079093CB076091E1067091E20643
:1043E000882777FD8095982F0E94F8309B01AC01BB
:1043F000C701B6010E9457316093CC077093CD0777
:104400008093CE079093CF076091E3067091E40606
:10441000882777FD8095982F0E94F8309B01AC018A
:10442000C701B6010E9457316093D0077093D1073E
:104430008093D2079093D3070E94580EC0901F0715
:10444000D0902007E0902107F09022076091D306DA
:104450007091D406882777FD8095982F0E94F830B8
:104460009B01AC01C701B6010E9457316093D4078C
:104470007093D5078093D6079093D7076091D506A0
:104480007091D606882777FD8095982F0E94F83086
:104490009B01AC01C701B6010E9457316093D80758
:1044A0007093D9078093DA079093DB076091D70662
:1044B0007091D806882777FD8095982F0E94F83054
:1044C0009B01AC01C701B6010E9457316093DC0724
:1044D0007093DD078093DE079093DF0780918E074E
:1044E00081110C94DD2A80918F07882311F40C949C
:1044F000372B60915E0770915F07DB01AF70BB27C0
:10450000CB01882790935F0780935E0780E090E05F
:1045100040E050E09A0135952795220F331FF901AD
:10452000E05BF84F40FD02C00C94112B20818227E4
:10453000E8E09C01220F331F97FD02C00C941A2B58
:10454000C901F0E39F27E150A1F74F5F5F4F403172
:10455000510501F770935F0760935E07892F9927D4
:1045600082958F70A817B90711F00C94372B8091A2
:10457000600790916107A0916207B09163078093F3
:10458000AC079093AD07A093AE07B093AF078091AF
:10459000640790916507A0916607B09167078093C3
:1045A000B0079093B107A093B207B093B30788E127
:1045B0000E9404056B017C0188E00E9404054B0108
:1045C0005C01C701B6010E94F6306B017C0160916D
:1045D0005A0770915B0780E090E00E94F63020E07F
:1045E00030E040E853E40E9457319B01AC01C70121
:1045F000B6010E9479336B017C0160915407709180
:10460000550780E090E00E94F63020E030E040E086
:1046100058E40E9457312B013C016091580770917A
:10462000590780E090E00E94F6309B01AC01C70181
:10463000B6010E94573120E030E040E85CE30E9480
:1046400057319B01AC01C301B2010E947A3369A7C3
:104650007AA78BA79CA7609152077091530780E0BF
:1046600090E00E94F63020E030E040E857E40E94FD
:1046700057312B013C01609156077091570780E03C
:1046800090E00E94F6309B01AC01C701B6010E9488
:10469000573120E030E040E05CE30E9457319B015D
:1046A000AC01C301B2010E947A336DA77EA78FA728
:1046B00098AB60915C0770915D0780E090E00E948C
:1046C000F6309B01AC01C701B6010E94573120E0D2
:1046D00030E040E054E30E94573120E030E04AEF00
:1046E00054E40E947A332B013C01C501B4010E94BD
:1046F000F63069AB7AAB8BAB9CAB20E030E04AEF95
:1047000054E4C301B2010E94F23087FFA6C7A7019B
:104710009601C701B6010E94573120E030E040E029
:1047200050E30E9457316BA37CA38DA39EA320E08E
:1047300030E04AEF54E4C301B2010E9479334B01E7
:104740005C0120E030E044E752E40E945731A501CB
:1047500094010E94573120E030E040E85DE30E9480
:1047600057316B017C01A5019401C501B4010E9480
:104770007A33A50194010E9457314B015C0120E07E
:1047800030E84BEB54ECC301B2010E94F23087FFDA
:1047900038C020E030E84BEB54E4C301B2010E9482
:1047A0007A336F8F78A389A39AA320E030E040E7A3
:1047B00051E40E9457312F8D38A149A15AA10E947E
:1047C00057319B01AC01C701B6010E947A336B01DE
:1047D0007C0120E030E040E051E46F8D78A189A1B8
:1047E0009AA10E9457312F8D38A149A15AA10E9448
:1047F00057319B01AC01C501B4010E947A334B01D2
:104800005C012BA13CA14DA15EA1C301B2010E949C
:10481000793360936407709365078093660790937C
:104820006707A50194016DA57EA58FA598A90E9493
:1048300079339B01AC0169A97AA98BA99CA90E9433
:10484000573120E030E040E055E30E9457314B0102
:104850005C01A701960169A57AA58BA59CA50E947C
:1048600079339B01AC01C501B4010E94793320E08A
:1048700030E040E058E30E94573160936007709346
:104880006107809362079093630780919107882363
:1048900009F4A5C7BE016F5F7F4F80E090E00E94E2
:1048A0003C118981882309F49AC760E0CE010D96F6
:1048B0000E9466128823D1F1BE016F5F7F4FCE0147
:1048C0000D960E949111882309F4E6C6698128E0BB
:1048D000629FB00111248A81282F30E0322F2227D5
:1048E000330F330F330F262B372B8D85803109F093
:1048F000D6C6688570E08F81AB01481B5109CA019B
:104900009695982F8827979587950E94AB3460518C
:104910007109207FF3E0220F331FFA95E1F7620F50
:10492000731F613854EE75070CF0BBC660E070E091
:104930008EEF92EC6093940770939507809396079F
:104940009093970760E0CE010D960E946612CE010B
:104950000D960E94A411082F8111B0C682E00E941A
:10496000781034E0969587953A95E1F7BC0180E0A0
:1049700090E00E94F63020E030E048E454E40E94E9
:10498000DE336093A4077093A5078093A6079093E6
:10499000A70784E00E9478105C01692F772780E0E8
:1049A00090E00E94F6306B017C01B50177278827E3
:1049B00077FD8095982F0E94F83020E030E040E8A5
:1049C0005BE30E9457319B01AC01C701B6010E9415
:1049D0007A336093A8077093A9078093AA079093EE
:1049E000AB0780919207882311F1AE014F5F5F4FB3
:1049F000BE01675E7F4F8DE297E00E948208698D5D
:104A00007A8D7093B7076093B60749815A815093A6
:104A1000B5074093B4078DE297E00E9424076093A6
:104A2000B8077093B9078093BA079093BB070E94A9
:104A30006010BC01882777FD8095982F0E94F83080
:104A40006093A0077093A1078093A2079093A30798
:104A5000C090A407D090A507E090A607F090A70704
:104A60002DEC3CEC4CE450E4C701B6010E94F2305E
:104A700018160CF483C61092860220E030E0A901DB
:104A8000C701B6010E94F2308823A1F081EB95E0C6
:104A90000E94BC106091A4077091A5078091A607A1
:104AA0009091A70742E050E00E9451108DEA95E0F6
:104AB0000E94BC10C090A807D090A907E090AA0758
:104AC000F090AB0720E030E048EC52E4C701B601BB
:104AD0000E94F230181654F042E050E0C701B601CF
:104AE0000E9451108BEA95E00E94BC100E94430C7A
:104AF000C0909C07D0909D07E0909E07F0909F0784
:104B000020E030E0A901C701B6010E9477341816F1
:104B10000CF05FC642E050E0C701B6010E945110A0
:104B200088EA95E00E94BC10C0909807D090990741
:104B3000E0909A07F0909B0720E030E04AE754E4C9
:104B4000C701B6010E94F230882309F445C626E663
:104B500036E646EE5FE3C701B6010E94573120E01A
:104B600030E040E052E40E947A3342E050E00E949C
:104B7000511081EA95E00E94470C8BE995E00E9474
:104B8000BC106091B8077091B9078091BA079091F5
:104B9000BB074AE00E94EC0E89E995E00E94BC1038
:104BA0006091B4077091B50780E090E04AE00E9400
:104BB000EC0E87E995E00E94BC106091B6077091F9
:104BC000B70780E090E04AE00E94EC0E85E995E0AE
:104BD0000E94BC106091A0077091A1078091A2076C
:104BE0009091A3070E94531082E995E00E94BC10A7
:104BF0006091C8077091C9078091CA079091CB074F
:104C000042E050E00E94511080E995E00E94BC1003
:104C10006091CC077091CD078091CE079091CF071E
:104C200042E050E00E9451108EE895E00E94BC10D6
:104C30006091D0077091D1078091D2079091D307EE
:104C40000E9453108BE895E00E94BC106091BC0755
:104C50007091BD078091BE079091BF0742E050E080
:104C60000E94511089E895E00E94BC106091C00735
:104C70007091C1078091C2079091C30742E050E054
:104C80000E94511087E895E00E94BC106091C40713
:104C90007091C5078091C6079091C7070E94531075
:104CA00084E895E00E94BC106091D4077091D5070C
:104CB0008091D6079091D70742E050E00E945110B2
:104CC00082E895E00E94BC106091D8077091D907E6
:104CD0008091DA079091DB0742E050E00E9451108A
:104CE00080E895E00E94BC106091DC077091DD07C0
:104CF0008091DE079091DF070E9453106091AC070E
:104D00007091AD078091AE079091AF0742E050E0FF
:104D10000E9451108BE795E00E94BC102CEB34E709
:104D200043E95CE36091B0077091B1078091B207ED
:104D30009091B3070E94573120E030E040E052E408
:104D40000E947A3342E050E00E94511087E795E0DC
:104D50000E94470C8DE695E00E94BC1026E636E6E0
:104D600046EE5FE3609194077091950780919607F6
:104D7000909197070E94573120E030E040E052E4E4
:104D80000E947A3342E050E00E94511089E695E09B
:104D90000E94470C609105087091060880910708F1
:104DA000909108084AE00E94EC0E86E695E00E9489
:104DB000BC106091090870910A0880910B089091CD
:104DC0000C084AE00E94EC0E83E695E00E94BC10BD
:104DD0006091EC077091ED078091EE079091EF07DD
:104DE00046E050E00E94511080E695E00E94BC1021
:104DF0006091F0077091F1078091F2079091F307AD
:104E000046E050E00E9451108DE595E00E94BC10F4
:104E10006091F4077091F5078091F6079091F7077C
:104E200046E050E00E94511088E595E00E94BC10D9
:104E30006091F8077091F9078091FA079091FB074C
:104E400042E050E00E94511081E595E00E94BC10C4
:104E50006091FC077091FD078091FE079091FF071C
:104E600042E050E00E9451108AE495E00E94BC109C
:104E70006091040870E080E090E04AE00E94EC0E4F
:104E80008CE395E00E94BC1080910008909101088D
:104E900024E6E22EF12CB7010E94973480E090E0E6
:104EA0000E94F63041E050E00E94511081E395E00D
:104EB0000E94BC108091020890910308B7010E94E3
:104EC000973480E090E00E94F63041E050E00E948C
:104ED00051108EE295E00E94470C82E295E00E941C
:104EE000BC106091A6067091A7068091A8069091CB
:104EF000A9064AE00E94EC0E0E94430C89E195E06D
:104F00000E94BC106091E6077091E70780E090E096
:104F10004AE00E94EC0E87E195E00E94BC1060918F
:104F2000E8077091E90780E090E04AE00E94EC0E0B
:104F300085E195E00E94BC106091EA077091EB0753
:104F400080E090E04AE00E94EC0E0E94430C8BE06F
:104F500095E00E94BC100E940F1728EE33E040E05D
:104F600050E00E94BF34CA01B9014AE00E94EC0E31
:104F700081E095E00E94470C0E9465131A8E198EFD
:104F8000F7E0AF2E6BC80D3009F0A4C257C80A3243
:104F900009F454C80C3209F09DC28091850680271F
:104FA000809385064BC8F0E0E957F94F1082809155
:104FB0008606882309F476C1209187063FEB320FDD
:104FC000822F992787FD9095363010F4C79707C038
:104FD0002156263018F48755910901C0C097282F13
:104FE0002295207F309188064FEB430F832F99271E
:104FF00087FD9095463010F4C79707C0315636307C
:1050000018F48755910901C0C097820F90918506C9
:10501000891333C18091AA069091AB06A091AC068A
:10502000B091AD060196A11DB11D8093AA06909383
:10503000AB06A093AC06B093AD0680919906882389
:1050400099F08091A2069091A306A091A406B09138
:10505000A5060196A11DB11D8093A2069093A306FB
:10506000A093A406B093A506F0909606FF2009F43D
:105070006BC031E0F312D0C08091290690912A06CE
:10508000A0912B06B0912C068093250690932606BE
:10509000A0932706B09328060E940F1760932D0651
:1050A00070932E0680932F0690933006F09224067C
:1050B000F09223068091370690913806A091390628
:1050C000B0913A068093330690933406A093350648
:1050D000B09336060E940F1760933B0670933C0610
:1050E00080933D0690933E06F0923206F092310690
:1050F00080919906882309F48FC0E1E1F6E0A3E0EE
:10510000B6E08A2D01900D928A95E1F7E8E1F6E08C
:10511000AAE0B6E08A2D01900D928A95E1F70E94EF
:105120000F1760931F0670932006809321069093BB
:105130002206F0920206F09201068FE396E00E94AA
:1051400023068DE496E066C080913706909138067C
:10515000A0913906B0913A068093330690933406B5
:10516000A0933506B09336060E940F1760933B0656
:1051700070933C0680933D0690933E061093320652
:105180001093310680919906882321F1E1E1F6E040
:10519000A3E0B6E08A2D01900D928A95E1F7E8E14F
:1051A000F6E0AAE0B6E08A2D01900D928A95E1F72B
:1051B0000E940F1760931F067093200680932106AC
:1051C0009093220610930206109301068BE596E059
:1051D0000E9423068091730690917406A091750633
:1051E000B091760680936F0690937006A093710637
:1051F000B09372060E940F1760936B0670936C0653
:1052000080936D0690936E0610936A06109369065C
:1052100087E796E00E942306E0909C06F0909D06AA
:10522000E114F10411F40C942120E0919C06F0911A
:105230009D0666A177A1F70186A197A10E945A3326
:10524000892B11F00C942120B701C70140960E94D0
:1052500063330E940F17D70190966D937D938D93C2
:105260009C93939795963C92959794963C9294979D
:105270009A96ED90FC909B97D3CF8091A606909143
:10528000A706A091A806B091A9060196A11DB11D7F
:105290008093A6069093A706A093A806B093A906AC
:1052A0000C94212080919706811139C06AE572E043
:1052B00087E896E00E945A33892B19F410939606DA
:1052C0000DC060E672E087E896E00E945A33892BB1
:1052D00019F41092960602C02092960680919A06C2
:1052E00090919B0690939D0680939C06E0909C066F
:1052F000F0909D06E114F10411F40C942120F701C3
:10530000C6A0D7A067E876E0C6010E945A3397FF8F
:1053100073C2D7019A968D919C919B97E3CFE091B0
:105320009606E23009F493C090918706992309F418
:105330008EC020E2E29FF0011124E82B3197E93280
:10534000F10508F084C08827EC57FF4F8F4F0C946D
:10535000003587E896E00E94C20660933706709396
:1053600038068093390690933A0671C081E09134F3
:1053700009F043C043C061E176E009C081E09335A4
:1053800009F080E08093170662C068E176E087E864
:1053900096E00E943A065BC081E0973509F080E014
:1053A00080931E0654C087E896E00E94C206609370
:1053B000490670934A0680934B0690934C0647C06B
:1053C00087E896E00E94C2066093570670935806DD
:1053D0008093590690935A063AC087E896E00E9457
:1053E00093306093290670932A0680932B0690933E
:1053F0002C062DC081E091330CF480E08093990657
:1054000026C087E896E00E949330609373067093FD
:105410007406809375069093760619C087E896E027
:105420000E94C20660938106709382068093830671
:10543000909384060CC087E896E00E94C2066093B1
:105440006506709366068093670690936806E09001
:105450009C06F0909D06E114F10411F40C942120B7
:10546000E0919C06F0919D0666A177A1F70186A1C7
:1054700097A10E945A33892B11F00C942120D70157
:1054800098962D913C9199978091970690E082177C
:10549000930714F40C9421202817390739F440E1BC
:1054A00050E067E876E0C7010E946A33D7019A9618
:1054B000ED90FC909B97CFCF109298061092970694
:1054C00010928506209296061092860610929906F2
:1054D0000C942E20EE3040F481E08E0F80939806DD
:1054E000F0E0E957F94F00838091860681110C9412
:1054F0002E2080918506B02EB826B09285060C9499
:105500002E201092EC071092ED071092EE071092E9
:10551000EF071092F0071092F1071092F207109225
:10552000F3070C9498201092F4071092F50710924C
:10553000F6071092F7070C94B82010920508109205
:10554000060810920708109208080C94D0201092B8
:10555000090810920A0810920B0810920C080C947B
:10556000E820109204080C94F42010920108109284
:1055700000080C94122120E030E040E85FEB20931B
:10558000FC073093FD074093FE075093FF070C94F0
:10559000322180E090E0A0E8BFEB8093F807909381
:1055A000F907A093FA07B093FB070C9458211092C7
:1055B0000308109202080C9478210E949105882318
:1055C00049F08091400790914107A0914207B09126
:1055D000430704C080E090E0A0ECBFE78093980709
:1055E00090939907A0939A07B0939B070E94910507
:1055F000882349F080913C0790913D07A0913E0798
:10560000B0913F0704C080E090E0A0ECBFE780933A
:105610009C0790939D07A0939E07B0939F070C94BF
:10562000732221812FA318A6EFA1F8A58E279F270B
:105630000C949822C9010C94A32210936B070C942C
:10564000A9198EE393E00E94470C89E293E00E943F
:10565000470C10928D070C94AB1E812C912C540199
:10566000750164018BA29CA2ADA2BEA2CAC8109211
:10567000AC071092AD071092AE071092AF0780E012
:1056800090E0AAE7B4E48093B0079093B107A093A9
:10569000B207B093B307F9C860E874EE42C9B90124
:1056A00040C9882777FD8095982F0E94F83020E028
:1056B00030E040E05CE30E9457313CC980917007C4
:1056C000909171070E946C0A882309F447C9BE01B2
:1056D000635F7F4F80917007909171070E943F0A2E
:1056E00040916B0764E480917007909171070E946C
:1056F000FD0980916D07882309F430C9E7EFE00FB9
:10570000E33040F4F0E0EE0FFF1FE85EFD4FC08095
:10571000D18004C05EEEC52E52E0D52E80916E077A
:10572000882321F180916B07811120C00E940F17FF
:105730004B015C01EE24D7FCE094FE2CBE016F5FB0
:105740007F4FCE010D960E943C118981811106C9BF
:105750000E940F17DC01CB018C199D09AE09BF090E
:1057600088159905AA05BB0548F3F8C8B60188272E
:1057700077FD8095982F0E94D516F0C88090A807D5
:105780009090A907A090AA07B090AB0720E030E066
:1057900040EA51E4C501B4010E94F23087FD6BC9B3
:1057A0002AE939E949E550E4C701B6010E94773496
:1057B00018160CF062C920E030E048EC51E4C50155
:1057C000B4010E94773418160CF057C91093860262
:1057D00054C985EA95E0A6C98EE995E0CCC920E0D8
:1057E00030E04AE754E420939407309395074093C0
:1057F000960750939707B2C867E876E0C6010E9403
:105800005A331816190614F00C94212010929D0694
:1058100010929C060C942120CF93DF93109247079F
:105820001092460788EE93E0A0E0B0E0809348072E
:1058300090934907A0934A07B0934B0722E232E0C6
:10584000309345072093440710921E0310921D03C6
:1058500080931F0390932003A0932103B09322030E
:1058600022E332E030931C0320931B0345EC50E00D
:10587000509328034093270344EC50E050932A03AD
:105880004093290340EC50E050932C0340932B03AA
:1058900041EC50E050932E0340932D0342EC50E036
:1058A0005093300340932F0346EC50E05093320363
:1058B0004093310310923403109235031092360353
:1058C0001092370310927B0410927A0480937C0428
:1058D00090937D04A0937E04B0937F043093790469
:1058E000209378048DEC90E0909385048093840459
:1058F0008CEC90E0909387048093860488EC90E091
:10590000909389048093880489EC90E090938B04B1
:1059100080938A048AEC90E090938D0480938C04A9
:105920008EEC90E090938F0480938E0410929104FB
:1059300010929204109293041092940410928D0786
:1059400010928E0710928F07109290071092910775
:105950001092920710929307109294071092950755
:10596000109296071092970710929C0710929D072D
:1059700010929E0710929F071092A0071092A10705
:105980001092A2071092A3071092A8071092A907DD
:105990001092AA071092AB071092AC071092AD07B5
:1059A0001092AE071092AF071092B0071092B10795
:1059B0001092B2071092B3071092B7071092B60771
:1059C0001092B8071092B9071092BA071092BB074D
:1059D0001092C4071092C5071092C6071092C7070D
:1059E0001092D0071092D1071092D2071092D307CD
:1059F0001092DC071092DD071092DE071092DF078D
:105A00001092E5071092E4071092EB071092EA0754
:105A10001092F0071092F1071092F2071092F3071C
:105A20001092F4071092F5071092F6071092F707FC
:105A30001092FC071092FD071092FE071092FF07CC
:105A400010920108109200081092030810920208A8
:105A50001092040810920508109206081092070888
:105A6000109208081092090810920A0810920B0868
:105A700010920C0880E680938C0760E082E00E9420
:105A80009916EDE1F7E0E491E0937E07E7EDF6E0AB
:105A9000E491F0E0EE0FFF1FE554F94F85919491EA
:105AA0009093800780937F071092890710928B074D
:105AB00010928A07E9E8F7E0129287E0E138F807E8
:105AC000D9F78AE294E090937D0780937C078EE774
:105AD00097E0909371078093700710926F07109270
