:100000000C941D050C944E050C944E050C944E0555
:100010000C944E050C944E050C944E050C944E0514
:100020000C944E050C944E050C94DA140C94B714F1
:100030000C944E050C944E050C944E050C944E05F4
:100040000C944E050C944E050C944E050C944E05E4
:100050000C944E050C944E050C944E050C94DA113C
:100060000C944E050C9447100C941D100C944E05E6
:100070000C944E050C944E050C944E050C944E05B4
:100080000C944E050C944E050C944E050C944E05A4
:100090000C94A6100C947C100C944E050C94960CA9
:1000A0000C944E050C944E050C944E050C944E0584
:1000B0000C944E050C944E050C944E050C944E0574
:1000C0000C944E050C944E050C944E050C944E0564
:1000D0000C944E050C944E050C944E050C944E0554
:1000E0000C944E05E126E726ED26F92605279727ED
:1000F00011271A2723272F273B274727582764270D
:10010000972770277C278827EC29FE29012A082AAF
:100110000F2A3D2A442A512A5E2A6A2A6A2A6A2A12
:100120006A2A6A2A6A2A6A2A6A2A6A2A6A2A6A2A2F
:100130006A2A6A2A6A2A6A2A6A2A6A2A6A2A6A2A1F
:100140006A2A6A2A6A2A6A2AEC29F929FE29012AD6
:10015000082A0F2A162A232A302A0A110D11FC1008
:10016000001104114411111115111B111F1123113C
:1001700029112D113111441137113B113F110C94EC
:10018000FE290C9403340C9437110C9497270C948B
:1001900044110C94630B0C940F2A0C9404340C94AB
:1001A00023110C94B40F0C941B100C9411270C9475
:1001B00024120C94370B0C946A2A0C9457150C9447
:1001C000E1260C94F9260C941F110C9404100C9445
:1001D000920F0C943F110C943B110C94ED260C944F
:1001E0001B110C94F9290C94380B0C941A270C94BD
:1001F0002D110C9488270C9454150C9453150C94C1
:1002000005100C94442A0C94C90B0C9458270C9498
:10021000470B0C94232A0C940A110C944B0F0C944A
:100220000D110C94291B0C94A00B0C9415110C941B
:100230007C270C9404110C9400110C94FC100C9469
:1002400047270C943D2A0C945B0B0C9423270C94A9
:1002500031110C9470270C94012A0C94EC290C9405
:1002600029110C94512A0C94162A0C9411110C94F7
:1002700064270C945E2A0C94302A0C943B270C942F
:10028000082A0C94EA0B0C942F270C9405270C9445
:10029000DC0B0C94E726204475726174696F6E3A2A
:1002A0002000205371756172653A200046726571B5
:1002B0003A200000002200250028002B002E0031EB
:1002C00000340002010000050108010B0120526901
:1002D0006768743A20002043757272656E743A2024
:1002E000004C6566743A20000A466F756E6420748F
:1002F00061696C206F66206C6F6720617420626C8E
:100300006F636B3A200020626C6F636B7300436114
:1003100072642073697A653A2000536F6D65746862
:10032000696E672077726F6E6720696E6974696C99
:10033000697A696E67205344436172642E2E2E0AD7
:100340004572726F723A20004572726F7220636F4D
:100350006E6E656374696E6720746F204D53353619
:1003600030372E2E2E004F6F6F70732C206E6F2043
:1003700054534C323536312064657465637465645A
:10038000202E2E2E20436865636B20796F757220B6
:10039000776972696E67206F722049324320414449
:1003A00044522100446F75626C652D636865636B10
:1003B00020776972696E672E004661696C656420FA
:1003C000746F20636F6D6D756E69636174652077FE
:1003D000697468204C534D394453312E00544C53AA
:1003E000323536313A2000202053485433313A20F8
:1003F000004C534D394453313A2000204D5335368B
:1004000030373A2000445331384232303A20002D00
:100410002D2D2D2D2D2D2D2D2D2D2D2D000A5365FE
:100420006E736F727320666F756E640051756963C9
:100430006B2D7374617274696E67206675656C20CC
:1004400067617567652E2E2E00436F6E666967754E
:1004500072696E67206675656C2067617567652EC9
:100460002E2E00436F6E6669677572696E67205342
:10047000485433312E2E2E00436F6E6669677572B5
:10048000696E67204C534D394453312E2E2E004354
:100490006F6E6669677572696E672054534C3235AA
:1004A00036312E2E2E00436F6E6669677572696E47
:1004B00067204D53353630372E2E2E00436F6E6633
:1004C00069677572696E6720445331384232307300
:1004D0002E2E2E00436F6E6669677572696E6720F7
:1004E000476569676572732E2E2E00436F6E6669CD
:1004F000677572696E67205344436172642E2E2EB5
:1005000000436F6E6669677572696E672047505366
:100510002E2E2E00486172647761726520536572D9
:1005200069616C206275666665722073697A653AE6
:10053000200052657374617274696E67204841428D
:1005400020436F6E74726F6C6C65720000000A0B52
:1005500002090C0D0E080703040100000000000052
:10056000000000000000000000000000000000008B
:100570000000000000000000121110000000000048
:10058000000000000000000000000000000000006B
:1005900000000A0A0A2A2A2A2A2A2A2A2A2A2A2A6F
:1005A0002A2A2A2A2A2A2A2A2A2A2A2A2A2A0A45B0
:1005B0006E642073656E736F72732066726F6D2048
:1005C0005344636172640A2A2A2A2A2A2A2A2A2A76
:1005D0002A2A2A2A2A2A2A2A2A2A2A2A2A2A2A2A7B
:1005E0000A0A0A000A0A0A2A2A2A2A2A2A2A2A2A55
:1005F0002A2A2A2A2A2A2A2A2A2A2A2A2A2A2A2A5B
:100600000A526561642073656E736F72732066723F
:100610006F6D205344636172640A2A2A2A2A2A2AA7
:100620002A2A2A2A2A2A2A2A2A2A2A2A2A2A2A2A2A
:100630002A2A2A0A0A0A002A2A2A2A2A2A2A2A2AA4
:100640002A2A2A2A2A2A2A0A00205772697465202F
:100650004572726F72733A200043524320457272A2
:100660006F72733A20002043524320414654455252
:100670003A20002A2A2A2A2A2A2A2A2A2A2A2A2AFE
:100680002A2A2A0A435243204245464F52453A20DD
:10069000000A2A2A2A2A2A2A2A2A2A2A2A2A2A2A04
:1006A0002A2A2A2A2A2A2A2A2A2A0A2A20202020F2
:1006B00020435243204D49534D415443482020206C
:1006C00020202A0A2A2A2A2A2A2A2A2A2A2A2A2ABE
:1006D0002A2A2A2A2A2A2A2A2A2A2A2A00537461FA
:1006E0007475733A200053446361726420577269D1
:1006F0007465204572726F723A2000204E4F54206C
:10070000656D7074792E2E2E20736B697070696E12
:10071000672E0053446361726420626C6F636B20C8
:10072000002F00534420426C6F636B3A20000A5341
:10073000656E736F7220646174612073697A653AC3
:10074000200053442063617264207061636B696EA2
:100750006720737461727420616464726573733AA4
:1007600020004E756D626572206F6620737472751D
:10077000637475726573207061636B65643A200001
:10078000207365636F6E64730A0055702074696D21
:10079000653A20002F002F004765696765723A208F
:1007A00000435243204552524F523A2000206D00E0
:1007B000206D2C2056444F503A20002073617473F2
:1007C0002C2048444F503A2000206465672C2000BC
:1007D000206D70732C2000206D2C20002C20002C0C
:1007E00020002C20002C20002046200044533138CB
:1007F0004232303A20002046200020506120002F55
:10080000002F00473A002F002F00413A002F002F01
:10081000004D3A002F002F002F004C3A005858008E
:100820002046200058580025200025002056200092
:10083000566F6C746167653A2000005EBCE2613FF0
:10084000DD83C29C7E20A3FD1F419DC3217FFCA2AE
:10085000401E5F01E3BD3E6082DC237D9FC1421CE0
:10086000FEA0E1BF5D0380DE3C62BEE0025CDF8192
:10087000633D7C22C09E1D43A1FF4618FAA4277940
:100880009BC584DA3866E5BB5907DB856739BAE46E
:1008900006581947A5FB7826C49A653BD987045AA0
:1008A000B8E6A7F91B45C6987A24F8A6441A99C752
:1008B000257B3A6486D85B05E7B98CD2306EEDB300
:1008C000510F4E10F2AC2F7193CD114FADF3702E2E
:1008D000CC92D38D6F31B2EC0E50AFF1134DCE9060
:1008E000722C6D33D18F0C52B0EE326C8ED0530D12
:1008F000EFB1F0AE4C1291CF2D73CA947628ABF5C0
:1009000017490856B4EA6937D58B5709EBB53668ED
:100910008AD495CB2977F4AA4816E9B7550B88D61F
:10092000346A2B7597C94A14F6A8742AC896154BD1
:10093000A9F7B6E80A54D7896B35000021002400D6
:1009400027002A002D0030003300010100000401BF
:1009500007010A01000020002300260029002C00C6
:100960002F00320000010000030106010901050506
:100970000505070508080808020202020A0A080815
:100980000404040401010101010101010303030343
:1009900003030303040707070C0C0C0C0C0C0C0CD2
:1009A0000202020206060606060606060B0B0B0BE3
:1009B0000B0B0B0B01021020200808102040102008
:1009C0004080020102010804020101020408102013
:1009D0004080804020100804020180040201804011
:1009E000201008040201080402010102040810207A
:1009F000408001020408102040804E414E494E497B
:100A00005459494E46CDCCCC3D0AD7233C17B7D1DB
:100A10003877CC2B329595E6241FB14F0A00002081
:100A2000410000C84200401C4620BCBE4CCA1B0E00
:100A30005AAEC59D74000434033411241FBECFEF99
:100A4000D1E2DEBFCDBF00E00CBF1CE0A6E8B2E003
:100A500001C01D92A937B107E1F712E0A0E0B2E0B2
:100A6000E2E8FAE700E00BBF02C007900D92A6385B
:100A7000B107D9F715E0CCE1D5E000E006C0219739
:100A80000109802FFE010E94273DCB31D10780E074
:100A90000807A9F70E94A11D0C94E1380C940000EE
:100AA000CF92DF92EF92FF921F93CF93DF93182F95
:100AB0006A01C22F6F73D62FD0688091790B1813FB
:100AC00004C0223010F0D62FD06C60E0812F0E943D
:100AD000DB108D2F0E94FE177601D0E0C7018C1924
:100AE0009D098C179D073CF480E00E94FE17F701DA
:100AF00081937F01F3CF61E0812FDF91CF911F912F
:100B0000FF90EF90DF90CF900C94DB1086E692E0A0
:100B10000C948F1DCF93DF930E94B21BEC010E94B7
:100B200086058C0F9D1FDF91CF9108951F93CF9362
:100B3000DF93182FCCEADBE0688D898D9A8D0E94B7
:100B4000420E898D9A8DDC01ED91FC910190F0812E
:100B5000E02D612F199561E0898D9A8DDF91CF91FC
:100B60001F910C94C80D1F93CF93DF93182FD62F8E
:100B700080910A0B8130A9F46091790B80EA9BE0A7
:100B80000E94420E612F80EA9BE00E94A00B6D2F15
:100B900080EA9BE00E94A00BDF91CF911F910C9403
:100BA000D31B811114C0C091790B60E08C2F0E947F
:100BB000DB10812F8F730E94FE178D2F0E94FE176E
:100BC00061E08C2FDF91CF911F910C94DB10DF91AE
:100BD000CF911F910895613208F060E20E94D81B06
:100BE00010928A028093890208950F931F93CF93E6
:100BF000DF93D82FC62F8A01682F80EA9BE00E94DE
:100C0000420E6C2F606880EA9BE00E94A00B61E0BE
:100C100080EA9BE00E94C80D66E08D2F0E94EB05E4
:100C2000C8EED3E08091890290E020918A02821B75
:100C3000910906975CF4219738F061E070E080E05C
:100C400090E00E949411EECF8FEF15C0CD2BE1F311
:100C5000E8010A5F1F4F8091890290918A02C017B4
:100C6000D10741F08917D9F380EA9BE00E94470B36
:100C70008993F1CF86E0DF91CF911F910F91089575
:100C8000AB0190910A0B913029F4682F80917A0B77
:100C90000C94F505911106C026E0682F80917A0B1F
:100CA0000C9450050895CF93DF93C82FD62F682F4B
:100CB00080EA9BE00E94420E6D2F80EA9BE00E943A
:100CC000A00B61E080EA9BE00E94C80D61E08C2FE0
:100CD0000E94EB05C8EED3E08091890290E020915C
:100CE0008A02821B9109181619065CF0219738F0C8
:100CF00061E070E080E090E00E949411EDCF8FEF12
:100D000006C0CD2BE1F380EA9BE00E94470BDF9108
:100D1000CF910895CF93DF9300D000D0CDB7DEB749
:100D200080910A0B813049F4AE014F5F5F4F68E25A
:100D30008091790B0E94F5050BC0811109C026E056
:100D4000AE014F5F5F4F68E28091790B0E945005C2
:100D50008A8190E0982F88272981822B90933C0BE1
:100D600080933B0B8C8190E0982F88272B81822BDE
:100D700090933E0B80933D0B8E8190E0982F8827B7
:100D80002D81822B9093400B80933F0B26960FB6BC
:100D9000F894DEBF0FBECDBFDF91CF910895CF9302
:100DA000DF931F92CDB7DEB7682F80910A0B813099
:100DB00029F48091790B0E9453060CC081110AC05E
:100DC00021E0AE014F5F5F4F8091790B0E9450058B
:100DD000898100C00F90DF91CF9108951F93CF9329
:100DE000DF93182FD62F80910A0B8130A9F46091E0
:100DF0007A0B80EA9BE00E94420E612F80EA9BE022
:100E00000E94A00B6D2F80EA9BE00E94A00BDF9157
:100E1000CF911F910C94D31B811114C0C0917A0BF8
:100E200060E08C2F0E94DB10812F8F730E94FE17D1
:100E30008D2F0E94FE1761E08C2FDF91CF911F91C3
:100E40000C94DB10DF91CF911F910895CF93DF9326
:100E50001F92CDB7DEB7682F80910A0B813029F43D
:100E600080917A0B0E9453060CC081110AC021E0C8
:100E7000AE014F5F5F4F80917A0B0E9450058981D0
:100E800000C00F90DF91CF910895CF93DF9300D0F2
:100E900000D0CDB7DEB7BE016F5F7F4F88E20E9402
:100EA00040068A8190E0982F88272981AC01422B47
:100EB0005093360B4093350B2C8130E0322F222794
:100EC0008B81282B3093380B2093370B8E8190E049
:100ED000982F88276D81862B90933A0B8093390B3E
:100EE0006091870B6623F1F060916D0B70916E0B32
:100EF000461B570B5093360B4093350B40916F0BAD
:100F00005091700B241B350B3093380B2093370B0B
:100F10002091710B3091720B821B930B90933A0BC3
:100F20008093390B26960FB6F894DEBF0FBECDBF67
:100F3000DF91CF910895CF93DF9300D000D0CDB74C
:100F4000DEB7BE016F5F7F4F88E10E9440068A8155
:100F500090E0982F88272981AC01422B5093300BC9
:100F600040932F0B2C8130E0322F22278B81282BAE
:100F70003093320B2093310B8E8190E0982F88278D
:100F80006D81862B9093340B8093330B6091870B8C
:100F90006623F1F06091670B7091680B461B570B4D
:100FA0005093300B40932F0B4091690B50916A0B7B
:100FB000241B350B3093320B2093310B20916B0B9C
:100FC00030916C0B821B930B9093340B8093330BFB
:100FD00026960FB6F894DEBF0FBECDBFDF91CF913E
:100FE0000895CF93DF93EC016091970B80EA9BE02B
:100FF0000E94420E6D2F80EA9BE00E94A00B6C2F96
:1010000080EA9BE00E94A00BDF91CF910C94D31B50
:101010008F929F92AF92BF920F931F93CF93DF93C4
:10102000CDB7DEB7A1970FB6F894DEBF0FBECDBF28
:1010300019A2423008F44AE08E010F5D1F4F842E42
:10104000912CA12CB12CA50194010E94E63CE62F25
:10105000B901CA0101501109EA3014F4E05D01C080
:10106000E95CD801EC93232B242B252B61F7C801D5
:101070000E948F1DA1960FB6F894DEBF0FBECDBFA4
:10108000DF91CF911F910F91BF90AF909F908F9064
:101090000895CF92DF92EF92FF92CF93DF936B018F
:1010A0007C01E0915703F09158030190F081E02D0D
:1010B0006DE287E593E01995EC0166277727CB0170
:1010C0006C197D098E099F094AE00E9408088C0F5F
:1010D0009D1FDF91CF91FF90EF90DF90CF9008950B
:1010E0004F925F926F927F928F929F92AF92BF9238
:1010F000CF92DF92EF92FF926B017C01B42E9B01A5
:10110000AC010E94A23C882319F089E692E027C036
:1011100026013701E89477F82FEF3FEF4FE75FE7BD
:10112000C301B2010E94A23C81110DC02FEF3FEF1D
:101130004FE75FE7C301B2010E94193918161CF48A
:101140008DE692E00CC02FEF3FEF4FE75FE4C70161
:10115000B6010E949E3C181684F481E792E0FF904D
:10116000EF90DF90CF90BF90AF909F908F907F9047
:101170006F905F904F900C948F1D2FEF3FEF4FE7D4
:101180005FECC701B6010E94193987FDE6CF20E068
:1011900030E0A901C701B6010E94193987FF11C0CB
:1011A000E0915703F09158030190F081E02D6DE23A
:1011B00087E593E019954C01F7FAF094F7F8F0946D
:1011C00002C0812C912CA12C60E070E080E09FE3B4
:1011D000AB1441F020E030E040E251E40E94053CD5
:1011E000A394F6CF9B01AC01C701B6010E94A13BBD
:1011F0002B013C010E94723C6B017C010E941D3955
:101200009B01AC01C301B2010E94A03B2B013C0138
:101210004AE0C701B6010E9408087C01E80CF91CED
:10122000BB2031F085E792E00E948F1DE80EF91E89
:10123000DB2CDD2069F120E030E040E251E4C30125
:10124000B2010E947E392B013C010E946D3C4B0192
:10125000AA2497FCA094BA2CB7FE05C0C501B4011E
:101260000E94490805C04AE0C501B4010E9408086F
:10127000E80EF91EC501B4010E941F399B01AC01A3
:10128000C301B2010E94A03B2B013C01DA94D1CFF3
:10129000C701FF90EF90DF90CF90BF90AF909F90ED
:1012A0008F907F906F905F904F900895CF93DF93D2
:1012B000BC01882777FD8095982F97FF03C00E9477
:1012C000490803C04AE00E940808EC010E94860514
:1012D0008C0F9D1FDF91CF9108954115510551F459
:1012E000E0915703F09158030190F081E02D87E5DC
:1012F00093E019940C940808CF93DF93AB01BC01E1
:1013000080E090E00E946D09EC010E9486058C0F40
:101310009D1FDF91CF910895CF93DF934AE00E9404
:101320000808EC010E9486058C0F9D1FDF91CF916C
:1013300008950C947008CF93DF9342E00E947008E8
:10134000EC010E9486058C0F9D1FDF91CF910895BF
:101350000F931F93CF93DF93EC010E94CE118B016B
:101360000E9405188F3F49F00E94CE11601B710B3F
:101370006C177D07A8F380E001C081E0DF91CF9179
:101380001F910F91089561E08091010B0C94DB1087
:101390008091030B811101C008958091040B9091FD
:1013A000050B9C012F5F3F4F3093050B2093040BDF
:1013B0008230924018F40E940518EFCF0E94C309B2
:1013C0001092030B0895CF92DF92EF92FF921F933A
:1013D000CF93DF93182F6A017B010E94C80960E058
:1013E0008091010B0E94DB108CE291E00E94A80921
:1013F000812F80640E943518C8E1D0E0D701C60172
:101400000C2E04C0B695A795979587950A94D2F7A8
:101410000E9435182897C83F8FEFD80779F7112316
:1014200021F0183021F487E803C085E901C08FEF6F
:101430000E943518C0E00E9405188093070B87FFB3
:1014400004C0CF3F11F0CF5FF6CFDF91CF911F9156
:10145000FF90EF90DF90CF900895CF93DF930E949D
:10146000CE11EB010E9405188093070B8F3F49F4C2
:101470000E94CE116C1B7D0B6D32714098F38FE092
:1014800003C08E3F39F08DE08093020B0E94C309A8
:1014900080E001C081E0DF91CF910895CF92DF928B
:1014A000EF92FF920F931F93CF93DF938A01413006
:1014B000524008F061C02091030B222399F0C090A4
:1014C000FD0AD090FE0AE090FF0AF090000B6C1528
:1014D0007D058E059F0531F42091040B3091050B9D
:1014E000232B49F16093FD0A7093FE0A8093FF0A53
:1014F0009093000B2091080B233039F029E0660F00
:10150000771F881F991F2A95D1F7AB01BC0181E194
:101510000E94E309882321F083E08093020B2CC012
:101520000E942D0A882341F11092050B1092040BA2
:1015300081E08093030BC0E0D0E0C017D10741F0F9
:101540000E940518FE01E651F94F828B2196F5CFD6
:101550008091040B9091050BC80FD91FD093050BF8
:10156000C093040B8091060B882319F0C115D2405B
:1015700038F00E94C80904C00E94C30980E001C07D
:1015800081E0DF91CF911F910F91FF90EF90DF905D
:10159000CF900895CF93DF93AB01682F70E080E088
:1015A00090E00E946D09EC010E9486058C0F9D1F42
:1015B000DF91CF91089580917B00877F80937B009E
:1015C00080E480937C0080917A00806480937A002C
:1015D00080917A0086FDFCCF80917800209179007F
:1015E00090E0922B08950F931F93CF93DF93C82F12
:1015F00066E380EA9BE00E94420E6C2F80EA9BE04B
:101600000E94A00B60E080EA9BE00E94C80D42E0CF
:1016100050E066E370E080EA9BE00E94710EC9EE44
:10162000D3E02091890230E080918A02281B3109A1
:10163000223031054CF4219739F061E070E080E010
:1016400090E00E949411EDCF80EA9BE00E94470B4E
:10165000C82F80EA9BE00E94470B1C2F00E09801F6
:10166000282BC901DF91CF911F910F910895089503
:10167000E0918A0280918902E81730F4F0E0E05F9F
:10168000FC4F808190E008958FEF9FEF0895909137
:101690008A0280918902981750F4E92FF0E0E05F08
:1016A000FC4F208130E09F5F90938A0202C02FEFB1
:1016B0003FEFC90108958091890290E020918A024C
:1016C000821B91090895CF92DF92EF92FF920F93C0
:1016D0001F93CF93DF937C018A018091AE02882310
:1016E00089F0EB016B01C40ED51ECC15DD05F1F0C0
:1016F0006991D701ED91FC910190F081E02DC70136
:101700001995F3CF842F413288F490915603943089
:1017100069F44093D502FB0123EB32E0D9019A2F03
:10172000921B981718F491919D93F9CFC801DF91FE
:10173000CF911F910F91FF90EF90DF90CF90089580
:101740002091AE022223C9F02091AD02203240F058
:1017500021E030E0FC013383228380E090E00895B3
:101760008091AC02E82FF0E0E457FD4F60838F5F7B
:101770008093AC028093AD0209C0809156038430FF
:1017800029F481E08093D5026093B30281E090E078
:101790000895FC01918D828D981759F0828DDF019B
:1017A000A80FB11D5D968C91928D9F5F928F90E0F6
:1017B00008958FEF9FEF0895FC01918D828D98170A
:1017C00031F0828DE80FF11D858D90E008958FEF47
:1017D0009FEF0895FC01918D828D981B892F90E0D9
:1017E000089580E090E0892B21F00E94071081117C
:1017F00021C080E090E0892B21F00E94111081111E
:101800001CC080E090E0892B41F080E090E0892BC3
:1018100021F00E940000811113C080E090E0892B2C
:10182000A1F080E090E0892B81F00E9400008111FE
:101830000AC008950E940000DCCF0E940000E1CFA2
:101840000E940000EACF0C9400000895CF93DF932C
:10185000CCEBD0E018821092560381E080935503C0
:101860001092500361E084E10E94DB1061E085E1A9
:101870000E94DB10E9EBF0E080818E7F8083808125
:101880008D7F808388E48093B80085E48883DF912E
:10189000CF910895882349F01092AF021092B002C0
:1018A0001092B1021092B20213C08091AF029091D7
:1018B000B002A091B102B091B2020196A11DB11D7A
:1018C0008093AF029093B002A093B102B093B202A2
:1018D0008091AF029091B002A091B102B091B2029A
:1018E000803A9648A140B10560F01092AF02109284
:1018F000B0021092B1021092B2020E94260C81E056
:10190000089580E0089585ED8093BC0081E00E94F9
:101910004A0C8091BC0084FF06C080E00E944A0C03
:101920008823B9F302C01092560308951F920F92B4
:101930000FB60F9211240BB60F922F933F934F9334
:101940005F936F937F938F939F93AF93BF93EF9327
:10195000FF938091B900887F803609F49CC068F5B8
:10196000883209F45BC090F4803109F454C038F433
:10197000882309F4F6C0883009F44DC0F6C08831D8
:1019800009F44CC0803209F45DC0EFC0803409F422
:1019900068C048F4803309F455C0883309F0E5C0C5
:1019A00080935403D8C0803509F44FC0883509F4BA
:1019B0005DC0883409F0D9C0D6C0883909F4C7C0E1
:1019C000A8F4883709F467C038F4883609F463C08E
:1019D000803709F460C0C9C0883809F4B8C08039BC
:1019E00009F45FC0803809F0C0C05BC0803B09F4D7
:1019F00086C038F4803A09F466C0883A09F47FC09A
:101A0000B4C0803C09F4A7C0883C09F4A4C0883B5A
:101A100009F48AC0AAC08091510310C09091530369
:101A200080915203981770F5E091530381E08E0F77
:101A300080935303F0E0E05DFC4F80818093BB0016
:101A400085EC86C0809354038EC0E091530381E0FF
:101A50008E0F809353038091BB00F0E0E05DFC4F5C
:101A6000808390915303809152036EC0E0915303A1
:101A700081E08E0F809353038091BB00F0E0E05D26
:101A8000FC4F80838091550381116DC081E080936C
:101A9000500384EA61C083E0809356031092F902F8
:101AA000CFCF8091F902803208F051C0E091F90265
:101AB00081E08E0F8093F9028091BB00F0E0E75245
:101AC000FD4F8083BDCF85EC8093BC001092560300
:101AD0008091F902803230F4E091F902F0E0E752AF
:101AE000FD4F10826091F90270E0E091D702F09111
:101AF000D80289ED92E019951092F90236C084E07F
:101B0000809356031092D6021092D502E091D30230
:101B1000F091D40219958091D502811105C081E020
:101B20008093D5021092B302E091D60281E08E0F2D
:101B30008093D602F0E0ED54FD4F80818093BB008E
:101B40009091D6028091D502981708F479CF85E854
:101B50008093BC000AC085EC8093BC0010925603B1
:101B600004C0109254030E94830CFF91EF91BF9127
:101B7000AF919F918F917F916F915F914F913F9125
:101B80002F910F900BBE0F900FBE0F901F901895C6
:101B90000F931F93CF93DF931091AD02D0918B02DF
:101BA000113208F05EC0062F81E00E944A0CC091FD
:101BB0005603CC2339F080E00E944A0C8823B9F305
:101BC000C5E054C082E080935603009355038FEF25
:101BD000809354031092530310935203ACE8B2E085
:101BE00020E333E0F9018E2F821B811718F48D91C9
:101BF0008193F9CF10925103909151038D2F880F4B
:101C0000892B8093510380915003813061F41092AD
:101C10005003809151038093BB008091BC0083FDF1
:101C2000F8CF85EC01C085EE8093BC0081E00E9476
:101C30004A0C80915603823031F480E00E944A0CB5
:101C40008111BECFF6CF809154038F3F79F0809100
:101C50005403803241F080915403803331F0C4E06A
:101C600005C0C1E003C0C2E001C0C3E01092AC02F5
:101C70001092AD021092AE028C2FDF91CF911F9186
:101C80000F91089581E08093AE0260938B021092D1
:101C9000AC021092AD0208951F93CF93DF931F9271
:101CA000CDB7DEB7162FFC01638180EA9BE0298364
:101CB0000E94420E612F80EA9BE00E94A00B2981C6
:101CC000622F80EA9BE00E94A00B0F90DF91CF91E2
:101CD0001F910C94D31B20E030E0A90160E80C9424
:101CE0004C0E862F413208F040E2642F0E94D81B30
:101CF00010928A028093890208951F93CF93DF93F5
:101D0000EC01162F6B8180EA9BE00E94420E612F4E
:101D100080EA9BE00E94A00B0E94D31B6B81772777
:101D200067FD709542E050E080EA9BE00E94710EF2
:101D300080EA9BE00E94470BEC0180EA9BE00E9456
:101D4000470B20E030E0382FC9018C2B9D2BDF9111
:101D5000CF911F910895EF92FF920F931F93CF930E
:101D6000DF93EC017B018A0123E030E040E050E0AA
:101D700060E80E944C0E8E819F81009739F0019798
:101D800051F468E770E080E090E009C06FE070E037
:101D900080E090E004C062EC71E080E090E00E949E
:101DA00094116CEACE010E947D0EF701918380832D
:101DB0006EEACE010E947D0EF80191838083CE01F0
:101DC000DF91CF911F910F91FF90EF900C946B0ECC
:101DD00010928A02109289021092AC021092AD0207
:101DE0000C94260CCF93DF93EC0180EA9BE00E94D9
:101DF000E80E6B8180EA9BE00E94420E6AE080EA76
:101E00009BE00E94A00B0E94D31B6B81772767FD8C
:101E1000709541E050E080EA9BE00E94710E80EAFC
:101E20009BE00E94470B8A7089F081E08C836E8171
:101E30007F81CE010E94891B68857985CE010E9431
:101E40006E1ACE010E946B0E81E001C080E0DF912E
:101E5000CF910895FC01848DDF01A80FB11DA35E11
:101E6000BE4F2C91848D90E001968F739927848FBB
:101E7000A689B7892C93A089B1898C9180648C93B1
:101E8000938D848D981306C00288F389E02D80819C
:101E90008F7D80830895EF92FF920F931F93CF93CE
:101EA000DF93EC0181E0888F9B8D8C8D981305C0AA
:101EB000E889F989808185FD24C0F62E0B8D10E01C
:101EC0000F5F1F4F0F731127E02E8C8DE8120CC08F
:101ED0000FB607FCFACFE889F989808185FFF5CF35
:101EE000CE010E942A0FF1CF8B8DFE01E80FF11D6C
:101EF000E35EFE4FF0820B8FEA89FB89808180626E
:101F000007C0EE89FF896083E889F9898081806450
:101F1000808381E090E0DF91CF911F910F91FF903E
:101F2000EF900895CF93DF93EC01888D8823C9F05B
:101F3000EA89FB89808185FD05C0A889B9898C91D2
:101F400086FD0FC00FB607FCF5CF808185FFF2CF6D
:101F5000A889B9898C9185FFEDCFCE010E942A0F07
:101F6000E7CFDF91CF910895CF92DF92EF92FF926A
:101F70000F931F93CF93DF936C017A018B01C0E025
:101F8000D0E0CE15DF0589F0D8016D918D01D60125
:101F9000ED91FC910190F081E02DC6011995892BFE
:101FA00011F47E0102C02196ECCFC701DF91CF91E1
:101FB0001F910F91FF90EF90DF90CF9008953FB762
:101FC000F8948091010390910203A0910303B091D2
:101FD000040326B5A89B05C02F3F19F00196A11D4B
:101FE000B11D3FBFBA2FA92F982F8827820F911DAF
:101FF000A11DB11DBC01CD0142E0660F771F881FF6
:10200000991F4A95D1F7089508950E947C3B87E572
:1020100093E00E94EA0B21E0892B09F420E0822F53
:10202000089584EB94E00E94EA0B21E0892B09F4E7
:1020300020E0822F08950C94E43A1F920F920FB67D
:102040000F9211240BB60F922F933F934F935F93F0
:102050006F937F938F939F93AF93BF93EF93FF9370
:1020600087E593E00E942A0FFF91EF91BF91AF9116
:102070009F918F917F916F915F914F913F912F91A0
:102080000F900BBE0F900FBE0F901F9018951F92D0
:102090000F920FB60F9211240BB60F922F938F93BE
:1020A0009F93EF93FF93E0916703F0916803808122
:1020B000E0916D03F0916E0382FD11C090818091DB
:1020C00070038F5F20917103821751F0E0917003CC
:1020D000F0E0E95AFC4F958F8093700301C0808136
:1020E000FF91EF919F918F912F910F900BBE0F90C9
:1020F0000FBE0F901F9018951F920F920FB60F9260
:1021000011240BB60F922F933F934F935F936F93CE
:102110007F938F939F93AF93BF93EF93FF9384EB42
:1021200094E00E942A0FFF91EF91BF91AF919F9190
:102130008F917F916F915F914F913F912F910F9070
:102140000BBE0F900FBE0F901F9018951F920F920D
:102150000FB60F9211240BB60F922F938F939F936C
:10216000EF93FF93E091C404F091C5048081E09166
:10217000CA04F091CB0482FD11C090818091CD04FE
:102180008F5F2091CE04821751F0E091CD04F0E0F2
:10219000EC54FB4F958F8093CD0401C08081FF915B
:1021A000EF919F918F912F910F900BBE0F900FBECB
:1021B0000F901F901895362F90E0FC01E45BFA4FCA
:1021C0004491FC01EC54F64F2491FC01E259F64F86
:1021D0009491992309F46BC0442309F455C050E04D
:1021E000FA013197E231F10508F04EC08827E35536
:1021F000FF4F8F4F0C94273D809180008F7707C051
:10220000809180008F7D03C080918000877F8093C4
:1022100080003AC084B58F7702C084B58F7D84BDBD
:1022200033C08091B0008F7703C08091B0008F7D64
:102230008093B00029C0809190008F7707C0809173
:1022400090008F7D03C080919000877F80939000E5
:102250001BC08091A0008F7707C08091A0008F7D68
:1022600003C08091A000877F8093A0000DC0809163
:1022700020018F7707C0809120018F7D03C080915E
:102280002001877F80932001E92FF0E0EE0FFF1FF0
:10229000ED54FD4FA591B4918FB7F894EC913111A5
:1022A00003C020952E2301C02E2B2C938FBF0895A1
:1022B000CF93DF9390E0FC01EC54F64F2491FC01A6
:1022C000E259F64F8491882361F190E0880F991FBD
:1022D000FC01E65CF64FC591D491FC01ED54FD4F35
:1022E000A591B491611109C09FB7F8948881209598
:1022F00082238883EC912E230BC0623061F49FB758
:10230000F8943881822F809583238883EC912E2B3B
:102310002C939FBF06C08FB7F894E8812E2B28839B
:102320008FBFDF91CF9108958F929F92AF92BF920E
:10233000CF92DF92EF92FF926B017C010E94DF0F40
:102340004B015C01C114D104E104F104F1F00E94DD
:10235000DF0FDC01CB0188199909AA09BB09883E66
:102360009340A105B10570F321E0C21AD108E1083C
:10237000F10888EE880E83E0981EA11CB11CC114E0
:10238000D104E104F10419F7DDCFFF90EF90DF9065
:10239000CF90BF90AF909F908F9008952FB7F894F3
:1023A0006091FD027091FE028091FF029091000306
:1023B0002FBF08951F920F920FB60F9211242F93E3
:1023C0003F938F939F93AF93BF938091FD02909122
:1023D000FE02A091FF02B09100033091FC0223E0C5
:1023E000230F2D3720F40196A11DB11D05C026E84D
:1023F000230F0296A11DB11D2093FC028093FD02C4
:102400009093FE02A093FF02B0930003809101031A
:1024100090910203A0910303B09104030196A11DC2
:10242000B11D8093010390930203A0930303B09323
:102430000403BF91AF919F918F913F912F910F9086
:102440000FBE0F901F9018950895CF92DF92EF92D4
:10245000FF92CF93DF9320E030E0A9016091060C5A
:102460007091070C8091080C9091090C0E94193909
:102470008823A1F080E398E00E94B21B6091060CD3
:102480007091070C8091080C9091090C42E050E08B
:102490000E9499098CE298E00E94B21BC0900A0C3D
:1024A000D0900B0CE0900C0CF0900D0C20E030E084
:1024B00048EC52E4C701B6010E941939181654F0CD
:1024C00042E050E0C701B6010E9499098AE298E013
:1024D0000E94B21B0E948605C090FE0BD090FF0B9D
:1024E000E090000CF090010C20E030E0A901C70161
:1024F000B6010E949E3C18164CF442E050E0C70121
:10250000B6010E94990987E298E002C084E298E04F
:102510000E94B21BC090FA0BD090FB0BE090FC0B1A
:10252000F090FD0B20E030E04AE754E4C701B6012B
:102530000E9419398823A9F026E636E646EE5FE3C5
:10254000C701B6010E947E3920E030E040E052E44D
:102550000E94A13B42E050E00E94990980E298E08D
:1025600002C08DE198E00E948A058AE198E00E940D
:10257000B21B60911A0C70911B0C80911C0C9091F5
:102580001D0C4AE050E00E946D0988E198E00E942D
:10259000B21B6091160C7091170C80E090E04AE03D
:1025A0000E94080886E198E00E94B21B6091180C16
:1025B0007091190C80E090E04AE00E94080884E1E4
:1025C00098E00E94B21B6091020C7091030C809104
:1025D000040C9091050C0E949B0981E198E00E94F7
:1025E000B21B60912A0C70912B0C80912C0C909155
:1025F0002D0C42E050E00E9499098FE098E00E9483
:10260000B21B60912E0C70912F0C8091300C909128
:10261000310C42E050E00E9499098DE098E00E9460
:10262000B21B6091320C7091330C8091340C9091FC
:10263000350C0E949B098AE098E00E94B21B6091D1
:102640001E0C70911F0C8091200C9091210C42E087
:1026500050E00E94990988E098E00E94B21B6091C6
:10266000220C7091230C8091240C9091250C42E057
:1026700050E00E94990986E098E00E94B21B6091A8
:10268000260C7091270C8091280C9091290C0E94A7
:102690009B0983E098E00E94B21B6091360C709118
:1026A000370C8091380C9091390C42E050E00E9438
:1026B000990981E098E00E94B21B60913A0C7091F8
:1026C0003B0C80913C0C90913D0C42E050E00E940C
:1026D00099098FEF97E00E94B21B60913E0C7091B8
:1026E0003F0C8091400C9091410C0E949B0960919D
:1026F0000E0C70910F0C8091100C9091110C42E017
:1027000050E00E9499098AEF97E00E94B21B2CEBDF
:1027100034E743E95CE36091120C7091130C8091F3
:10272000140C9091150C0E947E3920E030E040E0BE
:1027300052E40E94A13B42E050E00E94990986EFDA
:1027400097E00E948A058CEE97E00E94B21B26E675
:1027500036E646EE5FE36091F60B7091F70B8091E1
:10276000F80B9091F90B0E947E3920E030E040E0B8
:1027700052E40E94A13B42E050E00E94990988EE99
:1027800097E00E948A056091610C7091620C8091C3
:10279000630C9091640C4AE050E00E946D0985EE54
:1027A00097E00E94B21B6091650C7091660C80915D
:1027B000670C9091680C4AE050E00E946D0982EE2F
:1027C00097E00E94B21B6091480C7091490C809177
:1027D0004A0C90914B0C46E050E00E9499098FED15
:1027E00097E00E94B21B60914C0C70914D0C80914F
:1027F0004E0C90914F0C46E050E00E9499098CEDF0
:1028000097E00E94B21B6091500C7091510C809126
:10281000520C9091530C46E050E00E94990987EDCC
:1028200097E00E94B21B6091540C7091550C8091FE
:10283000560C9091570C42E050E00E94990980EDAF
:1028400097E00E94B21B6091580C7091590C8091D6
:102850005A0C90915B0C42E050E00E94990989EC7F
:1028600097E00E94B21B6091600C70E080E090E005
:102870004AE00E9408088BEB97E00E94B21B80910F
:102880005C0C90915D0CC4E6D0E0BE010E94BE3CA1
:1028900080E090E00E941D3941E050E00E949909DB
:1028A00080EB97E00E94B21B80915E0C90915F0CD0
:1028B000BE010E94BE3C80E090E00E941D3941E0D4
:1028C00050E00E9499098DEA97E00E948A0581EA0A
:1028D00097E00E94B21B6091E2067091E30680913E
:1028E000E4069091E5060E948C0988E997E00E9431
:1028F000B21B6091E90B7091EA0B80E090E04AE036
:102900000E94080886E997E00E94B21B6091EB0BD9
:102910007091EC0B80E090E04AE00E94080884E9A6
:1029200097E00E94B21B8091ED0B9091EE0B6AE054
:1029300070E00E947C098AE897E00E94B21B0E9426
:10294000CE1128EE33E040E050E00E94E63CCA01A0
:10295000B9014AE050E00E946D0980E897E0DF91FC
:10296000CF91FF90EF90DF90CF900C948A051F924B
:102970000F920FB60F9211242F938F939F93209154
:10298000060127FD0DC08091FB0287FF09C08091E1
:10299000ED0B9091EE0B01969093EE0B8093ED0B67
:1029A0002093FB029F918F912F910F900FBE0F905C
:1029B0001F9018951F920F920FB60F9211242F930C
:1029C0003F938F939F938091030181FD0EC090915F
:1029D000FA0291FF0AC02091E90B3091EA0B2F5FB8
:1029E0003F4F3093EA0B2093E90B80FD0EC090918E
:1029F000FA0290FF0AC02091EB0B3091EC0B2F5F95
:102A00003F4F3093EC0B2093EB0B8093FA029F9196
:102A10008F913F912F910F900FBE0F901F9018959F
:102A2000DC01FC0180E090E070E09F012A1B3B0B81
:102A30002617370704F5419150E049279A01689419
:102A400013F8359527951694E1F724273527982F05
:102A50008827A90148275927C901982F88279295C7
:102A6000907F8427952745E0220F331F4A95E1F791
:102A700082279327DACF0895FC01AC014E5F5F4FA8
:102A80008FEF91E32191822728E030E087FF03C098
:102A9000880F892701C0880F21503109B9F7E41741
:102AA000F50781F708950895FC01658308950F9354
:102AB0001F93CF93DF938C01EB0188E2FB0111920E
:102AC0008A95E9F74BE050E067E772E0CE010E949B
:102AD000913B1B8681E090E0A0E0B0E08C879D8771
:102AE000AE87BF87F80182859385A485B585888BDD
:102AF000998BAA8BBB8B85E090E0A0E0B0E08C8B3B
:102B00009D8BAE8BBF8B1CA21DA21EA21FA280E0BC
:102B100090EDA4E8B6E4888F998FAA8FBB8F1C8EA6
:102B20001D8E1E8E1F8E80E090E0A0E8BFE388A37C
:102B300099A3AAA3BBA3DF91CF911F910F910895F1
:102B4000CF92DF92EF92FF92CF93C82F80E48C0F49
:102B50000E9496058C2F8F708430C1F048F4882332
:102B600081F08230F1F463E070E080E090E017C023
:102B7000863089F08830A9F46AE070E080E090E067
:102B80000EC08BE09EE00197F1F70BC064E070E0AF
:102B900080E090E004C066E070E080E090E00E9499
:102BA000941180E00E9496056091C40B772767FD21
:102BB000709543E050E08091C50B9091C60B0E9448
:102BC000710E8091C50B9091C60BDC01ED91FC91CB
:102BD0000680F781E02D19956C01EE24D7FCE09476
:102BE000FE2C7601DD24CC248091C50B9091C60B80
:102BF000DC01ED91FC910680F781E02D1995AA2763
:102C000097FDA095BA2FBA2FA92F982F8827C80E05
:102C1000D91EEA1EFB1E8091C50B9091C60BDC01EC
:102C2000ED91FC910680F781E02D1995AA2797FD7B
:102C3000A095BA2FC80ED91EEA1EFB1E61E0809136
:102C4000C50B9091C60B0E94C80DC701B601CF916C
:102C5000FF90EF90DF90CF900895DF92EF92FF9278
:102C60000F931F93CF93DF9300D000D0CDB7DEB783
:102C700080E094E20E94F10764EF71E080E090E070
:102C80000E94941166E08091970B0E94EB05809161
:102C9000890290E020918A02821B9109069709F02F
:102CA0005FC0CE0101967C018C0186E0D82EDE0C3F
:102CB00080EA9BE00E94470BF80181938F01DE12AE
:102CC000F7CFD9800A811B81C7010E943C151813D8
:102CD00047C0FC801D81EE80CE0104960E943C1509
:102CE000E8123EC0602F70E07D2980E090E00E94F5
:102CF0001D3920E030E04FE253E40E947E3920E0AD
:102D00003FEF4FE757E40E94053C20E030E044E30A
:102D100052E40E94A03B60939C0B70939D0B8093A8
:102D20009E0B90939F0B612F70E07F2980E090E0D5
:102D30000E941D3920E030E048EC52E40E947E39C8
:102D400020E03FEF4FE757E40E94053C6093980B6B
:102D50007093990B80939A0B90939B0B81E001C029
:102D600080E026960FB6F894DEBF0FBECDBFDF9190
:102D7000CF911F910F91FF90EF90DF900895CF9327
:102D8000CFB7F89480910F03811127C0E3EAF9E0EF
:102D90008491E9EEF9E09491E82FF0E0EE0FFF1F47
:102DA000E65CF64FA591B491EC91E92321F461E042
:102DB00085E30E94DB1061E085E30E9458118CB529
:102DC00080618CBD8CB580648CBD61E084E30E9421
:102DD000581161E083E30E94581180910F038F5FC7
:102DE00080930F03CFBFCF910895CF93DF93EC0172
:102DF0008A859B85AC85BD858E839F83A887B9878F
:102E00000E94CE116A837B838C839D8381E08983BA
:102E10008883DF91CF9108952F923F924F925F92D6
:102E20006F927F928F929F92AF92BF92CF92DF92DA
:102E3000EF92FF920F931F93CF93DF93D82FC92F59
:102E40008B010E94BA3824E630E040E050E00E9456
:102E5000E63C49015A019B01AC0160E876E988E94A
:102E600090E00E94AE3C6B017C01F801918280826F
:102E7000ED2FFC2F2191822F992787FD9095C097E8
:102E80000A97C0F32E3239F51F0180E8882E86E9B3
:102E9000982E88E9A82EB12C9AE0492E512C612C4D
:102EA000712CF101C1911F01DD27C7FDD095E0977D
:102EB000CA30D10580F4C501B401A30192010E947A
:102EC000E63C49015A01DE010E94A63CC60ED71E0F
:102ED000E81EF91EE6CFA5E0B0E0A70196010E942A
:102EE000353A6F5F7F4F8F4F9F4F23E030E040E0D8
:102EF00050E00E94E63CF8012283338344835583EB
:102F00001682DF91CF911F910F91FF90EF90DF908C
:102F1000CF90BF90AF909F908F907F906F905F9079
:102F20004F903F902F900895FF920F931F93CF9350
:102F3000DF93EC01FF24F39488818D3211F0F12CA2
:102F400001C02196CE010E94BA389B01AC01A4E6D3
:102F5000B0E00E94353AFE014991242F332727FD26
:102F60003095205331092A303105A8F34E3241F50E
:102F70002181332727FD3095205331092A3031052F
:102F8000F8F44AE0429F8001439F100D112422274C
:102F900017FD2095322F600F711F821F931F028132
:102FA000112707FD1095005311090A30110540F44F
:102FB000222717FD2095322F600F711F821F931F4C
:102FC000FF2039F090958095709561957F4F8F4FD8
:102FD0009F4FDF91CF911F910F91FF9008959CB566
:102FE000282F23709C7F922B9CBD2DB582FB9927A7
:102FF00090F9822F8E7F892B8DBD08958EBD0000A4
:103000000DB407FEFDCF8EB5089580910E038F3F5E
:1030100011F40C94FE17F894E0910C03F0910D0359
:10302000908180910B03892B808328E080E0E091E0
:103030000903F0910A03308190910803392B308302
:10304000880FA0910603B09107034C9130910503BE
:10305000342309F0816030819095932390830000A0
:103060000000215021F77894089590910E039F3F1E
:1030700011F40C94FE17F89438E0E0910903F091F4
:103080000A03908120910803422F40959423908356
:10309000A0910C03B0910D0390910B034C9187FF0D
:1030A00002C0942B02C0909594239C939081292B6D
:1030B0002083880F315009F7000000000000000055
:1030C000E0910903F0910A039081809108038095B3
:1030D0008923808378940895DC01E0E0615038F022
:1030E0008D91E827F0E0E65CF74FE491F7CF8E2F63
:1030F0000895FC0190810180F281E02DF894818196
:10310000892B81832281892F809528232283A7E020
:10311000B0E01197F1F7218182238183A3E2B0E02F
:103120001197F1F780817894EFECF0E03197F1F7A7
:10313000982381E009F480E00895FC0190810180EA
:10314000F281E02D892F809560FF12C0F8942281D2
:10315000822382838181892B8183A3E2B0E011974E
:10316000F1F78281982B9283789487ED90E011C0DB
:10317000F8942281822382838181892B8183AFEF1E
:10318000B0E01197F1F78281982B928378948FE0C9
:1031900090E00197F1F70895CF92DF92EF92FF92BE
:1031A0000F931F93CF93DF931F92CDB7DEB76C01C0
:1031B000E62E08E010E0FF24F39461E08F2D8E21CD
:1031C00009F460E0C60149830E949D18FF0C01507C
:1031D000110949810115110581F7411115C0F894B4
:1031E000D6011196ED91FC91129791818C91809569
:1031F000892381831196ED91FC91129792818C9194
:1032000080958923828378940F90DF91CF911F91CD
:103210000F91FF90EF90DF90CF900895CF92DF92C3
:10322000EF92FF920F931F93CF93DF931F92CDB72F
:10323000DEB78C01F62E40E065E579830E94CC185C
:10324000CF2C7981D72E760188E0E80EF11CF601AB
:1032500061916F0140E0C8010E94CC18CE14DF04D8
:10326000B1F70F90DF91CF911F910F91FF90EF90E9
:10327000DF90CF900895FC0190810180F281E02DD4
:10328000F8948181292F20958223818378948DE77A
:1032900043E050E0815021F1DA011197F1F73081DC
:1032A0003923C1F3F8948281822382838181892B1F
:1032B00081837894ABE7B7E01197F1F7F8948181B7
:1032C00028232183A3E1B1E01197F1F780819823AE
:1032D00081E009F080E07894E3E6F6E03197F1F7D9
:1032E00008958F929F92AF92BF92CF92DF92EF920A
:1032F000FF92FA01DC0116962D913C91179721154A
:10330000310549F02130310519F448E850E905C08C
:1033100048EE5DEF02C044E253E14617570708F458
:10332000D0C04E175F0708F4CCC02115310581F0DD
:103330002130310539F437EE832E3FE0932EA12C56
:10334000B12C0CC0812C24E0922EA12CB12C06C0F3
:10335000B7E18B2EB5E79B2EA12CB12CDC01189682
:103360008D919C911997892B39F4A4E0880C991CB4
:10337000AA1CBB1CAA95D1F7DB01A50194010E94F0
:10338000353A6B017C016AE0F694E794D794C794D0
:103390006A95D1F7DF010E94353A4B015C017AE072
:1033A000B694A794979487947A95D1F7C114D104D1
:1033B000E104F10471F0C501B4014AE0660F771F22
:1033C000881F991F4A95D1F7A70196010E94E63CF4
:1033D00003C020E030E0A901DA01C9010196A11D76
:1033E000B11DB695A7959795879581349105A1054F
:1033F000B10530F181389105A105B10530F1813C6D
:103400009105A105B10530F1813021E09207A105B8
:10341000B10528F1893331E09307A105B10520F109
:103420008B3941E09407A105B10518F18B39924021
:10343000A105B10518F1E0E0F0E0A0E0B0E022C0A5
:10344000EEEBF1E0A2EFB1E01DC0E1EDF2E0A4E1AE
:10345000B2E018C0EBE7F3E0AFE3B2E013C0EEEF89
:10346000F3E0A0E7B2E00EC0ECEFF1E0AFE6B1E0D0
:1034700009C0EBEFF0E0A2EDB0E004C0E2E1F0E063
:10348000A8E1B0E0A70196010E94353A6B017C01EA
:10349000A0E2DA0EE11CF11CDF01A50194010E94FB
:1034A000353AA7019601261B370B480B590BCA0169
:1034B000B9012EE096958795779567952A95D1F76E
:1034C00004C060E070E081E090E0FF90EF90DF905A
:1034D000CF90BF90AF909F908F9008950F931F93C0
:1034E000CF93DF93EC018B018C81811103C0CE015E
:1034F0000E94F20E23E030E040E050E060E8CE01B0
:103500000E944C0E2E813F81202B312B442737FD0A
:103510004095542F61E8CE010E944C0E1987088710
:10352000CE01DF91CF911F910F910C946B0E8F9272
:103530009F92AF92BF92CF92DF92EF92FF920F9342
:103540001F93CF93DF9300D01F921F92CDB7DEB7AA
:103550008C016B017A01FC018481811103C0C801D7
:103560000E94F20EF8018581811106C0A701B60103
:10357000C8010E94AB0E5BC020E0F80186819781F4
:10358000009799F0019741F458EC852E912C60EA50
:10359000A62E6CE8B62E10C034EF832E9924939497
:1035A00048E1A42E46EFB42E07C084E6882E912C65
:1035B00092EFA92E92E1B92EAE014F5F5F4FBE018F
:1035C0006D5F7F4FC8012D830E94AB0E8B819C8164
:1035D0002D81211124C08815990540F4F80120851A
:1035E0003185232BE1F460E170E00BC0A816B90629
:1035F000B0F4F801208531852031310581F460E097
:1036000070E0C8010E946E1AAE014F5F5F4FBE01AD
:103610006D5F7F4FC8010E94AB0E21E0AECFF60177
:103620009183808389819A81F701918380830F90B0
:103630000F900F900F900F90DF91CF911F910F91EE
:10364000FF90EF90DF90CF90BF90AF909F908F90C2
:103650000895EF92FF920F931F93CF93DF9300D0C3
:103660001F92CDB7DEB77C018B0184E2FB01119282
:103670008A95E9F784E290E0A0E0B0E0FB01808366
:103680009183A283B383F70182859385A485B58551
:10369000FB0184839583A683B78385E090E0A0E057
:1036A000B0E080879187A287B3870E94CE11F8018E
:1036B000608B718B828B938BAE014F5F5F4FBE012E
:1036C0006D5F7F4FC7010E94971A49815A816B81B4
:1036D0007C81C7010E9471190E941D39F801648B19
:1036E000758B868B978B11E020E030E040E857E443
:1036F0000E941939811101C010E0812F0F900F90A5
:103700000F900F90DF91CF911F910F91FF90EF904D
:1037100008950F931F93CF93DF93EC018B018C815E
:10372000811103C0CE010E94F20E23E030E040E0A0
:1037300050E060E8CE010E944C0E28853985202B90
:10374000312B442737FD4095542F61E8CE010E946C
:103750004C0E1F830E83CE01DF91CF911F910F91ED
:103760000C946B0E0F931F93CF93DF938C01C0E0EB
:10377000D0E0F801EC0FFD1F6491662371F0E09139
:103780005703F09158030190F081E02D87E593E015
:103790001995892B11F02196ECCFCE01DF91CF91B5
:1037A0001F910F91089561E080EA9BE00C94C80D91
:1037B000CF93DF93D82FC62F81E00E944A0C8091CF
:1037C0005603882329F080E00E944A0C8823B9F32D
:1037D00081E080935603809355039FEF90935403A9
:1037E000109253039C0F9093520380935103809146
:1037F0005103DD0FD82BD0935103809150038130BA
:1038000061F410925003809151038093BB0080912A
:10381000BC0083FDF8CF85EC01C085EE8093BC0031
:1038200081E00E944A0C80915603813029F480E0A7
:103830000E944A0C8823B9F3809153038C1710F42B
:10384000C0915303A0E3B3E020E133E0F9018E2FF0
:10385000821B8C1718F48D918193F9CF8C2FDF91F7
:10386000CF910895AF92BF92CF92DF92EF92FF92E5
:103870000F931F93CF93DF93EC018B018091CC0BBF
:103880009091CD0B0E943B198823A1F1BE0180913C
:10389000CC0B9091CD0B0E940E1940E06EEB809105
:1038A000CC0B9091CD0B0E94CC18E801680189E007
:1038B000C80ED11CA090CC0BB090CD0B88E0E82EA8
:1038C000F12C01E010E0C5010E9479188111102B44
:1038D000000F81E0E81AF108B1F71993CC15DD0566
:1038E00049F78091CC0B9091CD0B0E943B1991E050
:1038F000813009F090E0892FDF91CF911F910F91D6
:10390000FF90EF90DF90CF90BF90AF900895CF934E
:10391000DF93EB010E94321C882339F068E0CE016E
:103920000E946C1891E02885821390E0892FDF9126
:10393000CF910895CF93DF93CDB7DEB729970FB618
:10394000F894DEBF0FBECDBFFC0120812031D1F045
:10395000BE016F5F7F4F0E94871C882389F08D8195
:103960008F3361F020F48F3159F489E00CC08F352A
:1039700019F08F3739F004C08BE005C08AE003C02E
:1039800080E001C08CE029960FB6F894DEBF0FBE30
:10399000CDBFDF91CF910895AF92BF92CF92DF92CA
:1039A000EF92FF920F931F93CF93DF931F92CDB7A8
:1039B000DEB75C01D62EE72EFC018585811105C09E
:1039C000C5010E943B19811106C0F50113861586B9
:1039D000148680E065C040E060EFC5010E94CC180D
:1039E00001E0F12CC12C11E0C5010E947918682F6B
:1039F000C50169830E9479186981613019F48130A9
:103A0000B9F433C04F2D50E068131BC0F501838516
:103A1000181730F4E40FF51F8381802349F402C0A6
:103A2000181731F060E0193058F4F501148708C018
:103A3000F501EF0DF11D8381802B838361E009C0C7
:103A4000C12EF501E40FF51F9381802F8095892306
:103A50008383C5010E949D181F5F000F11F4F3942A
:103A600001E0F7E0FF1508F0BFCF113408F4ADCF47
:103A7000F501C386C11002C081E08587F50183810D
:103A8000882309F4A2CFD5011396ED2DFE2D9501C3
:103A9000255F3F4F8D918193A217B307D9F781E03E
:103AA0000F90DF91CF911F910F91FF90EF90DF90DA
:103AB000CF90BF90AF9008950F931F93CF93DF9354
:103AC0008C01D62FE091CC0BF091CD0B138615868F
:103AD0001486DF011B9633961E92AE17BF07E1F7DF
:103AE000C0E0B8018091CC0B9091CD0B0E94CC1C12
:103AF000882381F0CD130AC067E0C8010E946C18CA
:103B0000F8019781891302C081E004C0CF5FDC1700
:103B100040F780E0DF91CF911F910F9108950097BA
:103B200069F0FC0101900020E9F73197AF01481BD3
:103B3000590BBC0187E593E00C94B40F80E090E052
:103B40000895CF93DF93CDB7DEB7E9970FB6F8941A
:103B5000DEBF0FBECDBF789484B5826084BD84B5CE
:103B6000816084BD85B5826085BD85B5816085BD78
:103B700080916E00816080936E0010928100809130
:103B800081008260809381008091810081608093B8
:103B90008100809180008160809380008091B100DD
:103BA00084608093B1008091B00081608093B00008
:103BB000809191008260809391008091910081605A
:103BC000809391008091900081608093900080911B
:103BD000A10082608093A1008091A1008160809308
:103BE000A1008091A00081608093A00080912101BC
:103BF0008260809321018091210181608093210165
:103C00008091200181608093200180917A008460FE
:103C100080937A0080917A00826080937A0080910C
:103C20007A00816080937A0080917A008068809326
:103C30007A001092C10061E084E00E94581161E0B6
:103C400089E00E9458118CEA92E00E94B21B4AE07F
:103C500068EE73E080E090E00E94080882EA92E05B
:103C60000E94B21B4AE050E064EF71E080E090E017
:103C70000E946D0986E992E00E94B21B6AE070E042
:103C800088EE93E00E947C0900E010E07BECE72ED8
:103C900077E0F72E61E084E00E94DB10C701019716
:103CA000F1F760E084E00E94DB10C7010197F1F7B3
:103CB0000F5F1F4F083E23E0120761F7E091670393
:103CC000F091680302E00083E0916303F0916403E4
:103CD0001082E0916503F091660380E18083109289
:103CE0006F03E0916B03F0916C0316E01083E09199
:103CF0006903F0916A03808180618083E0916903A8
:103D0000F0916A03808188608083E0916903F0917B
:103D10006A03808180688083E0916903F0916A037F
:103D200080818F7D808382E395E00E948A0584E113
:103D300095E00E94B21B80E091E00E94560981E06C
:103D400095E00E948A05E091C404F091C5040083C7
:103D5000E091C004F091C1041082E091C204F0919E
:103D6000C3048FEC80831092CC04E091C804F091DE
:103D7000C9041083E091C604F091C704808180617A
:103D80008083E091C604F091C704808188608083BD
:103D9000E091C604F091C704808180688083E0913F
:103DA000C604F091C70480818F7D808380EA898B6F
:103DB00081EA8A8B1B8A89E08C8BE6E0F2E0DE01E7
:103DC000119601900D928A95E1F7FE0131969E01C0
:103DD000265F3F4F80E091918927E217F307D9F7DB
:103DE0009DE09E8F9AE09F8F8D8F5091CF044091E0
:103DF000D004252F30E0842F90E0821B930B5417C2
:103E000010F0CF9601C001974097DCF044E050E0FD
:103E1000BE016F5E7F4F84EB94E00E94B40F49E0D7
:103E200050E0BE016F5F7F4F84EB94E00E94B40FBF
:103E300043E050E0BE01635E7F4F84EB94E00E945C
:103E4000B40F80EA898381EA8A831B8283E08C83B2
:103E500087E38D8F81E08E8F1F8E8DE08A8B8AE0C5
:103E60008B8B86E3898B5091CF044091D004252F12
:103E700030E0842F90E0821B930B541710F0CF9604
:103E800001C001974097DCF044E050E0BE016F5F55
:103E90007F4F84EB94E00E94B40F43E050E0BE01FA
:103EA000635E7F4F84EB94E00E94B40F43E050E0E8
:103EB000BE016F5E7F4F84EB94E00E94B40F8BEEE7
:103EC00094E00E948A051092080B1092060B109243
:103ED000030B1092020B1092090B85E38093010BE8
:103EE0008FEF809387028093860280930E030E9457
:103EF000CE118B0161E08091010B0E9458110E944C
:103F0000C3090E94BF1683E00E94EF176AE0F62EF5
:103F10008FEF0E943518FA94F110FACF60E080918B
:103F2000010B0E94DB1040E050E0BA0180E00E94EB
:103F3000E309F82E8093070B41E0841749F00E94B3
:103F4000CE11601B710B613D774068F381E04EC07C
:103F50004AEA51E060E070E088E00E94E30982FFF5
:103F600003C0F092080B10C054E0F52E0E94051813
:103F70008093070BFA94F110F9CF8A3A11F082E09E
:103F800035C082E08093080B8091080B823021F0CD
:103F9000C12CD12C760105C0C12CD12CE12C40E4E0
:103FA000F42E40E050E0BA0187E30E94E309B70134
:103FB000A60189E20E94E3098093070B882349F058
:103FC0000E94CE11601B710B613D774050F388E079
:103FD0000DC08091080B823031F540E050E0BA010D
:103FE0008AE30E94E309882381F086E08093020B34
:103FF0000E94C3098AE193E00E94B21B60E170E075
:104000008091020B0E94CA0A80C00E940518807C21
:10401000803C19F483E08093080B0E9405180E94ED
:1040200005180E9405180E94C30980910E038F3F56
:1040300011F00C94D02D80E00E94EF170C94D02D3D
:104040000E942D0A882311F40C94E12D8E010F5F3C
:104050001F4F7E0181E1E80EF11C0E940518D80176
:104060008D938D01AE15BF05C1F70E9405180E9402
:1040700005180E94C3098981807C11F00C94E42DFD
:104080006F81637070E0762F6627770F770F8885D2
:10409000B4E08B9FC0011124682B792B8985829510
:1040A000869586958370682B6F5F7F4FCB01A0E06C
:1040B000B0E04A854370440F2B8527FB222720F967
:1040C000422B2E812F7030E0240F311D27503109F3
:1040D00004C0880F991FAA1FBB1F2A95D2F7BC01E5
:1040E000CD0161507109810991096093EA067093CD
:1040F000EB068093EC069093ED064AE050E00E94B8
:104100006D0986E093E00E948A058090EA0690900F
:10411000EB06A090EC06B090ED0644E850E061E0BC
:1041200070E080E090E00E944E0A0CEF16E0F8018B
:1041300084E8800F9191911107C08E13FBCF812CE1
:10414000912C5401839413C044E850E0C501B4019C
:104150000E944E0AECEFF6E00C578191882311F48F
:104160000C94142E81149104A104B104B1F0809236
:10417000EE069092EF06A092F006B092F10688EE5D
:1041800092E00E94B21B6091EE067091EF06809162
:10419000F0069091F1060E948C0984ED94E00E9453
:1041A0008A0562E08EE00E94581162E08FE00E9472
:1041B000581162E085E40E945811F89480916800DB
:1041C00086608093680080916C00866080936C00AC
:1041D00080916D00806880936D0078948CEB94E002
:1041E0000E948A05E091CC0BF091CD0B13861586C9
:1041F0001486DF011B9633961E92AE17BF07E1F7B8
:104200001092CB0B11E0BE016F5F7F4F8091CC0B02
:104210009091CD0B0E94CC1C882309F44BC067E021
:10422000CE0101960E946C1898858913ECCF80917D
:10423000C70B811128C08091CC0B9091CD0B0E94AF
:104240003B19BE016F5F7F4F8091CC0B9091CD0BDE
:104250000E940E1940E064EB8091CC0B9091CD0B45
:104260000E94CC188091CC0B9091CD0B0E947918B4
:10427000082F8091CC0B9091CD0B0E943B1900230D
:1042800011F40C94652E0091C80BCE0101960E948A
:104290009A1C801718F48091C80B04C0CE010196B7
:1042A0000E949A1C8093C80B8091CB0B8F5F8093E8
:1042B000CB0BA9CF8091CB0B882309F4E5C081E01B
:1042C0008093F30B80936E0C8AE08093C80BE12CF3
:1042D000F12C0FE55FE7D52E6FE1C62E7FE3B72EF9
:1042E0008091CB0B90E0E816F9060CF09BC06E2D88
:1042F000CE0141960E945C1D1091C80B193020F030
:104300001D3018F01CE001C019E0CE0141960E945A
:104310009A1C811709F482C0BE016F5F7F4FCE01E6
:1043200041960E94871C882309F478C089898031CE
:1043300009F474C01B3041F01C3021F01A3031F404
:10434000BD8205C0DD8203C00D8301C0CD82809196
:10435000CC0B9091CD0B0E943B19BE016F5E7F4F3D
:104360008091CC0B9091CD0B0E940E1940E06EE431
:104370008091CC0B9091CD0B0E94CC1840E06B81CA
:104380008091CC0B9091CD0B0E94CC1840E06C81B9
:104390008091CC0B9091CD0B0E94CC1889898031F3
:1043A00041F040E06D818091CC0B9091CD0B0E944B
:1043B000CC188091CC0B9091CD0B0E943B19BE0183
:1043C0006F5E7F4F8091CC0B9091CD0B0E940E19A8
:1043D0004091C70B68E48091CC0B9091CD0B0E946B
:1043E000CC1864E170E080E090E00E94941180912C
:1043F000C70B882331F06AE070E080E090E00E9413
:1044000094118091CC0B9091CD0B0E943B1980911F
:10441000C80B181708F4182F1093C80BEFEFEE1AFB
:10442000FE0A5ECF1092C90B8091CC0B9091CD0B00
:104430000E943B1940E06CEC8091CC0B9091CD0B2D
:104440000E94CC184091C70B64E48091CC0B9091F2
:10445000CD0B0E94CC188091C90B8823A9F0E09164
:10446000C80BE950E33040F4F0E0EE0FFF1FE85EC8
:10447000FD4F6081718102C06EEE72E0882777FD8A
:104480008095982F0E94941186EA94E00E948A05F4
:104490008091C50B9091C60B0E94E80E6091C40BF1
:1044A0008091C50B9091C60B0E94420E61E08091F5
:1044B000C50B9091C60B0E94C80D882329F088E493
:1044C00093E00E948A0553C08EE10E94960563E046
:1044D00070E080E090E00E9494110CEA1BE020EA7A
:1044E000D8011D921C92822F29AF0E9496056091DF
:1044F000C40B772767FD709542E050E08091C50BB3
:104500009091C60B0E94710E8091C50B9091C60BC5
:10451000DC01ED91FC910680F781E02D1995F80101
:10452000108281838091C50B9091C60BDC01ED91C7
:10453000FC910680F781E02D1995F80140815181A9
:10454000840F951FD8018D939D938D0161E080911B
:10455000C50B9091C60B0E94C80D29AD2E5F203B64
:1045600009F0BECF81E08093F10B80936C0C8FE853
:1045700094E00E948A0589E89BE00E94F20E811176
:1045800005C086E693E00E94B21B0DC081E08093D7
:10459000F40B80936F0C80938E0B60E070E089E8E1
:1045A0009BE00E94891B88E794E00E948A0581E0D5
:1045B00080930A0B8EE180930C0B9BE690930B0B80
:1045C00090937A0B8093790B80910E0B90910F0B47
:1045D000853F910569F0843FB1E09B0749F0803D3C
:1045E000974031F085EF90E090930F0B80930E0B86
:1045F00080911E0B823049F0843039F0883029F0E8
:10460000803119F082E080931E0B8091270B982F48
:10461000977F943039F0883029F0803119F084E0A8
:104620008093270B60910E0B70910F0B80E090E050
:104630000E941D3920E030E040E058E30E947E39BE
:1046400060937B0B70937C0B80937D0B90937E0B20
:104650008091270B883089F038F48430F9F487EFA3
:104660009CECA2E1B9E312C08C3061F08031B1F46E
:1046700084E29BE0A8E1BAE309C084E29BE0A8E9F8
:10468000B9E304C08FE991E7A1EEB9E38093830B0E
:104690009093840BA093850BB093860B60911E0BB7
:1046A00070E080E090E00E941D3920E030E040E0C2
:1046B00058E30E947E3960937F0B7093800B809348
:1046C000810B9093820B80EA9BE00E94E80E8FE0C2
:1046D0000E94CF06182F8FE00E942607212F30E07E
:1046E000382B2D33384611F00C94692E80910D0B28
:1046F000882331F08091100B8295880F807E01C055
:1047000080E020910E0B30910F0B243F41E03407E5
:1047100029F0203D374019F4886101C0886060911C
:10472000110B6370682B80E10E94EE0660E081E16E
:104730000E94EE068091120B811102C060E001C060
:1047400060E88091130B882329F08091140B8F70FF
:104750008064682B82E10E94EE0680911B0B882307
:1047600011F060E201C060E080911A0B811160617C
:104770008091190B8111686080911C0B811162601E
:104780008EE10E94EE068091150B882311F060E205
:1047900001C060E08091160B811160618091170B60
:1047A0008111686083E10E94EE068091220B8823CC
:1047B00011F060E201C060E08091210B8111606125
:1047C0008091200B811168608FE10E94EE0680913C
:1047D0001D0B882331F060911F0B6295660F607E80
:1047E00001C060E080911E0B883031F0803131F0E3
:1047F000843029F4606103C0686101C06860809101
:10480000230B87FD03C064608370682B80E20E94E5
:10481000EE068091240B882349F06091250B63708C
:1048200080E2689FB0011124606801C060E081E20D
:104830000E94EE068091290B882311F060E801C0E8
:1048400060E02091280B277094E0299F90011124AB
:1048500090912A0B9370A0E29A9FC0011124822BA1
:10486000682B80E20E94B305E091270BE850E93005
:1048700028F4F0E0E15FFD4F608101C060E081E27B
:104880000E94B30580912C0B882311F080E201C0B7
:1048900080E060912D0B6370682B82E20E94B3056B
:1048A00060912B0B6370660F660F83E20E94B30565
:1048B00060E084E20E94B30581E08093EF0B809377
:1048C0006A0C198A1A8A1B8A1C8A1D8A1E8A1F8AE8
:1048D000188E198E1A8E1B8E1C8E19821A821B82BC
:1048E0001C821D821E821F82188619861A861B86CC
:1048F0001C8683E20E942607682F626083E20E9482
:10490000EE066FE38EE20E94EE068FE20E9426071B
:104910008F73C82EBEE1B817C0F700E010E0E82E94
:10492000F12C0E151F050CF092C00E949B07809180
:104930002F0B9091300BAA2797FDA095BA2F498194
:104940005A816B817C81840F951FA61FB71F8983B5
:104950009A83AB83BC838091310B9091320BAA2751
:1049600097FDA095BA2F4D815E816F817885840F68
:10497000951FA61FB71F8D839E83AF83B887809135
:10498000330B9091340BAA2797FDA095BA2F498538
:104990005A856B857C85840F951FA61FB71F898755
:1049A0009A87AB87BC870E9445078091350B909111
:1049B000360BAA2797FDA095BA2F49895A896B898A
:1049C0007C89840F951FA61FB71F898B9A8BAB8B91
:1049D000BC8B8091370B9091380BAA2797FDA0953F
:1049E000BA2F4D895E896F89788D840F951FA61F18
:1049F000B71F8D8B9E8BAF8BB88F20917F0B309123
:104A0000800B4091810B5091820B60E070E080E858
:104A10009FE30E94053C0E946D3C2091390B309130
:104A20003A0BC901861B970BAA2797FDA095BA2FB1
:104A3000498D5A8D6B8D7C8D840F951FA61FB71FD6
:104A4000898F9A8FAB8FBC8F0F5F1F4F6ACF4090BB
:104A50007B0B50907C0B60907D0B70907E0B2091B7
:104A60007F0B3091800B4091810B5091820B2FA3D3
:104A700038A749A75AA7AE014F5F5F4F5CA34BA36E
:104A80003AE0A32E3BE0B32E1E0151E1250E311C6E
:104A900000E010E0D12CE12CF12CABA1BCA16D9178
:104AA0007D918D919D91BCA3ABA3A70196010E941E
:104AB000083DF501E35AFF4F31832083F801E65F9B
:104AC000F44F4F01B901882777FD8095982F0E94F8
:104AD0001F399B01AC01C301B2010E947E39D40190
:104AE000D9966D937D938D939C93DC97F1016191A1
:104AF0007191819191911F01A70196010E94083D3A
:104B0000F501ED59FF4F31832083F5E48F0E911CA1
:104B1000B901882777FD8095982F0E941F399B0146
:104B2000AC016FA178A589A59AA50E947E39D40110
:104B30006D937D938D939C9313970C5F1F4FB2E001
:104B4000AB0EB11C0C30110509F0A7CF83E20E9417
:104B50002607682F6D7F83E20E94EE0660E08EE2FA
:104B60000E94EE0681E08093870B1E8E1D8E18A298
:104B70001F8E1AA219A21A8A198A1C8A1B8A1E8AD7
:104B80001D8A20E8E22EF12C8E01095E1F4F87E27C
:104B90000E94CF0683FFFBCF0E948A0680913B0BC9
:104BA00090913C0B9A83898380913D0B90913E0BB1
:104BB0009C838B8380913F0B9091400B9E838D83D0
:104BC0009E012F5F3F4FFE0171966F01AE01435E64
:104BD0005F4F5A01BA01D9018D919D919D0140818C
:104BE00051814817590714F491838083DB014D915B
:104BF0005C9111978417950714F48D939C933296CA
:104C00006E5F7F4FE017F10731F7B1E0EB1AF10863
:104C100009F0BDCF9BE5892E9BE0992EF60101910D
:104C200011916F01D5018D919D915D01080F191FA3
:104C300017FF02C00F5F1F4F15950795F701ED583D
:104C4000F44F11830083B801882777FD8095982F52
:104C50000E941F399B01AC016091830B7091840B02
:104C60008091850B9091860B0E947E39F4016193AF
:104C70007193819391934F01602F85E08E0D0E9477
:104C8000B305612F86E08E0D0E94B305F2E0EF0EB2
:104C9000F11C26E0E216F10409F683E694E00E9496
:104CA0008A0580EA9BE00E94E80E84E48093970BDB
:104CB00082EA90E30E94F1076AE070E080E090E011
:104CC0000E94941181E08093F00B80936B0C8DE631
:104CD00090E30E94F10789E494E00E948A0580EA4B
:104CE0009BE00E94E80E8CE294E00E948A0566E355
:104CF00080EA9BE00E94420E66E080EA9BE00E9410
:104D0000A00B60E480EA9BE00E94A00B60E080EAD8
:104D10009BE00E94A00B0E94D31B8DE194E00E94B7
:104D20008A058FE094E00E948A0585E094E00E9465
:104D3000B21B8091F30B90E00E9456098BEF93E039
:104D40000E94B21B8091F10B90E00E94560981EF06
:104D500093E00E94B21B8091EF0B90E00E945609F5
:104D600087EE93E00E94B21B8091F00B90E00E94CE
:104D700056098DED93E00E94B21B8091F40B90E0F8
:104D80000E9456090E94860568EE73E080E090E07C
:104D90000E9494110E94DB0A61E089E00E94581190
:104DA000E5E5F5E0E4918E2F90E0FC013197E231EA
:104DB000F10508F0BCC08827EE58FF4F8F4F0C94C8
:104DC000273D84B5806884BD8FE787BDACC084B5BE
:104DD000806284BD8FE788BDA6C080918000806816
:104DE000809380008FE790E0909389008093880003
:104DF0009AC0809180008062809380008FE790E06D
:104E000090938B0080938A008EC080918000886090
:104E1000809380008FE790E090938D0080938C00CA
:104E200082C08091B00080688093B0008FE780934B
:104E3000B30079C08091B00080628093B0008FE7AA
:104E40008093B40070C0809190008068809390003F
:104E50008FE790E0909399008093980064C08091D0
:104E600090008062809390008FE790E090939B0089
:104E700080939A0058C08091900088608093900041
:104E80008FE790E090939D0080939C004CC08091B0
:104E9000A00080688093A0008091A0008F7B809309
:104EA000A0008FE790E09093A9008093A8003BC0FA
:104EB0008091A00080628093A0008FE790E09093A3
:104EC000AB008093AA002FC08091A00088608093DF
:104ED000A0008FE790E09093AD008093AC0023C0DA
:104EE000809120018068809320018FE790E090936B
:104EF00029018093280117C080912001806280934E
:104F000020018FE790E090932B0180932A010BC042
:104F1000809120018860809320018FE790E090933A
:104F20002D0180932C01212C12E0312E3FC060E036
:104F300089E00E94DB10F7CF82E995E00E94B21B66
:104F400083E796E00E94B21B60E170E0C6010E9418
:104F50007C0986E696E00E94B21B60E170E0C60123
:104F60000E947C0989E596E00E94B21B6091F606DA
:104F70007091F7068091F8069091F9064AE050E0AA
:104F80000E946D0989E496E00E94B21B6091F206CE
:104F90007091F3068091F4069091F5060E948C09B9
:104FA00087E396E00E948A050E94F10B1E8E1D8EFB
:104FB000A2E0AA2ECC24C394B7E0BB2E84EB94E0ED
:104FC0000E94EA0B892B09F4EFC284EB94E00E9463
:104FD000C90BD82E8091DA069091DB06A091DC06F1
:104FE000B091DD060196A11DB11D8093DA06909364
:104FF000DB06A093DC06B093DD0634E2D31609F499
:10500000B2C2E091D4063D153CF04AE0D41679F0E6
:105010005DE0D512B5C20BC08AE2D81641F09CE221
:10502000D912AEC28091C1068D258093C106EF30A2
:1050300008F08BC2F0E0ED53F94F10828091C20668
:10504000882309F473C12091C3063FEB320F822FEE
:10505000992787FD9095363010F4C79707C02156E1
:10506000263018F48755910901C0C097282F229542
:10507000207F3091C4064FEB430F832F992787FD84
:105080009095463010F4C79707C03156363018F463
:105090008755910901C0C097820F9091C10689136D
:1050A00031C18091E6069091E706A091E806B091A3
:1050B000E9060196A11DB11D8093E6069093E706CF
:1050C000A093E806B093E9068091D506882399F06D
:1050D0008091DE069091DF06A091E006B091E10696
:1050E0000196A11DB11D8093DE069093DF06A0936B
:1050F000E006B093E1061091D206112309F46BC0CB
:10510000113009F0D0C08091650690916606A0919B
:105110006706B09168068093610690936206A0933B
:105120006306B09364060E94CE1160936906709383
:105130006A0680936B0690936C061093600610933A
:105140005F068091730690917406A0917506B091E8
:10515000760680936F0690937006A0937106B093C5
:1051600072060E94CE116093770670937806809342
:10517000790690937A0610936E0610936D068091CF
:10518000D506882309F48FC0EDE4F6E0AFE3B6E07E
:105190008B2D01900D928A95E1F7E4E5F6E0A6E407
:1051A000B6E08B2D01900D928A95E1F70E94CE1109
:1051B00060935B0670935C0680935D0690935E0639
:1051C00010933E0610933D068BE796E00E94F5167D
:1051D00089E896E066C08091730690917406A0916C
:1051E0007506B091760680936F0690937006A09333
:1051F0007106B09372060E94CE1160937706709389
:1052000078068093790690937A06C0926E06C092D3
:105210006D068091D506882321F1EDE4F6E0AFE339
:10522000B6E08B2D01900D928A95E1F7E4E5F6E06A
:10523000A6E4B6E08B2D01900D928A95E1F70E94CD
:10524000CE1160935B0670935C0680935D0690932D
:105250005E06C0923E06C0923D0687E996E00E9437
:10526000F5168091AF069091B006A091B106B0916D
:10527000B2068093AB069093AC06A093AD06B093B4
:10528000AE060E94CE116093A7067093A806809385
:10529000A9069093AA06C092A606C092A50683EB23
:1052A00096E00E94F5160091D8061091D9060115D6
:1052B000110509F44AC1E091D806F091D90666A11A
:1052C00077A1F80186A197A10E94813B892B09F063
:1052D0003CC1B801C80140960E948A3B0E94CE1191
:1052E000D80190966D937D938D939C93939795960B
:1052F000CC9295979496CC9294979A960D911C91F6
:105300009B97D5CF8091E2069091E306A091E406A9
:10531000B091E5060196A11DB11D8093E206909320
:10532000E306A093E406B093E5060FC18091D3068F
:10533000811138C06AE572E083EC96E00E94813BFF
:10534000892B19F4C092D2060DC060E672E083EC9E
:1053500096E00E94813B892B19F41092D20602C07C
:10536000A092D2068091D6069091D7069093D90646
:105370008093D8060091D8061091D9060115110521
:1053800009F4E3C0F801E6A0F7A063EC76E0C701FA
:105390000E94813B97FFCDC0D8019A968D919C9138
:1053A0009B97E4CFE091D206E23009F493C090914C
:1053B000C306992309F48EC020E2E29FF001112474
:1053C000E82B3197E932F10508F084C08827EC57C3
:1053D000FF4F8F4F0C94273D83EC96E00E9494176B
:1053E00060937306709374068093750690937606A7
:1053F00071C081E0913409F043C043C06DE476E0B0
:1054000009C081E0933509F080E08093530662C0C3
:1054100064E576E083EC96E00E940C175BC081E0C7
:10542000973509F080E080935A0654C083EC96E0EB
:105430000E94941760938506709386068093870672
:105440009093880647C083EC96E00E94941760937F
:1054500093067093940680939506909396063AC0AF
:1054600083EC96E00E94BA386093650670936606F6
:1054700080936706909368062DC081E091330CF409
:1054800080E08093D50626C083EC96E00E94BA386F
:105490006093AF067093B0068093B1069093B20606
:1054A00019C083EC96E00E9494176093BD06709338
:1054B000BE068093BF069093C0060CC083EC96E0B6
:1054C0000E9494176093A1067093A2068093A3068E
:1054D0009093A4060091D8061091D90601151105E4
:1054E000A1F1E091D806F091D90666A177A1F80163
:1054F00086A197A10E94813B892B39F5D801989606
:105500002D913C9199978091D30690E08217930753
:10551000E4F02817390739F440E150E063EC76E015
:10552000C8010E94913BD8019A960D911C919B97BE
:10553000D5CF63EC76E0C7010E94813B18161906AF
:1055400024F41092D9061092D8068091D3068F5F6A
:105550008093D3061092D40681E0BAE2DB1280E099
:105560008093C2062BCD1092D4061092D3061092CF
:10557000C106A092D2061092C2061092D5061ECD88
:10558000EE3040F481E08E0F8093D406F0E0ED53CE
:10559000F94FD0828091C206811110CD8091C10651
:1055A000D826D092C1060ACD80913D06882309F401
:1055B0005FC010923E0660913F067091400680E009
:1055C00090E00E941D396B017C0160914106709151
:1055D000420680914306909144060E941D3928E2BC
:1055E0003BE64EE65EE40E94053C9B01AC01C70130
:1055F000B6010E94A13B20914506DC01CB0121119F
:10560000B0588093480C9093490CA0934A0CB093E7
:105610004B0C609146067091470680E090E00E9436
:105620001D396B017C01609148067091490680919B
:105630004A0690914B060E941D3928E23BE64EE651
:105640005EE40E94053C9B01AC01C701B6010E94CB
:10565000A13B20914C06DC01CB012111B058809375
:105660004C0C90934D0CA0934E0CB0934F0C10C06B
:105670001092480C1092490C10924A0C10924B0C4C
:1056800010924C0C10924D0C10924E0C10924F0C2C
:10569000809197068823D9F01092980660919D0614
:1056A00070919E0680919F069091A0060E941F39DE
:1056B00020E030E048EC52E40E94053C6093500C3E
:1056C0007093510C8093520C9093530C08C010921D
:1056D000500C1092510C1092520C1092530C80915D
:1056E0005F06882399F01092600680916106909180
:1056F0006206A0916306B09164068093610C90935A
:10570000620CA093630CB093640C08C01092610CFF
:105710001092620C1092630C1092640C80916D06D2
:10572000882399F010926E0680916F069091700612
:10573000A0917106B09172068093650C9093660CEF
:10574000A093670CB093680C08C01092650C10927F
:10575000660C1092670C1092680C8091A506882345
:1057600039F01092A6068091AB068093600C02C0BF
:105770001092600C8091B3068823C9F01092B40691
:105780006091B9067091BA068091BB069091BC06F3
:105790000E941F3920E030E040E250E40E947E3950
:1057A0000E94723C70935D0C60935C0C04C010927C
:1057B0005D0C10925C0C809189068823D9F01092C0
:1057C0008A0660918F067091900680919106909163
:1057D00092060E941F3920E030E048EC52E40E941B
:1057E000053C6093580C7093590C80935A0C90931D
:1057F0005B0C0CC020E030E040E85FEB2093580CDD
:105800003093590C40935A0C50935B0C80917B065B
:10581000882309F110927C066091810670918206BE
:1058200080918306909184060E941F3921EA32EB11
:1058300043E05FE30E947E3920E030E048EC52E430
:105840000E94053C6093540C7093550C8093560C49
:105850009093570C0CC080E090E0A0E8BFEB8093E1
:10586000540C9093550CA093560CB093570C809108
:1058700035068823D9F01092360660E070E081E2A8
:1058800096E00E94413720E030E048EC52E40E946C
:105890007E3920E030E040E250E40E947E390E94F0
:1058A000723C70935F0C60935E0C04C010925F0CAE
:1058B00010925E0C0E944507C0907F0BD090800B29
:1058C000E090810BF090820B6091350B7091360B5C
:1058D000882777FD8095982F0E941F399B01AC0186
:1058E000C701B6010E947E3960931E0C70931F0C95
:1058F0008093200C9093210C6091370B7091380BA2
:10590000882777FD8095982F0E941F399B01AC0155
:10591000C701B6010E947E396093220C7093230C5C
:105920008093240C9093250C6091390B70913A0B65
:10593000882777FD8095982F0E941F399B01AC0125
:10594000C701B6010E947E396093260C7093270C24
:105950008093280C9093290C0E948A06C090830B98
:10596000D090840BE090850BF090860B60913B0B00
:1059700070913C0B882777FD8095982F0E941F39E6
:105980009B01AC01C701B6010E947E3960932A0CCD
:1059900070932B0C80932C0C90932D0C60913D0BED
:1059A00070913E0B882777FD8095982F0E941F39B4
:1059B0009B01AC01C701B6010E947E3960932E0C99
:1059C00070932F0C8093300C9093310C60913F0BAF
:1059D0007091400B882777FD8095982F0E941F3982
:1059E0009B01AC01C701B6010E947E396093320C65
:1059F0007093330C8093340C9093350C0E949B076A
:105A0000C0907B0BD0907C0BE0907D0BF0907E0BD8
:105A100060912F0B7091300B882777FD8095982F20
:105A20000E941F399B01AC01C701B6010E947E395B
:105A30006093360C7093370C8093380C9093390C2C
:105A40006091310B7091320B882777FD8095982FEC
:105A50000E941F399B01AC01C701B6010E947E392B
:105A600060933A0C70933B0C80933C0C90933D0CEC
:105A70006091330B7091340B882777FD8095982FB8
:105A80000E941F399B01AC01C701B6010E947E39FB
:105A900060933E0C70933F0C8093400C9093410CAC
:105AA0008091F00B882391F10E942D16882349F0F4
:105AB00080919C0B90919D0BA0919E0BB0919F0BA0
:105AC00004C080E090E0A0ECBFE78093FA0B9093D5
:105AD000FB0BA093FC0BB093FD0B0E942D168823AB
