:100000000C94E1050C9412060C9412060C94120642
:100010000C9412060C9412060C9412060C94120600
:100020000C9412060C9412060C94EC0F0C94C90F4D
:100030000C94BF0F0C9412060C9412060C9412062A
:100040000C9412060C9412060C9412060C941206D0
:100050000C9412060C9412060C9412060C943C1389
:100060000C9412060C94E0100C94B6100C9412062A
:100070000C9412060C9412060C9412060C941206A0
:100080000C9412060C9412060C9412060C94120690
:100090000C943F110C9415110C9412060C945828D2
:1000A0000C9412060C9412060C9412060C94120670
:1000B0000C9412060C9412060C9412060C94120660
:1000C0000C9412060C9412060C9412060C94120650
:1000D0000C9412060C9412060C9412060C94120640
:1000E0000C9412062A083C083F0846084D087B0875
:1000F00082088F089C08A808A808A808A808A808CB
:10010000A808A808A808A808A808A808A808A8086F
:10011000A808A808A808A808A808A808A808A8085F
:10012000A808A8082A0837083C083F0846084D08D0
:10013000540861086E08A311A611951199119D111B
:10014000DD11AA11AE11B411B811BC11C211C61142
:10015000CA11DD11D011D411D81156125B126012E0
:100160006A127412ED127E1286128E129812A21268
:10017000AC12BB12C512ED12CF12D912E3120C94BD
:100180009E100C943A170C948E260C94CA110C9461
:1001900095110C9476410C94B4110C9461080C9454
:1001A000F9250C9460120C9482080C9420260C946F
:1001B000D4110C94AF260C9428260C94FC250C9496
:1001C000D0110C945B120C947E120C9437080C9492
:1001D0008E120C94B4100C944D080C94F12B0C94CA
:1001E000B8110C9474120C9454080C94A8080C9434
:1001F000E3120C947B080C94FD250C943F080C949E
:1002000039170C949C080C9486130C948F080C944A
:10021000D9120C942A080C94A1260C94BB120C94AD
:1002200083170C94A3110C940C260C94A2120C941A
:10023000C2110C94C5120C9414060C94C6110C94A3
:100240006A120C94AE110C94382C0C94A6110C94D8
:10025000ED120C94AA110C94AC120C9456120C943E
:100260004E100C94BC110C946E080C94CF120C948C
:10027000D8110C9499110C9498120C9446080C9473
:100280009D110C9465260C94DD110C943C080C9483
:1002900086120C947541436F6E6669677572696E5C
:1002A00067205049442E2E2E0020447572617469D7
:1002B0006F6E3A2000205371756172653A200046D6
:1002C0007265713A20002000456E643A20002000DB
:1002D0005061796C6F61643A2000200000002200B8
:1002E000250028002B002E00310034000201000000
:1002F000050108010B012052696768743A2000204B
:1003000043757272656E743A20004C6566743A20CB
:10031000000A466F756E64207461696C206F6620F8
:100320006C6F6720617420626C6F636B3A200020F1
:10033000626C6F636B7300436172642073697A65EA
:100340003A2000536F6D657468696E672077726F2D
:100350006E6720696E6974696C697A696E6720538B
:1003600044436172642E2E2E0A4572726F723A20D7
:100370000052657175657374696E67204453313836
:1003800042323020616C6C2074656D70732E2E2E9D
:100390000045787465726E616C2054656D702053F1
:1003A000656E736F7220466F756E6400496E74657A
:1003B000726E616C2054656D702053656E736F7240
:1003C00020466F756E640055562054656D7020533D
:1003D000656E736F7220466F756E640054534C32B5
:1003E0003536312054656D702053656E736F722001
:1003F000466F756E64004750532054656D702053EE
:10040000656E736F7220466F756E6400437573740A
:100410006F6D2054656D702053656E736F7220464A
:100420006F756E64004D61696E2054656D70205368
:10043000656E736F7220466F756E640020002044F5
:100440005331384232302064657669636520666FC7
:10045000756E643A20004572726F7220636F6E6E23
:10046000656374696E6720746F204D53353630377D
:100470002E2E2E004F6F6F70732C206E6F205453F2
:100480004C32353631206465746563746564202EA2
:100490002E2E20436865636B20796F757220776913
:1004A00072696E67206F7220493243204144445282
:1004B0002100544C53323536313A20002020534825
:1004C0005433313A20004C534D394453313A2000D3
:1004D000204D53353630373A2000445331384232BC
:1004E000303A20002D2D2D2D2D2D2D2D2D2D2D2D66
:1004F0002D000A53656E736F727320666F756E649C
:1005000000517569636B2D7374617274696E672035
:100510006675656C2067617567652E2E2E00436FCA
:100520006E6669677572696E67206675656C2067AF
:10053000617567652E2E2E00436F6E666967757252
:10054000696E672053485433312E2E2E00436F6E50
:100550006669677572696E67204C534D3944533133
:100560002E2E2E00436F6E6669677572696E672066
:1005700054534C323536312E2E2E00436F6E666941
:10058000677572696E67204D53353630372E2E2EC3
:1005900000436F6E6669677572696E6720445331F8
:1005A00038423230732E2E2E00436F6E66696775A7
:1005B00072696E6720476569676572732E2E2E001B
:1005C000436F6E6669677572696E67205344436155
:1005D00072642E2E2E00436F6E6669677572696EA7
:1005E00067204750532E2E2E004861726477617247
:1005F000652053657269616C20627566666572205C
:1006000073697A653A20000A0D52657374617274D9
:10061000696E672048414220436F6E74726F6C6C44
:100620006572001F1C1F1E1F1E1F1F1E1F1E1F2066
:1006300000416C7469747564653A200020546169E6
:100640006C3A2000486561643A20002000707265B1
:1006500073737572653A2000205461696C3A20000A
:10066000486561643A200020435553544F4D3A2069
:10067000002055563A20002054534C3A2000205375
:1006800048543A2000204750533A200050574D20FC
:100690002D2D204D61696E3A200046004620487994
:1006A000737465727369733A200054656D702073BA
:1006B0006574706F696E743A20002A2A2A2A2A2AE1
:1006C0002A2A2A2A2A2A2A2A2A2A0A00205772692A
:1006D0007465204572726F72733A20004352432052
:1006E0004572726F72733A20002043524320414694
:1006F0005445523A20002A2A2A2A2A2A2A2A2A2A11
:100700002A2A2A2A2A2A0A0D435243204245464FC2
:1007100052453A20000A0D2A2A2A2A2A2A2A2A2A57
:100720002A2A2A2A2A2A2A2A2A2A2A2A2A2A2A0A49
:100730000D2A2020202020435243204D49534D4173
:1007400054434820202020202A0A0D2A2A2A2A2A17
:100750002A2A2A2A2A2A2A2A2A2A2A2A2A2A2A2AF9
:100760002A2A2A005374617475733A200053446333
:10077000617264205772697465204572726F723AB3
:100780002000204E4F5420656D7074792E2E2E203F
:10079000736B697070696E672E0053446361726495
:1007A00020626C6F636B20002F00534420426C6FFB
:1007B000636B3A20000A53656E736F722064617434
:1007C000612073697A653A20005344206361726442
:1007D000207061636B696E6720737461727420614D
:1007E0006464726573733A20004E756D62657220A1
:1007F0006F662073747275637475726573207061AF
:10080000636B65643A20004C6F6767696E672064AC
:100810006174612E2E2E0052656164696E672073CB
:10082000656E736F72732E2E2E00446F75626C6549
:100830002D636865636B20776972696E672E004669
:1008400061696C656420746F20636F6D6D756E698E
:10085000636174652077697468204C534D39445343
:10086000312E0000030205000305010406020420E6
:1008700074696D653A200044617465206167653A6A
:100880002000207365636F6E64730A0055702074D6
:10089000696D653A20002F002F0047656967657212
:1008A0003A2000435243204552524F523A200020F2
:1008B0006D00206D2C2056444F503A20002073616B
:1008C00074732C2048444F503A2000206465672CF4
:1008D0002000206D70732C2000206D2C20002C2017
:1008E000002C20002C20002C2000436C6F636B2018
:1008F00074656D703A20002C20002C204355535411
:100900003A20002C2055563A20002C2054534C3AC3
:1009100020002C204750533A20002C2045783A20C4
:10092000002C20496E3A2000445331384232300ABC
:100930000D4D61696E3A2000204620002050612054
:10094000002F002F00473A002F002F00413A002FC0
:10095000002F004D3A002F002F002F004C3A005876
:100960005800204620005858002520002500205619
:100970002000566F6C746167653A200000000A0B16
:1009800002090C0D0E08070304010000000000001E
:100990000000000000000000000000000000000057
:1009A0000000000000000000121110000000000014
:1009B0000000000000000000000000000000000037
:1009C0000000005EBCE2613FDD83C29C7E20A3FD8F
:1009D0001F419DC3217FFCA2401E5F01E3BD3E601D
:1009E00082DC237D9FC1421CFEA0E1BF5D0380DE4F
:1009F0003C62BEE0025CDF81633D7C22C09E1D4301
:100A0000A1FF4618FAA427799BC584DA3866E5BBAE
:100A10005907DB856739BAE406581947A5FB7826DC
:100A2000C49A653BD987045AB8E6A7F91B45C6980E
:100A30007A24F8A6441A99C7257B3A6486D85B05C0
:100A4000E7B98CD2306EEDB3510F4E10F2AC2F716E
:100A500093CD114FADF3702ECC92D38D6F31B2EC9C
:100A60000E50AFF1134DCE90722C6D33D18F0C52CE
:100A7000B0EE326C8ED0530DEFB1F0AE4C1291CF80
:100A80002D73CA947628ABF517490856B4EA69372E
:100A9000D58B5709EBB536688AD495CB2977F4AA5C
:100AA0004816E9B7550B88D6346A2B7597C94A148E
:100AB000F6A8742AC896154BA9F7B6E80A54D78940
:100AC0006B3500002100240027002A002D00300093
:100AD000330001010000040107010A0100002000A9
:100AE0002300260029002C002F0032000001000006
:100AF00003010601090105050505070508080808A1
:100B0000020202020A0A08080404040401010101A5
:100B100001010101030303030303030304070707A0
:100B20000C0C0C0C0C0C0C0C020202020606060645
:100B3000060606060B0B0B0B0B0B0B0B0102102012
:100B40002008081020401020408002010201080403
:100B50000201010204081020408080402010080497
:100B600002018004020180402010080402010804F0
:100B70000201010204081020408001020408102034
:100B800040804E414E494E495459494E46CDCCCCF9
:100B90003D0AD7233C17B7D13877CC2B329595E651
:100BA000241FB14F0A000020410000C84200401C31
:100BB0004620BCBE4CCA1B0E5AAEC59D7400764181
:100BC000754111241FBECFEFD1E2DEBFCDBF00E0E3
:100BD0000CBF12E1ACEDB2E001C01D92AF3AB1071B
:100BE000E1F712E0A0E0B2E0ECE5F9E900E00BBFCC
:100BF00002C007900D92AC3DB107D9F715E0C0EEE9
:100C0000D5E000E006C021970109802FFE010E9477
:100C1000944CCF3DD10780E00807A9F70E94872DAB
:100C20000C9442480C94000008953F924F925F92BA
:100C30006F927F928F929F92AF92BF92CF92DF92EC
:100C4000EF92FF920F931F93CF93DF9302E0D1E0D7
:100C500017E087EE98E00E94AF26892B09F4DEC2E8
:100C600087EE98E00E948E26C82F8091F30C909119
:100C7000F40CA091F50CB091F60C0196A11DB11DDC
:100C80008093F30C9093F40CA093F50CB093F60CB6
:100C9000C43209F4A2C2E091ED0CC53234F4CA307A
:100CA00071F0CD3009F0A6C20AC0CA3241F0CC3290
:100CB00009F0A0C28091DA0C8C278093DA0CEF3017
:100CC00008F07DC2F0E0E452F34F10828091DB0C1B
:100CD000882309F46BC12091DC0C3FEB320F822F8B
:100CE000992787FD9095363010F4C79707C0215695
:100CF000263018F48755910901C0C097282F2295F6
:100D0000207F3091DD0C4FEB430F832F992787FD18
:100D10009095463010F4C79707C03156363018F416
:100D20008755910901C0C097820F9091DA0C891301
:100D300029C18091FF0C9091000DA091010DB091FF
:100D4000020D0196A11DB11D8093FF0C9093000D23
:100D5000A093010DB093020D8091EE0C882399F0C1
:100D60008091F70C9091F80CA091F90CB091FA0CCD
:100D70000196A11DB11D8093F70C9093F80CA093E0
:100D8000F90CB093FA0CF090EB0CFF2009F46BC057
:100D900021E0F212D0C080917E0C90917F0CA09146
:100DA000800CB091810C80937A0C90937B0CA09373
:100DB0007C0CB0937D0C0E9430136093820C709376
:100DC000830C8093840C9093850CF092790CF092B4
:100DD000780C80918C0C90918D0CA0918E0CB09120
:100DE0008F0C8093880C9093890CA0938A0CB093FD
:100DF0008B0C0E9430136093900C7093910C809335
:100E0000920C9093930CF092870CF092860C809148
:100E1000EE0C882309F48FC0E6E6FCE0A8E5BCE010
:100E2000812F01900D928A95E1F7EDE6FCE0AFE5A8
:100E3000BCE0812F01900D928A95E1F70E9430135A
:100E40006093740C7093750C8093760C9093770C70
:100E5000F092570CF092560C84E99CE00E947B1CA7
:100E600082EA9CE066C080918C0C90918D0CA091E0
:100E70008E0CB0918F0C8093880C9093890CA0936A
:100E80008A0CB0938B0C0E9430136093900C70937B
:100E9000910C8093920C9093930CD093870CD093E9
:100EA000860C8091EE0C882321F1E6E6FCE0A8E5B3
:100EB000BCE0812F01900D928A95E1F7EDE6FCE010
:100EC000AFE5BCE0812F01900D928A95E1F70E9479
:100ED00030136093740C7093750C8093760C909320
:100EE000770CD093570CD093560C80EB9CE00E946B
:100EF0007B1C8091C80C9091C90CA091CA0CB09138
:100F0000CB0C8093C40C9093C50CA093C60CB093EB
:100F1000C70C0E9430136093C00C7093C10C809377
:100F2000C20C9093C30CD093BF0CD093BE0C8CEC2E
:100F30009CE00E947B1CE090F10CF090F20CE1141C
:100F4000F10409F43CC1E091F10CF091F20C66A1BE
:100F500077A1F70186A197A10E94E24A892B09F0A7
:100F60002EC1B701C70140960E94EB4A0E94301380
:100F7000F70160A371A382A393A3D5A3D4A3E2A492
:100F8000F3A4DDCF8091FB0C9091FC0CA091FD0CA3
:100F9000B091FE0C0196A11DB11D8093FB0C9093A6
:100FA000FC0CA093FD0CB093FE0C09C18091EC0CDD
:100FB000811136C06AEA72E08CED9CE00E94E24A40
:100FC000892B19F4D093EB0C0DC060EB72E08CED23
:100FD0009CE00E94E24A892B19F41092EB0C02C0AB
:100FE0000093EB0C8091EF0C9091F00C9093F20C2D
:100FF0008093F10CE090F10CF090F20CE114F1040C
:1010000009F4DDC0F701C6A0D7A06CED7CE0C601F5
:101010000E94E24A97FFC7C0F70182A593A5E6CFD9
:10102000E091EB0CE23009F493C09091DC0C992331
:1010300009F48EC020E2E29FF0011124E82B3197E1
:10104000E932F10508F084C08827EE58FF4F8F4F32
:101050000C94944C8CED9CE00E941A1D60938C0CB7
:1010600070938D0C80938E0C90938F0C71C081E0E7
:10107000913409F043C043C066E67CE009C081E0DA
:10108000933509F080E080936C0C62C06DE67CE0E3
:101090008CED9CE00E94921C5BC081E0973509F0CA
:1010A00080E08093730C54C08CED9CE00E941A1D6C
:1010B00060939E0C70939F0C8093A00C9093A10C56
:1010C00047C08CED9CE00E941A1D6093AC0C70939D
:1010D000AD0C8093AE0C9093AF0C3AC08CED9CE0BD
:1010E0000E941B4860937E0C70937F0C8093800C51
:1010F0009093810C2DC081E091330CF480E08093BB
:10110000EE0C26C08CED9CE00E941B486093C80C3E
:101110007093C90C8093CA0C9093CB0C19C08CEDC2
:101120009CE00E941A1D6093D60C7093D70C80939C
:10113000D80C9093D90C0CC08CED9CE00E941A1D29
:101140006093BA0C7093BB0C8093BC0C9093BD0C55
:10115000E090F10CF090F20CE114F10481F1E091D7
:10116000F10CF091F20C66A177A1F70186A197A18D
:101170000E94E24A892B19F5F70120A531A580913B
:10118000EC0C90E082179307D4F02817390739F454
:1011900040E150E06CED7CE0C7010E94F24AF701AB
:1011A000E2A4F3A4D9CF6CED7CE0C6010E94E24A30
:1011B0001816190624F41092F20C1092F10C80917A
:1011C000EC0C8F5F8093EC0C1092ED0C81E0CA3236
:1011D00009F080E08093DB0C3CCD1092ED0C109276
:1011E000EC0C1092DA0C0093EB0C1092DB0C1092CA
:1011F000EE0C2FCDEE3040F481E08E0F8093ED0C9D
:10120000F0E0E452F34FC0838091DB0C811121CDDB
:101210008091DA0CC827C093DA0C1BCD8091560C54
:10122000882309F45FC01092570C6091580C70919C
:10123000590C80E090E00E947E486B017C01609137
:101240005A0C70915B0C80915C0C90915D0C0E942B
:101250007E4828E23BE64EE65EE40E94664B9B0138
:10126000AC01C701B6010E94024B20915E0CDC016B
:10127000CB012111B05880937C1290937D12A093E2
:101280007E12B0937F1260915F0C7091600C80E0D1
:1012900090E00E947E486B017C016091610C70912E
:1012A000620C8091630C9091640C0E947E4828E24D
:1012B0003BE64EE65EE40E94664B9B01AC01C70133
:1012C000B6010E94024B2091650CDC01CB0121117B
:1012D000B0588093801290938112A0938212B093A1
:1012E000831210C010927C1210927D1210927E1206
:1012F00010927F121092801210928112109282121C
:10130000109283128091B00C8823D9F01092B10C06
:101310006091B60C7091B70C8091B80C9091B90C9B
:101320000E94804820E030E048EC52E40E94664B86
:101330006093841270938512809386129093871223
:1013400008C0109284121092851210928612109288
:1013500087128091780C882309F461C00E943013B1
:101360000091820C1091830C2091840C3091850C9B
:10137000DC01CB01801B910BA20BB30B80369A4E84
:10138000A105B10508F04BC01092790C80917A0C40
:1013900090917B0CA0917C0CB0917D0C8093951268
:1013A00090939612A0939712B093981287E798E0C3
:1013B0000E945A2C8091780C882379F00E94301377
:1013C0000091820C1091830C2091840C3091850C3B
:1013D000601B710B820B930B03C06FEF7FEFCB0190
:1013E0004AE050E00E94C8238091860C882301F1D6
:1013F0000E9430130091900C1091910C2091920C4E
:101400003091930CDC01CB01801B910BA20BB30B31
:1014100088389341A105B10508F4DCC009C01092D9
:101420009512109296121092971210929812BECFA7
:101430001092991210929A1210929B1210929C1272
:101440008FE698E00E945A2C8091860C882379F0D0
:101450000E9430130091900C1091910C2091920CED
:101460003091930C601B710B820B930B03C06FEFD9
:101470007FEFCB010E94CC258091BE0C882339F0F0
:101480001092BF0C8091C40C8093941202C01092F1
:1014900094128091CC0C8823C9F01092CD0C6091ED
:1014A000D20C7091D30C8091D40C9091D50C0E94E9
:1014B000804820E030E040E250E40E94DF480E9493
:1014C000D34B709391126093901204C010929112BA
:1014D000109290128091A20C8823D9F01092A30C44
:1014E0006091A80C7091A90C8091AA0C9091AB0C02
:1014F0000E94804820E030E048EC52E40E94664BB5
:1015000060938C1270938D1280938E1290938F1231
:101510000CC080E090E0A0E8BFEB80938C12909329
:101520008D12A0938E12B0938F128091940C882309
:1015300009F11092950C60919A0C70919B0C80911E
:101540009C0C90919D0C0E94804821EA32EB43E074
:101550005FE30E94DF4820E030E048EC52E40E9464
:10156000664B609388127093891280938A129093CD
:101570008B120CC080E090E0A0E8BFEB8093881253
:1015800090938912A0938A12B0938B1280914E0C83
:101590008823D9F010924F0C60E070E08AE39CE061
:1015A0000E94A24620E030E048EC52E40E94DF486E
:1015B00020E030E040E250E40E94DF480E94D34B3C
:1015C00070939312609392120DC110929312109225
:1015D000921208C11092870C4090880C5090890C90
:1015E00060908A0C70908B0C4092991250929A12D3
:1015F00060929B1270929C128091B106811120CF53
:1016000054E6C52ED12CE12CF12CC301B201A70167
:1016100096010E94534CCA01B901A70196010E948C
:10162000534C362E60E1862E67E2962EA12CB12C0B
:10163000C301B201A50194010E94534CCA01B90132
:10164000A70196010E94534C062FC301B20120E46A
:1016500032E44FE050E00E94534C122F1092790C6C
:1016600040907A0C50907B0C60907C0C70907D0CBC
:10167000C301B201A50194010E94534C922EA22EE7
:10168000C301B201A70196010E94534C2B013C01FA
:10169000CA01B901A70196010E94534C6B017C015C
:1016A000B62EE201C053D84F68E689EB91E10E9463
:1016B000042A80E090E00E9486207AE0772E832D35
:1016C000672D0E941F4C692FE0E18E9F600D112451
:1016D00089EB91E10E946526802F672D0E941F4CA7
:1016E000692FF0E18F9F600D112489EB91E10E9439
:1016F0006526812F672D0E941F4C692F20E1829F54
:10170000600D112489EB91E10E94652681E090E053
:10171000E2E0EC1510F480E090E08E01081B190B5C
:10172000F6013197ED59F74FC4909801290D311DFD
:10173000C8019695879596958795280F391FC801FA
:1017400060E971E00E942B4C260F371FC80164E648
:1017500070E00E942B4CC901861B970B8C0D911DCC
:1017600067E070E00E942B4C009709F487E0DAE014
:101770006D2F0E941F4C692F89EB91E10E94652615
:101780008A2D6D2F0E941F4C692FF0E18F9F600DF5
:10179000112489EB91E10E9465268B2D6D2F0E940B
:1017A0001F4C692F20E1829F600D112489EB91E18C
:1017B0000E9465268C2F805D6D2F0E941F4C692F23
:1017C000E0E18E9F600D112489EB91E10E94652676
:1017D00080E090E00E9486200E947B2C81E0809334
:1017E000B1062ECEDF91CF911F910F91FF90EF9018
:1017F000DF90CF90BF90AF909F908F907F906F9031
:101800005F904F903F900895819A899A6AE070E0C6
:1018100080E090E00E94F612899808952F923F92FE
:101820004F925F926F927F928F929F92AF92BF92F0
:10183000CF92DF92EF92FF920F931F93CF93DF939C
:10184000CDB7DEB7A4970FB6F894DEBF0FBECDBFFD
:1018500081E0809323118EE1809325119BE6909384
:10186000241190939311809392118091271190915C
:101870002811853F910569F0843F21E0920749F0E6
:10188000803D974031F085EF90E090932811809350
:10189000271180913711823049F0843039F0883037
:1018A00029F0803119F082E0809337118091401146
:1018B000982F977F943039F0883029F0803119F0D3
:1018C00084E080934011609127117091281180E08D
:1018D00090E00E947E4820E030E040E058E30E9423
:1018E000DF486093941170939511809396119093B3
:1018F000971180914011883089F038F48430F9F4E0
:1019000087EF9CECA2E1B9E312C08C3061F080312A
:10191000B1F484E29BE0A8E1BAE309C084E29BE071
:10192000A8E9B9E304C08FE991E7A1EEB9E3809398
:101930009C1190939D11A0939E11B0939F11609163
:10194000371170E080E090E00E947E4820E030E0B7
:1019500040E058E30E94DF4860939811709399111A
:1019600080939A1190939B1189EB91E10E94AA2A8E
:101970008FE00E942D21182F8FE00E948421212FBB
:1019800030E0382B2D33384609F0D6C2809126112D
:10199000882331F0809129118295880F807E01C0C3
:1019A00080E02091271130912811243F91E03907E0
:1019B00029F0203D374019F4886101C088606091AA
:1019C0002A116370682B80E10E944C2160E081E164
:1019D0000E944C2180912B11811102C060E001C056
:1019E00060E880912C11882329F080912D118F704F
:1019F0008064682B82E10E944C21809134118823FD
:101A000011F060E201C060E08091331181116061EA
:101A1000809132118111686080913511811162606D
:101A20008EE10E944C2180912E11882311F060E2FA
:101A300001C060E080912F118111606180913011AF
:101A40008111686083E10E944C2180913B118823C1
:101A500011F060E201C060E080913A118111606193
:101A600080913911811168608FE10E944C21809131
:101A70003611882331F0609138116295660F607ECF
:101A800001C060E080913711883031F0803131F051
:101A9000843029F4606103C0686101C0686080918E
:101AA0003C1187FD03C064608370682B80E20E9454
:101AB0004C2180913D11882349F060913E11637063
:101AC000B0E26B9FB0011124606801C060E081E268
:101AD0000E944C2180914211882311F060E801C0DE
:101AE00060E0209141112770E4E02E9F90011124C5
:101AF000909143119370F0E29F9FC0011124822BBB
:101B0000682B80E20E94192DE0914011E850E930E5
:101B100028F4F0E0EA5AFD4F608101C060E081E204
:101B20000E94192D80914511882311F080E201C097
:101B300080E0609146116370682B82E20E94192D4B
:101B4000609144116370660F660F83E20E94192D45
:101B500060E084E20E94192D81E080930712809357
:101B60009E121D861E861F86188A198A1A8A1B8A4B
:101B70001C8A1D8A1E8A1F8A188E19821A821B824D
:101B80001C821D821E821F82188619861A861B8659
:101B90001C8683E20E948421682F626083E20E9497
:101BA0004C216FE38EE20E944C218FE20E9484213F
:101BB0008F73C82E2EE12817C0F700E010E0E82E42
:101BC000F12C0E151F050CF092C00E94F921809196
:101BD000481190914911AA2797FDA095BA2F4981E4
:101BE0005A816B817C81840F951FA61FB71F898343
:101BF0009A83AB83BC8380914A1190914B11AA27A1
:101C000097FDA095BA2F4D815E816F817885840FF5
:101C1000951FA61FB71F8D839E83AF83B8878091C2
:101C20004C1190914D11AA2797FDA095BA2F498587
:101C30005A856B857C85840F951FA61FB71F8987E2
:101C40009A87AB87BC870E94A32180914E11909107
:101C50004F11AA2797FDA095BA2F4D855E856F85F8
:101C60007889840F951FA61FB71F8D879E87AF8722
:101C7000B88B8091501190915111AA2797FDA09592
:101C8000BA2F49895A896B897C89840F951FA61FB1
:101C9000B71F898B9A8BAB8BBC8B2091981130919D
:101CA000991140919A1150919B1160E070E080E889
:101CB0009FE30E94664B0E94CE4B209152113091BF
:101CC0005311C901861B970BAA2797FDA095BA2F20
:101CD0004D895E896F89788D840F951FA61FB71F68
:101CE0008D8B9E8BAF8BB88F0F5F1F4F6ACF40904D
:101CF0009411509095116090961170909711809169
:101D0000981190919911A0919A11B0919B1189A36A
:101D10009AA3ABA3BCA3DE011196B8A3AF8F33E2A5
:101D2000A32E31E1B32E1E01BDE02B0E311C00E0CD
:101D300010E0D12CE12CF12CEF8DF8A16191719183
:101D400081919191F8A3EF8FA70196010E94754CA4
:101D5000F501E35AFF4F31832083C8018D5D9E4E0C
:101D60004C01B901882777FD8095982F0E94804803
:101D70009B01AC01C301B2010E94DF48D401D99696
:101D80006D937D938D939C93DC97F101619171919B
:101D9000819191911F01A70196010E94754CF50157
:101DA000ED59FF4F31832083F5E48F0E911CB9016B
:101DB000882777FD8095982F0E9480489B01AC0171
:101DC00069A17AA18BA19CA10E94DF48D4016D93E7
:101DD0007D938D939C9313970C5F1F4FB2E0AB0ED6
:101DE000B11C0C30110509F0A7CF83E20E948421B9
:101DF000682F6D7F83E20E944C2160E08EE20E949A
:101E00004C2181E08093A0111A8E198E1C8E1B8E9E
:101E10001E8E1D8E1E861D86188A1F861A8A198A96
:101E200020E8E22EF12C8E010D5E1F4F87E20E940A
:101E30002D2183FFFBCF0E94E820809154119091C7
:101E400055119A83898380915611909157119C83E3
:101E50008B8380915811909159119E838D839E019F
:101E60002F5F3F4FFE013D964F01CE0149965C0129
:101E7000BC01D9018D919D919D01408151814817EF
:101E8000590714F491838083DB014D915C91119784
:101E90008417950714F48D939C9332966E5F7F4F51
:101EA000E017F10731F7B1E0EB1AF10809F0BECF06
:101EB00094E7C92E91E1D92EF401019111914F01BE
:101EC000D5018D919D915D01080F191F17FF02C06B
:101ED0000F5F1F4F15950795F701E457FE4E1183CD
:101EE0000083B801882777FD8095982F0E9480484D
:101EF0009B01AC0160919C1170919D1180919E118C
:101F000090919F110E94DF48F60161937193819334
:101F100091936F01602F85E08E0D0E94192D612F26
:101F200086E08E0D0E94192DF2E0EF0EF11C26E0E6
:101F3000E216F10409F60AC08FE398E00E94F02C43
:101F40008AE298E00E94F02C10920712A4960FB635
:101F5000F894DEBF0FBECDBFDF91CF911F910F91DF
:101F6000FF90EF90DF90CF90BF90AF909F908F90B9
:101F70007F906F905F904F903F902F9008951F92A9
:101F80000F920FB60F9211240F900FBE0F901F905B
:101F900018951F920F920FB60F9211242F938F93C3
:101FA0009F932091060127FD0DC08091B00687FF09
:101FB00009C0809105129091061201969093061225
:101FC000809305122093B0069F918F912F910F90CF
:101FD0000FBE0F901F9018951F920F920FB60F9281
:101FE00011242F933F938F939F938091030181FD41
:101FF0000EC09091AF0691FF0AC02091031230915C
:1020000004122F5F3F4F309304122093031280FD80
:102010000EC09091AF0690FF0AC02091011230913E
:1020200002122F5F3F4F30930212209301128093D0
:10203000AF069F918F913F912F910F900FBE0F9000
:102040001F901895DC01FC0180E090E070E09F019A
:102050002A1B3B0B2617370704F5419150E049270F
:102060009A01689413F8359527951694E1F724277B
:102070003527982F8827A90148275927C901982F64
:1020800088279295907F8427952745E0220F331F5C
:102090004A95E1F782279327DACF0895CF92DF920E
:1020A000EF92FF920F931F93CF93DF936C017A010E
:1020B0008B01C0E0D0E0CE15DF0589F0D8016D912D
:1020C0008D01D601ED91FC910190F081E02DC601CA
:1020D0001995892B11F47E0102C02196ECCFC7011E
:1020E000DF91CF911F910F91FF90EF90DF90CF90F4
:1020F00008953FB7F8948091B7069091B806A091E3
:10210000B906B091BA0626B5A89B05C02F3F19F0B5
:102110000196A11DB11D3FBFBA2FA92F982F882767
:10212000820F911DA11DB11DBC01CD0142E0660FC2
:10213000771F881F991F4A95D1F708950E94DD4A9D
:102140008AE897E00E94AF2621E0892B09F420E07D
:10215000822F089587EE98E00E94AF2621E0892B18
:1021600009F420E0822F08950C94454A1F920F92A3
:102170000FB60F9211240BB60F922F933F934F93EC
:102180005F936F937F938F939F93AF93BF93EF93DF
:10219000FF938AE897E00E94D02BFF91EF91BF91C7
:1021A000AF919F918F917F916F915F914F913F91EF
:1021B0002F910F900BBE0F900FBE0F901F90189590
:1021C0001F920F920FB60F9211240BB60F922F93FE
:1021D0008F939F93EF93FF93E0919A07F0919B0762
:1021E0008081E091A007F091A10782FD11C090814C
:1021F0008091A3078F5F2091A407821751F0E0918F
:10220000A307F0E0E657F84F958F8093A30701C02E
:102210008081FF91EF919F918F912F910F900BBE35
:102220000F900FBE0F901F9018951F920F920FB630
:102230000F9211240BB60F922F933F934F935F93FE
:102240006F937F938F939F93AF93BF93EF93FF937E
:1022500087EE98E00E94D02BFF91EF91BF91AF9154
:102260009F918F917F916F915F914F913F912F91AE
:102270000F900BBE0F900FBE0F901F9018951F92DE
:102280000F920FB60F9211240BB60F922F938F93CC
:102290009F93EF93FF93E091F708F091F808808106
:1022A000E091FD08F091FE0882FD11C090818091BF
:1022B00000098F5F20910109821751F0E091000918
:1022C000F0E0E951F74F958F8093000901C08081BC
:1022D000FF91EF919F918F912F910F900BBE0F90D7
:1022E0000FBE0F901F901895362F90E0FC01E45818
:1022F000F64F4491FC01E45CF44F2491FC01EA5058
:10230000F54F9491992309F46BC0442309F455C007
:1023100050E0FA013197E231F10508F04EC088270C
:10232000E556FF4F8F4F0C94944C809180008F772F
:1023300007C0809180008F7D03C080918000877FDF
:10234000809380003AC084B58F7702C084B58F7DBA
:1023500084BD33C08091B0008F7703C08091B000FE
:102360008F7D8093B00029C0809190008F7707C047
:10237000809190008F7D03C080919000877F809333
:1023800090001BC08091A0008F7707C08091A000B3
:102390008F7D03C08091A000877F8093A0000DC037
:1023A000809120018F7707C0809120018F7D03C02D
:1023B00080912001877F80932001E92FF0E0EE0FCC
:1023C000FF1FE452FD4FA591B4918FB7F894EC91A3
:1023D000311103C020952E2301C02E2B2C938FBFCB
:1023E0000895CF93DF9390E0FC01E45CF44F2491D7
:1023F000FC01EA50F54F8491882361F190E0880F49
:10240000991FFC01EE53F54FC591D491FC01E452A4
:10241000FD4FA591B491611109C09FB7F8948881CF
:10242000209582238883EC912E230BC0623061F4C7
:102430009FB7F8943881822F809583238883EC910D
:102440002E2B2C939FBF06C08FB7F894E8812E2BBC
:1024500028838FBFDF91CF9108951F93CF93DF9390
:10246000182FEB0161E00E94F111209711F460E058
:1024700004C0CF3FD10539F461E0812FDF91CF91C6
:102480001F910C947411E12FF0E0E458F64FE491A1
:102490004E2F50E0FA013197E231F10508F09DC06E
:1024A0008827E355FF4F8F4F0C94944C84B5806878
:1024B00084BDC7BD97C084B5806284BDC8BD92C0CD
:1024C00080918000806880938000D0938900C093C1
:1024D000880088C080918000806280938000D093C3
:1024E0008B00C0938A007EC08091800088608093BA
:1024F0008000D0938D00C0938C0074C08091B00098
:1025000080688093B000C093B3006CC08091B0002D
:1025100080628093B000C093B40064C0809190004A
:10252000806880939000D0939900C09398005AC01F
:1025300080919000806280939000D0939B00C09324
:102540009A0050C080919000886080939000D09352
:102550009D00C0939C0046C08091A000806880933D
:10256000A0008091A0008F7B8093A000D093A90051
:10257000C093A80037C08091A00080628093A00023
:10258000D093AB00C093AA002DC08091A0008860BA
:102590008093A000D093AD00C093AC0023C0809185
:1025A0002001806880932001D0932901C0932801E5
:1025B00019C080912001806280932001D0932B016B
:1025C000C0932A010FC08091200188608093200170
:1025D000D0932D01C0932C0105C0C038D1050CF05B
:1025E0004BCF45CFDF91CF911F9108958F929F924E
:1025F000AF92BF92CF92DF92EF92FF926B017C017C
:102600000E9479104B015C01C114D104E104F10472
:10261000F1F00E947910DC01CB0188199909AA090F
:10262000BB09883E9340A105B10570F321E0C21AB1
:10263000D108E108F10888EE880E83E0981EA11CFD
:10264000B11CC114D104E104F10419F7DDCFFF90EE
:10265000EF90DF90CF90BF90AF909F908F900895B4
:102660002FB7F8946091B3067091B4068091B506C7
:102670009091B6062FBF08951F920F920FB60F923A
:1026800011242F933F938F939F93AF93BF93809188
:10269000B3069091B406A091B506B091B6063091FC
:1026A000B20623E0230F2D3720F40196A11DB11DA2
:1026B00005C026E8230F0296A11DB11D2093B20686
:1026C0008093B3069093B406A093B506B093B60674
:1026D0008091B7069091B806A091B906B091BA065C
:1026E0000196A11DB11D8093B7069093B806A093E3
:1026F000B906B093BA06BF91AF919F918F913F9168
:102700002F910F900FBE0F901F9018950895CF92A4
:10271000DF92EF92FF92CF93DF936091DC02709192
:10272000DD0280E090E04AE00E94662286EB92E0C3
:102730000E94DA2C6AE070E08091DE020E94EA23B7
:1027400086EB92E00E94DA2C6AE070E08091DF0272
:102750000E94EA238BEB92E00E94DA2C6AE070E0A0
:102760008091E0020E94EA2388EB92E00E94DA2C3A
:102770006AE070E08091E1020E94EA2388EB92E037
:102780000E94DA2C6AE070E08091E2020E94EA2363
:102790008AEB92E00E94DA2C6091E4027091E502EB
:1027A0008091E6029091E7020E94CC2520E030E083
:1027B000A90160913E1270913F1280914012909158
:1027C00041120E947A488823A1F082E799E00E9492
:1027D0005A2C60913E1270913F128091401290915C
:1027E000411242E050E00E94D7238EE699E00E9419
:1027F0005A2CC0904212D0904312E0904412F090B4
:10280000451220E030E048EC52E4C701B6010E94D6
:102810007A48181654F042E050E0C701B6010E9411
:10282000D7238CE699E00E945A2C0E94EC2CC09091
:102830003612D0903712E0903812F090391220E022
:1028400030E0A901C701B6010E94FF4B18164CF4F5
:1028500042E050E0C701B6010E94D72389E699E023
:1028600002C086E699E00E945A2CC0902212D090B5
:102870002312E0902412F090251220E030E04AE785
:1028800054E4C701B6010E947A488823A9F026E6DD
:1028900036E646EE5FE3C701B6010E94DF4820E05E
:1028A00030E040E052E40E94024B42E050E00E94DF
:1028B000D72382E699E002C08FE599E00E94F02CD0
:1028C0008CE599E00E945A2C60914E1270914F1243
:1028D00080915012909151124AE050E00E94C8231A
:1028E0008AE599E00E945A2C60914A1270914B122D
:1028F00080E090E04AE00E94662288E599E00E942C
:102900005A2C60914C1270914D1280E090E04AE098
:102910000E94662286E599E00E945A2C60913A1244
:1029200070913B1280913C1290913D120E94BF2504
:1029300083E599E00E945A2C60915E1270915F12BB
:10294000809160129091611242E050E00E94D72382
:1029500081E599E00E945A2C609162127091631295
:10296000809164129091651242E050E00E94D7235A
:102970008FE499E00E945A2C609166127091671260
:1029800080916812909169120E94BF258CE499E0B1
:102990000E945A2C609152127091531280915412DD
:1029A0009091551242E050E00E94D7238AE499E0CA
:1029B0000E945A2C609156127091571280915812B1
:1029C0009091591242E050E00E94D72388E499E0A8
:1029D0000E945A2C60915A1270915B1280915C1285
:1029E00090915D120E94BF2585E499E00E945A2CC7
:1029F00060916A1270916B1280916C1290916D12BD
:102A000042E050E00E94D72383E499E00E945A2CD0
:102A100060916E1270916F1280917012909171128C
:102A200042E050E00E94D72381E499E00E945A2CB2
:102A3000609172127091731280917412909175125C
:102A40000E94BF25609146127091471280914812F2
:102A50009091491242E050E00E94D7238CE399E024
:102A60000E945A2C2CEB34E743E95CE360912A1274
:102A700070912B1280912C1290912D120E94DF48A0
:102A800020E030E040E052E40E94024B42E050E09F
:102A90000E94D72388E399E00E94F02C88E299E015
:102AA0000E945A2C26E636E646EE5FE360910E124F
:102AB00070910F1280911012909111120E94DF48B4
:102AC00020E030E040E052E40E94024B42E050E05F
:102AD0000E94D72381E299E00E945A2C26E636E62E
:102AE00046EE5FE3609112127091131280911412FE
:102AF000909115120E94DF4820E030E040E052E45F
:102B00000E94024B42E050E00E94D7238AE199E004
:102B10000E945A2C26E636E646EE5FE360911612D6
:102B20007091171280911812909119120E94DF482B
:102B300020E030E040E052E40E94024B42E050E0EE
:102B40000E94D72382E199E00E945A2C26E636E6BD
:102B500046EE5FE360911A1270911B1280911C1275
:102B600090911D120E94DF4820E030E040E052E4E6
:102B70000E94024B42E050E00E94D7238AE099E095
:102B80000E945A2C26E636E646EE5FE360911E125E
:102B900070911F1280912012909121120E94DF48A3
:102BA00020E030E040E052E40E94024B42E050E07E
:102BB0000E94D72383E099E00E945A2C26E636E64D
:102BC00046EE5FE3609126127091271280912812E1
:102BD000909129120E94DF4820E030E040E052E46A
:102BE0000E94024B42E050E00E94D7238AEF98E017
:102BF0000E945A2C26E636E646EE5FE360912E12DE
:102C000070912F1280913012909131120E94DF4802
:102C100020E030E040E052E40E94024B42E050E00D
:102C20000E94D72387EF98E00E94F02C8AEE98E06C
:102C30000E945A2C26E636E646EE5FE36091321299
:102C40007091331280913412909135120E94DF48B6
:102C500020E030E040E052E40E94024B0E94BF2599
:102C6000609195127091961280919712909198129E
:102C70004AE050E00E94C82387EE98E00E945A2C58
:102C80006091991270919A1280919B1290919C126E
:102C90004AE050E00E94C82384EE98E00E945A2C3B
:102CA00060917C1270917D1280917E1290917F12C2
:102CB00046E050E00E94D72381EE98E00E945A2C13
:102CC0006091801270918112809182129091831292
:102CD00046E050E00E94D7238EED98E00E945A2CE7
:102CE0006091841270918512809186129091871262
:102CF00046E050E00E94D72389ED98E00E945A2CCC
:102D0000609188127091891280918A1290918B1231
:102D100042E050E00E94D72382ED98E00E945A2CB6
:102D200060918C1270918D1280918E1290918F1201
:102D300042E050E00E94D7238BEC98E00E945A2C8E
:102D40006AE070E0809194120E94EA238DEB98E093
:102D50000E945A2C8091901290919112C4E6D0E07A
:102D6000BE010E942B4C80E090E00E947E4841E032
:102D700050E00E94D72382EB98E00E945A2C809169
:102D8000921290919312BE010E942B4C80E090E031
:102D90000E947E4841E050E00E94D7238FEA98E0ED
:102DA0000E94F02C83EA98E00E945A2C6091FB0C60
:102DB0007091FC0C8091FD0C9091FE0C0E94CC2532
:102DC0008AE998E00E945A2C6091761270917712ED
:102DD00080E090E04AE00E94662288E998E00E9444
:102DE0005A2C609178127091791280E090E04AE05C
:102DF0000E94662286E998E00E945A2C6AE070E000
:102E000080917A1290917B120E94AF258CE898E015
:102E10000E945A2C0E94301328EE33E040E050E02C
:102E20000E94534CCA01B9014AE050E00E94C823F5
:102E300082E898E0DF91CF91FF90EF90DF90CF9004
:102E40000C94F02CFC01AC014E5F5F4F8FEF91E3CF
:102E50002191822728E030E087FF03C0880F89276F
:102E600001C0880F21503109B9F7E417F50781F740
:102E7000089508950F931F93CF93DF938C01EB0177
:102E800088E2FB0111928A95E9F74BE050E06DEB87
:102E900072E0CE010E94F24A1B8681E090E0A0E041
:102EA000B0E08C879D87AE87BF87F80182859385C8
:102EB000A485B585888B998BAA8BBB8B85E090E028
:102EC000A0E0B0E08C8B9D8BAE8BBF8B1CA21DA2B3
:102ED0001EA21FA280E090EDA4E8B6E4888F998F2F
:102EE000AA8FBB8F1C8E1D8E1E8E1F8E80E090E0E1
:102EF000A0E8BFE388A399A3AAA3BBA3DF91CF91C6
:102F00001F910F910895EF92FF920F931F93CF930C
:102F1000DF9300D01F92CDB7DEB77C018B0184E236
:102F2000FB0111928A95E9F784E290E0A0E0B0E01D
:102F3000FB0180839183A283B383F701828593850C
:102F4000A485B585FB0184839583A683B78385E03B
:102F500090E0A0E0B0E080879187A287B3870E94CD
:102F60003013F801608B718B828B938BAE014F5FB6
:102F70005F4FBE016D5F7F4FC7010E94152B4981D6
:102F80005A816B817C81C7010E940F270E947E4875
:102F9000F801648B758B868B978B11E020E030E015
:102FA00040E857E40E947A48811101C010E0812F67
:102FB0000F900F900F900F90DF91CF911F910F9175
:102FC000FF90EF90089580917B00877F80937B0036
:102FD00080E480937C0080917A00806480937A0002
:102FE00080917A0086FDFCCF809178002091790055
:102FF00090E0922B08950F931F93CF93DF93C82FE8
:1030000066E389EB91E10E94042A6C2F89EB91E140
:103010000E94652660E089EB91E10E948A2942E0E6
:1030200050E066E370E089EB91E10E94332AC9EE3B
:10303000D3E02091D20630E08091D306281B3109DD
:10304000223031054CF4219739F061E070E080E0E6
:1030500090E00E94F612EDCF89EB91E10E940C26E0
:10306000C82F89EB91E10E940C261C2F00E09801EB
:10307000282BC901DF91CF911F910F9108950F93D4
:103080001F93CF93DF93CDB7DEB729970FB6F89490
:10309000DEBF0FBECDBF8C01BE016F5F7F4F0E94B0
:1030A0005E24882361F1698148E0649FB0011124A6
:1030B0009A81292F30E0322F2227330F330F330F1D
:1030C000262B372BF80180818031E1F4688570E090
:1030D0008F81AB01481B5109CA019695982F88270B
:1030E000979587950E943F4C60517109207F53E06E
:1030F000220F331F5A95E1F7620F731F04C060E877
:1031000074EE01C0B901613854EE75076CF0882780
:1031100077FD8095982F0E94804820E030E040E0C5
:103120005CE30E94DF4804C060E070E08EEF92EC48
:1031300029960FB6F894DEBF0FBECDBFDF91CF91B9
:103140001F910F910895CF92DF92EF92FF92CF934C
:10315000C82F80E48C0F0E94FC2C8C2F8F70843041
:10316000C1F048F4882381F08230F1F463E070E02C
:1031700080E090E017C0863089F08830A9F46AE0DA
:1031800070E080E090E00EC08BE09EE00197F1F7E8
:103190000BC064E070E080E090E004C066E070E0A6
:1031A00080E090E00E94F61280E00E94FC2C60918A
:1031B000DD11772767FD709543E050E08091DE11C7
:1031C0009091DF110E94332A8091DE119091DF11DE
:1031D000DC01ED91FC910680F781E02D19956C01E1
:1031E000EE24D7FCE094FE2C7601DD24CC248091E3
:1031F000DE119091DF11DC01ED91FC910680F781E9
:10320000E02D1995AA2797FDA095BA2FBA2FA92FBF
:10321000982F8827C80ED91EEA1EFB1E8091DE114A
:103220009091DF11DC01ED91FC910680F781E02D9A
:103230001995AA2797FDA095BA2FC80ED91EEA1E88
:10324000FB1E61E08091DE119091DF110E948A29BE
:10325000C701B601CF91FF90EF90DF90CF90089516
:10326000DF92EF92FF920F931F93CF93DF9300D0E3
:1032700000D0CDB7DEB780E094E20E944F2264EF29
:1032800071E080E090E00E94F61266E08091B0115B
:103290000E9445208091D20690E02091D306821BA7
:1032A0009109069709F05FC0CE0101967C018C015F
:1032B00086E0D82EDE0C89EB91E10E940C26F80105
:1032C00081938F01DE12F7CFD9800A811B81C7015C
:1032D0000E942217181347C0FC801D81EE80CE018A
:1032E00004960E942217E8123EC0602F70E07D29EC
:1032F00080E090E00E947E4820E030E04FE253E41E
:103300000E94DF4820E03FEF4FE757E40E94664B02
:1033100020E030E044E352E40E94014B6093B51199
:103320007093B6118093B7119093B811612F70E02C
:103330007F2980E090E00E947E4820E030E048EC69
:1033400052E40E94DF4820E03FEF4FE757E40E943D
:10335000664B6093B1117093B2118093B311909347
:10336000B41181E001C080E026960FB6F894DEBF6C
:103370000FBECDBFDF91CF911F910F91FF90EF90C6
:10338000DF900895CF9368E689EB91E10E94042ACB
:103390006EE089EB91E10E9465260E947B2C41E062
:1033A00050E068E670E089EB91E10E94332A909149
:1033B000D2068091D3069817F1F389EB91E10E9430
:1033C0000C26C82F0E947B2C8C2FCF910895CF9371
:1033D000CFB7F8948091D106811127C0EBE2FBE0D2
:1033E0008491E1E7FBE09491E82FF0E0EE0FFF1FFE
:1033F000EE53F54FA591B491EC91E92321F461E0EE
:1034000085E30E94741161E085E30E94F1118CB59F
:1034100080618CBD8CB580648CBD61E084E30E94CA
:10342000F11161E083E30E94F1118091D1068F5F79
:103430008093D106CFBFCF9108958F929F92AF9284
:10344000BF92CF92DF92EF92FF921F93CF93DF93C1
:10345000EC0111E06130710509F010E098AD81E0F8
:103460008927181330C0EC8DFD8DC080D180E2809B
:10347000F380CCA2DDA2EEA2FFA2EA8DFB8D8081BB
:103480009181A281B38188A799A7AAA7BBA78CA87D
:103490009DA8AEA8BFA8A5019401C701B6010E94CE
:1034A000FF4B181664F088A899A8AAA8BBA8A50184
:1034B0009401C701B6010E947A4887FF04C08CA21C
:1034C0009DA2AEA2BFA218AFDF91CF911F91FF9036
:1034D000EF90DF90CF90BF90AF909F908F90089526
:1034E0002F923F924F925F926F927F928F929F9214
:1034F000AF92BF92CF92DF92EF92FF920F931F9302
:10350000CF93DF93CDB7DEB72B970FB6F894DEBF1E
:103510000FBECDBFDC01D896BC91B983B11102C0FA
:103520001982E4C09B878A870E9430136A837B8359
:103530008C839D83EA85FB8580A191A1A2A1B3A183
:103540004A815B816C817D81481B590B6A0B7B0B27
:1035500084A595A5A6A5B7A5481759076A077B07AF
:10356000F8F2028CF38DE02D80809180A280B380F0
:10357000AA85BB855E96ED91FC915F97A5019401AC
:1035800060817181828193810E94014B2B013C01FA
:10359000EA85FB8520893189428953890E94DF4869
:1035A000AA85BB8594962D913D914D915C919797FD
:1035B0000E94024B6B017C01EA85FB8564A375A325
:1035C00086A397A324A835A806A917A99101A80145
:1035D0000E94FF4B18161CF4C101D80118C0AA851F
:1035E000BB85D0968D919D910D90BC91A02D8E8321
:1035F0009F83A887B9879C01AD01C701B6010E94CE
:103600007A4887FF0AC08E819F81A885B985EA859F
:10361000FB8584A395A3A6A3B7A3AA85BB851C9607
:103620002D913D914D915C911F97C301B2010E9474
:10363000DF48EA85FB8524A135A146A157A10E9458
:10364000024B6B017C01AA85BB8598962D913D911B
:103650004D915C919B97C501B4010E94014BEA8595
:10366000FB8524893589468957890E94DF489B015B
:10367000AC01C701B6010E94014B6B017C019101B5
:10368000A8010E94FF4B1816BCF0AA85BB85D096F6
:103690002C90D097D1963C90D197D2960C91D297FE
:1036A000D3961C919101A801B601C7010E947A48E6
:1036B00087FD02C016018701AA85BB855C96ED9146
:1036C000FC915D97C101D80180839183A283B3836C
:1036D000EA85FB8580A691A6A2A6B3A68A819B81D6
:1036E000AC81BD8180A391A3A2A3B3A389812B96B2
:1036F0000FB6F894DEBF0FBECDBFDF91CF911F9103
:103700000F91FF90EF90DF90CF90BF90AF909F9080
:103710008F907F906F905F904F903F902F90089583
:103720004F925F926F927F928F929F92AF92BF92D1
:10373000CF92DF92EF92FF920F931F93CF93DF937D
:1037400000D01F92CDB7DEB74C01270138010C8D98
:103750001D8DDC015D965C934E935C975B967C932C
:103760006E935A975F963C932E935E97D8961C92D1
:10377000FC0110AA11AA12AA13AA80E090E0AFE7F8
:10378000B3E484AB95ABA6ABB7AB84E690E0A0E026
:10379000B0E084A795A7A6A7B7A7118F008F20E058
:1037A00030E0A901C301B2010E947A4887FD7AC0C6
:1037B00020E030E0A901C601B5010E947A4887FDEA
:1037C00071C020E030E0A901688D798D8A8D9B8DD4
:1037D0000E947A4887FD66C0D4014D925D926D9239
:1037E0007C921397F401A482B582C682D782888D19
:1037F000998DAA8DBB8D80879187A287B3874486D8
:103800005586668677862DEC3CEC4CEC5DE3C60174
:10381000B5010E94DF4869837A838B839C83F4011E
:10382000608B718B828B938B2DEC3CEC4CEC5DE3CD
:10383000688D798D8A8D9B8D0E94664B6B017C0112
:10384000D40154966D937D938D939C93579701303B
:10385000110541F5A301920160E070E0CB010E94E7
:10386000014BF401648775878687978729813A81A0
:103870004B815C8160E070E0CB010E94014BD40180
:1038800050966D937D938D939C935397A7019601CA
:1038900060E070E0CB010E94014BF401648B758BFA
:1038A000868B978B0E943013D4019C960D911D91AD
:1038B0002D913C919F97DC01CB01801B910BA20BBA
:1038C000B30BF40180A391A3A2A3B3A30F900F9015
:1038D0000F900F90DF91CF911F910F91FF90EF907C
:1038E000DF90CF90BF90AF909F908F907F906F9020
:1038F0005F904F900895CF93DF93EC018A859B856D
:10390000AC85BD858E839F83A887B9870E943013BD
:103910006A837B838C839D8381E089838883DF91A5
:10392000CF9108952F923F924F925F926F927F9224
:103930008F929F92AF92BF92CF92DF92EF92FF92BF
:103940000F931F93CF93DF93D82FC92F8B010E9422
:103950001B4824E630E040E050E00E94534C49010F
:103960005A019B01AC0160E876E988E990E00E9489
:103970000F4C6B017C01F80191828082ED2FFC2FAE
:103980002191822F992787FD9095C0970A97C0F3C0
:103990002E3239F51F0180E8882E86E9982E88E9B5
:1039A000A82EB12C9AE0492E512C612C712CF101DA
:1039B000C1911F01DD27C7FDD095E097CA30D10521
:1039C00080F4C501B401A30192010E94534C490146
:1039D0005A01DE010E94074CC60ED71EE81EF91ED2
:1039E000E6CFA5E0B0E0A70196010E9496496F5F7F
:1039F0007F4F8F4F9F4F23E030E040E050E00E9428
:103A0000534CF80122833383448355831682DF911C
:103A1000CF911F910F91FF90EF90DF90CF90BF90CB
:103A2000AF909F908F907F906F905F904F903F905E
:103A30002F900895FF920F931F93CF93DF93EC0184
:103A4000FF24F39488818D3211F0F12C01C021966E
:103A5000CE010E941B489B01AC01A4E6B0E00E948D
:103A60009649FE014991242F332727FD3095205395
:103A700031092A303105A8F34E3241F5218133272F
:103A800027FD3095205331092A303105F8F44AE0FA
:103A9000429F8001439F100D1124222717FD20957E
:103AA000322F600F711F821F931F0281112707FDA4
:103AB0001095005311090A30110540F4222717FD13
:103AC0002095322F600F711F821F931FFF2039F046
:103AD00090958095709561957F4F8F4F9F4FDF91A7
:103AE000CF911F910F91FF9008959CB5282F2370BF
:103AF0009C7F922B9CBD2DB582FB992790F9822F3C
:103B00008E7F892B8DBD08958EBD00000DB407FEFC
:103B1000FDCF8EB508958091C4068F3F11F40C94AB
:103B2000841DF894E091C206F091C30690818091C3
:103B3000C106892B808328E080E0E091BF06F091E8
:103B4000C00630819091BE06392B3083880FA0913A
:103B5000BC06B091BD064C913091BB06342309F0F0
:103B60008160308190959323908300000000215064
:103B700021F77894089580911C11811101C0089556
:103B800080911D1190911E119C012F5F3F4F30932A
:103B90001E1120931D118230924018F40E948B1D3B
:103BA000EFCF0E94F42510921C110895CF93DF935C
:103BB0000E943013EB010E948B1D809320118F3FD8
:103BC00049F40E9430136C1B7D0B6D32714098F3E9
:103BD0008FE003C08E3F39F08DE080931B110E946F
:103BE000F42580E001C081E0DF91CF9108959091AC
:103BF000C4069F3F11F40C94841DF89438E0E091C2
:103C0000BF06F091C00690812091BE06422F4095DC
:103C100094239083A091C206B091C3069091C106EF
:103C20004C9187FF02C0942B02C0909594239C93E3
:103C30009081292B2083880F315009F70000000064
:103C400000000000E091BF06F091C00690818091D5
:103C5000BE0680958923808378940895CF92DF9261
:103C6000EF92FF921F93CF93DF93182F6A017B018E
:103C70000E94BB1D60E080911A110E9474118CE2B9
:103C800091E00E94D925812F80640E94F71DC8E130
:103C9000D0E0D701C6010C2E04C0B695A795979524
:103CA00087950A94D2F70E94F71D2897C83F8FEF97
:103CB000D80779F7112321F0183021F487E803C0E1
:103CC00085E901C08FEF0E94F71DC0E00E948B1DA7
:103CD0008093201187FF04C0CF3F11F0CF5FF6CF54
:103CE000DF91CF911F91FF90EF90DF90CF900895DB
:103CF000CF92DF92EF92FF920F931F93CF93DF93B8
:103D00008A014130524008F061C020911C112223E9
:103D100099F0C0901611D0901711E0901811F09002
:103D200019116C157D058E059F0531F420911D112B
:103D300030911E11232B49F16093161170931711C6
:103D4000809318119093191120912111233039F08B
:103D500029E0660F771F881F991F2A95D1F7AB01BD
:103D6000BC0181E10E942E1E882321F083E0809314
:103D70001B112CC00E94D61D882341F110921E11E8
:103D800010921D1181E080931C11C0E0D0E0C0179B
:103D9000D10741F00E948B1DFE01ED5FF24F828B37
:103DA0002196F5CF80911D1190911E11C80FD91F3A
:103DB000D0931E11C0931D1180911F11882319F0FB
:103DC000C115D24038F00E94BB1D04C00E94F425EA
:103DD00080E001C081E0DF91CF911F910F91FF90B2
:103DE000EF90DF90CF900895DC01E0E0615038F073
:103DF0008D91E827F0E0EE53F64FE491F7CF8E2F48
:103E00000895FC0190810180F281E02DF894818178
:103E1000892B81832281892F809528232283A7E003
:103E2000B0E01197F1F7218182238183A3E2B0E012
:103E30001197F1F780817894EFECF0E03197F1F78A
:103E4000982381E009F480E00895FC0190810180CD
:103E5000F281E02D892F809560FF12C0F8942281B5
:103E6000822382838181892B8183A3E2B0E0119731
:103E7000F1F78281982B9283789487ED90E011C0BE
:103E8000F8942281822382838181892B8183AFEF01
:103E9000B0E01197F1F78281982B928378948FE0AC
:103EA00090E00197F1F70895CF92DF92EF92FF92A1
:103EB0000F931F93CF93DF931F92CDB7DEB76C01A3
:103EC000E62E08E010E0FF24F39461E08F2D8E21B0
:103ED00009F460E0C60149830E94251FFF0C0150D0
:103EE000110949810115110581F7411115C0F89497
:103EF000D6011196ED91FC91129791818C9180954C
:103F0000892381831196ED91FC91129792818C9176
:103F100080958923828378940F90DF91CF911F91B0
:103F20000F91FF90EF90DF90CF900895CF92DF92A6
:103F3000EF92FF920F931F93CF93DF931F92CDB712
:103F4000DEB78C01F62E40E065E579830E94541FB0
:103F5000CF2C7981D72E760188E0E80EF11CF6018E
:103F600061916F0140E0C8010E94541FCE14DF042C
:103F7000B1F70F90DF91CF911F910F91FF90EF90CC
:103F8000DF90CF900895FC0190810180F281E02DB7
:103F9000F8948181292F20958223818378948DE75D
:103FA00043E050E0815021F1DA011197F1F73081BF
:103FB0003923C1F3F8948281822382838181892B02
:103FC00081837894ABE7B7E01197F1F7F89481819A
:103FD00028232183A3E1B1E01197F1F78081982391
:103FE00081E009F080E07894E3E6F6E03197F1F7BC
:103FF0000895AF92BF92CF92DF92EF92FF920F930C
:104000001F93CF93DF938B01BC018091E5119091B9
:10401000E6110E94961F40E06EEB8091E5119091B1
:10402000E6110E94541FE801680189E0C80ED11C06
:10403000A090E511B090E61188E0E82EF12C01E0A7
:1040400010E0C5010E94011F8111102B000F81E0BB
:10405000E81AF108B1F71993CC15DD0549F78091FD
:10406000E5119091E6110E94C31F91E0813009F0A3
:1040700090E0892FDF91CF911F910F91FF90EF90EA
:10408000DF90CF90BF90AF900895613208F060E26A
:104090000E94802C1092D3068093D2060895CF936D
:1040A000DF93C82FD62F682F89EB91E10E94042A55
:1040B0006D2F89EB91E10E94652661E089EB91E12A
:1040C0000E948A2961E08C2F0E944520C8EED3E02F
:1040D0008091D20690E02091D306821B9109181698
:1040E00019065CF0219738F061E070E080E090E024
:1040F0000E94F612EDCF8FEF06C0CD2BE1F389EBD6
:1041000091E10E940C26DF91CF910895682F89EBF1
:1041100091E10C9465260F931F93CF93DF93D82FD3
:10412000C62F8A01682F89EB91E10E94042A8C2F07
:10413000806890E00E94862061E089EB91E10E9416
:104140008A2966E08D2F0E944520C8EED3E0809139
:10415000D20690E02091D306821B910906975CF469
:10416000219738F061E070E080E090E00E94F61264
:10417000EECF8FEF15C0CD2BE1F3E8010A5F1F4FA3
:104180008091D2069091D306C017D10741F08917CC
:10419000D9F389EB91E10E940C268993F1CF86E057
:1041A000DF91CF911F910F910895AB019091231151
:1041B000913029F4682F809193110C948B209111E8
:1041C00006C026E0682F809193110C94512D08951C
:1041D000CF93DF9300D000D0CDB7DEB7809123110D
:1041E000813049F4AE014F5F5F4F68E280919211D8
:1041F0000E948B200BC0811109C026E0AE014F5FE9
:104200005F4F68E2809192110E94512D8A8190E067
:10421000982F88272981822B9093551180935411D0
:104220008C8190E0982F88272B81822B90935711B7
:10423000809356118E8190E0982F88272D81822BB4
:10424000909359118093581126960FB6F894DEBFBB
:104250000FBECDBFDF91CF910895CF93DF931F9213
:10426000CDB7DEB7682F80912311813029F480917A
:1042700092110E944F200CC081110AC021E0AE01B2
:104280004F5F5F4F809192110E94512D898100C034
:104290000F90DF91CF9108951F93CF93DF93182F45
:1042A000D62F809123118130A9F46091931189EB6D
:1042B00091E10E94042A612F89EB91E10E94652619
:1042C0006D2F89EB91E10E946526DF91CF911F91BF
:1042D0000C947B2C811114C0C091931160E08C2F41
:1042E0000E947411812F8F730E94841D8D2F0E9454
:1042F000841D61E08C2FDF91CF911F910C9474117C
:10430000DF91CF911F910895CF93DF931F92CDB787
:10431000DEB7682F80912311813029F480919311A9
:104320000E944F200CC081110AC021E0AE014F5FF6
:104330005F4F809193110E94512D898100C00F9091
:10434000DF91CF910895CF93DF9300D000D0CDB708
:10435000DEB7BE016F5F7F4F88E20E94D5208A8161
:1043600090E0982F88272981AC01422B50934F1160
:1043700040934E112C8130E0322F22278B81282B45
:1043800030935111209350118E8190E0982F8827FF
:104390006D81862B90935311809352116091A011DF
:1043A0006623F1F06091861170918711461B570BBF
:1043B00050934F1140934E114091881150918911A3
:1043C000241B350B309351112093501120918A11E9
:1043D00030918B11821B930B909353118093521148
:1043E00026960FB6F894DEBF0FBECDBFDF91CF91FA
:1043F0000895CF93DF9300D000D0CDB7DEB7BE01D4
:104400006F5F7F4F88E10E94D5208A8190E0982FCE
:1044100088272981AC01422B5093491140934811C0
:104420002C8130E0322F22278B81282B30934B11A7
:1044300020934A118E8190E0982F88276D81862BDA
:1044400090934D1180934C116091A0116623F1F06F
:104450006091801170918111461B570B5093491147
:10446000409348114091821150918311241B350BC8
:1044700030934B1120934A11209184113091851172
:10448000821B930B90934D1180934C1126960FB67F
:10449000F894DEBF0FBECDBFDF91CF910895CF93CB
:1044A000DF93EC016091B01189EB91E10E94042A45
:1044B0006D2F89EB91E10E9465266C2F89EB91E1CC
:1044C0000E946526DF91CF910C947B2C8F929F9256
:1044D000AF92BF920F931F93CF93DF93CDB7DEB709
:1044E000A1970FB6F894DEBF0FBECDBF19A2423020
:1044F00008F44AE08E010F5D1F4F842E912CA12CF1
:10450000B12CA50194010E94534CE62FB901CA01B8
:1045100001501109EA3014F4E05D01C0E95CD801F2
:10452000EC93232B242B252B61F7C8010E94DA2C56
:10453000A1960FB6F894DEBF0FBECDBFDF91CF912D
:104540001F910F91BF90AF909F908F900895CF9241
:10455000DF92EF92FF92CF93DF9397FF21C06B0121
:104560007C01E0918A07F0918B070190F081E02DAA
:104570006DE28AE897E01995EC0166277727CB0171
:104580006C197D098E099F094AE00E9466228C0FF2
:104590009D1FDF91CF91FF90EF90DF90CF90089516
:1045A0004AE0DF91CF91FF90EF90DF90CF900C9495
:1045B00066224F925F926F927F928F929F92AF92FC
:1045C000BF92CF92DF92EF92FF926B017C01B42EEB
:1045D0009B01AC010E94034C882319F085EC92E00A
:1045E00027C026013701E89477F82FEF3FEF4FE718
:1045F0005FE7C301B2010E94034C81110DC02FEF90
:104600003FEF4FE75FE7C301B2010E947A481816F7
:104610001CF489EC92E00CC02FEF3FEF4FE75FE412
:10462000C701B6010E94FF4B181684F48DEC92E08E
:10463000FF90EF90DF90CF90BF90AF909F908F90C2
:104640007F906F905F904F900C94DA2C2FEF3FEF9C
:104650004FE75FECC701B6010E947A4887FDE6CFBD
:1046600020E030E0A901C701B6010E947A4887FF27
:1046700011C0E0918A07F0918B070190F081E02D45
:104680006DE28AE897E019954C01F7FAF094F7F893
:10469000F09402C0812C912CA12C60E070E080E0AD
:1046A0009FE3AB1441F020E030E040E251E40E948F
:1046B000664BA394F6CF9B01AC01C701B6010E94E3
:1046C000024B2B013C010E94D34B6B017C010E94E9
:1046D0007E489B01AC01C301B2010E94014B2B013A
:1046E0003C014AE0C701B6010E9466227C01E80C49
:1046F000F91CBB2031F081ED92E00E94DA2CE80E2B
:10470000F91EDB2CDD2029F120E030E040E251E40D
:10471000C301B2010E94DF482B013C010E94CE4B35
:104720004B01AA2497FCA094BA2CC501B4010E94A5
:10473000A722E80EF91EC501B4010E9480489B0122
:10474000AC01C301B2010E94014B2B013C01DA9480
:10475000D9CFC701FF90EF90DF90CF90BF90AF907F
:104760009F908F907F906F905F904F900895CF9320
:10477000DF93BC01882777FD8095982F0E94A722A0
:10478000EC010E94EC2C8C0F9D1FDF91CF910895BE
:104790004115510551F4E0918A07F0918B07019082
:1047A000F081E02D8AE897E019940C9466220C942D
:1047B000D922CF93DF93AB01682F70E080E090E0C7
:1047C0000E94C823EC010E94EC2C8C0F9D1FDF91EE
:1047D000CF910895AB01682F70E080E090E00C94D9
:1047E000C823FB019C01285F3F4FDC015D91CD0197
:1047F0004191541305C0A217B307B9F781E008959A
:1048000080E008950F931F93CF93DF93CDB7DEB76A
:1048100029970FB6F894DEBF0FBECDBF8C018091F3
:10482000E5119091E6110E94C31F882331F0BE016B
:104830006F5F7F4FC8010E94F91F81E0998191113C
:1048400001C080E029960FB6F894DEBF0FBECDBF41
:10485000DF91CF911F910F9108958091E511909173
:10486000E6110E94C31F40E06CEC8091E51190912D
:10487000E6110E94541F4091E01164E48091E5111B
:104880009091E6110E94541F8091E2118823A9F0B3
:10489000E091E111E950E33040F4F0E0EE0FFF1F4A
:1048A000E15AFD4F6081718102C06EEE72E088278F
:1048B00077FD8095982F0C94F61208950F931F930F
:1048C000CF93DF938C01EB018091E5119091E6117C
:1048D0000E94C31F882369F0BE01C8010E94F91F0E
:1048E000882339F068E0CE010E94F41E91E028850B
:1048F000821390E0892FDF91CF911F910F9108953E
:10490000CF93DF93CDB7DEB729970FB6F894DEBF0C
:104910000FBECDBFBE016F5F7F4F0E945E24882314
:1049200089F08D818F3361F020F48F3159F489E063
:104930000CC08F3519F08F3739F004C08BE005C0FB
:104940008AE003C080E001C08CE029960FB6F8949D
:10495000DEBF0FBECDBFDF91CF910895AF92BF9262
:10496000CF92DF92EF92FF920F931F93CF93DF933B
:104970001F92CDB7DEB75C01D62EE72EFC018585F0
:10498000811105C0C5010E94C31F811106C0F50138
:1049900013861586148680E065C040E060EFC5018F
:1049A0000E94541F01E0F12CC12C11E0C5010E94AE
:1049B000011F682FC50169830E94011F6981613051
:1049C00019F48130B9F433C04F2D50E068131BC087
:1049D000F5018385181730F4E40FF51F83818023D8
:1049E00049F402C0181731F060E0193058F4F501AD
:1049F000148708C0F501EF0DF11D8381802B83839F
:104A000061E009C0C12EF501E40FF51F9381802FED
:104A1000809589238383C5010E94251F1F5F000F96
:104A200011F4F39401E0F7E0FF1508F0BFCF113463
:104A300008F4ADCFF501C386C11002C081E08587BF
:104A4000F5018381882309F4A2CFD5011396ED2DBA
:104A5000FE2D9501255F3F4F8D918193A217B307DE
:104A6000D9F781E00F90DF91CF911F910F91FF90C7
:104A7000EF90DF90CF90BF90AF9008950F931F936A
:104A8000CF93DF938C01D62FE091E511F091E611E1
:104A9000138615861486DF011B9633961E92AE1779
:104AA000BF07E1F7C0E0B8018091E5119091E611F0
:104AB0000E94AE24882381F0CD130AC067E0C801AC
:104AC0000E94F41EF8019781891302C081E004C09E
:104AD000CF5FDC1740F780E0DF91CF911F910F91FE
:104AE0000895CF92DF92EF92FF92CF93DF93EC0184
:104AF0006CA57DA58EA59FA50E947E489B01AC015B
:104B000060E070E08AE794E40E94664B6B017C01F0
:104B10009B01AC01688979898A899B890E94DF4859
:104B2000688B798B8A8B9B8BA70196016C897D8919
:104B30008E899F890E94664B6C8B7D8B8E8B9F8BA1
:104B400088EE93E0A0E0B0E08CA79DA7AEA7BFA73A
:104B5000DF91CF91FF90EF90DF90CF900895CF93AA
:104B6000DF93AB01BC0180E090E00E94C823EC0120
:104B70000E94EC2C8C0F9D1FDF91CF910895CF9355
:104B8000DF9342E00E94D922EC010E94EC2C8C0FB2
:104B90009D1FDF91CF910895CF93DF934AE00E944C
:104BA0006622EC010E94EC2C8C0F9D1FDF91CF91AF
:104BB00008950F931F93CF93DF93EC010E9430135E
:104BC0008B010E948B1D8F3F49F00E943013601BA8
:104BD000710B6C177D07A8F380E001C081E0DF91C5
:104BE000CF911F910F91089561E080911A110C945B
:104BF0007411FC01658308950895E091D3068091B6
:104C0000D206E81730F4F0E0ED5BF84F808190E0D9
:104C100008958FEF9FEF08959091D3068091D2066B
:104C2000981750F4E92FF0E0ED5BF84F208130E069
:104C30009F5F9093D30602C02FEF3FEFC901089505
:104C40008091D20690E02091D306821B91090895AD
:104C5000CF92DF92EF92FF920F931F93CF93DF9348
:104C60007C018A018091F706882389F0EB016B01B2
:104C7000C40ED51ECC15DD05F1F06991D701ED917B
:104C8000FC910190F081E02DC7011995F3CF842F9D
:104C9000413288F490918907943069F440931E075B
:104CA000FB012CEF36E0D9019A2F921B981718F4CC
:104CB00091919D93F9CFC801DF91CF911F910F91F1
:104CC000FF90EF90DF90CF9008952091F706222378
:104CD000C9F02091F606203240F021E030E0FC01DE
:104CE0003383228380E090E008958091F506E82FD9
:104CF000F0E0EB52F94F60838F5F8093F50680936D
:104D0000F60609C080918907843029F481E08093F8
:104D10001E076093FC0681E090E00895FC01918DF0
:104D2000828D981759F0828DDF01A80FB11D5D9615
:104D30008C91928D9F5F928F90E008958FEF9FEFFF
:104D40000895FC01918D828D981731F0828DE80FC6
:104D5000F11D858D90E008958FEF9FEF0895FC0180
:104D6000918D828D981B892F90E0089580E090E0CE
:104D7000892B21F00E94A010811121C080E090E0D9
:104D8000892B21F00E94AA1081111CC080E090E0C4
:104D9000892B41F080E090E0892B21F00E940000F7
:104DA000811113C080E090E0892BA1F080E090E0B9
:104DB000892B81F00E94000081110AC008950E9491
:104DC0000000DCCF0E940000E1CF0E940000EACF8B
:104DD0000C9400000895CF93DF93CCEBD0E01882C1
:104DE0001092890781E0809388071092830761E021
:104DF00084E10E94741161E085E10E947411E9EB85
:104E0000F0E080818E7F808380818D7F808388E445
:104E10008093B80085E48883DF91CF9108958F92C5
:104E20009F92AF92BF92CF92DF92EF92FF92FA01E0
:104E3000DC0116962D913C9117972115310549F00B
:104E40002130310519F448E850E905C048EE5DEF1E
:104E500002C044E253E14617570708F4D0C04E178A
:104E60005F0708F4CCC02115310581F021303105F0
:104E700039F437EE832E3FE0932EA12CB12C0CC0D9
:104E8000812C24E0922EA12CB12C06C0B7E18B2EF0
:104E9000B5E79B2EA12CB12CDC0118968D919C912D
:104EA0001997892B39F4A4E0880C991CAA1CBB1C07
:104EB000AA95D1F7DB01A50194010E9496496B01E7
:104EC0007C016AE0F694E794D794C7946A95D1F789
:104ED000DF010E9496494B015C017AE0B694A794E9
:104EE000979487947A95D1F7C114D104E104F10421
:104EF00071F0C501B4014AE0660F771F881F991F42
:104F00004A95D1F7A70196010E94534C03C020E0B7
:104F100030E0A901DA01C9010196A11DB11DB695C4
:104F2000A7959795879581349105A105B10530F135
:104F300081389105A105B10530F1813C9105A105AC
:104F4000B10530F1813021E09207A105B10528F1CA
:104F5000893331E09307A105B10520F18B3941E098
:104F60009407A105B10518F18B399240A105B1054F
:104F700018F1E0E0F0E0A0E0B0E022C0EEEBF1E0FC
:104F8000A2EFB1E01DC0E1EDF2E0A4E1B2E018C093
:104F9000EBE7F3E0AFE3B2E013C0EEEFF3E0A0E73E
:104FA000B2E00EC0ECEFF1E0AFE6B1E009C0EBEF2C
:104FB000F0E0A2EDB0E004C0E2E1F0E0A8E1B0E092
:104FC000A70196010E9496496B017C01A0E2DA0ECE
:104FD000E11CF11CDF01A50194010E949649A70183
:104FE0009601261B370B480B590BCA01B9012EE05D
:104FF00096958795779567952A95D1F704C060E0D7
:1050000070E081E090E0FF90EF90DF90CF90BF9054
:10501000AF909F908F900895882349F01092F806E2
:105020001092F9061092FA061092FB0613C08091B6
:10503000F8069091F906A091FA06B091FB06019648
:10504000A11DB11D8093F8069093F906A093FA066E
:10505000B093FB068091F8069091F906A091FA06AC
:10506000B091FB06803A9648A140B10560F01092DD
:10507000F8061092F9061092FA061092FB060E94AA
:10508000EB2681E0089580E0089585ED8093BC00D3
:1050900081E00E940C288091BC0084FF06C080E063
:1050A0000E940C288823B9F302C010928907089542
:1050B0001F920F920FB60F9211240BB60F922F93DF
:1050C0003F934F935F936F937F938F939F93AF9390
:1050D000BF93EF93FF938091B900887F803609F4E6
:1050E0009CC068F5883209F45BC090F4803109F403
:1050F00054C038F4882309F4F6C0883009F44DC050
:10510000F6C0883109F44CC0803209F45DC0EFC0AC
:10511000803409F468C048F4803309F455C08833FA
:1051200009F0E5C080938707D8C0803509F44FC0E7
:10513000883509F45DC0883409F0D9C0D6C08839F3
:1051400009F4C7C0A8F4883709F467C038F4883672
:1051500009F463C0803709F460C0C9C0883809F415
:10516000B8C0803909F45FC0803809F0C0C05BC0A6
:10517000803B09F486C038F4803A09F466C0883A66
:1051800009F47FC0B4C0803C09F4A7C0883C09F48E
:10519000A4C0883B09F48AC0AAC08091840710C0CB
:1051A0009091860780918507981770F5E0918607A2
:1051B00081E08E0F80938607F0E0ED59F84F8081F3
:1051C0008093BB0085EC86C0809387078EC0E091FA
:1051D000860781E08E0F809386078091BB00F0E008
:1051E000ED59F84F808390918607809185076EC0B6
:1051F000E091860781E08E0F809386078091BB0047
:10520000F0E0ED59F84F80838091880781116DC0DF
:1052100081E08093830784EA61C083E080938907FB
:1052200010924207CFCF80914207803208F051C0E0
:10523000E091420781E08E0F809342078091BB008E
:10524000F0E0EE5DF84F8083BDCF85EC8093BC002D
:105250001092890780914207803230F4E091420732
:10526000F0E0EE5DF84F10826091420770E0E0914F
:105270002007F091210782E297E0199510924207EA
:1052800036C084E08093890710921F0710921E0792
:10529000E0911C07F0911D07199580911E0781115F
:1052A00005C081E080931E071092FC06E0911F0765
:1052B00081E08E0F80931F07F0E0E450F94F80816A
:1052C0008093BB0090911F0780911E07981708F4E8
:1052D00079CF85E88093BC000AC085EC8093BC0040
:1052E0001092890704C0109287070E944528FF91F9
:1052F000EF91BF91AF919F918F917F916F915F914E
:105300004F913F912F910F900BBE0F900FBE0F90BA
:105310001F9018950F931F93CF93DF931091F6066C
:10532000D091D406113208F05EC0062F81E00E94B1
:105330000C28C0918907CC2339F080E00E940C280A
:105340008823B9F3C5E054C082E0809389070093B5
:1053500088078FEF80938707109286071093850741
:10536000A5EDB6E023E637E0F9018E2F821B811709
:1053700018F48D918193F9CF10928407909184074E
:105380008D2F880F892B809384078091830781302C
:1053900061F410928307809184078093BB00809111
:1053A000BC0083FDF8CF85EC01C085EE8093BC0086
:1053B00081E00E940C2880918907823031F480E0DE
:1053C0000E940C288111BECFF6CF809187078F3FB6
:1053D00079F080918707803241F080918707803390
:1053E00031F0C4E005C0C1E003C0C2E001C0C3E0C9
:1053F0001092F5061092F6061092F7068C2FDF91A8
:10540000CF911F910F91089581E08093F7066093EB
:10541000D4061092F5061092F60608951F93CF93C6
:10542000DF931F92CDB7DEB7162FFC01638189EBA6
:1054300091E129830E94042A612F89EB91E10E9466
:1054400065262981622F89EB91E10E9465260F90E4
:10545000DF91CF911F910C947B2C20E030E0A901CB
:1054600060E80C940E2A862F413208F040E2642F47
:105470000E94802C1092D3068093D20608951F9329
:10548000CF93DF93EC01162F6B8189EB91E10E94A2
:10549000042A612F89EB91E10E9465260E947B2CF2
:1054A0006B81772767FD709542E050E089EB91E1D1
:1054B0000E94332A89EB91E10E940C26EC0189EBD2
:1054C00091E10E940C2620E030E0382FC9018C2B9E
:1054D0009D2BDF91CF911F910895EF92FF920F9333
:1054E0001F93CF93DF93EC017B018A0123E030E02F
:1054F00040E050E060E80E940E2A8E819F81009774
:1055000039F0019751F468E770E080E090E009C05D
:105510006FE070E080E090E004C062EC71E080E059
:1055200090E00E94F6126CEACE010E943F2AF70139
:10553000918380836EEACE010E943F2AF801918315
:105540008083CE01DF91CF911F910F91FF90EF905B
:105550000C942D2A1092D3061092D2061092F506C2
:105560001092F6060C94EB26CF93DF93EC0189EBB7
:1055700091E10E94AA2A6B8189EB91E10E94042AA1
:105580006AE089EB91E10E9465260E947B2C6B8189
:10559000772767FD709541E050E089EB91E10E942B
:1055A000332A89EB91E10E940C268A7089F081E010
:1055B0008C836E817F81CE010E94A72B68857985BF
:1055C000CE010E94EC2ACE010E942D2A81E001C06A
:1055D00080E0DF91CF9108950F931F93CF93DF93D6
:1055E000EC018B018C81811103C0CE010E94B42A91
:1055F00023E030E040E050E060E8CE010E940E2A57
:105600002E813F81202B312B442737FD4095542F8D
:1056100061E8CE010E940E2A19870887CE01DF912A
:10562000CF911F910F910C942D2A8F929F92AF9240
:10563000BF92CF92DF92EF92FF920F931F93CF937F
:10564000DF9300D01F921F92CDB7DEB78C016B01A4
:105650007A01FC018481811103C0C8010E94B42A2F
:10566000F8018581811106C0A701B601C8010E9419
:105670006D2A5BC020E0F80186819781009799F040
:10568000019741F458EC852E912C60EAA62E6CE827
:10569000B62E10C034EF832E9924939448E1A42EA3
:1056A00046EFB42E07C084E6882E912C92EFA92EE7
:1056B00092E1B92EAE014F5F5F4FBE016D5F7F4F2C
:1056C000C8012D830E946D2A8B819C812D8121111F
:1056D00024C08815990540F4F80120853185232BD5
:1056E000E1F460E170E00BC0A816B906B0F4F8016F
:1056F000208531852031310581F460E070E0C801FA
:105700000E94EC2AAE014F5F5F4FBE016D5F7F4F7D
:10571000C8010E946D2A21E0AECFF60191838083FB
:1057200089819A81F701918380830F900F900F9068
:105730000F900F90DF91CF911F910F91FF90EF90FD
:10574000DF90CF90BF90AF909F908F9008950F9370
:105750001F93CF93DF93EC018B018C81811103C0E8
:10576000CE010E94B42A23E030E040E050E060E83F
:10577000CE010E940E2A28853985202B312B442703
:1057800037FD4095542F61E8CE010E940E2A1F83F9
:105790000E83CE01DF91CF911F910F910C942D2A92
:1057A000FC01848DDF01A80FB11DA35EBE4F2C91BB
:1057B000848D90E001968F739927848FA689B7898D
:1057C0002C93A089B1898C9180648C93938D848D66
:1057D000981306C00288F389E02D80818F7D808335
:1057E0000895EF92FF920F931F93CF93DF93EC01F5
:1057F00081E0888F9B8D8C8D981305C0E889F9898D
:10580000808185FD24C0F62E0B8D10E00F5F1F4FA9
:105810000F731127E02E8C8DE8120CC00FB607FC19
:10582000FACFE889F989808185FFF5CFCE010E9402
:10583000D02BF1CF8B8DFE01E80FF11DE35EFE4F03
:10584000F0820B8FEA89FB898081806207C0EE8934
:10585000FF896083E889F98980818064808381E0A1
:1058600090E0DF91CF911F910F91FF90EF900895FD
:10587000CF93DF93EC01888D8823C9F0EA89FB89F7
:10588000808185FD05C0A889B9898C9186FD0FC0EE
:105890000FB607FCF5CF808185FFF2CFA889B989C3
:1058A0008C9185FFEDCFCE010E94D02BE7CFDF9109
:1058B000CF9108950F931F93CF93DF938C01C0E096
:1058C000D0E0F801EC0FFD1F6491662371F0E091C8
:1058D0008A07F0918B070190F081E02D8AE897E02C
:1058E0001995892B11F02196ECCFCE01DF91CF9144
:1058F0001F910F91089561E089EB91E10C948A2941
:10590000CF93DF93D82FC62F81E00E940C2880917F
:105910008907882329F080E00E940C288823B9F3A6
:1059200081E080938907809388079FEF9093870792
:10593000109286079C0F909385078093840780912F
:105940008407DD0FD82BD0938407809183078130A3
:1059500061F410928307809184078093BB0080914B
:10596000BC0083FDF8CF85EC01C085EE8093BC00C0
:1059700081E00E940C2880918907813029F480E021
:105980000E940C288823B9F3809186078C1710F4A5
:10599000C0918607A3E6B7E023E437E0F9018E2F34
:1059A000821B8C1718F48D918193F9CF8C2FDF9186
:1059B000CF910895009769F0FC0101900020E9F76C
:1059C0003197AF01481B590BBC018AE897E00C9452
:1059D0004E1080E090E0089589ED92E00C94DA2C6E
:1059E000CF93DF930E945A2CEC010E94EC2C8C0F79
:1059F0009D1FDF91CF9108951F93CF93DF93182FB1
:105A0000C5ECD1E1688D898D9A8D0E94042A898D1B
:105A10009A8DDC01ED91FC910190F081E02D612FD8
:105A2000199561E0898D9A8DDF91CF911F910C942A
:105A30008A291F93CF93DF93182FD62F809123119C
:105A40008130A9F46091921189EB91E10E94042ABE
:105A5000612F89EB91E10E9465266D2F89EB91E121
:105A60000E946526DF91CF911F910C947B2C8111B0
:105A700014C0C091921160E08C2F0E947411812F8C
:105A80008F730E94841D8D2F0E94841D61E08C2FD6
:105A9000DF91CF911F910C947411DF91CF911F91E1
:105AA0000895CF92DF92EF92FF921F93CF93DF93EF
:105AB000182F6A01C22F6F73D62FD0688091921170
:105AC000181304C0223010F0D62FD06C60E0812F64
:105AD0000E9474118D2F0E94841D7601D0E0C701B1
