:100000000C94F1020C9422030C9422030C9422030E
:100010000C9422030C9422030C9422030C942203CC
:100020000C9422030C9422030C9422030C942203BC
:100030000C9422030C9422030C9422030C942203AC
:100040000C9422030C9422030C9422030C9422039C
:100050000C9422030C9422030C9422030C94E315B9
:100060000C9422030C9450140C9426140C94220328
:100070000C9422030C9422030C9422030C9422036C
:100080000C9422030C9422030C9422030C9422035C
:100090000C94AF140C9485140C9422030C94570503
:1000A0000C9422030C9422030C9422030C9422033C
:1000B0000C9422030C9422030C9422030C9422032C
:1000C0000C9422030C9422030C9422030C9422031C
:1000D0000C9422030C9422030C9422030C9422030C
:1000E0000C942203101F221F251F2C1F331F611F7A
:1000F000681F751F821F8E1F8E1F8E1F8E1F8E1FE3
:100100008E1F8E1F8E1F8E1F8E1F8E1F8E1F8E1F87
:100110008E1F8E1F8E1F8E1F8E1F8E1F8E1F8E1F77
:100120008E1F8E1F101F1D1F221F251F2C1F331FE8
:100130003A1F471F541F13151615051509150D15E0
:100140004D151A151E15241528152C1532153615A2
:100150003A154D154015441548150C944D150C9441
:1001600044150C944C030C94821F0C94221F0C9485
:10017000331F0C9428030C94BD130C9486100C941C
:1001800029030C94611F0C94251F0C94A5080C9452
:10019000471F0C9438030C941E150C9424150C94D2
:1001A00005150C941D1F0C940D140C9409150C943A
:1001B0009D2B0C940E140C948E1F0C94101F0C94F9
:1001C00027030C942C1F0C94BA030C94751F0C94E9
:1001D00024140C9413150C9448150C941A150C94B3
:1001E00036150C9491030C940D150C9424030C9467
:1001F000541F0C9440150C94BA090C943A150C94A5
:1002000016150C94DB030C94681F0C9432150C9497
:1002100028150C945E080C943A1F0C94CD030C9492
:1002200054030C9484280C942D160C942C15204403
:1002300075726174696F6E3A200020537175617236
:10024000653A2000467265713A20000000210024C2
:100250000027002A002D00300033000101000004B7
:100260000107010A01446F75626C652D636865635F
:100270006B20776972696E672E004661696C6564F0
:1002800020746F20636F6D6D756E69636174652096
:1002900077697468204C534D394453312E004F6FA9
:1002A0006F70732C206E6F2054534C3235363120D2
:1002B0006465746563746564202E2E2E2043686522
:1002C000636B20796F757220776972696E67206F32
:1002D0007220493243204144445221004572726FDA
:1002E0007220636F6E6E656374696E6720746F2031
:1002F0004D53353630372E2E2E00486172647761AB
:1003000072652053657269616C20627566666572FC
:100310002073697A653A2000496E697469616C6975
:100320007A696E67204750532E2E2E0052657374E3
:10033000617274696E672048414220436F6E747227
:100340006F6C6C657200207365636F6E647300552B
:10035000702074696D653A20004352432045525223
:100360004F523A20006D002C20006465672C20005D
:100370006D70732C20002C2000206D002C20002C90
:1003800020002C20002C200046200044533138420D
:1003900032303A2000462000506120002F002F000C
:1003A000473A002F002F00413A002F002F004D58F0
:1003B0003A002F002F002F0046204C3A00585800DA
:1003C0004620002520005858002500562000566F72
:1003D0006C746167653A2000005EBCE2613FDD83BA
:1003E000C29C7E20A3FD1F419DC3217FFCA2401E15
:1003F0005F01E3BD3E6082DC237D9FC1421CFEA005
:10040000E1BF5D0380DE3C62BEE0025CDF81633DF4
:100410007C22C09E1D43A1FF4618FAA427799BC5E4
:1004200084DA3866E5BB5907DB856739BAE40658D4
:100430001947A5FB7826C49A653BD987045AB8E6C4
:10044000A7F91B45C6987A24F8A6441A99C7257BB4
:100450003A6486D85B05E7B98CD2306EEDB3510FA4
:100460004E10F2AC2F7193CD114FADF3702ECC9294
:10047000D38D6F31B2EC0E50AFF1134DCE90722C84
:100480006D33D18F0C52B0EE326C8ED0530DEFB174
:10049000F0AE4C1291CF2D73CA947628ABF5174964
:1004A0000856B4EA6937D58B5709EBB536688AD454
:1004B00095CB2977F4AA4816E9B7550B88D6346A44
:1004C0002B7597C94A14F6A8742AC896154BA9F734
:1004D000B6E80A54D7896B350000200023002600B7
:1004E00029002C002F00320000010000030106014A
:1004F00009010505050507050808080802020202AA
:100500000A0A0808040404040101010101010101AF
:100510000303030303030303040707070C0C0C0C7A
:100520000C0C0C0C02020202060606060606060663
:100530000B0B0B0B0B0B0B0B0102102020080810F0
:100540002040102040800201020108040201010243
:10055000040810204080804020100804020180041C
:100560000201804020100804020108040201010277
:100570000408102040800102040810204080000080
:100580002200250028002B002E003100340002013B
:100590000000050108010B0100000A0B02090C0D07
:1005A0000E08070304010000000000000000000026
:1005B000000000000000000000000000000000003B
:1005C00000000000121110000000000000000000F8
:1005D000000000000000000000000000000084286F
:1005E0009D2B11241FBECFEFD1E2DEBFCDBF00E0B7
:1005F0000CBF12E0A0E0B2E0E4E0F0E600E00BBFE8
:1006000002C007900D92A038B107D9F718E0A0E812
:10061000B2E001C01D92A732B107E1F712E0C0EFCE
:10062000D2E000E006C021970109802FFE010E9460
:10063000C52FCF3ED10780E00807A9F70E946316B7
:100640000C94C52B0C940000FC016583089508955B
:100650000895E091F4028091F502E81730F4F0E09B
:10066000EA50FD4F808190E008958FEF9FEF08954D
:100670009091F4028091F502981750F4E92FF0E080
:10068000EA50FD4F208130E09F5F9093F40202C05A
:100690002FEF3FEFC90108958091F50290E020917E
:1006A000F402821B91090895CF92DF92EF92FF929C
:1006B0000F931F93CF93DF937C018A018091A8024F
:1006C000882389F0EB016B01C40ED51ECC15DD0526
:1006D000F1F06991D701ED91FC910190F081E02D4D
:1006E000C7011995F3CF842F413288F490913C03D0
:1006F000943069F44093CF02FB012DEA32E0D90136
:100700009A2F921B981718F491919D93F9CFC801D5
:10071000DF91CF911F910F91FF90EF90DF90CF90DD
:1007200008952091A8022223C9F02091A702203227
:1007300040F021E030E0FC013383228380E090E050
:1007400008958091A602E82FF0E0EA57FD4F6083FC
:100750008F5F8093A6028093A70209C080913C031B
:10076000843029F481E08093CF026093AD0281E070
:1007700090E00895FC01918D828D981759F0828D3B
:10078000DF01A80FB11D5D968C91928D9F5F928FB6
:1007900090E008958FEF9FEF0895FC01918D828D79
:1007A000981731F0828DE80FF11D858D90E0089546
:1007B0008FEF9FEF0895FC01918D828D981B892FFB
:1007C00090E00895CF93DF93CCEBD0E018821092A5
:1007D0003C0381E080933B031092360361E084E1A7
:1007E0000E94E41461E085E10E94E414E9EBF0E08A
:1007F00080818E7F808380818D7F808388E4809359
:10080000B80085E48883DF91CF910895DC01E0E0B2
:10081000615038F08D91E827F0E0E852FC4FE49108
:10082000F7CF8E2F0895FC0190810180F281E02D99
:10083000F8948181892B81832281892F80952823B7
:100840002283A7E0B0E01197F1F721818223818311
:10085000A3E2B0E01197F1F780817894EFECF0E03B
:100860003197F1F7982381E009F480E00895FC01C5
:1008700090810180F281E02D892F809560FF12C068
:10088000F8942281822382838181892B8183A3E250
:10089000B0E01197F1F78281982B9283789487EDDD
:1008A00090E011C0F8942281822382838181892B78
:1008B0008183AFEFB0E01197F1F78281982B92839B
:1008C00078948FE090E00197F1F70895CF92DF924E
:1008D000EF92FF920F931F93CF93DF931F92CDB7A9
:1008E000DEB76C01E62E08E010E0FF24F39461E02F
:1008F0008F2D8E2109F460E0C60149830E943704E0
:10090000FF0C0150110949810115110581F74111B1
:1009100015C0F894D6011196ED91FC911297918132
:100920008C918095892381831196ED91FC9112978A
:1009300092818C9180958923828378940F90DF91A6
:10094000CF911F910F91FF90EF90DF90CF9008957E
:10095000CF92DF92EF92FF920F931F93CF93DF938B
:100960001F92CDB7DEB78C01F62E40E065E57983A6
:100970000E946604CF2C7981D72E760188E0E80E9C
:10098000F11CF60161916F0140E0C8010E9466040C
:10099000CE14DF04B1F70F90DF91CF911F910F912B
:1009A000FF90EF90DF90CF900895FC01908101803F
:1009B000F281E02DF8948181292F20958223818373
:1009C00078948DE743E050E0815021F1DA011197EE
:1009D000F1F730813923C1F3F89482818223828335
:1009E0008181892B81837894ABE7B7E01197F1F788
:1009F000F894818128232183A3E1B1E01197F1F7D5
:100A00008081982381E009F080E07894E3E6F6E0C5
:100A10003197F1F70895882349F01092A9021092B6
:100A2000AA021092AB021092AC0213C08091A902EC
:100A30009091AA02A091AB02B091AC020196A11DC7
:100A4000B11D8093A9029093AA02A093AB02B09328
:100A5000AC028091A9029091AA02A091AB02B09140
:100A6000AC02803A9648A140B10560F01092A9020C
:100A70001092AA021092AB021092AC020E94E20302
:100A800081E0089580E0089585ED8093BC0081E0C9
:100A90000E940B058091BC0084FF06C080E00E948C
:100AA0000B058823B9F302C010923C0308951F92EE
:100AB0000F920FB60F9211240BB60F922F933F9304
:100AC0004F935F936F937F938F939F93AF93BF9356
:100AD000EF93FF938091B900887F803609F49CC022
:100AE00068F5883209F45BC090F4803109F454C091
:100AF00038F4882309F4F6C0883009F44DC0F6C0F4
:100B0000883109F44CC0803209F45DC0EFC08034F4
:100B100009F468C048F4803309F455C0883309F0FB
:100B2000E5C080933A03D8C0803509F44FC08835BA
:100B300009F45DC0883409F0D9C0D6C0883909F4F9
:100B4000C7C0A8F4883709F467C038F4883609F4B8
:100B500063C0803709F460C0C9C0883809F4B8C0E0
:100B6000803909F45FC0803809F0C0C05BC0803BA9
:100B700009F486C038F4803A09F466C0883A09F46A
:100B80007FC0B4C0803C09F4A7C0883C09F4A4C06D
:100B9000883B09F48AC0AAC08091370310C09091A5
:100BA000390380913803981770F5E091390381E09B
:100BB0008E0F80933903F0E0EA5EFC4F80818093D2
:100BC000BB0085EC86C080933A038EC0E091390368
:100BD00081E08E0F809339038091BB00F0E0EA5EE4
:100BE000FC4F808390913903809138036EC0E0916F
:100BF000390381E08E0F809339038091BB00F0E0D0
:100C0000EA5EFC4F808380913B0381116DC081E0DF
:100C10008093360384EA61C083E080933C031092A2
:100C2000F302CFCF8091F302803208F051C0E091FF
:100C3000F30281E08E0F8093F3028091BB00F0E01D
:100C4000ED52FD4F8083BDCF85EC8093BC001092A8
:100C50003C038091F302803230F4E091F302F0E043
:100C6000ED52FD4F10826091F30270E0E091D102ED
:100C7000F091D20283ED92E019951092F30236C002
:100C800084E080933C031092D0021092CF02E09156
:100C9000CD02F091CE0219958091CF02811105C04D
:100CA00081E08093CF021092AD02E091D00281E00A
:100CB0008E0F8093D002F0E0E355FD4F808180934A
:100CC000BB009091D0028091CF02981708F479CFA1
:100CD00085E88093BC000AC085EC8093BC0010922C
:100CE0003C0304C010923A030E944405FF91EF9127
:100CF000BF91AF919F918F917F916F915F914F9134
:100D00003F912F910F900BBE0F900FBE0F901F9031
:100D100018950F931F93CF93DF931091A702D09153
:100D20008502113208F05EC0062F81E00E940B059B
:100D3000C0913C03CC2339F080E00E940B0588234E
:100D4000B9F3C5E054C082E080933C0300933B03B9
:100D50008FEF80933A031092390310933803A6E87B
:100D6000B2E026E133E0F9018E2F821B811718F4DF
:100D70008D918193F9CF10923703909137038D2F86
:100D8000880F892B8093370380913603813061F47B
:100D900010923603809137038093BB008091BC0092
:100DA00083FDF8CF85EC01C085EE8093BC0081E027
:100DB0000E940B0580913C03823031F480E00E9458
:100DC0000B058111BECFF6CF80913A038F3F79F0AA
:100DD00080913A03803241F080913A03803331F0C0
:100DE000C4E005C0C1E003C0C2E001C0C3E010928E
:100DF000A6021092A7021092A8028C2FDF91CF9129
:100E00001F910F91089581E08093A802609385025D
:100E10001092A6021092A70208951F93CF93DF931A
:100E20001F92CDB7DEB7162FFC0163818AE397E0EE
:100E300029830E940307612F8AE397E00E949103B0
:100E40002981622F8AE397E00E9491030F90DF913E
:100E5000CF911F910C941F1120E030E0A90160E8B0
:100E60000C940D07862F413208F040E2642F0E9457
:100E700024111092F4028093F50208951F93CF93EA
:100E8000DF93EC01162F6B818AE397E00E94030742
:100E9000612F8AE397E00E9491030E941F116B81EA
:100EA000772767FD709542E050E08AE397E00E9463
:100EB00032078AE397E00E943803EC018AE397E067
:100EC0000E94380320E030E0382FC9018C2B9D2B85
:100ED000DF91CF911F910895EF92FF920F931F938F
:100EE000CF93DF93EC017B018A0123E030E040E007
:100EF00050E060E80E940D078E819F81009739F0D5
:100F0000019751F468E770E080E090E009C06FE07D
:100F100070E080E090E004C062EC71E080E090E07E
:100F20000E949D156CEACE010E943E07F701918355
:100F300080836EEACE010E943E07F8019183808390
:100F4000CE01DF91CF911F910F91FF90EF900C9404
:100F50002C071092F4021092F5021092A602109241
:100F6000A7020C94E203CF93DF93EC018AE397E0AE
:100F70000E94A9076B818AE397E00E9403076AE059
:100F80008AE397E00E9491030E941F116B817727EB
:100F900067FD709541E050E08AE397E00E943207D8
:100FA0008AE397E00E9438038A7089F081E08C839D
:100FB0006E817F81CE010E94140868857985CE01FB
:100FC0000E94EB07CE010E942C0781E001C080E067
:100FD000DF91CF9108950F931F93CF93DF93EC018F
:100FE0008B018C81811103C0CE010E94B30723E0E5
:100FF00030E040E050E060E8CE010E940D072E8115
:101000003F81202B312B442737FD4095542F61E839
:10101000CE010E940D0719870887CE01DF91CF917D
:101020001F910F910C942C070F931F93CF93DF9375
:10103000EC018B018C81811103C0CE010E94B307AA
:1010400023E030E040E050E060E8CE010E940D0770
:1010500028853985202B312B442737FD4095542F87
:1010600061E8CE010E940D071F830E83CE01DF9140
:10107000CF911F910F910C942C07FC01848DDF01FF
:10108000A80FB11DA35EBE4F2C91848D90E00196F8
:101090008F739927848FA689B7892C93A089B189EA
:1010A0008C9180648C93938D848D981306C00288F4
:1010B000F389E02D80818F7D80830895EF92FF92E8
:1010C0000F931F93CF93DF93EC0181E0888F9B8D6B
:1010D0008C8D981305C0E889F989808185FD24C02D
:1010E000F62E0B8D10E00F5F1F4F0F731127E02EB0
:1010F0008C8DE8120CC00FB607FCFACFE889F9898D
:10110000808185FFF5CFCE010E943D08F1CF8B8D08
:10111000FE01E80FF11DE35EFE4FF0820B8FEA89BE
:10112000FB898081806207C0EE89FF896083E8893E
:10113000F98980818064808381E090E0DF91CF91A4
:101140001F910F91FF90EF900895CF93DF93EC01E3
:10115000888D8823C9F0EA89FB89808185FD05C0D7
:10116000A889B9898C9186FD0FC00FB607FCF5CF11
:10117000808185FFF2CFA889B9898C9185FFEDCF59
:10118000CE010E943D08E7CFDF91CF910895FC0189
:10119000AC014E5F5F4F8FEF91E32191822728E0F2
:1011A00030E087FF03C0880F892701C0880F2150D6
:1011B0003109B9F7E417F50781F708958EBD0000EE
:1011C0000DB407FEFDCF8EB50895613208F060E2E0
:1011D0000E9424111092F4028093F50208950F9357
:1011E0001F93CF93DF93D82FC62F8A01682F8AE3EE
:1011F00097E00E9403076C2F60688AE397E00E94E3
:10120000910361E08AE397E00E94890666E08D2FF2
:101210000E94E508C8EED3E08091F50290E02091AD
:10122000F402821B910906975CF4219738F061E083
:1012300070E080E090E00E949D15EECF8FEF15C02A
:10124000CD2BE1F3E8010A5F1F4F8091F5029091E9
:10125000F402C017D10741F08917D9F38AE397E068
:101260000E9438038993F1CF86E0DF91CF911F91DF
:101270000F910895CF93DF93C82FD62F682F8AE35D
:1012800097E00E9403076D2F8AE397E00E94910385
:1012900061E08AE397E00E94890661E08C2F0E945A
:1012A000E508C8EED3E08091F50290E02091F402C9
:1012B000821B9109181619065CF0219738F061E03D
:1012C00070E080E090E00E949D15EDCF8FEF06C0AA
:1012D000CD2BE1F38AE397E00E943803DF91CF91B1
:1012E0000895CF92DF92EF92FF921F93CF93DF93F7
:1012F000182F6A01C22F6F73D62FD0688091130701
:10130000181304C0223010F0D62FD06C60E0812F6B
:101310000E94E4148D2F0E94DE087601D0E0C70100
:101320008C199D098C179D073CF480E00E94DE0813
:10133000F70181937F01F3CF61E0812FDF91CF919E
:101340001F91FF90EF90DF90CF900C94E414AB01CD
:101350009091A406913029F4682F809114070C9481
:10136000EF08911106C026E0682F809114070C94B5
:10137000710908950F931F93CF93DF938C01EB01B5
:1013800088E2FB0111928A95E9F74BE050E066E6AE
:1013900072E0CE010E941F2D1B8681E090E0A0E04C
:1013A000B0E08C879D87AE87BF87F80182859385E3
:1013B000A485B585888B998BAA8BBB8B85E090E043
:1013C000A0E0B0E08C8B9D8BAE8BBF8B1CA21DA2CE
:1013D0001EA21FA280E090EDA4E8B6E4888F998F4A
:1013E000AA8FBB8F1C8E1D8E1E8E1F8E80E090E0FC
:1013F000A0E8BFE388A399A3AAA3BBA3DF91CF91E1
:101400001F910F910895CF93DF93EB010E94681312
:10141000882339F068E0CE010E94060491E0288517
:10142000821390E0892FDF91CF910895CF93DF93BE
:10143000CDB7DEB729970FB6F894DEBF0FBECDBF8C
:10144000FC0120812031D1F0BE016F5F7F4F0E94EF
:10145000030A882389F08D818F3361F020F48F3166
:1014600059F489E00CC08F3519F08F3739F004C07A
:101470008BE005C08AE003C080E001C08CE02996C3
:101480000FB6F894DEBF0FBECDBFDF91CF910895A8
:10149000AF92BF92CF92DF92EF92FF920F931F9382
:1014A000CF93DF931F92CDB7DEB75C01D62EE72E28
:1014B000FC018585811105C0C5010E94D5048111FB
:1014C00006C0F50113861586148680E065C040E0ED
:1014D00060EFC5010E94660401E0F12CC12C11E00F
:1014E000C5010E941304682FC50169830E9413047B
:1014F0006981613019F48130B9F433C04F2D50E067
:1015000068131BC0F5018385181730F4E40FF51F2D
:101510008381802349F402C0181731F060E019304C
:1015200058F4F501148708C0F501EF0DF11D838112
:10153000802B838361E009C0C12EF501E40FF51F04
:101540009381802F809589238383C5010E9437046E
:101550001F5F000F11F4F39401E0F7E0FF1508F0AE
:10156000BFCF113408F4ADCFF501C386C11002C05E
:1015700081E08587F5018381882309F4A2CFD50115
:101580001396ED2DFE2D9501255F3F4F8D91819393
:10159000A217B307D9F781E00F90DF91CF911F9188
:1015A0000F91FF90EF90DF90CF90BF90AF90089594
:1015B0000F931F93CF93DF938C01D62FE091660793
:1015C000F0916707138615861486DF011B96339604
:1015D0001E92AE17BF07E1F7C0E0B8018091660721
:1015E000909167070E94480A882381F0CD130AC0B2
:1015F00067E0C8010E940604F8019781891302C0C0
:1016000081E004C0CF5FDC1740F780E0DF91CF912D
:101610001F910F9108951F93CF93DF93182FC6E466
:10162000D7E0688D898D9A8D0E940307898D9A8DE8
:10163000DC01ED91FC910190F081E02D612F199575
:1016400061E0898D9A8DDF91CF911F910C9489066D
:10165000CF92DF92EF92FF92CF93C82F80E48C0F4E
:101660000E940B0B8C2F8F708430C1F048F48823BC
:1016700081F08230F1F463E070E080E090E017C028
:10168000863089F08830A9F46AE070E080E090E06C
:101690000EC08BE09EE00197F1F70BC064E070E0B4
:1016A00080E090E004C066E070E080E090E00E949E
:1016B0009D1580E00E940B0B60915E07772767FD08
:1016C000709543E050E080915F07909160070E9421
:1016D000320780915F0790916007DC01ED91FC91EA
:1016E0000680F781E02D19956C01EE24D7FCE0947B
:1016F000FE2C7601DD24CC2480915F079091600759
:10170000DC01ED91FC910680F781E02D1995AA2767
:1017100097FDA095BA2FBA2FA92F982F8827C80E0A
:10172000D91EEA1EFB1E80915F0790916007DC01C5
:10173000ED91FC910680F781E02D1995AA2797FD80
:10174000A095BA2FC80ED91EEA1EFB1E61E080913B
:101750005F07909160070E948906C701B601CF918B
:10176000FF90EF90DF90CF900895CF93DF93EC013F
:10177000609131078AE397E00E9403076D2F8AE3A7
:1017800097E00E9491036C2F8AE397E00E949103F7
:10179000DF91CF910C941F11DF92EF92FF920F9384
:1017A0001F93CF93DF9300D000D0CDB7DEB780E09A
:1017B00094E20E94B50B64EF71E080E090E00E943B
:1017C0009D1566E0809131070E94E5088091F50241
:1017D00090E02091F402821B9109069709F05FC006
:1017E000CE0101967C018C0186E0D82EDE0C8AE3C6
:1017F00097E00E943803F80181938F01DE12F7CF42
:10180000D9800A811B81C7010E94C708181347C0ED
:10181000FC801D81EE80CE0104960E94C708E8126C
:101820003EC0602F70E07D2980E090E00E94302E65
:1018300020E030E04FE253E40E94E62E20E03FEF4C
:101840004FE757E40E94972D20E030E044E352E454
:101850000E942E2D609336077093370780933807C8
:1018600090933907612F70E07F2980E090E00E941B
:10187000302E20E030E048EC52E40E94E62E20E0DA
:101880003FEF4FE757E40E94972D60933207709324
:101890003307809334079093350781E001C080E0DF
:1018A00026960FB6F894DEBF0FBECDBFDF91CF9165
:1018B0001F910F91FF90EF90DF900895CF93DF93EA
:1018C00000D000D0CDB7DEB7BE016F5F7F4F88E19B
:1018D0000E94A7098A8190E0982F88272981AC016E
:1018E000422B5093CA064093C9062C8130E0322F18
:1018F00022278B81282B3093CC062093CB068E8118
:1019000090E0982F88276D81862B9093CE06809348
:10191000CD06609121076623F1F060910107709177
:101920000207461B570B5093CA064093C9064091C5
:10193000030750910407241B350B3093CC062093EA
:10194000CB062091050730910607821B930B9093DD
:10195000CE068093CD0626960FB6F894DEBF0FBE56
:10196000CDBFDF91CF910895CF93DF9300D000D00A
:10197000CDB7DEB78091A406813049F4AE014F5F48
:101980005F4F68E2809113070E94EF080BC081113E
:1019900009C026E0AE014F5F5F4F68E280911307F8
:1019A0000E9471098A8190E0982F88272981822BD3
:1019B0009093D6068093D5068C8190E0982F882747
:1019C0002B81822B9093D8068093D7068E8190E04E
:1019D000982F88272D81822B9093DA068093D90641
:1019E00026960FB6F894DEBF0FBECDBFDF91CF9124
:1019F0000895CF93DF9300D000D0CDB7DEB7BE01FE
:101A00006F5F7F4F88E20E94A7098A8190E0982F3C
:101A100088272981AC01422B5093D0064093CF06F2
:101A20002C8130E0322F22278B81282B3093D20655
:101A30002093D1068E8190E0982F88276D81862B88
:101A40009093D4068093D306609121076623F1F02A
:101A50006091070770910807461B570B5093D006FB
:101A60004093CF064091090750910A07241B350B7C
:101A70003093D2062093D10620910B0730910C07AA
:101A8000821B930B9093D4068093D30626960FB6B1
:101A9000F894DEBF0FBECDBFDF91CF9108951F93A5
:101AA000CF93DF93182FD62F8091A4068130A9F40D
:101AB000609113078AE397E00E940307612F8AE38E
:101AC00097E00E9491036D2F8AE397E00E949103B3
:101AD000DF91CF911F910C941F11811114C0C091FF
:101AE000130760E08C2F0E94E414812F8F730E94F3
:101AF000DE088D2F0E94DE0861E08C2FDF91CF91F0
:101B00001F910C94E414DF91CF911F910895CF930E
:101B1000DF931F92CDB7DEB7682F8091A406813086
:101B200029F4809113070E943A090CC081110AC060
:101B300021E0AE014F5F5F4F809113070E94710952
:101B4000898100C00F90DF91CF9108951F93CF93AB
:101B5000DF93182FD62F8091A4068130A9F46091CD
:101B600014078AE397E00E940307612F8AE397E056
:101B70000E9491036D2F8AE397E00E949103DF9109
:101B8000CF911F910C941F11811114C0C0911407A3
:101B900060E08C2F0E94E414812F8F730E94DE0876
:101BA0008D2F0E94DE0861E08C2FDF91CF911F9175
:101BB0000C94E414DF91CF911F910895CF93DF939C
:101BC0001F92CDB7DEB7682F8091A406813029F42B
:101BD000809114070E943A090CC081110AC021E0CB
:101BE000AE014F5F5F4F809114070E947109898198
:101BF00000C00F90DF91CF910895CF93DF93EC0158
:101C00008A859B85AC85BD858E839F83A887B98790
:101C10000E94D7156A837B838C839D8381E08983AF
:101C20008883DF91CF9108952F923F924F925F92D8
:101C30006F927F928F929F92AF92BF92CF92DF92DC
:101C4000EF92FF920F931F93CF93DF93D82FC92F5B
:101C50008B010E949E2B24E630E040E050E00E9481
:101C6000842F49015A019B01AC0160E876E988E9BB
:101C700090E00E94602F6B017C01F80191828082CC
:101C8000ED2FFC2F2191822F992787FD9095C097EA
:101C90000A97C0F32E3239F51F0180E8882E86E9B5
:101CA000982E88E9A82EB12C9AE0492E512C612C4F
:101CB000712CF101C1911F01DD27C7FDD095E0977F
:101CC000CA30D10580F4C501B401A30192010E947C
:101CD000842F49015A01DE010E94582FC60ED71EDB
:101CE000E81EF91EE6CFA5E0B0E0A70196010E942C
:101CF0004D2F6F5F7F4F8F4F9F4F23E030E040E0CD
:101D000050E00E94842FF80122833383448355835B
:101D10001682DF91CF911F910F91FF90EF90DF908E
:101D2000CF90BF90AF909F908F907F906F905F907B
:101D30004F903F902F900895FF920F931F93CF9352
:101D4000DF93EC01FF24F39488818D3211F0F12CA4
:101D500001C02196CE010E949E2B9B01AC01A4E6FE
:101D6000B0E00E944D2FFE014991242F332727FD1B
:101D70003095205331092A303105A8F34E3241F510
:101D80002181332727FD3095205331092A30310531
:101D9000F8F44AE0429F8001439F100D112422274E
:101DA00017FD2095322F600F711F821F931F028134
:101DB000112707FD1095005311090A30110540F451
:101DC000222717FD2095322F600F711F821F931F4E
:101DD000FF2039F090958095709561957F4F8F4FDA
:101DE0009F4FDF91CF911F910F91FF9008958F9298
:101DF0009F92AF92BF92CF92DF92EF92FF92FA0141
:101E0000DC0116962D913C9117972115310549F06B
:101E10002130310519F448E850E905C048EE5DEF7E
:101E200002C044E253E14617570708F4D0C04E17EA
:101E30005F0708F4CCC02115310581F02130310550
:101E400039F437EE832E3FE0932EA12CB12C0CC039
:101E5000812C24E0922EA12CB12C06C0B7E18B2E50
:101E6000B5E79B2EA12CB12CDC0118968D919C918D
:101E70001997892B39F4A4E0880C991CAA1CBB1C67
:101E8000AA95D1F7DB01A50194010E944D2F6B01AA
:101E90007C016AE0F694E794D794C7946A95D1F7E9
:101EA000DF010E944D2F4B015C017AE0B694A794AC
:101EB000979487947A95D1F7C114D104E104F10481
:101EC00071F0C501B4014AE0660F771F881F991FA2
:101ED0004A95D1F7A70196010E94842F03C020E004
:101EE00030E0A901DA01C9010196A11DB11DB69525
:101EF000A7959795879581349105A105B10530F196
:101F000081389105A105B10530F1813C9105A1050C
:101F1000B10530F1813021E09207A105B10528F12A
:101F2000893331E09307A105B10520F18B3941E0F8
:101F30009407A105B10518F18B399240A105B105AF
:101F400018F1E0E0F0E0A0E0B0E022C0EEEBF1E05C
:101F5000A2EFB1E01DC0E1EDF2E0A4E1B2E018C0F3
:101F6000EBE7F3E0AFE3B2E013C0EEEFF3E0A0E79E
:101F7000B2E00EC0ECEFF1E0AFE6B1E009C0EBEF8C
:101F8000F0E0A2EDB0E004C0E2E1F0E0A8E1B0E0F2
:101F9000A70196010E944D2F6B017C01A0E2DA0E91
:101FA000E11CF11CDF01A50194010E944D2FA70146
:101FB0009601261B370B480B590BCA01B9012EE0BD
:101FC00096958795779567952A95D1F704C060E037
:101FD00070E081E090E0FF90EF90DF90CF90BF90B5
:101FE000AF909F908F9008958F929F92AF92BF92E3
:101FF000CF92DF92EF92FF920F931F93CF93DF93D5
:1020000000D01F921F92CDB7DEB78C016B017A0111
:10201000FC018481811103C0C8010E94B307F8014B
:102020008581811106C0A701B601C8010E946C0715
:102030005BC020E0F80186819781009799F00197B5
:1020400041F458EC852E912C60EAA62E6CE8B62E51
:1020500010C034EF832E9924939448E1A42E46EFC8
:10206000B42E07C084E6882E912C92EFA92E92E11F
:10207000B92EAE014F5F5F4FBE016D5F7F4FC8014C
:102080002D830E946C078B819C812D81211124C09E
:102090008815990540F4F80120853185232BE1F45A
:1020A00060E170E00BC0A816B906B0F4F801208515
:1020B00031852031310581F460E070E0C8010E9473
:1020C000EB07AE014F5F5F4FBE016D5F7F4FC801F1
:1020D0000E946C0721E0AECFF60191838083898155
:1020E0009A81F701918380830F900F900F900F904A
:1020F0000F90DF91CF911F910F91FF90EF90DF90A4
:10210000CF90BF90AF909F908F900895EF92FF92E5
:102110000F931F93CF93DF9300D01F92CDB7DEB7FD
:102120007C018B0184E2FB0111928A95E9F784E23C
:1021300090E0A0E0B0E0FB0180839183A283B383B1
:10214000F70182859385A485B585FB0184839583FA
:10215000A683B78385E090E0A0E0B0E08087918718
:10216000A287B3870E94D715F801608B718B828B91
:10217000938BAE014F5F5F4FBE016D5F7F4FC70115
:102180000E94F40F49815A816B817C81C7010E94B2
:10219000F70E0E94302EF801648B758B868B978B1F
:1021A00011E020E030E040E857E40E94932D8111D7
:1021B00001C010E0812F0F900F900F900F90DF91D2
:1021C000CF911F910F91FF90EF900895009769F0C4
:1021D000FC0101900020E9F73197AF01481B590B32
:1021E000BC018DE393E00C94BD1380E090E0089572
:1021F000FC01A089B18982E08C93A485B5851C92ED
:10220000A685B7858FEC8C93108EA489B58986E05E
:102210008C93A289B3898C9180618C93A289B389B4
:102220008C9188608C93A289B3898C9180688C93FF
:102230000288F389E02D80818F7D8083089561E09D
:102240008AE397E00C948906CF93DF93D82FC62FAB
:1022500081E00E940B0580913C03882329F080E0F7
:102260000E940B058823B9F381E080933C0380939F
:102270003B039FEF90933A03109239039C0F909386
:1022800038038093370380913703DD0FD82BD09329
:10229000370380913603813061F4109236038091C8
:1022A00037038093BB008091BC0083FDF8CF85ECA1
:1022B00001C085EE8093BC0081E00E940B058091F7
:1022C0003C03813029F480E00E940B058823B9F398
:1022D000809139038C1710F4C0913903A6E1B3E063
:1022E00026EF32E0F9018E2F821B8C1718F48D91A6
:1022F0008193F9CF8C2FDF91CF9108958EE692E0F4
:102300000C94E6108F929F92AF92BF920F931F93FF
:10231000CF93DF93CDB7DEB7A1970FB6F894DEBFAA
:102320000FBECDBF19A2423008F44AE08E010F5D06
:102330001F4F842E912CA12CB12CA50194010E9439
:10234000842FE62FB901CA0101501109EA3014F4B3
:10235000E05D01C0E95CD801EC93232B242B252BF5
:1023600061F7C8010E94E610A1960FB6F894DEBF8F
:102370000FBECDBFDF91CF911F910F91BF90AF9056
:102380009F908F9008950F931F93CF93DF938C01AD
:10239000C0E0D0E0F801EC0FFD1F6491662371F0FE
:1023A000E0913D03F0913E030190F081E02D8DE33B
:1023B00093E01995892B11F02196ECCFCE01DF9196
:1023C000CF911F910F910895CF93DF930E94C31176
:1023D000EC010E947E118C0F9D1FDF91CF9108951B
:1023E000CF92DF92EF92FF92CF93DF936B017C014C
:1023F000E0913D03F0913E030190F081E02D6DE20C
:102400008DE393E01995EC0166277727CB016C19D2
:102410007D098E099F094AE00E9482118C0F9D1F41
:10242000DF91CF91FF90EF90DF90CF9008954F9282
:102430005F926F927F928F929F92AF92BF92CF9254
:10244000DF92EF92FF926B017C01B42E9B01AC01F5
:102450000E94492F882319F081E792E027C02601C6
:102460003701E89477F82FEF3FEF4FE75FE7C301BD
:10247000B2010E94492F81110DC02FEF3FEF4FE7AE
:102480005FE7C301B2010E94932D18161CF485E783
:1024900092E00CC02FEF3FEF4FE75FE4C701B601BA
:1024A0000E94E22E181684F489E792E0FF90EF90E4
:1024B000DF90CF90BF90AF909F908F907F906F9064
:1024C0005F904F900C94E6102FEF3FEF4FE75FECDB
:1024D000C701B6010E94932D87FDE6CF20E030E0D2
:1024E000A901C701B6010E94932D87FF11C0E09199
:1024F0003D03F0913E030190F081E02D6DE28DE30C
:1025000093E019954C01F7FAF094F7F8F09402C0B3
:10251000812C912CA12C60E070E080E09FE3AB1453
:1025200041F020E030E040E251E40E94972DA39476
:10253000F6CF9B01AC01C701B6010E942F2D2B01E4
:102540003C010E94042E6B017C010E94302E9B01F5
:10255000AC01C301B2010E942E2D2B013C014AE0C7
:10256000C701B6010E9482117C01E80CF91CBB2056
:1025700031F08DE792E00E94E610E80EF91EDB2CA8
:10258000DD2069F120E030E040E251E4C301B20116
:102590000E94E62E2B013C010E94FF2D4B01AA2434
:1025A00097FCA094BA2CB7FE05C0C501B4010E94E7
:1025B000F01105C04AE0C501B4010E948211E80E85
:1025C000F91EC501B4010E94322E9B01AC01C3016A
:1025D000B2010E942E2D2B013C01DA94D1CFC7010C
:1025E000FF90EF90DF90CF90BF90AF909F908F9033
:1025F0007F906F905F904F9008950C941712CF9337
:10260000DF9342E00E941712EC010E947E118C0FB2
:102610009D1FDF91CF91089580917B00877F8093EC
:102620007B0080E480937C0080917A0080648093BA
:102630007A0080917A0086FDFCCF8091780020910D
:10264000790090E0922B08950F931F93CF93DF931F
:10265000C82F66E38AE397E00E9403076C2F8AE3A2
:1026600097E00E94910360E08AE397E00E94890668
:1026700042E050E066E370E08AE397E00E943207B0
:10268000C9EED3E02091F50230E08091F402281BDE
:102690003109223031054CF4219739F061E070E0C6
:1026A00080E090E00E949D15EDCF8AE397E00E94C4
:1026B0003803C82F8AE397E00E9438031C2F00E0FC
:1026C0009801282BC901DF91CF911F910F91089597
:1026D000AF92BF92CF92DF92EF92FF920F931F9330
:1026E000CF93DF93EC018B01809166079091670790
:1026F0000E94D5048823A1F1BE01809166079091C4
:1027000067070E94A80440E06EEB809166079091F5
:1027100067070E946604E801680189E0C80ED11CC1
:10272000A0906607B090670788E0E82EF12C01E0E2
:1027300010E0C5010E9413048111102B000F81E0ED
:10274000E81AF108B1F71993CC15DD0549F7809126
:102750006607909167070E94D50491E0813009F0E7
:1027600090E0892FDF91CF911F910F91FF90EF9013
:10277000DF90CF90BF90AF900895CF92DF92EF920D
:10278000FF920F931F93CF93DF936C017A018B011C
:10279000C0E0D0E0CE15DF0589F0D8016D918D0144
:1027A000D601ED91FC910190F081E02DC6011995C3
:1027B000892B11F47E0102C02196ECCFC701DF9175
:1027C000CF911F910F91FF90EF90DF90CF900895E0
:1027D0003FB7F89480911F0890912008A09121089C
:1027E000B091220826B5A89B05C02F3F19F001968D
:1027F000A11DB11D3FBFBA2FA92F982F8827820F87
:10280000911DA11DB11DBC01CD0142E0660F771FD6
:10281000881F991F4A95D1F7089508950E940A2D9F
:102820008DE393E00E94DB0321E0892B09F420E093
:10283000822F08958AE994E00E94DB0321E0892B2E
:1028400009F420E0822F08950C94722C1F920F92AD
:102850000FB60F9211240BB60F922F933F934F9305
:102860005F936F937F938F939F93AF93BF93EF93F8
:10287000FF938DE393E00E943D08FF91EF91BF919C
:10288000AF919F918F917F916F915F914F913F9108
:102890002F910F900BBE0F900FBE0F901F901895A9
:1028A0001F920F920FB60F9211240BB60F922F9317
:1028B0008F939F93EF93FF93E0914D03F0914E031D
:1028C0008081E0915303F091540382FD11C0908107
:1028D000809156038F5F20915703821751F0E0914A
:1028E0005603F0E0E35CFC4F958F8093560301C0E4
:1028F0008081FF91EF919F918F912F910F900BBE4F
:102900000F900FBE0F901F9018951F920F920FB649
:102910000F9211240BB60F922F933F934F935F9317
:102920006F937F938F939F93AF93BF93EF93FF9397
:102930008AE994E00E943D08FF91EF91BF91AF9129
:102940009F918F917F916F915F914F913F912F91C7
:102950000F900BBE0F900FBE0F901F9018951F92F7
:102960000F920FB60F9211240BB60F922F938F93E5
:102970009F93EF93FF93E091AA04F091AB048081C1
:10298000E091B004F091B10482FD11C0908180917A
:10299000B3048F5F2091B404821751F0E091B30427
:1029A000F0E0E656FB4F958F8093B30401C0808121
:1029B000FF91EF919F918F912F910F900BBE0F90F0
:1029C0000FBE0F901F901895362F90E0FC01E8562F
:1029D000FA4F4491FC01E85CFA4F2491FC01EE505F
:1029E000FB4F9491992309F46BC0442309F455C01B
:1029F00050E0FA013197E231F10508F04EC0882726
:102A0000E556FF4F8F4F0C94C52F809180008F7734
:102A100007C0809180008F7D03C080918000877FF8
:102A2000809380003AC084B58F7702C084B58F7DD3
:102A300084BD33C08091B0008F7703C08091B00017
:102A40008F7D8093B00029C0809190008F7707C060
:102A5000809190008F7D03C080919000877F80934C
:102A600090001BC08091A0008F7707C08091A000CC
:102A70008F7D03C08091A000877F8093A0000DC050
:102A8000809120018F7707C0809120018F7D03C046
:102A900080912001877F80932001E92FF0E0EE0FE5
:102AA000FF1FE258FA4FA591B4918FB7F894EC91BB
:102AB000311103C020952E2301C02E2B2C938FBFE4
:102AC0000895CF93DF9390E0FC01E85CFA4F2491E6
:102AD000FC01EE50FB4F8491882361F190E0880F58
:102AE000991FFC01E55BFD4FC591D491FC01E258B3
:102AF000FA4FA591B491611109C09FB7F8948881EC
:102B0000209582238883EC912E230BC0623061F4E0
:102B10009FB7F8943881822F809583238883EC9126
:102B20002E2B2C939FBF06C08FB7F894E8812E2BD5
:102B300028838FBFDF91CF9108958F929F92AF929C
:102B4000BF92CF92DF92EF92FF926B017C010E94C5
:102B5000E8134B015C01C114D104E104F104F1F06C
:102B60000E94E813DC01CB0188199909AA09BB0965
:102B7000883E9340A105B10570F321E0C21AD10847
:102B8000E108F10888EE880E83E0981EA11CB11CB4
:102B9000C114D104E104F10419F7DDCFFF90EF90E7
:102BA000DF90CF90BF90AF909F908F9008952FB7F8
:102BB000F89460911B0870911C0880911D089091F9
:102BC0001E082FBF08951F920F920FB60F92112467
:102BD0002F933F938F939F93AF93BF9380911B0845
:102BE00090911C08A0911D08B0911E0830911A0800
:102BF00023E0230F2D3720F40196A11DB11D05C040
:102C000026E8230F0296A11DB11D20931A08809378
:102C10001B0890931C08A0931D08B0931E08809178
:102C20001F0890912008A0912108B09122080196D8
:102C3000A11DB11D80931F0890932008A093210827
:102C4000B0932208BF91AF919F918F913F912F91A7
:102C50000F900FBE0F901F901895089580E090E0A0
:102C6000892B21F00E941014811121C080E090E096
:102C7000892B21F00E941A1481111CC080E090E081
:102C8000892B41F080E090E0892B21F00E94000028
:102C9000811113C080E090E0892BA1F080E090E0EA
:102CA000892B81F00E94000081110AC008950E94C2
:102CB0000000DCCF0E940000E1CF0E940000EACFBC
:102CC0000C9400000895CF93DF93CDB7DEB7E5975E
:102CD0000FB6F894DEBF0FBECDBF789484B5826086
:102CE00084BD84B5816084BD85B5826085BD85B5B0
:102CF000816085BD80916E00816080936E0010922E
:102D000081008091810082608093810080918100A8
:102D10008160809381008091800081608093800039
:102D20008091B10084608093B1008091B000816097
:102D30008093B00080919100826080939100809197
:102D400091008160809391008091900081608093D8
:102D500090008091A10082608093A1008091A100E9
:102D600081608093A1008091A00081608093A00089
:102D700080912101826080932101809121018160F5
:102D800080932101809120018160809320018091B6
:102D90007A00846080937A0080917A0082608093C8
:102DA0007A0080917A00816080937A0080917A0025
:102DB000806880937A001092C10061E084E00E94F4
:102DC000611561E089E00E94611584E492E00E944F
:102DD000C3114AE068EE73E080E090E00E94821147
:102DE0008AE392E00E94C3114AE064EF71E080E060
:102DF00090E00E9482118EE292E00E94C3114AE0AC
:102E000068EE73E080E090E00E9482110E947E11E3
:102E100000E010E05BECE52E57E0F52E61E084E089
:102E20000E94E414C7010197F1F760E084E00E947A
:102E3000E414C7010197F1F70F5F1F4F083E23E02D
:102E4000120761F78DE393E00E94F8108CE293E0A3
:102E50000E94E41188E193E00E94E4118AE994E081
:102E60000E94F81080EA8D8781EA8E871F8689E0AC
:102E7000888BE6E0F2E0DE01119601900D928A95D2
:102E8000E1F7FE0131969E01265F3F4F80E0919170
:102E90008927E217F307D9F79DE09A8F9AE09B8F75
:102EA000898F5091B5044091B604252F30E0842FCE
:102EB00090E0821B930B541710F0CF9601C001973E
:102EC0004097DCF044E050E0BE01635F7F4F8AE949
:102ED00094E00E94BD1349E050E0BE016F5F7F4F58
:102EE0008AE994E00E94BD1343E050E0BE01675EB2
:102EF0007F4F8AE994E00E94BD138AEF92E00E941E
:102F0000C3114AE060E071E080E090E00E9482112D
:102F10000E947E11E0916607F0916707138615867F
:102F20001486DF011B9633961E92AE17BF07E1F79A
:102F30001092650711E0BE016F5F7F4F80916607B9
:102F4000909167070E94480A882309F44BC067E004
:102F5000CE0101960E94060498858913ECCF8091DA
:102F60006107811128C080916607909167070E94D0
:102F7000D504BE016F5F7F4F809166079091670710
:102F80000E94A80440E064EB809166079091670777
:102F90000E94660480916607909167070E9413045F
:102FA000082F80916607909167070E94D50400233F
:102FB00011F40C94E22200916207CE0101960E9466
:102FC000160A801718F48091620704C0CE0101969A
:102FD0000E94160A80936207809165078F5F809335
:102FE0006507A9CF80916507882309F4E3C081E0D4
:102FF000809380028AE080936207E12CF12C0FE538
:103000002FE7D22E3FE1C32E4FE3B42E8091650708
:1030100090E0E816F9060CF09BC06E2DCE010D96DF
:103020000E94D80A10916207193020F01D3018F064
:103030001CE001C019E0CE010D960E94160A81170E
:1030400009F482C0BE016F5F7F4FCE010D960E94D2
:10305000030A882309F478C08D85803109F474C08F
:103060001B3041F01C3021F01A3031F4BD8205C014
:10307000DD8203C00D8301C0CD82809166079091EF
:1030800067070E94D504BE01635F7F4F809166078A
:10309000909167070E94A80440E06EE48091660763
:1030A000909167070E94660440E06B8180916607FB
:1030B000909167070E94660440E06C8180916607EA
:1030C000909167070E9466048D85803141F040E051
:1030D0006D8180916607909167070E9466048091D8
:1030E0006607909167070E94D504BE01635F7F4F1A
:1030F00080916607909167070E94A804409161073C
:1031000068E480916607909167070E94660464E115
:1031100070E080E090E00E949D1580916107882317
:1031200031F06AE070E080E090E00E949D158091AF
:103130006607909167070E94D5048091620718176F
:1031400008F4182F109362073FEFE31AF30A5ECFDB
:103150001092630780916607909167070E94D504DB
:1031600040E06CEC80916607909167070E946604CE
:103170004091610764E480916607909167070E941F
:103180006604809163078823A9F0E0916207E95003
:10319000E33040F4F0E0EE0FFF1FE85EFD4F60818A
:1031A000718102C06EEE72E0882777FD8095982FBE
:1031B0000E949D1580915F07909160070E94A9076A
:1031C00060915E0780915F07909160070E940307FE
:1031D00061E080915F07909160070E9489068823D3
:1031E00029F08CED92E00E94E41151C08EE10E9422
:1031F0000B0B63E070E080E090E00E949D1506E418
:1032000017E020EAD8011D921C92822F2DAB0E945C
:103210000B0B60915E07772767FD709542E050E0E9
:1032200080915F07909160070E94320780915F074D
:1032300090916007DC01ED91FC910680F781E02D13
:103240001995F8011082818380915F079091600742
:10325000DC01ED91FC910680F781E02D1995F801D4
:1032600040815181840F951FD8018D939D938D01CD
:1032700061E080915F07909160070E9489062DA907
:103280002E5F203B09F0BECF81E0809382028AE36B
:1032900097E00E94A90784E48093310782EA90E3D3
:1032A0000E94B50B6AE070E080E090E00E949D15FE
:1032B00011E01093830283E297E00E94B30781112B
:1032C00005C08EE992E00E94C3110AC010938102EA
:1032D0001093280760E070E083E297E00E941408F2
:1032E00081E08093A4068EE18093A6069BE69093EE
:1032F000A50690931407809313078091A8069091D8
:10330000A906853F910569F0843FB1E09B0749F02C
:10331000803D974031F085EF90E09093A90680932F
:10332000A8068091B806823049F0843039F08830A0
:1033300029F0803119F082E08093B8068091C106AF
:10334000982F977F943039F0883029F0803119F028
:1033500084E08093C1066091A8067091A90680E080
:1033600090E00E94302E20E030E040E058E30E94E0
:10337000E62E6093150770931607809317079093B6
:1033800018078091C106883089F038F48430F9F448
:1033900087EF9CECA2E1B9E312C08C3061F0803180
:1033A000B1F484E29BE0A8E1BAE309C084E29BE0C7
:1033B000A8E9B9E304C08FE991E7A1EEB9E38093EE
:1033C0001D0790931E07A0931F07B09320076091DD
:1033D000B80670E080E090E00E94302E20E030E0FF
:1033E00040E058E30E94E62E6093190770931A0795
:1033F00080931B0790931C078AE397E00E94A9071C
:103400008FE00E94870D182F8FE00E94DE0D212F84
:1034100030E0382B2D33384611F00C94E6228091A1
:10342000A706882331F08091AA068295880F807EB6
:1034300001C080E02091A8063091A906243F41E018
:10344000340729F0203D374019F4886101C08860B5
:103450006091AB066370682B80E10E94A60D60E06E
:1034600081E10E94A60D8091AC06811102C060E04E
:1034700001C060E88091AD06882329F08091AE06F6
:103480008F708064682B82E10E94A60D8091B50642
:10349000882311F060E201C060E08091B4068111E0
:1034A00060618091B306811168608091B6068111D8
:1034B00062608EE10E94A60D8091AF06882311F014
:1034C00060E201C060E08091B0068111606180918E
:1034D000B1068111686083E10E94A60D8091BC064F
:1034E000882311F060E201C060E08091BB06811189
:1034F00060618091BA06811168608FE10E94A60D1B
:103500008091B706882331F06091B9066295660F05
:10351000607E01C060E08091B806883031F0803173
:1035200031F0843029F4606103C0686101C06860D3
:103530008091BD0687FD03C064608370682B80E2C4
:103540000E94A60D8091BE06882349F06091BF06B7
:10355000637080E2689FB0011124606801C060E080
:1035600081E20E94A60D8091C306882311F060E8D5
:1035700001C060E02091C206277094E0299F90016D
:1035800011249091C4069370A0E29A9FC001112467
:10359000822B682B80E20E944F0DE091C106E8501B
:1035A000E93028F4F0E0E15FFD4F608101C060E0A8
:1035B00081E20E944F0D8091C606882311F080E2BF
:1035C00001C080E06091C7066370682B82E20E94B0
:1035D0004F0D6091C5066370660F660F83E20E940F
:1035E0004F0D60E084E20E944F0D1D861E861F86EF
:1035F000188A198A1A8A1B8A1C8A1D8A1E8A1F8A9F
:10360000188E19821A821B821C821D821E821F82C2
:10361000188619861A861B861C8683E20E94DE0D98
:10362000682F626083E20E94A60D6FE38EE20E9423
:10363000A60D8FE20E94DE0D8F73C82EBEE1B81773
:10364000C0F700E010E0E82EF12C0E151F050CF07D
:1036500092C00E945E0C8091C9069091CA06AA276A
:1036600097FDA095BA2F49815A816B817C81840F87
:10367000951FA61FB71F89839A83AB83BC83809154
:10368000CB069091CC06AA2797FDA095BA2F4D8125
:103690005E816F817885840F951FA61FB71F8D836C
:1036A0009E83AF83B8878091CD069091CE06AA27DE
:1036B00097FDA095BA2F49855A856B857C85840F27
:1036C000951FA61FB71F89879A87AB87BC870E9463
:1036D000F90C8091CF069091D006AA2797FDA0956E
:1036E000BA2F4D855E856F857889840F951FA61F3B
:1036F000B71F8D879E87AF87B88B8091D106909139
:10370000D206AA2797FDA095BA2F49895A896B89B5
:103710007C89840F951FA61FB71F898B9A8BAB8B53
:10372000BC8B2091190730911A0740911B075091CB
:103730001C0760E070E080E89FE30E94972D0E94E4
:10374000FF2D2091D3063091D406C901861B970B1B
:10375000AA2797FDA095BA2F4D895E896F89788D2C
:10376000840F951FA61FB71F8D8B9E8BAF8BB88FB5
:103770000F5F1F4F6ACF409015075090160760905B
:103780001707709018072091190730911A07409178
:103790001B0750911C072BA33CA34DA35EA3AE01B6
:1037A0004F5F5F4F1A0184EAA82E86E0B82ECE0143
:1037B0000D9698A38F8F00E010E0D12CE12CF12C16
:1037C000D1016D917D918D919D911D01A701960172
:1037D0000E94A62FF501E35AFF4F31832083F801A1
:1037E000EC55F94F4F01B901882777FD8095982F47
:1037F0000E94322E9B01AC01C301B2010E94E62E51
:10380000D401D9966D937D938D939C93DC97EF8D26
:10381000F8A16191719181919191F8A3EF8FA70126
:1038200096010E94A62FF501ED59FF4F31832083A9
:10383000F5E48F0E911CB901882777FD8095982FAC
:103840000E94322E9B01AC016BA17CA18DA19EA197
:103850000E94E62ED4016D937D938D939C931397D4
:103860000C5F1F4FB2E0AB0EB11C0C30110509F01C
:10387000A7CF83E20E94DE0D682F6D7F83E20E9456
:10388000A60D60E08EE20E94A60D81E080932107E4
:103890001A8E198E1C8E1B8E1E8E1D8E1E861D86E8
:1038A000188A1F861A8A198A00E8E02EF12C8E01E8
:1038B0000D5E1F4F87E20E94870D83FFFBCF0E94A2
:1038C000B40C8091D5069091D6069A838983809115
:1038D000D7069091D8069C838B838091D9069091CE
:1038E000DA069E838D839E012F5F3F4FFE013D963A
:1038F0006F01AE01475E5F4F5A01BA01D9018D9148
:103900009D919D01408151814817590714F491837D
:103910008083DB014D915C9111978417950714F416
:103920008D939C9332966E5F7F4FE017F10731F7CE
:10393000B1E0EB1AF10809F0BDCF15EF812E16E0CA
:10394000912EF601019111916F01D5018D919D91FB
:103950005D01080F191F17FF02C00F5F1F4F15955C
:103960000795F701E35FF84F11830083B8018827BB
:1039700077FD8095982F0E94322E9B01AC016091BB
:103980001D0770911E0780911F07909120070E94CC
:10399000E62EF40161937193819391934F01602F0F
:1039A00085E08E0D0E944F0D612F86E08E0D0E94E6
:1039B0004F0DF2E0EF0EF11C26E0E216F10409F6DD
:1039C0008AE397E00E94A90766E38AE397E00E94F2
:1039D000030766E08AE397E00E94910360E48AE3CC
:1039E00097E00E94910360E08AE397E00E949103D0
:1039F0000E941F110E940C1333243394A2E02A2E3C
:103A000011E01A8E198EF7E0AF2E8AE994E00E9439
:103A1000DB03892B09F4EDC28AE994E00E94BA0322
:103A2000082F8091940690919506A0919606B091EA
:103A300097060196A11DB11D80939406909395065B
:103A4000A0939606B0939706043209F4B0C2E091B1
:103A50008E06053234F40A3071F00D3009F0B4C22C
:103A60000AC00A3241F00C3209F0AEC280917B06E6
:103A7000802780937B06EF3008F08BC2F0E0E3589C
:103A8000F94F108280917C06882309F473C120913C
:103A90007D063FEB320F822F992787FD90953630B8
:103AA00010F4C79707C02156263018F4875591099E
:103AB00001C0C097282F2295207F30917E064FEBC2
:103AC000430F832F992787FD9095463010F4C797B1
:103AD00007C03156363018F48755910901C0C09798
:103AE000820F90917B06891331C18091A00690913D
:103AF000A106A091A206B091A3060196A11DB11D39
:103B00008093A0069093A106A093A206B093A3066B
:103B100080918F06882399F080919806909199065C
:103B2000A0919A06B0919B060196A11DB11D8093AC
:103B3000980690939906A0939A06B0939B06F090EE
:103B40008C06FF2009F46BC031E0F312D0C08091E5
:103B50001F0690912006A0912106B0912206809325
:103B60001B0690931C06A0931D06B0931E060E9490
:103B7000D7156093230670932406809325069093AF
:103B80002606F0921A06F092190680912D06909161
:103B90002E06A0912F06B0913006809329069093AF
:103BA0002A06A0932B06B0932C060E94D71560938B
:103BB0003106709332068093330690933406F09268
:103BC0002806F092270680918F06882309F48FC07B
:103BD000E7E0F6E0A9EFB5E08A2D01900D928A9515
:103BE000E1F7EEE0F6E0A0E0B6E08A2D01900D925C
:103BF0008A95E1F70E94D715609315067093160613
:103C00008093170690931806F092F805F092F70546
:103C100085E396E00E94FD0D83E496E066C0809106
:103C20002D0690912E06A0912F06B091300680931C
:103C3000290690932A06A0932B06B0932C060E9487
:103C4000D7156093310670933206809333069093B4
:103C50003406109328061093270680918F06882338
:103C600021F1E7E0F6E0A9EFB5E08A2D01900D9291
:103C70008A95E1F7EEE0F6E0A0E0B6E08A2D01904B
:103C80000D928A95E1F70E94D715609315067093FF
:103C9000160680931706909318061093F805109354
:103CA000F70581E596E00E94FD0D809169069091EF
:103CB0006A06A0916B06B0916C068093650690939E
:103CC0006606A0936706B09368060E94D7156093B6
:103CD0006106709362068093630690936406109366
:103CE000600610935F068DE696E00E94FD0DE09061
:103CF0009206F0909306E114F10409F44AC1E091B0
:103D00009206F091930666A177A1F70186A197A18B
:103D10000E940F2D892B09F03CC1B701C7014096C5
:103D20000E94182D0E94D715D70190966D937D9310
:103D30008D939C93939795963C92959794963C92ED
:103D400094979A96ED90FC909B97D5CF80919C0686
:103D500090919D06A0919E06B0919F060196A11D8F
:103D6000B11D80939C0690939D06A0939E06B093F0
:103D70009F060FC180918D06811138C06AE572E0FF
:103D80008DE796E00E940F2D892B19F410938C0675
:103D90000DC060E672E08DE796E00E940F2D892B42
:103DA00019F410928C0602C020928C068091900625
:103DB000909191069093930680939206E0909206DC
:103DC000F0909306E114F10409F4E3C0F701C6A0F2
:103DD000D7A06DE776E0C6010E940F2D97FFCDC0FA
:103DE000D7019A968D919C919B97E4CFE0918C0698
:103DF000E23009F493C090917D06992309F48EC0B6
:103E000020E2E29FF0011124E82B3197E932F1051D
:103E100008F084C08827EE58FF4F8F4F0C94C52FB1
:103E20008DE796E00E949C0E60932D0670932E06FF
:103E300080932F069093300671C081E0913409F091
:103E400043C043C067E076E009C081E0933509F0E4
:103E500080E080930D0662C06EE076E08DE796E02C
:103E60000E94140E5BC081E0973509F080E08093DA
:103E7000140654C08DE796E00E949C0E60933F06A6
:103E800070934006809341069093420647C08DE7A9
:103E900096E00E949C0E60934D0670934E068093B0
:103EA0004F06909350063AC08DE796E00E949E2BF5
:103EB00060931F067093200680932106909322063C
:103EC0002DC081E091330CF480E080938F0626C0F2
:103ED0008DE796E00E949E2B6093690670936A06B8
:103EE00080936B0690936C0619C08DE796E00E9454
:103EF0009C0E609377067093780680937906909372
:103F00007A060CC08DE796E00E949C0E60935B06DB
:103F100070935C0680935D0690935E06E090920637
:103F2000F0909306E114F104A1F1E0919206F09172
:103F3000930666A177A1F70186A197A10E940F2D94
:103F4000892B39F5D70198962D913C9199978091BD
:103F50008D0690E082179307E4F02817390739F4AB
:103F600040E150E06DE776E0C7010E941F2DD701C8
:103F70009A96ED90FC909B97D5CF6DE776E0C601C1
:103F80000E940F2D1816190624F410929306109211
:103F9000920680918D068F5F80938D0610928E061B
:103FA00081E00A3209F080E080937C062ECD1092E9
:103FB0008E0610928D0610927B0620928C0610922F
:103FC0007C0610928F0621CDEE3040F481E08E0FFA
:103FD00080938E06F0E0E358F94F008380917C06D1
:103FE000811113CD80917B06B02EB826B0927B064E
:103FF0000CCD8091F705882309F45FC01092F80575
:104000006091F9057091FA0580E090E00E94302EF1
:104010006B017C016091FB057091FC058091FD05B1
:104020009091FE050E94302E28E23BE64EE65EE4CB
:104030000E94972D9B01AC01C701B6010E942F2D54
:104040002091FF05DC01CB012111B0588093F607C8
:104050009093F707A093F807B093F90760910006D3
:104060007091010680E090E00E94302E6B017C018F
:1040700060910206709103068091040690910506F6
:104080000E94302E28E23BE64EE65EE40E94972D29
:104090009B01AC01C701B6010E942F2D209106069D
:1040A000DC01CB012111B0588093FA079093FB07F4
:1040B000A093FC07B093FD0710C01092F607109272
:1040C000F7071092F8071092F9071092FA0710926A
:1040D000FB071092FC071092FD0780915106882380
:1040E000D9F010925206609157067091580680914F
:1040F000590690915A060E94322E20E030E048EC9A
:1041000052E40E94972D6093FE077093FF078093FF
:1041100000089093010808C01092FE071092FF0754
:10412000109200081092010880911906882399F0D6
:1041300010921A0680911B0690911C06A0911D06F4
:10414000B0911E068093120890931308A093140850
:10415000B093150808C0109212081092130810921C
:1041600014081092150880912706882399F0109260
:1041700028068091290690912A06A0912B06B091DD
:104180002C068093160890931708A0931808B093F4
:10419000190808C0109216081092170810921808F3
:1041A0001092190880915F06882399F0109260069A
:1041B0008091650690916606A0916706B0916806A9
:1041C00080930E0890930F08A0931008B0931108E5
:1041D00008C010920E0810920F081092100810924A
:1041E000110880916D06882399F010926E068091D7
:1041F000730690917406A0917506B091760680932F
:104200000A0890930B08A0930C08B0930D0808C0FF
:1042100010920A0810920B0810920C0810920D08C8
:10422000809143068823D9F0109244066091490694
:1042300070914A0680914B0690914C060E94322E56
:1042400020E030E048EC52E40E94972D609306088D
:104250007093070880930808909309080CC020E029
:1042600030E040E85FEB2093060830930708409366
:1042700008085093090880913506882309F11092A7
:10428000360660913B0670913C0680913D06909108
:104290003E060E94322E21EA32EB43E05FE30E94A9
:1042A000E62E20E030E048EC52E40E94972D609327
:1042B00002087093030880930408909305080CC0CB
:1042C00080E090E0A0E8BFEB8093020890930308A1
:1042D000A0930408B09305080E94F90CC090190738
:1042E000D0901A07E0901B07F0901C076091CF0652
:1042F0007091D006882777FD8095982F0E94322EE6
:104300009B01AC01C701B6010E94E62E6093AB078A
:104310007093AC078093AD079093AE076091D10680
:104320007091D206882777FD8095982F0E94322EB3
:104330009B01AC01C701B6010E94E62E6093AF0756
:104340007093B0078093B1079093B2076091D30642
:104350007091D406882777FD8095982F0E94322E81
:104360009B01AC01C701B6010E94E62E6093B30722
:104370007093B4078093B5079093B6070E94B40C6E
:10438000C0901D07D0901E07E0901F07F0902007F7
:104390006091D5067091D606882777FD8095982F75
:1043A0000E94322E9B01AC01C701B6010E94E62E8D
:1043B0006093C3077093C4078093C5079093C607A3
:1043C0006091D7067091D806882777FD8095982F41
:1043D0000E94322E9B01AC01C701B6010E94E62E5D
:1043E0006093C7077093C8078093C9079093CA0763
:1043F0006091D9067091DA06882777FD8095982F0D
:104400000E94322E9B01AC01C701B6010E94E62E2C
:104410006093CB077093CC078093CD079093CE0722
:104420000E945E0CC0901507D0901607E090170709
:10443000F09018076091C9067091CA06882777FD29
:104440008095982F0E94322E9B01AC01C701B601C6
:104450000E94E62E6093DB077093DC078093DD07F4
:104460009093DE076091CB067091CC06882777FD8C
:104470008095982F0E94322E9B01AC01C701B60196
:104480000E94E62E6093DF077093E0078093E107B8
:104490009093E2076091CD067091CE06882777FD54
:1044A0008095982F0E94322E9B01AC01C701B60166
:1044B0000E94E62E6093E3077093E4078093E5077C
:1044C0009093E60780918302882391F10E94CC0BA0
:1044D000882349F08091360790913707A0913807DB
:1044E000B091390704C080E090E0A0ECBFE7809372
:1044F000870790938807A0938907B0938A070E9443
:10450000CC0B882349F08091320790913307A0911A
:104510003407B091350704C080E090E0A0ECBFE71D
:1045200080938B0790938C07A0938D07B0938E0791
:1045300080918202882309F4D2C56091540770915A
:104540005507DB01AF70BB27CB0188279093550738
:104550008093540780E090E040E050E09A01359568
:104560002795220F331FF901EA5BF84F40FF04C083
:1045700020818227E8E00BC021812FA318A6EFA19C
:10458000F8A58E279F27F6CFC901E15049F09C017D
:10459000220F331F97FFF8CFC901F0E39F27F5CF14
:1045A0004F5F5F4F40315105C9F6709355076093D7
:1045B0005407892F992782958F70A817B90709F09A
:1045C0008EC50EC0109361070C94DB178AE792E04A
:1045D0000E94E41185E692E00E94E4110C94F51A21
:1045E0008091560790915707A0915807B0915907AD
:1045F00080939B0790939C07A0939D07B0939E0781
:1046000080915A0790915B07A0915C07B0915D077C
:1046100080939F079093A007A093A107B093A20750
:1046200088E10E94280B6B017C0188E00E94280B26
:104630004B015C01C701B6010E94302E6B017C0169
:10464000609150077091510780E090E00E94302EF9
:1046500020E030E040E853E40E94E62E9B01AC01EC
:10466000C701B6010E942E2D6B017C0160914A07A3
:1046700070914B0780E090E00E94302E20E030E007
:1046800040E058E40E94E62E2B013C0160914E0769
:1046900070914F0780E090E00E94302E9B01AC01AA
:1046A000C701B6010E94E62E20E030E040E85CE35E
:1046B0000E94E62E9B01AC01C301B2010E942F2D86
:1046C00069A77AA78BA79CA76091480770914907B3
:1046D00080E090E00E94302E20E030E040E857E497
:1046E0000E94E62E2B013C0160914C0770914D0712
:1046F00080E090E00E94302E9B01AC01C701B60122
:104700000E94E62E20E030E040E05CE30E94E62ECE
:104710009B01AC01C301B2010E942F2D6DA77EA7A2
:104720008FA798AB609152077091530780E090E09B
:104730000E94302E9B01AC01C701B6010E94E62EFB
:1047400020E030E040E054E30E94E62E20E030E03C
:104750004AEF54E40E942F2D2B013C01C501B40106
:104760000E94302E69AB7AAB8BAB9CAB20E030E083
:104770004AEF54E4C301B2010E94932D87FFA5C400
:10478000A7019601C701B6010E94E62E20E030E0A5
:1047900040E050E30E94E62E6BA37CA38DA39EA372
:1047A00020E030E04AEF54E4C301B2010E942E2D14
:1047B0004B015C0120E030E044E752E40E94E62E29
:1047C000A50194010E94E62E20E030E040E85DE380
:1047D0000E94E62E6B017C01A5019401C501B40184
:1047E0000E942F2DA50194010E94E62E4B015C0131
:1047F00020E030E84BEB54ECC301B2010E94932D52
:1048000087FF38C020E030E84BEB54E4C301B2012D
:104810000E942F2D6F8F78A389A39AA320E030E008
:1048200040E751E40E94E62E2F8D38A149A15AA1FC
:104830000E94E62E9B01AC01C701B6010E942F2DFC
:104840006B017C0120E030E040E051E46F8D78A105
:1048500089A19AA10E94E62E2F8D38A149A15AA1C3
:104860000E94E62E9B01AC01C501B4010E942F2DD0
:104870004B015C012BA13CA14DA15EA1C301B20182
:104880000E942E2D60935A0770935B0780935C07FC
:1048900090935D07A50194016DA57EA58FA598A9AC
:1048A0000E942E2D9B01AC0169A97AA98BA99CA914
:1048B0000E94E62E20E030E040E055E30E94E62E24
:1048C0004B015C01A701960169A57AA58BA59CA562
:1048D0000E942E2D9B01AC01C501B4010E942E2D1A
:1048E00020E030E040E058E30E94E62E6093560757
:1048F000709357078093580790935907BE016F5FD5
:104900007F4F80E090E00E9468138981882309F43A
:10491000CAC060E0CE010D960E94D80A811105C080
:1049200060E070E08EEF92EC49C0BE016F5F7F4F98
:10493000CE010D960E94030A882359F1698128E06F
:10494000629FB00111248A81282F30E0322F222764
:10495000330F330F330F262B372B8D858031E1F446
:10496000688570E08F81AB01481B5109CA0196959B
:10497000982F8827979587950E94702F605171090D
:10498000207FF3E0220F331FFA95E1F7620F731FC8
:1049900004C060E874EE01C0B901613854EE7507D7
:1049A0000CF4BECF882777FD8095982F0E94322E79
:1049B00020E030E040E05CE30E94E62E6093830755
:1049C00070938407809385079093860760E0CE01FB
:1049D0000D960E94D80ACE010D960E94160A082F45
:1049E000882309F46CC080916607909167070E9444
:1049F000D504882309F463C0BE01635F7F4F8091B3
:104A00006607909167070E94A8044091610764E4DB
:104A100080916607909167070E9466048091630702
:104A2000882309F44CC0E7EFE00FE33040F4F0E0F6
:104A3000EE0FFF1FE85EFD4FC080D18004C04EEE38
:104A4000C42E42E0D42E80916407882321F1809106
:104A50006107811120C00E94D7154B015C01EE2433
:104A6000D7FCE094FE2CBE016F5F7F4FCE010D9608
:104A70000E9468138981811122C00E94D715DC0130
:104A8000CB018C199D09AE09BF0988159905AA05A6
:104A9000BB0548F314C0B601882777FD8095982F91
:104AA0000E949D150CC080E090E0AAE7B4E48093DA
:104AB000830790938407A0938507B093860782E0CD
:104AC0000E94241324E0969587952A95E1F7BC016E
:104AD00080E090E00E94302E20E030E048E454E492
:104AE0000E94972D60939307709394078093950786
:104AF0009093960784E00E9424135C01692F772726
:104B000080E090E00E94302E6B017C01B501772798
:104B1000882777FD8095982F0E94322E20E030E084
:104B200040E85BE30E94E62E9B01AC01C701B601A1
:104B30000E942F2D60939707709398078093990791
:104B400090939A0780918102882311F1AE014F5F03
:104B50005F4FBE01675E7F4F83E297E00E94F40FD4
:104B6000698D7A8D7093A6076093A50749815A8154
:104B70005093A4074093A30783E297E00E94F70EA7
:104B80006093A7077093A8078093A9079093AA073B
:104B90000E940C13BC01882777FD8095982F0E94F6
:104BA000322E60938F0770939007809391079093B4
:104BB0009207C0909307D0909407E0909507F090EB
:104BC00096072DEC3CEC4CE450E4C701B6010E9482
:104BD000932D181694F48090970790909807A090C2
:104BE0009907B0909A0720E030E040EA51E4C5010F
:104BF000B4010E94932D87FF03C01092840216C057
:104C00002AE939E949E550E4C701B6010E94E22EDC
:104C1000181664F420E030E048EC51E4C501B4011A
:104C20000E94E22E181614F41093840220E030E063
:104C3000A901C701B6010E94932D8823A1F08EEC33
:104C400093E00E94C3116091930770919407809143
:104C500095079091960742E050E00E94FD128BEC80
:104C600093E00E94C311C0909707D0909807E090FE
:104C70009907F0909A0720E030E048EC52E4C70131
:104C8000B6010E94932D181654F042E050E0C7017F
:104C9000B6010E94FD1289EC93E00E94C3110E94AC
:104CA0007E11C0908B07D0908C07E0908D07F0901C
:104CB0008E0720E030E0A901C701B6010E94E22E74
:104CC00018163CF442E050E0C701B6010E94FD1204
:104CD00004C086EC93E00E94C31183EC93E00E9431
:104CE000C311C0908707D0908807E0908907F090A3
:104CF0008A0720E030E04AE754E4C701B6010E9489
:104D0000932D8823A9F026E636E646EE5FE3C70139
:104D1000B6010E94E62E20E030E040E052E40E941E
:104D20002F2D42E050E00E94FD1280EC93E002C083
:104D30008DEB93E00E94E41188EB93E00E94C31195
:104D40006091A7077091A8078091A9079091AA0781
:104D50004AE00E94821186EB93E00E94C3116091A9
:104D6000A3077091A40780E090E04AE00E948211BE
:104D700084EB93E00E94C3116091A5077091A60790
:104D800080E090E04AE00E94821182EB93E00E9472
:104D9000C31160918F077091900780919107909156
:104DA00092070E94FF128EEA93E00E94C311609165
:104DB000C3077091C4078091C5079091C60742E070
:104DC00050E00E94FD128CEA93E00E94C3116091B2
:104DD000C7077091C8078091C9079091CA0742E040
:104DE00050E00E94FD128AEA93E00E94C311609194
:104DF000CB077091CC078091CD079091CE070E9490
:104E0000FF1287EA93E00E94C3116091AB07709193
:104E1000AC078091AD079091AE0742E050E00E9450
:104E2000FD1285EA93E00E94C3116091AF07709173
:104E3000B0078091B1079091B20742E050E00E9424
:104E4000FD1283EA93E00E94C3116091B307709151
:104E5000B4078091B5079091B6070E94FF1280EACF
:104E600093E00E94C3116091DB077091DC07809191
:104E7000DD079091DE0742E050E00E94FD128EE9CE
:104E800093E00E94C3116091DF077091E007809169
:104E9000E1079091E20742E050E00E94FD128CE9A8
:104EA00093E00E94C3116091E3077091E407809141
:104EB000E5079091E6070E94FF1260919B077091B1
:104EC0009C0780919D0790919E0742E050E00E94D0
:104ED000FD1288E993E00E94C3112CEB34E743E90B
:104EE0005CE360919F077091A0078091A10790916A
:104EF000A2070E94E62E20E030E040E052E40E944B
:104F00002F2D42E050E00E94FD1285E993E00E94BF
:104F1000E4118BE893E00E94C31126E636E646EEE4
:104F20005FE360918307709184078091850790917A
:104F300086070E94E62E20E030E040E052E40E9426
:104F40002F2D42E050E00E94FD1288E893E00E947D
:104F5000E4116091120870911308809114089091E7
:104F600015084AE00E94821185E893E00E94C3116F
:104F7000609116087091170880911808909119088F
:104F80004AE00E94821182E893E00E94C31160917E
:104F9000F6077091F7078091F8079091F90746E0BE
:104FA00050E00E94FD128FE793E00E94C3116091D0
:104FB000FA077091FB078091FC079091FD0746E08E
:104FC00050E00E94FD128CE793E00E94C3116091B3
:104FD000FE077091FF07809100089091010846E05C
:104FE00050E00E94FD1289E793E00E94C31186E71A
:104FF00093E00E94C31160910208709103088091B0
:1050000004089091050842E050E00E94FD1280E7FC
:1050100093E00E94C3116091060870910708809187
:1050200008089091090842E050E00E94FD128AE6CB
:1050300093E00E94C31160910E0870910F08809157
:105040001008909111084AE00E94821187E693E0CF
:105050000E94C31160910A0870910B0880910C089E
:1050600090910D084AE00E94821185E693E00E942B
:10507000E41189E593E00E94C31160919C06709150
:105080009D0680919E0690919F064AE00E948211A3
:105090000E947E118FE493E00E94C3110E94D715F5
:1050A00028EE33E040E050E00E94842FCA01B901AD
:1050B0004AE00E94821186E493E00E94E4110E947B
:1050C0007E110E942E160C94011D812C912C5401EE
:1050D000750164018BA29CA2ADA2BEA2CBCB1092A3
:1050E0009B0710929C0710929D0710929E0720E04C
:1050F00030E04AE754E420939F073093A0074093A1
:10510000A1075093A207FACB10923D0710923C07DB
:1051100088EE93E0A0E0B0E080933E0790933F07D5
:10512000A0934007B093410722E232E030933B075F
:1051300020933A071092400310923F03809341035B
:1051400090934203A0934303B093440322E332E0DD
:1051500030933E0320933D0345EC50E050934A03C7
:105160004093490344EC50E050934C0340934B036D
:1051700040EC50E050934E0340934D0341EC50E01F
:105180005093500340934F0342EC50E0509352032E
:105190004093510346EC50E0509354034093530323
:1051A000109256031092570310925803109259030D
:1051B00010929D0410929C0480939E0490939F04EF
:1051C000A093A004B093A10430939B0420939A046D
:1051D0008DEC90E09093A7048093A6048CEC90E073
:1051E0009093A9048093A80488EC90E09093AB047A
:1051F0008093AA0489EC90E09093AD048093AC0472
:105200008AEC90E09093AF048093AE048EEC90E033
:105210009093B1048093B0041092B3041092B4043C
:105220001092B5041092B60410928307109284076E
:10523000109285071092860710928B0710928C07A8
:1052400010928D0710928E0710928F071092900780
:105250001092910710929207109297071092980758
:105260001092990710929A0710929B0710929C0730
:1052700010929D0710929E0710929F071092A00710
:105280001092A1071092A2071092A6071092A507EC
:105290001092A7071092A8071092A9071092AA07C8
:1052A0001092B3071092B4071092B5071092B60788
:1052B0001092B7071092B8071092B9071092BA0768
:1052C0001092BB071092BC071092BD071092BE0748
:1052D0001092BF071092C0071092C1071092C20728
:1052E0001092CB071092CC071092CD071092CE07E8
:1052F0001092CF071092D0071092D1071092D207C8
:105300001092D3071092D4071092D5071092D607A7
:105310001092D7071092D8071092D9071092DA0787
:105320001092E3071092E4071092E5071092E60747
:105330001092E7071092E8071092E9071092EA0727
:105340001092EB071092EC071092ED071092EE0707
:105350001092EF071092F0071092F1071092F207E7
:105360001092F5071092FA071092FB071092FC07B3
:105370001092FD071092FE071092FF07109200088E
:10538000109201081092060810920708109208085F
:105390001092090810920A0810920B0810920C083B
:1053A00010920D0810920E0810920F08109210081B
:1053B00010921108109212081092130810921408FB
:1053C00010921508109216081092170810921808DB
:1053D0001092190880E68093820760E082E00E94C4
:1053E0006115EAE3F5E0E491E0937407E4EFF4E09B
:1053F000E491F0E0EE0FFF1FE852FB4F859194918E
:10540000909376078093750710927F07109281071B
:1054100010928007EFE7F7E0129287E0E737F8078E
:10542000D9F787E293E0909373078093720784E73C
:1054300097E0909367078093660710926507109234
:10544000610789E08093620781E08093630780931E
:10545000640796E790935E072AE337E0309360078E
:1054600020935F0722E432E0309324072093230740
:1054700099E390932607109227071092280710921D
:105480002A071092290710922C0710922B0749E344
:1054900050E360E070E040932D0750932E07609337
:1054A0002F07709330078093A4069BE69093A50680
:1054B0009EE19093A6068093A7068093B3068093FF
:1054C000B4068093B50625EF30E03093A90620930B
:1054D000A80696E09093AA061092AB061092AC062E
:1054E0001092AD061092AE061092AF061092B00662
:1054F0001092B1061092B2068093B6068093B7065A
:105500008093BA068093BB068093BC0622E020936A
:10551000B8069093B9069FEF9093BD061092BE0611
:105520001092BF068093C00694E09093C10697E066
:105530009093C2061092C30693E09093C406909392
:10554000C5061092C6061092C7068093C806E4EA04
:10555000F6E020E030E011AE12AE13AE14AEDF0183
:10556000AB5BBF4F1D921D921D921C9213971C9610
:105570001D921D921D921C921397C9018C55994F33
:10558000DC01A35ABF4F11961C921E9216961196DB
:105590001C921E9216961D921C9234962E5F3F4FBF
:1055A00026303105C1F6109221071092F7051092AE
:1055B000F8051092FA051092F9051092FB05109269
:1055C000FC051092FD051092FE051092FF05109249
:1055D0000106109200061092020610920306109225
:1055E0000406109205061092060610920806109204
:1055F00007061092090610920A0610920B061092E6
:105600000C0610920D0610920F0610920E061092C4
:1056100010061092110610921206109213061092A4
:1056200014061092190610921A0610921B06109278
:105630001C0610921D0610921E061092270610924C
:1056400028061092290610922A0610922B06109214
:105650002C06109235061092360610923B061092D8
:105660003C0610923D0610923E06109243061092A0
:1056700044061092490610924A0610924B06109268
:105680004C06109251061092520610925706109234
:1056900058061092590610925A0610925F06109200
:1056A00060061092650610926606109267061092C8
:1056B000680610926D0610926E0610927306109294
:1056C0007406109275061092760610927B06109260
:1056D0007C0682E080938C0610928D0610928E06D6
:1056E00010928F06109291061092900610929306D7
:1056F00010929206109294061092950610929606B9
:1057000010929706109298061092990610929A0697
:1057100010929B0610929C0610929D0610929E0677
:1057200010929F061092A0061092A1061092A20657
:105730001092A30610927D06089508951F93FC0110
:1057400099278827BC01E89411911032E9F31930A8
:1057500010F01E30C8F31B3251F01D3249F468942A
:1057600006C00E94C82B610F711D811D911D1191F2
:1057700010531A30B0F33EF4909580957095619572
:105780007F4F8F4F9F4F1F910895F8940C94F02FE7
:10579000592F482F372F262F660F771F881F991FE5
:1057A000660F771F881F991F620F731F841F951F35
:1057B000660F771F881F991F0895CF93DF9382305C
:1057C000910510F482E090E0E0912508F091260820
:1057D00020E030E0C0E0D0E0309711F1408151810D
:1057E00048175907C0F04817590761F4828193811F
:1057F000209719F09B838A832BC09093260880936F
:10580000250826C02115310519F04217530718F451
:105810009A01BE01DF01EF010280F381E02DDCCFB0
:105820002115310509F1281B390B2430310590F47D
:1058300012968D919C9113976115710521F0FB01D2
:105840009383828304C09093260880932508FD01EA
:10585000329644C0FD01E20FF31F819391932250D1
:1058600031092D933C933AC02091230830912408AC
:10587000232B41F42091020230910302309324083B
:105880002093230820910002309101022115310557
:1058900041F42DB73EB74091040250910502241BFC
:1058A000350BE0912308F0912408E217F307A0F4E8
:1058B0002E1B3F0B2817390778F0AC014E5F5F4F66
:1058C0002417350748F04E0F5F1F5093240840936C
:1058D00023088193919302C0E0E0F0E0CF01DF91D3
:1058E000CF9108950F931F93CF93DF93009709F4FF
:1058F0008CC0FC013297138212820091250810910E
:1059000026080115110581F420813181820F931F32
:1059100020912308309124082817390779F5F0934E
:105920002408E093230871C0D80140E050E0AE178E
:10593000BF0750F412962D913C911397AD0121159C
:10594000310509F1D901F3CF9D01DA0133832283B7
:1059500060817181860F971F8217930769F4EC01AC
:1059600028813981260F371F2E5F3F4F31832083D7
:105970008A819B8193838283452B29F4F0932608A7
:10598000E093250842C01396FC93EE931297ED0125
:10599000499159919E01240F351FE217F30771F4C5
:1059A00080819181840F951F029611969C938E930E
:1059B0008281938113969C938E931297E0E0F0E09E
:1059C000D80112968D919C911397009719F0F801C8
:1059D0008C01F6CF8D919C9198012E5F3F4F820FE5
:1059E000931F20912308309124082817390769F460
:1059F000309729F4109226081092250802C01382CD
:105A000012821093240800932308DF91CF911F91F5
:105A10000F91089581E090E0F8940C94F02FFB0131
:105A2000DC018D91019080190110D9F3990B089533
:105A3000FB01DC0101900D920020E1F70895FB01CC
:105A4000DC014150504048F001900D920020C9F710
:105A500001C01D9241505040E0F708955058BB27B7
:105A6000AA270ED075C166D130F06BD120F031F489
:105A70009F3F11F41EF45BC10EF4E095E7FB51C1AA
:105A8000E92F77D180F3BA17620773078407950768
:105A900018F071F49EF58FC10EF4E0950B2EBA2F1D
:105AA000A02D0B01B90190010C01CA01A001112424
:105AB000FF27591B99F0593F50F4503E68F11A16D0
:105AC000F040A22F232F342F4427585FF3CF469561
:105AD00037952795A795F0405395C9F77EF41F1683
