:100000000C94C0020C94F1020C94F1020C94F102D5
:100010000C94F1020C94F1020C94F1020C94F10294
:100020000C94F1020C94F1020C94F1020C94F10284
:100030000C94F1020C94F1020C94F1020C94F10274
:100040000C94F1020C94F1020C94F1020C94F10264
:100050000C94F1020C94F1020C94F1020C945713DD
:100060000C94F1020C9403120C94D9110C94F1022B
:100070000C94F1020C94F1020C94F1020C94F10234
:100080000C94F1020C94F1020C94F1020C94F10224
:100090000C94F1020C94F1020C94F1020C94C40C37
:1000A0000C94F1020C94F1020C94F1020C94F10204
:1000B0000C94F1020C94F1020C94F1020C94F102F4
:1000C0000C94F1020C94F1020C94F1020C94F102E4
:1000D0000C94F1020C94F1020C94F1020C94F102D4
:1000E0000C94F1026D18731879188518911820195D
:1000F0009D18A618AF18BB18C718D318E418F01825
:100100002019FC180819141987128A1279127D1205
:100110008112C1128E12921298129C12A012A61273
:10012000AA12AE12C112B412B812BC12084AD73BBE
:100130003BCE016E84BCBFFDC12F3D6C74319ABDB6
:1001400056833DDA3D00C77F11BED9E4BB4C3E91DA
:100150006BAAAABE000000803F000C94CB110C9447
:10016000B4120C94F0180C94D3180C949D180C94A1
:1001700091180C9481120C94880B0C9414190C9403
:10018000D7110C94F70A0C940D030C9487120C945D
:10019000220B0C94A0120C947D120C941A0B0C944C
:1001A0008A120C9479120C94A1130C94060B0C94E3
:1001B00079180C94C8200C94A6120C94CA110C94B3
:1001C0008E120C94AF180C94F50A0C94C1120C9476
:1001D000881F0C94B8120C94AE120C94B10E0C94AF
:1001E00092120C946D180C949C0B0C94FC180C94AB
:1001F0007A110C9473180C94A6180C9420190C9472
:10020000AA0B0C9498120C94C4080C94F60A0C9443
:1002100085180C94E4180C940A030C94F80E0C94B2
:100220005F0B0C94AA120C94C7180C949C120C949B
:1002300008190C94BB180C94BC122044757261749C
:10024000696F6E3A2000205371756172653A200023
:10025000467265713A200000002100240027002A20
:10026000002D003000330001010000040107010AE5
:100270000100000A0B02090C0D0E0807030401001F
:10028000000000000000000000000000000000006E
:10029000000000000000000000000000001211102B
:1002A000000000000000000000000000000000004E
:1002B00000000000000000446F75626C652D6368EB
:1002C00065636B20776972696E672E004661696CA1
:1002D000656420746F20636F6D6D756E6963617402
:1002E000652077697468204C534D394453312E0092
:1002F0004F6F6F70732C206E6F2054534C32353615
:1003000031206465746563746564202E2E2E20434D
:100310006865636B20796F757220776972696E67A3
:10032000206F7220493243204144445221004572DB
:10033000726F7220636F6E6E656374696E6720748E
:100340006F204D53353630372E2E2E005265737484
:10035000617274696E672048414220436F6E747207
:100360006F6C6C657200207365636F6E647300550B
:10037000702074696D653A20002049523A2000438C
:100380004F323A2000462000445331384232303A4E
:10039000200043524320213D0046200050612000B0
:1003A00058580046200025200058580025005620A7
:1003B00000566F6C746167653A2000005EBCE261B4
:1003C0003FDD83C29C7E20A3FD1F419DC3217FFC96
:1003D000A2401E5F01E3BD3E6082DC237D9FC142DF
:1003E0001CFEA0E1BF5D0380DE3C62BEE0025CDF7C
:1003F00081633D7C22C09E1D43A1FF4618FAA427BD
:10040000799BC584DA3866E5BB5907DB856739BA5D
:10041000E406581947A5FB7826C49A653BD987049A
:100420005AB8E6A7F91B45C6987A24F8A6441A9943
:10043000C7257B3A6486D85B05E7B98CD2306EED70
:10044000B3510F4E10F2AC2F7193CD114FADF3702D
:100450002ECC92D38D6F31B2EC0E50AFF1134DCE46
:1004600090722C6D33D18F0C52B0EE326C8ED05313
:100470000DEFB1F0AE4C1291CF2D73CA947628AB2C
:10048000F517490856B4EA6937D58B5709EBB536E5
:10049000688AD495CB2977F4AA4816E9B7550B8812
:1004A000D6346A2B7597C94A14F6A8742AC89615CB
:1004B0004BA9F7B6E80A54D7896B35000020002312
:1004C00000260029002C002F00320000010000034C
:1004D00001060109010505050507050808080802C8
:1004E0000202020A0A0808040404040101010101CD
:1004F0000101010303030303030303040707070CBC
:100500000C0C0C0C0C0C0C02020202060606060671
:100510000606060B0B0B0B0B0B0B0B01021020201E
:100520000808102040102040800201020108040247
:1005300001010204081020408080402010080402BD
:100540000180040201804020100804020108040216
:10055000010102040810204080010204081020401C
:100560008000002200250028002B002E00310034DE
:100570000002010000050108010B0100881FC820CE
:1005800011241FBECFEFD1E2DEBFCDBF00E00CBF14
:1005900013E0A0E0B2E0E4E2FBE400E00BBF02C045
:1005A00007900D92A230B107D9F715E0A2E0B3E0B1
:1005B00001C01D92A534B107E1F712E0CFEBD2E004
:1005C00000E006C021970109802FFE010E945525F9
:1005D000CE3BD10780E00807A9F70E94A2130C9434
:1005E000C9200C940000FC01AC014E5F5F4F8FEFFF
:1005F00091E32191822728E030E087FF03C0880F34
:10060000892701C0880F21503109B9F7E417F50790
:1006100081F70895FC01658308950F931F93CF938D
:10062000DF938C01EB0188E2FB0111928A95E9F7D7
:100630004BE050E06BEE72E0CE010E94FE211B8683
:1006400081E090E0A0E0B0E08C879D87AE87BF8717
:10065000F80182859385A485B585888B998BAA8BB3
:10066000BB8B85E090E0A0E0B0E08C8B9D8BAE8BE7
:10067000BF8B1CA21DA21EA21FA280E090EDA4E8C9
:10068000B6E4888F998FAA8FBB8F1C8E1D8E1E8E0D
:100690001F8E80E090E0A0E8BFE388A399A3AAA3FF
:1006A000BBA3DF91CF911F910F9108951F93CF931B
:1006B000DF93EC01162F6B818FEE94E00E94700E99
:1006C000612F8FEE94E00E945F0B0E943C0F6B81C4
:1006D000772767FD709542E050E08FEE94E00E942E
:1006E0007A0E8FEE94E00E94060BEC018FEE94E000
:1006F0000E94060B20E030E0382FC9018C2B9D2B87
:10070000DF91CF911F9108951F93CF93DF931F9295
:10071000CDB7DEB7162FFC0163818FEE94E02983FD
:100720000E94700E612F8FEE94E00E945F0B298172
:10073000622F8FEE94E00E945F0B0F90DF91CF91BC
:100740001F910C943C0F20E030E0A90160E80C946C
:100750008403EF92FF920F931F93CF93DF93EC01EB
:100760007B018A0123E030E040E050E060E80E9435
:1007700084038E819F81009739F0019751F468E7D7
:1007800070E080E090E009C06FE070E080E090E011
:1007900004C062EC71E080E090E00E9411136CEA0A
:1007A000CE010E945603F701918380836EEACE0149
:1007B0000E945603F80191838083CE01DF91CF918F
:1007C0001F910F91FF90EF900C94A303CF92DF92B3
:1007D000EF92FF92CF93DF9397FF21C06B017C01D3
:1007E000E091BC03F091BD030190F081E02D6DE23A
:1007F0008CEB93E01995EC0166277727CB016C19F8
:100800007D098E099F094AE00E949B0F8C0F9D1F56
:10081000DF91CF91FF90EF90DF90CF9008954AE065
:10082000DF91CF91FF90EF90DF90CF900C949B0FD2
:10083000CF93DF93BC01882777FD8095982F0E9486
:10084000E603EC0181E592E00E941A0F8C0F9D1FD8
:10085000DF91CF9108950F931F93CF93DF93D82FFC
:10086000C62F8A01682F8FEE94E00E94700E6C2FC5
:1008700060688FEE94E00E945F0B61E08FEE94E081
:100880000E94F60D66E08D2F0E94B110C8EED3E0F5
:100890008091730390E020917403821B9109069765
:1008A0005CF4219738F061E070E080E090E00E9415
:1008B0001113EECF8FEF15C0CD2BE1F3E8010A5FE6
:1008C0001F4F8091730390917403C017D10741F0BB
:1008D0008917D9F38FEE94E00E94060B8993F1CF2C
:1008E00086E0DF91CF911F910F910895AB01909118
:1008F0005904913029F4682F8091C9040C942B0479
:10090000911106C026E0682F8091C9040C947B10D9
:1009100008954F925F926F927F928F929F92AF92C3
:10092000BF92CF92DF92EF92FF926B017C01B42EC7
:100930009B01AC010E94FB24882319F083EF92E015
:1009400027C026013701E89477F82FEF3FEF4FE7F4
:100950005FE7C301B2010E94FB2481110DC02FEF9C
:100960003FEF4FE75FE7C301B2010E94D4221816A0
:100970001CF487EF92E00CC02FEF3FEF4FE75FE4EE
:10098000C701B6010E944824181684F48BEF92E048
:10099000FF90EF90DF90CF90BF90AF909F908F909F
:1009A0007F906F905F904F900C941A0F2FEF3FEF56
:1009B0004FE75FECC701B6010E94D42287FDE6CF66
:1009C00020E030E0A901C701B6010E94D42287FFD0
:1009D00011C0E091BC03F091BD030190F081E02DC6
:1009E0006DE28CEB93E019954C01F7FAF094F7F86F
:1009F000F09402C0812C912CA12C60E070E080E08A
:100A00009FE3AB1441F020E030E040E251E40E946B
:100A1000D822A394F6CF9B01AC01C701B6010E9476
:100A20000E222B013C010E9445236B017C010E9498
:100A300071239B01AC01C301B2010E940D222B0165
:100A40003C014AE0C701B6010E949B0F7C01E80C03
:100A5000F91CBB2031F08FEF92E00E941A0FE80ED4
:100A6000F91EDB2CDD2029F120E030E040E251E4EA
:100A7000C301B2010E9453242B013C010E94402378
:100A80004B01AA2497FCA094BA2CC501B4010E9482
:100A9000E603E80EF91EC501B4010E9473239B0111
:100AA000AC01C301B2010E940D222B013C01DA947A
:100AB000D9CFC701FF90EF90DF90CF90BF90AF905C
:100AC0009F908F907F906F905F904F90089542E03D
:100AD0000C9489040F931F93CF93DF93C82F66E381
:100AE0008FEE94E00E94700E6C2F8FEE94E00E94C7
:100AF0005F0B60E08FEE94E00E94F60D42E050E064
:100B000066E370E08FEE94E00E947A0EC9EED3E0C7
:100B10002091730330E080917403281B3109223047
:100B200031054CF4219739F061E070E080E090E00D
:100B30000E941113EDCF8FEE94E00E94060BC82F98
:100B40008FEE94E00E94060B1C2F00E09801282BEA
:100B5000C901DF91CF911F910F910895CF92DF923C
:100B6000EF92FF92CF93C82F80E48C0F0E94081160
:100B70008C2F8F708430C1F048F4882381F082304C
:100B8000F1F463E070E080E090E017C0863089F017
:100B90008830A9F46AE070E080E090E00EC08BE05D
:100BA0009EE00197F1F70BC064E070E080E090E018
:100BB00004C066E070E080E090E00E94111380E0E5
:100BC0000E94081160911305772767FD709543E037
:100BD00050E080911405909115050E947A0E809145
:100BE000140590911505DC01ED91FC910680F781CB
:100BF000E02D19956C01EE24D7FCE094FE2C7601D3
:100C0000DD24CC248091140590911505DC01ED9133
:100C1000FC910680F781E02D1995AA2797FDA095F4
:100C2000BA2FBA2FA92F982F8827C80ED91EEA1ECF
:100C3000FB1E8091140590911505DC01ED91FC914E
:100C40000680F781E02D1995AA2797FDA095BA2F68
:100C5000C80ED91EEA1EFB1E61E08091140590911A
:100C600015050E94F60DC701B601CF91FF90EF90D8
:100C7000DF90CF900895DF92EF92FF920F931F9332
:100C8000CF93DF9300D000D0CDB7DEB780E094E201
:100C90000E94F11064EF71E080E090E00E94111377
:100CA00066E08091E6040E94B1108091730390E0A9
:100CB00020917403821B9109069709F05FC0CE0151
:100CC00001967C018C0186E0D82EDE0C8FEE94E03C
:100CD0000E94060BF80181938F01DE12F7CFD980B5
:100CE0000A811B81C7010E94F302181347C0FC80D0
:100CF0001D81EE80CE0104960E94F302E8123EC0F0
:100D0000602F70E07D2980E090E00E94712320E058
:100D100030E04FE253E40E94532420E03FEF4FE7DE
:100D200057E40E94D82220E030E044E352E40E94DD
:100D30000D226093EB047093EC048093ED04909388
:100D4000EE04612F70E07F2980E090E00E94712323
:100D500020E030E048EC52E40E94532420E03FEFD2
:100D60004FE757E40E94D8226093E7047093E804A9
:100D70008093E9049093EA0481E001C080E0269624
:100D80000FB6F894DEBF0FBECDBFDF91CF911F919C
:100D90000F91FF90EF90DF9008958EBD00000DB48D
:100DA00007FEFDCF8EB508958F929F92AF92BF92AE
:100DB000CF92DF92EF92FF92FA01DC0116962D910D
:100DC0003C9117972115310549F02130310519F46F
:100DD00048E850E905C048EE5DEF02C044E253E147
:100DE0004617570708F4D0C04E175F0708F4CCC069
:100DF0002115310581F02130310539F437EE832E8C
:100E00003FE0932EA12CB12C0CC0812C24E0922E1B
:100E1000A12CB12C06C0B7E18B2EB5E79B2EA12CDF
:100E2000B12CDC0118968D919C911997892B39F47E
:100E3000A4E0880C991CAA1CBB1CAA95D1F7DB0165
:100E4000A50194010E9414256B017C016AE0F694CF
:100E5000E794D794C7946A95D1F7DF010E941425CF
:100E60004B015C017AE0B694A794979487947A95A5
:100E7000D1F7C114D104E104F10471F0C501B4014A
:100E80004AE0660F771F881F991F4A95D1F7A7017F
:100E900096010E94332503C020E030E0A901DA0169
:100EA000C9010196A11DB11DB695A7959795879586
:100EB00081349105A105B10530F181389105A10575
:100EC000B10530F1813C9105A105B10530F18130CA
:100ED00021E09207A105B10528F1893331E093079C
:100EE000A105B10520F18B3941E09407A105B105B9
:100EF00018F18B399240A105B10518F1E0E0F0E05E
:100F0000A0E0B0E022C0EEEBF1E0A2EFB1E01DC046
:100F1000E1EDF2E0A4E1B2E018C0EBE7F3E0AFE30B
:100F2000B2E013C0EEEFF3E0A0E7B2E00EC0ECEFEA
:100F3000F1E0AFE6B1E009C0EBEFF0E0A2EDB0E028
:100F400004C0E2E1F0E0A8E1B0E0A70196010E9450
:100F500014256B017C01A0E2DA0EE11CF11CDF011B
:100F6000A50194010E941425A7019601261B370BA9
:100F7000480B590BCA01B9012EE0969587957795D4
:100F800067952A95D1F704C060E070E081E090E0B9
:100F9000FF90EF90DF90CF90BF90AF909F908F9099
:100FA0000895CF93DF93EC018FEE94E00E94860EBC
:100FB0006B818FEE94E00E94700E6AE08FEE94E0F9
:100FC0000E945F0B0E943C0F6B81772767FD709535
:100FD00041E050E08FEE94E00E947A0E8FEE94E0B4
:100FE0000E94060B8A7089F081E08C836E817F817C
:100FF000CE010E94240968857985CE010E940908E6
:10100000CE010E94A30381E001C080E0DF91CF9177
:1010100008950F931F93CF93DF93EC018B018C8185
:10102000811103C0CE010E94D10723E030E040E0EF
:1010300050E060E8CE010E9484032E813F81202B86
:10104000312B442737FD4095542F61E8CE010E9493
:10105000840319870887CE01DF91CF911F910F91EB
:101060000C94A3038F929F92AF92BF92CF92DF9284
:10107000EF92FF920F931F93CF93DF9300D01F92B5
:101080001F92CDB7DEB78C016B017A01FC01848120
:10109000811103C0C8010E94D107F8018581811127
:1010A00006C0A701B601C8010E94A9035BC020E0E9
:1010B000F80186819781009799F0019741F458ECE7
:1010C000852E912C60EAA62E6CE8B62E10C034EF67
:1010D000832E9924939448E1A42E46EFB42E07C0A2
:1010E00084E6882E912C92EFA92E92E1B92EAE01C2
:1010F0004F5F5F4FBE016D5F7F4FC8012D830E9420
:10110000A9038B819C812D81211124C0881599050B
:1011100040F4F80120853185232BE1F460E170E093
:101120000BC0A816B906B0F4F8012085318520312E
:10113000310581F460E070E0C8010E940908AE0149
:101140004F5F5F4FBE016D5F7F4FC8010E94A903D3
:1011500021E0AECFF6019183808389819A81F701E6
:10116000918380830F900F900F900F900F90DF91DD
:10117000CF911F910F91FF90EF90DF90CF90BF9094
:10118000AF909F908F900895EF92FF920F931F93CF
:10119000CF93DF9300D01F92CDB7DEB77C018B01D8
:1011A00084E2FB0111928A95E9F784E290E0A0E0E5
:1011B000B0E0FB0180839183A283B383F701828532
:1011C0009385A485B585FB0184839583A683B78326
:1011D00085E090E0A0E0B0E080879187A287B387A8
:1011E0000E944B13F801608B718B828B938BAE0145
:1011F0004F5F5F4FBE016D5F7F4FC7010E94320896
:1012000049815A816B817C81C7010E94D4060E946A
:101210007123F801648B758B868B978B11E020E02E
:1012200030E040E857E40E94D422811101C010E070
:10123000812F0F900F900F900F90DF91CF911F9102
:101240000F91FF90EF9008950F931F93CF93DF932B
:10125000EC018B018C81811103C0CE010E94D1076A
:1012600023E030E040E050E060E8CE010E948403DB
:1012700028853985202B312B442737FD4095542F65
:1012800061E8CE010E9484031F830E83CE01DF91AB
:10129000CF911F910F910C94A303DC01E0E061500A
:1012A00038F08D91E827F0E0E554FC4FE491F7CF5A
:1012B0008E2F0895CF93DF93EB010E942511882391
:1012C00039F068E0CE010E944D0991E02885821333
:1012D00090E0892FDF91CF910895CF93DF93CDB721
:1012E000DEB729970FB6F894DEBF0FBECDBFFC0165
:1012F00020812031D1F0BE016F5F7F4F0E945A09DB
:10130000882389F08D818F3361F020F48F3159F477
:1013100089E00CC08F3519F08F3739F004C08BE0AD
:1013200005C08AE003C080E001C08CE029960FB6BA
:10133000F894DEBF0FBECDBFDF91CF910895CF925D
:10134000DF92EF92FF920F931F93CF93DF931F9241
:10135000CDB7DEB76C01E62E08E010E0FF24F39471
:1013600061E08F2D8E2109F460E0C60149830E945F
:10137000130CFF0C0150110949810115110581F76A
:10138000411115C0F894D6011196ED91FC91129778
:1013900091818C918095892381831196ED91FC91A7
:1013A000129792818C9180958923828378940F90F3
:1013B000DF91CF911F910F91FF90EF90DF90CF9031
:1013C0000895CF92DF92EF92FF920F931F93CF93E6
:1013D000DF931F92CDB7DEB78C01F62E40E065E5B6
:1013E00079830E949F09CF2C7981D72E760188E0DE
:1013F000E80EF11CF60161916F0140E0C8010E9406
:101400009F09CE14DF04B1F70F90DF91CF911F91A8
:101410000F91FF90EF90DF90CF900895FC019081A5
:101420000180F281E02DF8948181892B81832281D2
:10143000892F809528232283A7E0B0E01197F1F748
:10144000218182238183A3E2B0E01197F1F78081AB
:101450007894EFECF0E03197F1F7982381E009F40C
:1014600080E00895AF92BF92CF92DF92EF92FF9209
:101470000F931F93CF93DF931F92CDB7DEB75C011D
:10148000D62EE72EFC018585811105C0C5010E947D
:10149000420C811106C0F50113861586148680E082
:1014A00065C040E060EFC5010E949F0901E0F12C9A
:1014B000C12C11E0C5010E940E0A682FC501698385
:1014C0000E940E0A6981613019F48130B9F433C089
:1014D0004F2D50E068131BC0F5018385181730F4B9
:1014E000E40FF51F8381802349F402C0181731F0FF
:1014F00060E0193058F4F501148708C0F501EF0DCC
:10150000F11D8381802B838361E009C0C12EF50129
:10151000E40FF51F9381802F809589238383C50174
:101520000E94130C1F5F000F11F4F39401E0F7E029
:10153000FF1508F0BFCF113408F4ADCFF501C38615
:10154000C11002C081E08587F5018381882309F4F9
:10155000A2CFD5011396ED2DFE2D9501255F3F4FAE
:101560008D918193A217B307D9F781E00F90DF9196
:10157000CF911F910F91FF90EF90DF90CF90BF9090
:10158000AF9008950F931F93CF93DF938C01D62FC5
:10159000E0911B05F0911C05138615861486DF016A
:1015A0001B9633961E92AE17BF07E1F7C0E0B80155
:1015B00080911B0590911C050E94320A882381F0BE
:1015C000CD130AC067E0C8010E944D09F801978158
:1015D000891302C081E004C0CF5FDC1740F780E0D0
:1015E000DF91CF911F910F91089508950895E09193
:1015F000740380917303E81730F4F0E0EB58FC4F6C
:10160000808190E008958FEF9FEF0895909174038B
:1016100080917303981750F4E92FF0E0EB58FC4FDA
:10162000208130E09F5F9093740302C02FEF3FEF63
:10163000C90108958091730390E020917403821B87
:1016400091090895CF92DF92EF92FF920F931F932B
:10165000CF93DF937C018A0180912703882389F04F
:10166000EB016B01C40ED51ECC15DD05F1F06991BF
:10167000D701ED91FC910190F081E02DC701199502
:10168000F3CF842F413288F49091BB03943069F4F6
:1016900040934E03FB012CE233E0D9019A2F921BB9
:1016A000981718F491919D93F9CFC801DF91CF91CC
:1016B0001F910F91FF90EF90DF90CF9008952091B0
:1016C00027032223C9F020912603203240F021E095
:1016D00030E0FC013383228380E090E00895809124
:1016E0002503E82FF0E0EB5FFC4F60838F5F809372
:1016F00025038093260309C08091BB03843029F41D
:1017000081E080934E0360932C0381E090E0089584
:10171000FC01918D828D981761F0828DDF01A80FF9
:10172000B11D5D968C91928D9F5F9F73928F90E01B
:1017300008958FEF9FEF0895FC01918D828D98178A
:1017400031F0828DE80FF11D858D90E008958FEFC7
:101750009FEF0895FC01918D228D892F90E0805C90
:101760009F4F821B91098F739927089580E090E025
:10177000892B21F00E94CD11811125C080E090E0DD
:10178000892B41F080E090E0892B21F00E9400003D
:1017900081111CC080E090E0892B41F080E090E056
:1017A000892B21F00E940000811113C080E090E09D
:1017B000892BA1F080E090E0892B81F00E9400004D
:1017C00081110AC008950E940000D8CF0E94000035
:1017D000E1CF0E940000EACF0C9400000895CF935F
:1017E000DF93CCEBD0E018821092BB0381E08093B2
:1017F000BA031092B50361E084E10E94581261E0DF
:1018000085E10E945812E9EBF0E080818E7F8083B1
:1018100080818D7F808388E48093B80085E488830D
:10182000DF91CF910895FC0190810180F281E02D3C
:10183000892F809560FF12C0F894228182238283D1
:101840008181892B8183A3E2B0E01197F1F7828136
:10185000982B9283789487ED90E011C0F8942281C0
:10186000822382838181892B8183AFEFB0E011973E
:10187000F1F78281982B928378948FE090E0019722
:10188000F1F70895FC0190810180F281E02DF89438
:101890008181292F20958223818378948DE743E0ED
:1018A00050E0815021F1DA011197F1F730813923AD
:1018B000C1F3F8948281822382838181892B818381
:1018C0007894ABE7B7E01197F1F7F894818128237A
:1018D0002183A3E1B1E01197F1F78081982381E0A2
:1018E00009F080E07894E3E6F6E03197F1F70895A7
:1018F000882349F0109228031092290310922A039A
:1019000010922B0313C08091280390912903A0917A
:101910002A03B0912B030196A11DB11D80932803CA
:1019200090932903A0932A03B0932B03809128035B
:1019300090912903A0912A03B0912B03803A9648F5
:10194000A140B10560F01092280310922903109273
:101950002A0310922B030E94EF0B81E0089580E090
:10196000089585ED8093BC0081E00E94780C809101
:10197000BC0084FF06C080E00E94780C8823B9F385
:1019800002C01092BB0308951F920F920FB60F92E0
:1019900011240BB60F922F933F934F935F936F9346
:1019A0007F938F939F93AF93BF93EF93FF93809118
:1019B000B900887F803609F49CC068F5883209F444
:1019C0005BC090F4803109F454C038F4882309F4E2
:1019D000F6C0883009F44DC0F6C0883109F44CC017
:1019E000803209F45DC0EFC0803409F468C048F467
:1019F000803309F455C0883309F0E5C08093B903FA
:101A0000D8C0803509F44FC0883509F45DC08834EA
:101A100009F0D9C0D6C0883909F4C7C0A8F48837FE
:101A200009F467C038F4883609F463C0803709F4D4
:101A300060C0C9C0883809F4B8C0803909F45FC0F3
:101A4000803809F0C0C05BC0803B09F486C038F420
:101A5000803A09F466C0883A09F47FC0B4C0803C7B
:101A600009F4A7C0883C09F4A4C0883B09F48AC0E3
:101A7000AAC08091B60310C09091B8038091B703BB
:101A8000981770F5E091B80381E08E0F8093B8034A
:101A9000F0E0EB56FC4F80818093BB0085EC86C064
:101AA0008093B9038EC0E091B80381E08E0F8093DC
:101AB000B8038091BB00F0E0EB56FC4F808390911F
:101AC000B8038091B7036EC0E091B80381E08E0F38
:101AD0008093B8038091BB00F0E0EB56FC4F80830D
:101AE0008091BA0381116DC081E08093B50384EACF
:101AF00061C083E08093BB0310927203CFCF8091CB
:101B00007203803208F051C0E091720381E08E0FC1
:101B1000809372038091BB00F0E0EE5AFC4F80830B
:101B2000BDCF85EC8093BC001092BB038091720303
:101B3000803230F4E0917203F0E0EE5AFC4F1082F4
:101B40006091720370E0E0915003F091510382E5DF
:101B500093E019951092720336C084E08093BB0322
:101B600010924F0310924E03E0914C03F0914D03FD
:101B7000199580914E03811105C081E080934E0339
:101B800010922C03E0914F0381E08E0F80934F035E
:101B9000F0E0E45DFC4F80818093BB0090914F03A7
:101BA00080914E03981708F479CF85E88093BC00A4
:101BB0000AC085EC8093BC001092BB0304C0109255
:101BC000B9030E94B10CFF91EF91BF91AF919F912A
:101BD0008F917F916F915F914F913F912F910F90D6
:101BE0000BBE0F900FBE0F901F9018950F931F9371
:101BF000CF93DF9310912603D0910403113208F0A4
:101C00005EC0062F81E00E94780CC091BB03CC23FC
:101C100039F080E00E94780C8823B9F3C5E054C005
:101C200082E08093BB030093BA038FEF8093B903E4
:101C30001092B8031093B703A5E0B3E025E933E0B1
:101C4000F9018E2F821B811718F48D918193F9CFA2
:101C50001092B6039091B6038D2F880F892B809335
:101C6000B6038091B503813061F41092B503809181
:101C7000B6038093BB008091BC0083FDF8CF85EC58
:101C800001C085EE8093BC0081E00E94780C8091B9
:101C9000BB03823031F480E00E94780C8111BECF0A
:101CA000F6CF8091B9038F3F79F08091B9038032EC
:101CB00041F08091B903803331F0C4E005C0C1E048
:101CC00003C0C2E001C0C3E01092250310922603B6
:101CD000109227038C2FDF91CF911F910F910895C0
:101CE00081E08093270360930403109225031092F0
:101CF00026030895862F413208F040E2642F0E94A7
:101D0000410F10927403809373030895109274032B
:101D10001092730310922503109226030C94EF0B7C
:101D2000FC01848DDF01A80FB11DA35ABF4F2C9178
:101D3000848D90E001968F739927848FA689B78947
:101D40002C93A089B1898C9180648C93938D848D20
:101D5000981306C00288F389E02D80818F7D8083EF
:101D60000895EF92FF920F931F93CF93DF93EC01AF
:101D700081E0888F9B8D8C8D981305C0E889F98947
:101D8000808185FD24C0F62E0B8D10E00F5F1F4F64
:101D90000F731127E02E8C8DE8120CC00FB607FCD4
:101DA000FACFE889F989808185FFF5CFCE010E94BD
:101DB000900EF1CF8B8DFE01E80FF11DE35AFF4F1E
:101DC000F0820B8FEA89FB898081806207C0EE89EF
:101DD000FF896083E889F98980818064808381E05C
:101DE00090E0DF91CF911F910F91FF90EF900895B8
:101DF000CF93DF93EC01888D8823C9F0EA89FB89B2
:101E0000808185FD05C0A889B9898C9186FD0FC0A8
:101E10000FB607FCF5CF808185FFF2CFA889B9897D
:101E20008C9185FFEDCFCE010E94900EE7CFDF9120
:101E3000CF910895009769F0FC0101900020E9F727
:101E40003197AF01481B590BBC018CEB93E00C940C
:101E50007A1180E090E00895CF93DF930E941A0FEB
:101E6000EC0181E592E00E941A0F8C0F9D1FDF911B
:101E7000CF9108950C941A0F61E08FEE94E00C94CA
:101E8000F60DCF93DF93D82FC62F81E00E94780CF8
:101E90008091BB03882329F080E00E94780C88237E
:101EA000B9F381E08093BB038093BA039FEF9093D3
:101EB000B9031092B8039C0F9093B7038093B603B5
:101EC0008091B603DD0FD82BD093B6038091B50374
:101ED000813061F41092B5038091B6038093BB000A
:101EE0008091BC0083FDF8CF85EC01C085EE809326
:101EF000BC0081E00E94780C8091BB03813029F402
:101F000080E00E94780C8823B9F38091B8038C1785
:101F100010F4C091B803A5E9B3E025E733E0F90177
:101F20008E2F821B8C1718F48D918193F9CF8C2FF3
:101F3000DF91CF9108958F929F92AF92BF920F93AE
:101F40001F93CF93DF93CDB7DEB7A1970FB6F89469
:101F5000DEBF0FBECDBF19A2423008F44AE08E01A9
:101F60000F5D1F4F842E912CA12CB12CA501940143
:101F70000E943325E62FB901CA0101501109EA3048
:101F800014F4E05D01C0E95CD801EC93232B242B11
:101F9000252B61F7C8010E941A0FA1960FB6F8947D
:101FA000DEBF0FBECDBFDF91CF911F910F91BF90CC
:101FB000AF909F908F9008950F931F93CF93DF93CF
:101FC0008C01C0E0D0E0F801EC0FFD1F64916623A6
:101FD00071F0E091BC03F091BD030190F081E02D20
:101FE0008CEB93E01995892B11F02196ECCFCE0163
:101FF000DF91CF911F910F910895CF93DF930E94AE
:10200000DC0FEC0181E592E00E941A0F8C0F9D1FFE
:10201000DF91CF9108951F93CF93DF93182FD62F81
:10202000809159048130A9F46091C8048FEE94E046
:102030000E94700E612F8FEE94E00E945F0B6D2F57
:102040008FEE94E00E945F0BDF91CF911F910C9473
:102050003C0F811114C0C091C80460E08C2F0E9415
:102060005812812F8F730E94CD068D2F0E94CD06AE
:1020700061E08C2FDF91CF911F910C945812DF916A
:10208000CF911F9108951F93CF93DF93182FD62FD1
:10209000809159048130A9F46091C9048FEE94E0D5
:1020A0000E94700E612F8FEE94E00E945F0B6D2FE7
:1020B0008FEE94E00E945F0BDF91CF911F910C9403
:1020C0003C0F811114C0C091C90460E08C2F0E94A4
:1020D0005812812F8F730E94CD068D2F0E94CD063E
:1020E00061E08C2FDF91CF911F910C945812DF91FA
:1020F000CF911F910895CF92DF92EF92FF921F939D
:10210000CF93DF93182F6A01C22F6F73D62FD06839
:102110008091C804181304C0223010F0D62FD06C60
:1021200060E0812F0E9458128D2F0E94CD0676010B
:10213000D0E0C7018C199D098C179D073CF480E005
:102140000E94CD06F70181937F01F3CF61E0812FDB
:10215000DF91CF911F91FF90EF90DF90CF900C9483
:102160005812613208F060E20E94410F109274032D
:10217000809373030895CF93DF93C82F682F8FEE5A
:1021800094E00E94700E6FE08FEE94E00E945F0B6F
:1021900061E08FEE94E00E94F60D61E08C2F0E94CA
:1021A000B110C8EED3E08091730390E020917403E6
:1021B000821B9109181619065CF0219738F061E02E
:1021C00070E080E090E00E941113EDCF8FEF06C029
:1021D000CD2BE1F38FEE94E00E94060BDF91CF91BF
:1021E0000895CF93DF93EC016091E6048FEE94E0C5
:1021F0000E94700E6D2F8FEE94E00E945F0B6C2F8B
:102200008FEE94E00E945F0BDF91CF910C943C0F16
:102210001F93CF93DF93182FCBEFD4E0688D898D78
:102220009A8D0E94700E898D9A8DDC01ED91FC9142
:102230000190F081E02D612F199561E0898D9A8DD3
:10224000DF91CF911F910C94F60DAF92BF92CF9278
:10225000DF92EF92FF920F931F93CF93DF93EC01E6
:102260008B0180911B0590911C050E94420C8823D4
:10227000A1F1BE0180911B0590911C050E94E1090E
:1022800040E06EEB80911B0590911C050E949F0918
:10229000E801680189E0C80ED11CA0901B05B09030
:1022A0001C0588E0E82EF12C01E010E0C5010E9439
:1022B0000E0A8111102B000F81E0E81AF108B1F726
:1022C0001993CC15DD0549F780911B0590911C05EC
:1022D0000E94420C91E0813009F090E0892FDF915B
:1022E000CF911F910F91FF90EF90DF90CF90BF9013
:1022F000AF900895CF92DF92EF92FF920F931F93CA
:10230000CF93DF936C017A018B01C0E0D0E0CE1552
:10231000DF0589F0D8016D918D01D601ED91FC9119
:102320000190F081E02DC6011995892B11F47E01F1
:1023300002C02196ECCFC701DF91CF911F910F9181
:10234000FF90EF90DF90CF9008953FB7F894809181
:102350003D0590913E05A0913F05B091400526B501
:10236000A89B05C02F3F19F00196A11DB11D3FBFCD
:10237000BA2FA92F982F8827820F911DA11DB11D5B
:10238000BC01CD0142E0660F771F881F991F4A9557
:10239000D1F7089508950E94F9218CEB93E00E94F3
:1023A000AA0B21E0892B09F420E0822F08950C94D8
:1023B00061211F920F920FB60F9211240BB60F924C
:1023C0002F933F934F935F936F937F938F939F933D
:1023D000AF93BF93EF93FF938CEB93E00E94900E2B
:1023E000FF91EF91BF91AF919F918F917F916F91ED
:1023F0005F914F913F912F910F900BBE0F900FBEA9
:102400000F901F9018951F920F920FB60F921124E4
:102410000BB60F922F938F939F93EF93FF93E091BF
:10242000CC03F091CD038081E091D203F091D303EE
:1024300082FD12C090818091D5038F5F8F732091B0
:10244000D603821751F0E091D503F0E0E454FC4F3D
:10245000958F8093D50301C08081FF91EF919F916B
:102460008F912F910F900BBE0F900FBE0F901F906A
:102470001895863308F0865390917B00282F28709A
:10248000977F922B90937B008770806480937C0071
:1024900080917A00806480937A0080917A0086FD32
:1024A000FCCF809178002091790090E0922B0895E4
:1024B000362F90E0FC01EF58FD4F4491FC01E55EA2
:1024C000FA4F2491FC01EB52FB4F9491992309F4AC
:1024D0006BC0442309F455C050E0FA013197E23152
:1024E000F10508F04EC08827EC57FF4F8F4F0C9432
:1024F0005525809180008F7707C0809180008F7D67
:1025000003C080918000877F809380003AC084B5AB
:102510008F7702C084B58F7D84BD33C08091B000B9
:102520008F7703C08091B0008F7D8093B00029C069
:10253000809190008F7707C0809190008F7D03C0BD
:1025400080919000877F809390001BC08091A000B5
:102550008F7707C08091A0008F7D03C08091A0007D
:10256000877F8093A0000DC0809120018F7707C0E6
:10257000809120018F7D03C080912001877F80930F
:102580002001E92FF0E0EE0FFF1FEF59FA4FA59160
:10259000B4918FB7F894EC91311103C020952E239C
:1025A00001C02E2B2C938FBF0895CF93DF9390E023
:1025B000FC01E55EFA4F2491FC01EB52FB4F849144
:1025C000882361F190E0880F991FFC01E95AFD4FC3
:1025D000C591D491FC01EF59FA4FA591B4916111C5
:1025E00009C09FB7F8948881209582238883EC9155
:1025F0002E230BC0623061F49FB7F8943881822F8C
:10260000809583238883EC912E2B2C939FBF06C04B
:102610008FB7F894E8812E2B28838FBFDF91CF915D
:1026200008958F929F92AF92BF92CF92DF92EF92D6
:10263000FF926B017C010E94A5114B015C01C1144A
:10264000D104E104F104F1F00E94A511DC01CB01F9
:1026500088199909AA09BB09883E9340A105B105CB
:1026600070F321E0C21AD108E108F10888EE880E63
:1026700083E0981EA11CB11CC114D104E104F10433
:1026800019F7DDCFFF90EF90DF90CF90BF90AF9024
:102690009F908F9008952FB7F894609139057091AD
:1026A0003A0580913B0590913C052FBF08951F92FC
:1026B0000F920FB60F9211242F933F938F939F93F6
:1026C000AF93BF938091390590913A05A0913B0556
:1026D000B0913C053091380523E0230F2D3720F4CD
:1026E0000196A11DB11D05C026E8230F0296A11D6C
:1026F000B11D209338058093390590933A05A09336
:102700003B05B0933C0580913D0590913E05A0911D
:102710003F05B09140050196A11DB11D80933D0577
:1027200090933E05A0933F05B0934005BF91AF91B4
:102730009F918F913F912F910F900FBE0F901F90FF
:1027400018950895CF93DF93CDB7DEB7EB970FB60B
:10275000F894DEBF0FBECDBF789484B5826084BD8F
:1027600084B5816084BD85B5826085BD85B5816095
:1027700085BD80916E00816080936E001092810013
:1027800080918100826080938100809181008160CE
:10279000809381008091800081608093800080918F
:1027A000B10084608093B1008091B000816080931B
:1027B000B00080919100826080939100809191009F
:1027C000816080939100809190008160809390005F
:1027D0008091A10082608093A1008091A10081601E
:1027E0008093A1008091A00081608093A0008091DF
:1027F0002101826080932101809121018160809379
:1028000021018091200181608093200180917A00D4
:10281000846080937A0080917A00826080937A004D
:1028200080917A00816080937A0080917A0080683C
:1028300080937A001092C10061E084E00E94D5127A
:1028400061E089E00E94D51280E592E00E94DC0FF1
:102850004AE068EE73E080E090E00E949B0F86E41F
:1028600092E00E94DC0F4AE064EF71E080E090E0CB
:102870000E949B0F8AE392E00E94DC0F4AE068EE20
:1028800073E080E090E00E949B0F81E592E00E945F
:102890001A0FC12CD12CFBECAF2EF7E0BF2E61E05C
:1028A00084E00E945812C5010197F1F760E084E0CE
:1028B0000E945812C5010197F1F72FEFC21AD20AF0
:1028C00048EEC41643E0D40651F7E091CC03F091F2
:1028D000CD0382E08083E091C803F091C9031082A8
:1028E000E091CA03F091CB038FEC80831092D40364
:1028F000E091D003F091D10386E08083E091CE0394
:10290000F091CF03808180618083E091CE03F091CC
:10291000CF03808188608083E091CE03F091CF0364
:10292000808180688083E091CE03F091CF03808125
:102930008F7D80838CE493E00E94FD0FE0911B0566
:10294000F0911C05138615861486DF011B963396BD
:102950001E92AE17BF07E1F710921A0511E0BE01F3
:102960006F5F7F4F80911B0590911C050E94320A7A
:10297000882309F44BC067E0CE0101960E944D09FF
:1029800098858913ECCF80911605811128C080911C
:102990001B0590911C050E94420CBE016F5F7F4F8A
:1029A00080911B0590911C050E94E10940E064EBB9
:1029B00080911B0590911C050E949F0980911B0529
:1029C00090911C050E940E0AE82E80911B059091A3
:1029D0001C050E94420CEE2011F40C947B1FE09029
:1029E0001705CE0101960E946D098E1518F480918D
:1029F000170504C0CE0101960E946D09809317054A
:102A000080911A058F5F80931A05A9CF8AE0809381
:102A10001705C12CD12C5FE5E52E6FE7B62E7FE1BF
:102A2000A72EEFE39E2E80911A0590E0C816D906D6
:102A30000CF09BC06C2DCE010A960E94C20A109128
:102A40001705193020F01D3018F01CE001C019E006
:102A5000CE010A960E946D09811709F482C0BE0159
:102A60006F5F7F4FCE010A960E945A09882309F4AE
:102A700078C08A85803109F474C01B3041F01C3065
:102A800021F01A3031F49D8205C0BD8203C0ED8271
:102A900001C0AD8280911B0590911C050E94420CE3
:102AA000BE01665F7F4F80911B0590911C050E94BF
:102AB000E10940E06EE480911B0590911C050E94A5
:102AC0009F0940E06B8180911B0590911C050E943D
:102AD0009F0940E06C8180911B0590911C050E942C
:102AE0009F098A85803141F040E06D8180911B050E
:102AF00090911C050E949F0980911B0590911C05D7
:102B00000E94420CBE01665F7F4F80911B05909131
:102B10001C050E94E1094091160568E480911B059F
:102B200090911C050E949F0964E170E080E090E0B4
:102B30000E94111380911605882331F06AE070E03D
:102B400080E090E00E94111380911B0590911C057C
:102B50000E94420C80911705181708F4182F109343
:102B600017055FEFC51AD50A5ECF10921805809140
:102B70001B0590911C050E94420C40E06CEC80917A
:102B80001B0590911C050E949F094091160564E465
:102B900080911B0590911C050E949F09809118054A
:102BA0008823A9F0E0911705E950E33040F4F0E004
:102BB000EE0FFF1FE15FFD4F6081718102C06EEE7D
:102BC00072E0882777FD8095982F0E9411138091DD
:102BD0001405909115050E94860E60911305809151
:102BE0001405909115050E94700E61E08091140506
:102BF000909115050E94F60D882329F08EE293E04E
:102C00000E94FD0F50C08EE10E94081163E070E049
:102C100080E090E00E9411133BEFC32E34E0D32EEE
:102C200010EAD6011D921C92812F0E94081160911A
:102C30001305772767FD709542E050E080911405F9
:102C4000909115050E947A0E8091140590911505BA
:102C5000DC01ED91FC910680F781E02D1995F601DC
:102C6000108281838091140590911505DC01ED910E
:102C7000FC910680F781E02D1995F60120813181C4
:102C8000820F931FD6018D939D936D0161E080911A
:102C90001405909115050E94F60D1E5F103B09F674
:102CA00081E0809302038FEE94E00E94860E84E41C
:102CB0008093E60482EA90E30E94F1106AE070E0FB
:102CC00080E090E00E94111311E01093030388ED5F
:102CD00094E00E94D107811105C080EF92E00E942C
:102CE000DC0F20C01093DD0460E070E088ED94E01C
:102CF0000E94240984E592E00E942C0F89E792E06B
:102D00000E943A0F88E892E00E942C0F8DE892E032
:102D10000E943A0F8CE992E00E942C0F84E592E029
:102D20000E942C0F81E0809359048EE180935B0414
:102D30009BE690935A049093C9048093C8048091B1
:102D40005D0490915E04853F910569F0843FB1E098
:102D50009B0749F0803D974031F085EF90E09093DC
:102D60005E0480935D0480916D04823049F084306C
:102D700039F0883029F0803119F082E080936D04B9
:102D800080917604982F977F943039F0883029F01D
:102D9000803119F084E08093760460915D04709135
:102DA0005E0480E090E00E94712320E030E040E08B
:102DB00058E30E9453246093CA047093CB04809319
:102DC000CC049093CD0480917604883089F038F457
:102DD0008430F9F487EF9CECA2E1B9E312C08C30A7
:102DE00061F08031B1F484E29BE0A8E1BAE309C06C
:102DF00084E29BE0A8E9B9E304C08FE991E7A1EE82
:102E0000B9E38093D2049093D304A093D404B093F5
:102E1000D50460916D0470E080E090E00E94712321
:102E200020E030E040E058E30E9453246093CE0459
:102E30007093CF048093D0049093D1048FEE94E0EC
:102E40000E94860E80915904813031F48091C8042B
:102E50000E94BB10082F0CC081110AC021E0AE01F6
:102E60004F5F5F4F6FE08091C8040E947B10098123
:102E700080915904813031F48091C9040E94BB10C3
:102E8000F82E0CC081110AC021E0AE014F5F5F4FE8
:102E90006FE08091C9040E947B10F98010E01F2927
:102EA0000D33184611F00C947F1F80915C04882329
:102EB00031F080915F048295880F807E01C080E0B0
:102EC00020915D0430915E04243F41E0340729F0F5
:102ED000203D374019F4886101C08860609160042A
:102EE0006370682B80E10E94431060E081E10E94E2
:102EF000431080916104811102C060E001C060E86C
:102F000080916204882329F0809163048F7080642B
:102F1000682B82E10E94431080916A04882311F09B
:102F200060E201C060E0809169048111606180917C
:102F300068048111686080916B04811162608EE188
:102F40000E94431080916404882311F060E201C064
:102F500060E0809165048111606180916604811157
:102F6000686083E10E94431080917104882311F00E
:102F700060E201C060E08091700481116061809125
:102F80006F04811168608FE10E94431080916C048E
:102F9000882331F060916E046295660F607E01C0F7
:102FA00060E080916D04883031F0803131F0843000
:102FB00029F4606103C0686101C068608091720497
:102FC00087FD03C064608370682B80E20E94431019
:102FD00080917304882349F060917404637080E2E7
:102FE000689FB0011124606801C060E081E20E9426
:102FF000431080917804882311F060E801C060E0FC
:1030000020917704277094E0299F900111249091DA
:1030100079049370A0E29A9FC0011124822B682B3F
:1030200080E20E940B10E0917604E850E93028F429
:10303000F0E0EA5FFD4F608101C060E081E20E9444
:103040000B1080917B04882311F080E201C080E0A6
:1030500060917C046370682B82E20E940B10609187
:103060007A046370660F660F83E20E940B1060E0C3
:1030700084E20E940B108FEE94E00E94860E66E3BD
:103080008FEE94E00E94700E66E08FEE94E00E9456
:103090005F0B60E48FEE94E00E945F0B60E08FEEC8
:1030A00094E00E945F0B0E943C0F86E30E9439125D
:1030B00061E089E00E94D512EAE7F2E0E4918E2F08
:1030C00090E0FC013197E231F10508F0B9C08827A2
:1030D000EE58FF4F8F4F0C94552584B5806884BD02
:1030E0008FE787BDB1C084B5806284BD8FE788BD9E
:1030F000ABC0809180008068809380008FE790E073
:1031000090938900809388009FC0809180008062A6
:10311000809380008FE790E090938B0080938A00EB
:1031200093C0809180008860809380008FE790E05A
:1031300090938D0080938C0087C08091B000806850
:103140008093B0008FE78093B3007EC08091B00081
:1031500080628093B0008FE78093B40075C0809147
:1031600090008068809390008FE790E090939900A2
:103170008093980069C08091900080628093900055
:103180008FE790E090939B0080939A005DC08091C0
:1031900090008860809390008FE790E090939D006E
:1031A00080939C0051C08091A00080688093A00013
:1031B0008091A0008F7B8093A0008FE790E0909398
:1031C000A9008093A80040C08091A00080628093F5
:1031D000A0008FE790E09093AB008093AA0034C0EA
:1031E0008091A00088608093A0008FE790E090938A
:1031F000AD008093AC0028C080912001806880934E
:1032000020018FE790E090932901809328011CC052
:10321000809120018062809320018FE790E090935D
:103220002B0180932A0110C0809120018860809337
:1032300020018FE790E090932D0180932C0104C032
:1032400060E089E00E9458121B8A1A8A8091030369
:10325000882351F10E943B06882369F04091EB04DA
:103260005091EC046091ED047091EE04488F598FF9
:103270006A8F7B8F08C060E070E080EC9FE7688F0A
:10328000798F8A8F9B8F0E943B068823B1F08091B3
:10329000E7049091E804A091E904B091EA048C8BD2
:1032A0009D8BAE8BBF8B11C01C8A1D8A1E8A1F8A04
:1032B000188E198E1A8E1B8E08C040E050E060EC0C
:1032C0007FE74C8B5D8B6E8B7F8B80910203882315
:1032D00009F491C160910B0570910C0580910D0569
:1032E00090910E0568A379A38AA39BA380910F05F3
:1032F00090911005A0911105B09112058CA39DA38A
:10330000AEA3BFA388E10E94AE056B017C0188E0FB
:103310000E94AE054B015C01C701B6010E947123FA
:103320006B017C01609105057091060580E090E0DD
:103330000E94712320E030E040E853E40E945324CF
:103340009B01AC01C701B6010E940D226B017C01FB
:103350006091FF047091000580E090E00E9471236D
:1033600020E030E040E058E40E9453242B013C016F
:10337000609103057091040580E090E00E94712344
:103380009B01AC01C701B6010E94532420E030E04C
:1033900040E85CE30E9453249B01AC01C301B201ED
:1033A0000E940E226CA77DA78EA79FA76091FD04A7
:1033B0007091FE0480E090E00E94712320E030E0F4
:1033C00040E857E40E9453242B013C016091010521
:1033D0007091020580E090E00E9471239B01AC0196
:1033E000C701B6010E94532420E030E040E05CE3D6
:1033F0000E9453249B01AC01C301B2010E940E2222
:1034000068AB79AB8AAB9BAB6091070570910805FF
:1034100080E090E00E9471239B01AC01C701B601DE
:103420000E94532420E030E040E054E30E94532403
:1034300020E030E04AEF54E40E940E222B013C01D0
:10344000C501B4010E9471236CAB7DAB8EAB9FAB09
:1034500020E030E04AEF54E4C301B2010E94D422DC
:1034600087FF7BC0A7019601C701B6010E945324C4
:1034700020E030E040E050E30E94532468A779A7A1
:103480008AA79BA720E030E04AEF54E4C301B201D1
:103490000E940D224B015C0120E030E044E752E441
:1034A0000E945324A50194010E94532420E030E09F
:1034B00040E85DE30E9453246B017C01A501940167
:1034C000C501B4010E940E22A50194010E9453245B
:1034D0004B015C0120E030E84BEB54ECC301B2013E
:1034E0000E94D42287FF42C020E030E84BEB54E436
:1034F000C301B2010E940E226C8F7D8F8E8F9F8F31
:1035000020E030E040E751E40E9453242C8D3D8DB3
:103510004E8D5F8D0E9453249B01AC01C701B60103
:103520000E940E226B017C0120E030E040E051E47B
:103530006C8D7D8D8E8D9F8D0E9453242C8D3D8DA5
:103540004E8D5F8D0E9453249B01AC01C501B401D7
:103550000E940E224B015C0109C0812C912C540168
:103560007501640188A699A6AAA6BBA628A539A5B7
:103570004AA55BA5C301B2010E940D2260930F050D
:10358000709310058093110590931205A501940185
:1035900068A979A98AA99BA90E940D229B01AC0167
:1035A0006CA97DA98EA99FA90E94532420E030E038
:1035B00040E055E30E9453244B015C01A7019601B2
:1035C0006CA57DA58EA59FA50E940D229B01AC0137
:1035D000C501B4010E940D2220E030E040E058E334
:1035E0000E94532460930B0570930C0580930D0586
:1035F00090930E0508C018A219A21AA21BA21CA221
:103600001DA21EA21FA2BE016F5F7F4F80E090E04F
:103610000E9425118981882309F4CDC060E0CE0184
:103620000A960E94C20A811109C02AE9C22E29E91C
:10363000D22E24E4E22E23ECF22E51C0BE016F5FA5
:103640007F4FCE010A960E945A09882359F1698159
:1036500098E0699FB00111248A81282F30E0322F31
:103660002227330F330F330F262B372B8A858031D8
:10367000E1F4688570E08F81DB01A81BB109CD0101
:103680009695982F8827979587950E941F256051BA
:103690007109207F83E0220F331F8A95E1F7620FC3
:1036A000731F04C060E874EE01C0B9016138B4EE64
:1036B0007B070CF4BACF882777FD8095982F0E945E
:1036C000732326E636E646E65CE30E94532420E0B8
:1036D00030E040E052E40E940E226B017C0160E089
:1036E000CE010A960E94C20ACE010A960E946D0976
:1036F000182F882309F462C080911B0590911C0546
:103700000E94420C882309F459C0BE01665F7F4FB6
:1037100080911B0590911C050E94E10940911605BE
:1037200064E480911B0590911C050E949F09809183
:103730001805882309F442C01950133048F4E12FCA
:10374000F0E0EE0FFF1FE15FFD4F0081118102C02D
:103750000EEE12E080911905882329F1809116055B
:10376000811121C00E944B134B015C01280166248A
:1037700057FC6094762CBE016F5F7F4FCE010A9696
:103780000E9425118981811119C00E944B13DC010F
:10379000CB0184199509A609B70988159905AA05C9
:1037A000BB0548F30BC0B801882777FD8095982F9B
:1037B0000E94111303C0C12CD12C760182E00E941B
:1037C0006A05B4E096958795BA95E1F7BC0180E06B
:1037D00090E00E94712320E030E048E454E40E942D
:1037E000D8222B013C0184E00E946A058C01AE01C5
:1037F000465F5F4FBE016E5E7F4F88ED94E00E9492
:1038000032084A855B856A897B8988ED94E00E944D
:10381000D4060E9471234B015C0120E030E0A90135
:10382000C301B2010E94D422882371F181EB93E09D
:103830000E94DC0FC301B2010E9467058EEA93E08B
:103840000E94DC0F612F772780E090E00E947123B7
:103850002B013C01B8017727882777FD8095982FA9
:103860000E94732320E030E040E85BE30E94532491
:103870009B01AC01C301B2010E940E220E946705A8
:103880008CEA93E00E94FD0F2C893D894E895F8967
:10389000CA01B9010E94FB24811107C06C897D898E
:1038A0008E899F890E94670504C089EA93E00E947F
:1038B000DC0F86EA93E00E94DC0F288D398D4A8D5B
:1038C0005B8DCA01B9010E94FB24811115C026E657
:1038D00036E646EE5FE3688D798D8A8D9B8D0E947A
:1038E000532420E030E040E052E40E940E220E9487
:1038F000670583EA93E002C080EA93E00E94DC0F50
:1039000086E30E9439120E941804609109057091A3
:103910000A05DB01AF70BB27CB01882790930A050E
:103920008093090580E090E040E050E09A013595F1
:103930002795220F331FF901E550FB4F40FF04C0CC
:1039400020818227E8E008C02180312C8225932540
:10395000F9CFC901E15049F09C01220F331F97FFB5
:10396000F8CFC901F0E39F27F5CF4F5F5F4F40319C
:103970005105E1F670930A0560930905892F99278F
:1039800082958F70A817B90709F568A179A18AA156
:103990009BA10E9467058CE993E00E94DC0F2CEB51
:1039A00034E743E95CE36CA17DA18EA19FA10E9455
:1039B000532420E030E040E052E40E940E220E94B6
:1039C000670589E993E00E94FD0F04C082E993E056
:1039D0000E94DC0F88E893E00E94DC0FC701B6016B
:1039E0000E94670585E893E00E94FD0F8FE793E052
:1039F0000E94DC0F89E30E9439120E94180420E023
:103A000030E0A901C501B4010E94D4228823F9F055
:103A1000C501B4010E94670582EA92E00E943A0F54
:103A20006A897B8980E090E04AE00E949B0F89E7E9
:103A300093E00E94DC0F6A857B8580E090E04AE09D
:103A40000E949B0F81E592E00E941A0F04C084EB54
:103A500092E00E942C0FBE016F5F7F4F88E10E94B1
:103A600076042A8130E0322F22278981282B309357
:103A70007F0420937E048C8190E0982F88274B81CF
:103A8000BC01642BAB0150938104409380048E8170
:103A900090E0982F88276D81862B909383048093E4
:103AA00082046091D6046623F1F06091B6047091AF
:103AB000B704261B370B30937F0420937E0420919C
:103AC000B8043091B904421B530B509381044093C6
:103AD00080042091BA043091BB04821B930B909315
:103AE00083048093820484EC92E00E943A0F6091F8
:103AF0007E0470917F04882777FD8095982F0E941F
:103B0000E60388EC92E00E943A0F60918004709185
:103B10008104882777FD8095982F0E94E60388EC22
:103B200092E00E943A0F80918204909183040E9457
:103B30001804BE016F5F7F4F88E20E9476042A81DD
:103B400030E0322F22278981282B3093850420935F
:103B500084048C8190E0982F88274B81DC01A42B72
:103B6000AD0150938704409386048E8190E0982F96
:103B700088276D81862B90938904809388046091B7
:103B8000D6046623F1F06091BC047091BD04261B3D
:103B9000370B30938504209384042091BE04309128
:103BA000BF04421B530B509387044093860420911B
:103BB000C0043091C104821B930B909389048093BD
:103BC00088048BEC92E00E943A0F6091840470911B
:103BD0008504882777FD8095982F0E94E60388EC5E
:103BE00092E00E943A0F60918604709187048827C2
:103BF00077FD8095982F0E94E60388EC92E00E9462
:103C00003A0F80918804909189040E941804809151
:103C10005904813049F4AE014F5F5F4F68E28091F3
:103C2000C8040E942B040BC0811109C026E0AE011C
:103C30004F5F5F4F68E28091C8040E947B108A81C9
:103C400090E0982F88272981822B90938B04809372
:103C50008A048C8190E0982F88272B81822B909367
:103C60008D0480938C048E8190E0982F88272D817D
:103C7000822B90938F0480938E048FEC92E00E94AD
:103C80003A0F60918A0470918B04882777FD8095A4
:103C9000982F0E94E60388EC92E00E943A0F609110
:103CA0008C0470918D04882777FD8095982F0E9451
:103CB000E60388EC92E00E943A0F80918E04909186
:103CC0008F040E94180460918A0470918B0471958E
:103CD00061957109882777FD8095982F0E9473233D
:103CE0006C8B7D8B8E8B9F8B60918C0470918D047F
:103CF000719561957109882777FD8095982F0E94AD
:103D000073232B013C0160918804709189048827FA
:103D100077FD8095982F0E9473236B017C01609141
:103D2000860470918704882777FD8095982F0E94DC
:103D300073234B015C01A70196010E948122688FC9
:103D4000798F8A8F9B8FA5019401C501B4010E94D0
:103D500053244B015C01A7019601C701B6010E94E3
:103D600053249B01AC01C501B4010E940E220E94A4
:103D7000BA249B01AC01609184047091850488276A
:103D800077FD8095982F28AF39AF4AAF5BAF0E947F
:103D90007323905828AD39AD4AAD5BAD0E948122A6
:103DA0006B017C0120E030E0A9016C897D898E895E
:103DB0009F890E94D42281110DC020E030E0A9012A
:103DC000C301B2010E94D42287FD0DC060E070E003
:103DD000CB010DC02C893D894E895F89C301B20199
:103DE0000E94812204C060E070E084E393E42FED40
:103DF00037E549E15EE30E940E224B015C012BEDA9
:103E00003FE049E450E40E94482418164CF42BED9E
:103E10003FE049EC50E4C501B4010E940D221BC0F3
:103E20002BED3FE049E450ECC501B4010E94D422DF
:103E300087FD09C020E030E0A901C501B4010E945E
:103E4000D42287FF0AC02BED3FE049EC50E4C501C6
:103E5000B4010E940E224B015C0183ED92E00E94AE
:103E60003A0F20EE3EE245E652E4C701B6010E9459
:103E700053240E94670588EC92E00E943A0F20EEDE
:103E80003EE245E652E4688D798D8A8D9B8D0E94D5
:103E9000532442E00E94890481E592E00E941A0FB7
:103EA00081EE92E00E943A0F20EE3EE245E652E4B7
:103EB000C501B4010E94532442E00E94890481E5B7
:103EC00092E00E941A0F8FE693E00E94DC0F0E949E
:103ED0004B1328EE33E040E050E00E943325CA0146
:103EE000B9014AE00E949B0F86E693E00E94FD0F15
:103EF0000E94B60BA9C9109316050C94EF148CEC14
:103F000092E00E94FD0F87EB92E00E94FD0FB3C884
:103F10001092F2041092F10488EE93E0A0E0B0E079
:103F20008093F3049093F404A093F504B093F60403
:103F300029E132E03093F0042093EF041092BF03A4
:103F40001092BE038093C0039093C103A093C20359
:103F5000B093C30389E292E09093BD038093BC03C6
:103F600085EC90E09093C9038093C80384EC90E0C3
:103F70009093CB038093CA0380EC90E09093CD03A1
:103F80008093CC0381EC90E09093CF038093CE0399
:103F900082EC90E09093D1038093D00386EC90E084
:103FA0009093D3038093D2031092D5031092D6033B
:103FB0001092D7031092D80380E68093370560E013
:103FC00082E00E94D512EDE1F5E0E491E09329054D
:103FD000E7EDF4E0E491F0E0EE0FFF1FE554FB4F56
:103FE0008591949190932B0580932A051092340526
:103FF0001092360510923505E4E3F5E0129285E063
:10400000EC32F807D9F785EF9AE090932805809372
:10401000270589E295E090931C0580931B0510927B
:104020001A051092160589E08093170581E08093A8
:1040300018058093190596E7909313052FEE34E049
:10404000309315052093140529E332E03093D90409
:104050002093D80499E39093DB041092DC0410922F
:10406000DD041092DF041092DE041092E10410923D
:10407000E00449E350E360E070E04093E2045093D1
:10408000E3046093E4047093E504809359049BE691
:1040900090935A049EE190935B0480935C04809318
:1040A00068048093690480936A0425EF30E03093BC
:1040B0005E0420935D0496E090935F041092600488
:1040C00010926104109262041092630410926404CE
:1040D00010926504109266041092670480936B043A
:1040E00080936C0480936F048093700480937104B8
:1040F00022E020936D0490936E049FEF90937204DE
:1041000010927304109274048093750494E0909359
:10411000760497E0909377041092780493E090935C
:10412000790490937A0410927B0410927C0480931B
:104130007D04E9E5F4E020E030E011AE12AE13AE0C
:1041400014AEDF01AB5BBF4F1D921D921D921C92FE
:1041500013971C961D921D921D921C921397C901D4
:10416000875A9B4FDC01A35ABF4F11961C921E9297
:10417000169611961C921E9216961D921C923496BB
:104180002E5F3F4F26303105C1F61092D6040895B8
:104190000895F8940C948025CF93DF938230910595
:1041A00010F482E090E0E0914305F091440520E0B6
:1041B00030E0C0E0D0E0309711F1408151814817E4
:1041C0005907C0F04817590761F4828193812097FD
:1041D00019F09B838A832BC09093440580934305F9
:1041E00026C02115310519F04217530718F49A011A
:1041F000BE01DF01EF010280F381E02DDCCF21154C
:10420000310509F1281B390B2430310590F4129641
:104210008D919C9113976115710521F0FB0193839A
:10422000828304C09093440580934305FD01329638
:1042300044C0FD01E20FF31F819391932250310995
:104240002D933C933AC02091410530914205232B98
:1042500041F42091020230910302309342052093F1
:10426000410520910002309101022115310541F4F0
:104270002DB73EB74091040250910502241B350B27
:10428000E0914105F0914205E217F307A0F42E1BDF
:104290003F0B2817390778F0AC014E5F5F4F2417AA
:1042A000350748F04E0F5F1F50934205409341057C
:1042B0008193919302C0E0E0F0E0CF01DF91CF91D4
:1042C00008950F931F93CF93DF93009709F48CC049
:1042D000FC0132971382128200914305109144052C
:1042E0000115110581F420813181820F931F2091E6
:1042F0004105309142052817390779F5F0934205B9
:10430000E093410571C0D80140E050E0AE17BF070F
:1043100050F412962D913C911397AD012115310562
:1043200009F1D901F3CF9D01DA0133832283608142
:104330007181860F971F8217930769F4EC0128811A
:104340003981260F371F2E5F3F4F318320838A81AB
:104350009B8193838283452B29F4F0934405E0935A
:10436000430542C01396FC93EE931297ED014991D9
:1043700059919E01240F351FE217F30771F48081D4
:104380009181840F951F029611969C938E93828142
:10439000938113969C938E931297E0E0F0E0D801FE
:1043A00012968D919C911397009719F0F8018C014A
:1043B000F6CF8D919C9198012E5F3F4F820F931FF6
:1043C00020914105309142052817390769F430974B
:1043D00029F4109244051092430502C01382128200
:1043E0001093420500934105DF91CF911F910F91EA
:1043F000089581E090E0F8940C948025FB01DC01A5
:104400004150504048F001900D920020C9F701C082
:104410001D9241505040E0F708955058BB27AA27FD
:104420000ED0FCC1EDD130F0F2D120F031F49F3F3D
:1044300011F41EF4BDC10EF4E095E7FBB3C1E92F02
:10444000FED180F3BA17620773078407950718F047
:1044500071F49EF516C20EF4E0950B2EBA2FA02D26
:104460000B01B90190010C01CA01A0011124FF2721
:10447000591B99F0593F50F4503E68F11A16F0401C
:10448000A22F232F342F4427585FF3CF469537951B
:104490002795A795F0405395C9F77EF41F16BA0BE0
:1044A000620B730B840BBAF09150A1F0FF0FBB1F8E
:1044B000661F771F881FC2F70EC0BA0F621F731FD7
:1044C000841F48F4879577956795B795F7959E3F34
:1044D00008F0B3CF9395880F08F09927EE0F9795C2
:1044E000879508958DD158F080E891E009F49EEF0A
:1044F0008ED128F040E851E059F45EEF09C058C170
:10450000C0C1E92FE0789BD168F3092E052AC1F3D9
:10451000261737074807590738F00E2E07F8E02509
:1045200069F0E025E0640AC0EF6307F8009407FA39
:10453000DB01B9019D01DC01CA01AD01EF9347D058
:104540006DD10AD05F91552331F02BED3FE049E466
:1045500050FD49EC63CF0895DF93DD27B92FBF7776
:1045600040E85FE31616170648075B0710F4D92FDB
:1045700093D19F938F937F936F933AD2ECE2F1E0C4
:104580001AD14CD12F913F914F915F9198D1DD235A
:1045900049F09058A2EA2AED3FE049EC5FE3D07879
:1045A0005D274DDFDF913AC1D9D008F481E008954D
:1045B0000CD034C12CD140F023D130F021F45F3F36
:1045C00019F0F0C051115EC1F3C039D198F39923AD
:1045D000C9F35523B1F3951B550BBB27AA276217C7
:1045E0007307840738F09F5F5F4F220F331F441F0C
:1045F000AA1FA9F333D00E2E3AF0E0E830D0915044
:104600005040E695001CCAF729D0FE2F27D0660F30
:10461000771F881FBB1F261737074807AB07B0E86F
:1046200009F0BB0B802DBF01FF2793585F4F2AF085
:104630009E3F510568F0B6C025C15F3FECF3983E40
:10464000DCF3869577956795B795F7959F5FC9F7E2
:10465000880F911D9695879597F90895E1E0660F6B
:10466000771F881FBB1F621773078407BA0720F0E4
:10467000621B730B840BBA0BEE1F88F7E09508954D
:1046800004D06894B111FEC00895E1D088F09F571E
:1046900090F0B92F9927B751A0F0D1F0660F771F8E
:1046A000881F991F1AF0BA95C9F712C0B13081F06E
:1046B000E8D0B1E00895E5C0672F782F8827B85F6C
:1046C00039F0B93FCCF3869577956795B395D9F7CF
:1046D0003EF490958095709561957F4F8F4F9F4FD9
:1046E0000895E89409C097FB3EF4909580957095E5
:1046F00061957F4F8F4F9F4F9923A9F0F92F96E92E
:10470000BB279395F695879577956795B795F111A2
:10471000F8CFFAF4BB0F11F460FF1BC06F5F7F4F3F
:104720008F4F9F4F16C0882311F096E911C0772351
:1047300021F09EE8872F762F05C0662371F096E85A
:10474000862F70E060E02AF09A95660F771F881F29
:10475000DAF7880F9695879597F90895990F0008CD
:10476000550FAA0BE0E8FEEF16161706E807F90743
:10477000C0F012161306E407F50798F0621B730BDE
:10478000840B950B39F40A2661F0232B242B252B5F
:1047900021F408950A2609F4A140A6958FEF811D02
:1047A000811D089597F99F6780E870E060E00895A3
:1047B0009FEF80EC0895DF93CF931F930F93FF92A9
:1047C000EF92DF927B018C01689405C0DA2EEF0135
:1047D00076D0FE01E894A5912591359145915591AA
:1047E000AEF3EF012CDEFE019701A801DA9479F710
:1047F000DF90EF90FF900F911F91CF91DF9108957F
:1048000000240A94161617061806090608950024AF
:104810000A9412161306140605060895092E039429
:10482000000C11F4882352F0BB0F40F4BF2B11F49D
:1048300060FF04C06F5F7F4F8F4F9F4F089557FDFC
:104840009058440F551F59F05F3F71F04795880FFE
:1048500097FB991F61F09F3F79F087950895121695
:1048600013061406551FF2CF4695F1DF08C0161641
:1048700017061806991FF1CF8695710561050894F2
:104880000895E894BB2766277727CB0197F9089509
:1048900065DF08F48FEF08959B01AC0160E070E0E4
:1048A00080E89FE385CE0BD0B9CFAADF28F0AFDF39
:1048B00018F0952309F076CF7BCF1124E3CFBFDF2B
:1048C000A0F3959FD1F3950F50E0551F629FF00123
:1048D000729FBB27F00DB11D639FAA27F00DB11D7C
:1048E000AA1F649F6627B00DA11D661F829F222705
:1048F000B00DA11D621F739FB00DA11D621F839F8C
:10490000A00D611D221F749F3327A00D611D231F61
:10491000849F600D211D822F762F6A2F11249F57AF
:1049200050408AF0E1F088234AF0EE0FFF1FBB1FD2
:10493000661F771F881F91505040A9F79E3F510571
:1049400070F030CF9FCF5F3FECF3983EDCF386955D
:1049500077956795B795F795E7959F5FC1F7FE2B1C
:10496000880F911D9695879597F9089511F40EF487
:104970001FCF45C06CDFD0F39923D9F3CEF39F57F7
:10498000550B87FF4AD00024A0E640EA90018058EA
:104990005695979528F4805C660F771F881F20F046
:1049A00026173707480730F4621B730B840B202946
:1049B00031294A2BA69517940794202531254A279B
:1049C00058F7660F771F881F20F02617370748070C
:1049D00030F4620B730B840B200D311D411DA0952B
:1049E00081F7B901842F9158880F9695879508957E
:1049F0009B01AC0158CFB2DE880B990B08959F3F05
:104A000031F0915020F4879577956795B795880F89
:104A1000911D9695879597F9089591505040660F8E
:104A2000771F881FD2F708950E945D25A59F900DDE
:104A3000B49F900DA49F800D911D1124089597FBA4
:104A4000072E16F4009407D077FD09D00E946C253C
:104A500007FC05D03EF4909581959F4F0895709581
:104A600061957F4F0895A1E21A2EAA1BBB1BFD0181
:104A70000DC0AA1FBB1FEE1FFF1FA217B307E4073D
:104A8000F50720F0A21BB30BE40BF50B661F771F95
:104A9000881F991F1A9469F7609570958095909575
:104AA0009B01AC01BD01CF010895EE0FFF1F881FD0
:104AB0008BBF0790F691E02D1994A29FB001B39F90
:104AC000C001A39F700D811D1124911DB29F700D17
:104AD000811D1124911D0895AA1BBB1B51E107C024
:104AE000AA1FBB1FA617B70710F0A61BB70B881F7E
:104AF000991F5A95A9F780959095BC01CD0108950D
:104B000012E0CFEBD2E000E006C0802FFE010E9451
:104B100055252196011DC03CD10780E00807A9F763
:044B2000F894FFCF37
:104B24000000450520002000000040000000605EF9
:104B340000BC007701000000005F0B220B1A0B067B
:104B44000BF70AF60A00000000B10E7A11AA0B88CE
:104B54000B9C0BF80E00000000A113D7110A03C42C
:104B6400080D030000000000000000CA11CB11CBA7
:104B7400110D0A002D2D2D2D2D2D2D2D2D2D2D2DED
:104B84002D2D2D2D2D2D2D2D2D2D2D2D2D2D2D2D51
:104B94002D2D2D2D2D2D2D2D004761696E3A2020B0
:104BA40020202020202020004175746F0054696D5E
:104BB400696E673A20202020202020003133206DA8
:104BC4007300206C75782E2042726F616462616E8E
:104BD400643A200053656E736F72206F7665726C51
:104BE4006F616400473A20002C2000413A20004DB8
:104BF4003A200050697463682C20526F6C6C3A2020
:104C04000048656164696E673A200054534C32353C
:104C14003631006E616E00696E66006F7666002E36
:024C240000008E
:00000001FF
