:100000000C94F1020C9422030C9422030C9422030E
:100010000C9422030C9422030C9422030C942203CC
:100020000C9422030C9422030C9422030C942203BC
:100030000C9422030C9422030C9422030C942203AC
:100040000C9422030C9422030C9422030C9422039C
:100050000C9422030C9422030C9422030C94E814B5
:100060000C9422030C9455130C942B130C94220320
:100070000C9422030C9422030C9422030C9422036C
:100080000C9422030C9422030C9422030C9422035C
:100090000C94B4130C948A130C9422030C94950DB5
:1000A0000C9422030C9422030C9422030C9422033C
:1000B0000C9422030C9422030C9422030C9422032C
:1000C0000C9422030C9422030C9422030C9422031C
:1000D0000C9422030C9422030C9422030C9422030C
:1000E0000C9422030D1C1F1C221C291C301C5E1C9E
:1000F000651C721C7F1C8B1C8B1C8B1C8B1C8B1C13
:100100008B1C8B1C8B1C8B1C8B1C8B1C8B1C8B1CB7
:100110008B1C8B1C8B1C8B1C8B1C8B1C8B1C8B1CA7
:100120008B1C8B1C0D1C1A1C1F1C221C291C301C18
:10013000371C441C511C18141B140A140E141214DE
:1001400052141F14231429142D14311437143B1482
:100150003F145214451449144D140C9452140C9429
:1001600049140C941F1C0C94C2120C944E0B0C944A
:1001700042030C94291C0C943F0B0C9423140C94F4
:1001800029140C940A140C94C90F0C94E30B0C94CE
:1001900012130C940E140C946A0B0C94FF280C94FC
:1001A00013130C94620B0C941A1C0C943E0B0C94BD
:1001B0005E1C0C940D1C0C948B1C0C9429130C9439
:1001C00018140C944D140C94A70B0C941F140C943D
:1001D0003B140C94721C0C94651C0C9412140C941B
:1001E000221C0C9445140C94DF030C94301C0C94CA
:1001F0002F0A0C943F140C941B140C94511C0C9457
:10020000D00B0C94371C0C94820F0C9437140C9464
:100210002D140C943D0B0C94441C0C947F1C0C94DA
:100220002E260C9432150C9431140C94F10B2044AE
:1002300075726174696F6E3A200020537175617236
:10024000653A2000467265713A20000000210024C2
:100250000027002A002D00300033000101000004B7
:100260000107010A01446F75626C652D636865635F
:100270006B20776972696E672E004661696C6564F0
:1002800020746F20636F6D6D756E69636174652096
:1002900077697468204C534D394453312E004F6FA9
:1002A0006F70732C206E6F2054534C3235363120D2
:1002B0006465746563746564202E2E2E2043686522
:1002C000636B20796F757220776972696E67206F32
:1002D0007220493243204144445221004572726FDA
:1002E0007220636F6E6E656374696E6720746F2031
:1002F0004D53353630372E2E2E00486172647761AB
:1003000072652053657269616C20627566666572FC
:100310002073697A653A2000496E697469616C6975
:100320007A696E67204750532E2E2E0052657374E3
:10033000617274696E672048414220436F6E747227
:100340006F6C6C657200207365636F6E647300552B
:10035000702074696D653A20004352432045525223
:100360004F523A20006D002C20006465672C20005D
:100370006D70732C20002C2000206D002C20002C90
:1003800020002C20002C200046200044533138420D
:1003900032303A2000462000506120002F002F000C
:1003A000473A002F002F00413A002F002F004D58F0
:1003B0003A002F002F002F0046204C3A00585800DA
:1003C0004620002520005858002500562000566F72
:1003D0006C746167653A2000005EBCE2613FDD83BA
:1003E000C29C7E20A3FD1F419DC3217FFCA2401E15
:1003F0005F01E3BD3E6082DC237D9FC1421CFEA005
:10040000E1BF5D0380DE3C62BEE0025CDF81633DF4
:100410007C22C09E1D43A1FF4618FAA427799BC5E4
:1004200084DA3866E5BB5907DB856739BAE40658D4
:100430001947A5FB7826C49A653BD987045AB8E6C4
:10044000A7F91B45C6987A24F8A6441A99C7257BB4
:100450003A6486D85B05E7B98CD2306EEDB3510FA4
:100460004E10F2AC2F7193CD114FADF3702ECC9294
:10047000D38D6F31B2EC0E50AFF1134DCE90722C84
:100480006D33D18F0C52B0EE326C8ED0530DEFB174
:10049000F0AE4C1291CF2D73CA947628ABF5174964
:1004A0000856B4EA6937D58B5709EBB536688AD454
:1004B00095CB2977F4AA4816E9B7550B88D6346A44
:1004C0002B7597C94A14F6A8742AC896154BA9F734
:1004D000B6E80A54D7896B350000200023002600B7
:1004E00029002C002F00320000010000030106014A
:1004F00009010505050507050808080802020202AA
:100500000A0A0808040404040101010101010101AF
:100510000303030303030303040707070C0C0C0C7A
:100520000C0C0C0C02020202060606060606060663
:100530000B0B0B0B0B0B0B0B0102102020080810F0
:100540002040102040800201020108040201010243
:10055000040810204080804020100804020180041C
:100560000201804020100804020108040201010277
:100570000408102040800102040810204080000080
:100580002200250028002B002E003100340002013B
:100590000000050108010B0100000A0B02090C0D07
:1005A0000E08070304010000000000000000000026
:1005B000000000000000000000000000000000003B
:1005C00000000000121110000000000000000000F8
:1005D00000000000000000000000000000002E26C7
:1005E000FF2811241FBECFEFD1E2DEBFCDBF00E058
:1005F0000CBF12E0A0E0B2E0EAE8FAE500E00BBFD1
:1006000002C007900D92A038B107D9F718E0A0E812
:10061000B2E001C01D92A330B107E1F712E0C0EFD4
:10062000D2E000E006C021970109802FFE010E9460
:10063000082DCF3ED10780E00807A9F70E943315A7
:100640000C9427290C940000FC01AC014E5F5F4F15
:100650008FEF91E32191822728E030E087FF03C0EC
:10066000880F892701C0880F21503109B9F7E41795
:10067000F50781F708958EBD00000DB407FEFDCF8C
:100680008EB50895FC0165830895613208F060E23B
:100690000E9429101092F4028093F50208951F938E
:1006A000CF93DF93EC01162F6B818AE397E00E94D2
:1006B000410F612F8AE397E00E94A70B0E9424104C
:1006C0006B81772767FD709542E050E08AE397E001
:1006D0000E944B0F8AE397E00E944E0BEC018AE3E5
:1006E00097E00E944E0B20E030E0382FC9018C2BA0
:1006F0009D2BDF91CF911F9108951F93CF93DF938F
:100700001F92CDB7DEB7162FFC0163818AE397E015
:1007100029830E94410F612F8AE397E00E94A70B73
:100720002981622F8AE397E00E94A70B0F90DF9147
:10073000CF911F910C94241020E030E0A90160E8D3
:100740000C947D03EF92FF920F931F93CF93DF934F
:10075000EC017B018A0123E030E040E050E060E8FA
:100760000E947D038E819F81009739F0019751F49B
:1007700068E770E080E090E009C06FE070E080E042
:1007800090E004C062EC71E080E090E00E94A2146E
:100790006CEACE010E944F03F701918380836EEAD9
:1007A000CE010E944F03F80191838083CE01DF9137
:1007B000CF911F910F91FF90EF900C949C030F939A
:1007C0001F93CF93DF938C01EB0188E2FB01119221
:1007D0008A95E9F74BE050E066E672E0CE010E94B0
:1007E000812A1B8681E090E0A0E0B0E08C879D87A5
:1007F000AE87BF87F80182859385A485B585888BF0
:10080000998BAA8BBB8B85E090E0A0E0B0E08C8B4D
:100810009D8BAE8BBF8B1CA21DA21EA21FA280E0CF
:1008200090EDA4E8B6E4888F998FAA8FBB8F1C8EB9
:100830001D8E1E8E1F8E80E090E0A0E8BFE388A38F
:1008400099A3AAA3BBA3DF91CF911F910F91089504
:10085000AF92BF92CF92DF92EF92FF920F931F93CE
:10086000CF93DF931F92CDB7DEB75C01D62EE72E74
:10087000FC018585811105C0C5010E94130D811100
:1008800006C0F50113861586148680E065C040E039
:1008900060EFC5010E94A40C01E0F12CC12C11E015
:1008A000C5010E94510C682FC50169830E94510C3B
:1008B0006981613019F48130B9F433C04F2D50E0B3
:1008C00068131BC0F5018385181730F4E40FF51F7A
:1008D0008381802349F402C0181731F060E0193099
:1008E00058F4F501148708C0F501EF0DF11D83815F
:1008F000802B838361E009C0C12EF501E40FF51F51
:100900009381802F809589238383C5010E94750C74
:100910001F5F000F11F4F39401E0F7E0FF1508F0FA
:10092000BFCF113408F4ADCFF501C386C11002C0AA
:1009300081E08587F5018381882309F4A2CFD50161
:100940001396ED2DFE2D9501255F3F4F8D918193DF
:10095000A217B307D9F781E00F90DF91CF911F91D4
:100960000F91FF90EF90DF90CF90BF90AF900895E0
:100970001F93CF93DF93182FC6E4D7E0688D898D3E
:100980009A8D0E94410F898D9A8DDC01ED91FC9129
:100990000190F081E02D612F199561E0898D9A8D8C
:1009A000DF91CF911F910C94C70ECF92DF92EF92FF
:1009B000FF92CF93C82F80E48C0F0E94B8048C2F35
:1009C0008F708430C1F048F4882381F08230F1F4D4
:1009D00063E070E080E090E017C0863089F08830F6
:1009E000A9F46AE070E080E090E00EC08BE09EE049
:1009F0000197F1F70BC064E070E080E090E004C084
:100A000066E070E080E090E00E94A21480E00E9426
:100A1000B80460915E07772767FD709543E050E06A
:100A200080915F07909160070E944B0F80915F0754
:100A300090916007DC01ED91FC910680F781E02D3B
:100A400019956C01EE24D7FCE094FE2C7601DD2490
:100A5000CC2480915F0790916007DC01ED91FC91BF
:100A60000680F781E02D1995AA2797FDA095BA2F4A
:100A7000BA2FA92F982F8827C80ED91EEA1EFB1E51
:100A800080915F0790916007DC01ED91FC910680F9
:100A9000F781E02D1995AA2797FDA095BA2FC80ECA
:100AA000D91EEA1EFB1E61E080915F0790916007EE
:100AB0000E94C70EC701B601CF91FF90EF90DF9063
:100AC000CF900895CF93DF93EC01609131078AE3D3
:100AD00097E00E94410F6D2F8AE397E00E94A70BD9
:100AE0006C2F8AE397E00E94A70BDF91CF910C94C3
:100AF0002410DF92EF92FF920F931F93CF93DF9317
:100B000000D000D0CDB7DEB780E094E20E9462054D
:100B100064EF71E080E090E00E94A21466E08091B2
:100B200031070E9445038091F50290E02091F40284
:100B3000821B9109069709F05FC0CE0101967C01E6
:100B40008C0186E0D82EDE0C8AE397E00E944E0BE3
:100B5000F80181938F01DE12F7CFD9800A811B81C2
:100B6000C7010E942403181347C0FC801D81EE803A
:100B7000CE0104960E942403E8123EC0602F70E06C
:100B80007D2980E090E00E94922B20E030E04FE24F
:100B900053E40E94482C20E03FEF4FE757E40E94C7
:100BA000F92A20E030E044E352E40E94902A609366
:100BB0003607709337078093380790933907612F72
:100BC00070E07F2980E090E00E94922B20E030E0EE
:100BD00048EC52E40E94482C20E03FEF4FE757E4F6
:100BE0000E94F92A60933207709333078093340789
:100BF0009093350781E001C080E026960FB6F89407
:100C0000DEBF0FBECDBFDF91CF911F910F91FF903F
:100C1000EF90DF900895CF92DF92EF92FF921F93B3
:100C2000CF93DF93182F6A01C22F6F73D62FD0682E
:100C300080911307181304C0223010F0D62FD06C07
:100C400060E0812F0E94E9138D2F0E943B03760103
:100C5000D0E0C7018C199D098C179D073CF480E0FA
:100C60000E943B03F70181937F01F3CF61E0812F65
:100C7000DF91CF911F91FF90EF90DF90CF900C9478
:100C8000E9130F931F93CF93DF93D82FC62F8A01B9
:100C9000682F8AE397E00E94410F6C2F60688AE317
:100CA00097E00E94A70B61E08AE397E00E94C70EDD
:100CB00066E08D2F0E944503C8EED3E08091F502D7
:100CC00090E02091F402821B910906975CF4219731
:100CD00038F061E070E080E090E00E94A214EECF76
:100CE0008FEF15C0CD2BE1F3E8010A5F1F4F809114
:100CF000F5029091F402C017D10741F08917D9F39A
:100D00008AE397E00E944E0B8993F1CF86E0DF9152
:100D1000CF911F910F910895AB019091A40691304E
:100D200029F4682F809114070C944106911106C094
:100D300026E0682F809114070C940B0608951F93EA
:100D4000CF93DF93182FD62F8091A4068130A9F47A
:100D5000609113078AE397E00E94410F612F8AE3B5
:100D600097E00E94A70B6D2F8AE397E00E94A70BE4
:100D7000DF91CF911F910C942410811114C0C09168
:100D8000130760E08C2F0E94E913812F8F730E945C
:100D90003B038D2F0E943B0361E08C2FDF91CF91AD
:100DA0001F910C94E913DF91CF911F9108951F9328
:100DB000CF93DF93182FD62F8091A4068130A9F40A
:100DC000609114078AE397E00E94410F612F8AE344
:100DD00097E00E94A70B6D2F8AE397E00E94A70B74
:100DE000DF91CF911F910C942410811114C0C091F8
:100DF000140760E08C2F0E94E913812F8F730E94EB
:100E00003B038D2F0E943B0361E08C2FDF91CF913C
:100E10001F910C94E913DF91CF911F910895CF9307
:100E2000DF93C82F682F8AE397E00E94410F6FE09D
:100E30008AE397E00E94A70B61E08AE397E00E94B3
:100E4000C70E61E08C2F0E944503C8EED3E080916D
:100E5000F50290E02091F402821B91091816190600
:100E60005CF0219738F061E070E080E090E00E9453
:100E7000A214EDCF8FEF06C0CD2BE1F38AE397E00C
:100E80000E944E0BDF91CF910895CF93DF93EC0139
:100E90008A859B85AC85BD858E839F83A887B9870E
:100EA0000E94DC146A837B838C839D8381E0898329
:100EB0008883DF91CF9108952F923F924F925F9256
:100EC0006F927F928F929F92AF92BF92CF92DF925A
:100ED000EF92FF920F931F93CF93DF93D82FC92FD9
:100EE0008B010E94002924E630E040E050E00E949F
:100EF000E62C49015A019B01AC0160E876E988E9DA
:100F000090E00E94C22C6B017C01F80191828082EA
:100F1000ED2FFC2F2191822F992787FD9095C09767
:100F20000A97C0F32E3239F51F0180E8882E86E932
:100F3000982E88E9A82EB12C9AE0492E512C612CCC
:100F4000712CF101C1911F01DD27C7FDD095E097FC
:100F5000CA30D10580F4C501B401A30192010E94F9
:100F6000E62C49015A01DE010E94BA2CC60ED71E9A
:100F7000E81EF91EE6CFA5E0B0E0A70196010E94A9
:100F8000AF2C6F5F7F4F8F4F9F4F23E030E040E0EB
:100F900050E00E94E62CF80122833383448355837A
:100FA0001682DF91CF911F910F91FF90EF90DF900C
:100FB000CF90BF90AF909F908F907F906F905F90F9
:100FC0004F903F902F900895FF920F931F93CF93D0
:100FD000DF93EC01FF24F39488818D3211F0F12C22
:100FE00001C02196CE010E9400299B01AC01A4E61C
:100FF000B0E00E94AF2CFE014991242F332727FD3A
:101000003095205331092A303105A8F34E3241F58D
:101010002181332727FD3095205331092A303105AE
:10102000F8F44AE0429F8001439F100D11242227CB
:1010300017FD2095322F600F711F821F931F0281B1
:10104000112707FD1095005311090A30110540F4CE
:10105000222717FD2095322F600F711F821F931FCB
:10106000FF2039F090958095709561957F4F8F4F57
:101070009F4FDF91CF911F910F91FF9008958F9215
:101080009F92AF92BF92CF92DF92EF92FF92FA01BE
:10109000DC0116962D913C9117972115310549F0E9
:1010A0002130310519F448E850E905C048EE5DEFFC
:1010B00002C044E253E14617570708F4D0C04E1768
:1010C0005F0708F4CCC02115310581F021303105CE
:1010D00039F437EE832E3FE0932EA12CB12C0CC0B7
:1010E000812C24E0922EA12CB12C06C0B7E18B2ECE
:1010F000B5E79B2EA12CB12CDC0118968D919C910B
:101100001997892B39F4A4E0880C991CAA1CBB1CE4
:10111000AA95D1F7DB01A50194010E94AF2C6B01C8
:101120007C016AE0F694E794D794C7946A95D1F766
:10113000DF010E94AF2C4B015C017AE0B694A794CA
:10114000979487947A95D1F7C114D104E104F104FE
:1011500071F0C501B4014AE0660F771F881F991F1F
:101160004A95D1F7A70196010E94E62C03C020E022
:1011700030E0A901DA01C9010196A11DB11DB695A2
:10118000A7959795879581349105A105B10530F113
:1011900081389105A105B10530F1813C9105A1058A
:1011A000B10530F1813021E09207A105B10528F1A8
:1011B000893331E09307A105B10520F18B3941E076
:1011C0009407A105B10518F18B399240A105B1052D
:1011D00018F1E0E0F0E0A0E0B0E022C0EEEBF1E0DA
:1011E000A2EFB1E01DC0E1EDF2E0A4E1B2E018C071
:1011F000EBE7F3E0AFE3B2E013C0EEEFF3E0A0E71C
:10120000B2E00EC0ECEFF1E0AFE6B1E009C0EBEF09
:10121000F0E0A2EDB0E004C0E2E1F0E0A8E1B0E06F
:10122000A70196010E94AF2C6B017C01A0E2DA0EAF
:10123000E11CF11CDF01A50194010E94AF2CA70164
:101240009601261B370B480B590BCA01B9012EE03A
:1012500096958795779567952A95D1F704C060E0B4
:1012600070E081E090E0FF90EF90DF90CF90BF9032
:10127000AF909F908F900895CF93DF93EC018AE316
:1012800097E00E94570F6B818AE397E00E94410F1D
:101290006AE08AE397E00E94A70B0E9424106B810A
:1012A000772767FD709541E050E08AE397E00E9460
:1012B0004B0F8AE397E00E944E0B8A7089F081E021
:1012C0008C836E817F81CE010E948F0A688579852B
:1012D000CE010E947409CE010E949C0381E001C0EE
:1012E00080E0DF91CF9108950F931F93CF93DF9309
:1012F000EC018B018C81811103C0CE010E943C095D
:1013000023E030E040E050E060E8CE010E947D0341
:101310002E813F81202B312B442737FD4095542FC0
:1013200061E8CE010E947D0319870887CE01DF9115
:10133000CF911F910F910C949C038F929F92AF922B
:10134000BF92CF92DF92EF92FF920F931F93CF93B2
:10135000DF9300D01F921F92CDB7DEB78C016B01D7
:101360007A01FC018481811103C0C8010E943C09FB
:10137000F8018581811106C0A701B601C8010E944C
:10138000A2035BC020E0F80186819781009799F065
:10139000019741F458EC852E912C60EAA62E6CE85A
:1013A000B62E10C034EF832E9924939448E1A42ED6
:1013B00046EFB42E07C084E6882E912C92EFA92E1A
:1013C00092E1B92EAE014F5F5F4FBE016D5F7F4F5F
:1013D000C8012D830E94A2038B819C812D81211144
:1013E00024C08815990540F4F80120853185232B08
:1013F000E1F460E170E00BC0A816B906B0F4F801A2
:10140000208531852031310581F460E070E0C8012C
:101410000E947409AE014F5F5F4FBE016D5F7F4F49
:10142000C8010E94A20321E0AECFF6019183808320
:1014300089819A81F701918380830F900F900F909B
:101440000F900F90DF91CF911F910F91FF90EF9030
:10145000DF90CF90BF90AF909F908F900895EF92C4
:10146000FF920F931F93CF93DF9300D01F92CDB7BE
:10147000DEB77C018B0184E2FB0111928A95E9F7CA
:1014800084E290E0A0E0B0E0FB0180839183A2833E
:10149000B383F70182859385A485B585FB01848399
:1014A0009583A683B78385E090E0A0E0B0E08087D5
:1014B0009187A287B3870E94DC14F801608B718B3F
:1014C000828B938BAE014F5F5F4FBE016D5F7F4F8D
:1014D000C7010E949D0949815A816B817C81C701A6
:1014E0000E943F080E94922BF801648B758B868BBB
:1014F000978B11E020E030E040E857E40E94F52AA5
:10150000811101C010E0812F0F900F900F900F906C
:10151000DF91CF911F910F91FF90EF9008950F935E
:101520001F93CF93DF93EC018B018C81811103C05A
:10153000CE010E943C0923E030E040E050E060E84A
:10154000CE010E947D0328853985202B312B44272D
:1015500037FD4095542F61E8CE010E947D031F8323
:101560000E83CE01DF91CF911F910F910C949C03BC
:10157000DC01E0E0615038F08D91E827F0E0E852BE
:10158000FC4FE491F7CF8E2F0895CF93DF93EB01BB
:101590000E946D12882339F068E0CE010E94B80ADB
:1015A00091E02885821390E0892FDF91CF910895F3
:1015B000CF93DF93CDB7DEB729970FB6F894DEBF90
:1015C0000FBECDBFFC0120812031D1F0BE016F5F85
:1015D0007F4F0E94C50A882389F08D818F3361F087
:1015E00020F48F3159F489E00CC08F3519F08F3712
:1015F00039F004C08BE005C08AE003C080E001C080
:101600008CE029960FB6F894DEBF0FBECDBFDF91F8
:10161000CF9108950F931F93CF93DF938C01D62F13
:10162000E0916607F0916707138615861486DF013F
:101630001B9633961E92AE17BF07E1F7C0E0B801C4
:1016400080916607909167070E942804882381F0A3
:10165000CD130AC067E0C8010E94B80AF80197815B
:10166000891302C081E004C0CF5FDC1740F780E03F
:10167000DF91CF911F910F91089508950895E09102
:10168000F4028091F502E81730F4F0E0EA50FD4FE3
:10169000808190E008958FEF9FEF08959091F4027C
:1016A0008091F502981750F4E92FF0E0EA50FD4FD1
:1016B000208130E09F5F9093F40202C02FEF3FEF54
:1016C000C90108958091F50290E02091F402821BF7
:1016D00091090895CF92DF92EF92FF920F931F939B
:1016E000CF93DF937C018A018091A802882389F03F
:1016F000EB016B01C40ED51ECC15DD05F1F069912F
:10170000D701ED91FC910190F081E02DC701199571
:10171000F3CF842F413288F490913C03943069F4E4
:101720004093CF02FB012DEA32E0D9019A2F921BA0
:10173000981718F491919D93F9CFC801DF91CF913B
:101740001F910F91FF90EF90DF90CF90089520911F
:10175000A8022223C9F02091A702203240F021E004
:1017600030E0FC013383228380E090E00895809193
:10177000A602E82FF0E0EA57FD4F60838F5F809369
:10178000A6028093A70209C080913C03843029F40B
:1017900081E08093CF026093AD0281E090E00895F4
:1017A000FC01918D828D981759F0828DDF01A80F71
:1017B000B11D5D968C91928D9F5F928F90E0089500
:1017C0008FEF9FEF0895FC01918D828D981731F076
:1017D000828DE80FF11D858D90E008958FEF9FEFCA
:1017E0000895FC01918D828D981B892F90E00895BA
:1017F00080E090E0892B21F00E941513811121C017
:1018000080E090E0892B21F00E941F1381111CC001
:1018100080E090E0892B41F080E090E0892B21F07E
:101820000E940000811113C080E090E0892BA1F09C
:1018300080E090E0892B81F00E94000081110AC0B5
:1018400008950E940000DCCF0E940000E1CF0E94BA
:101850000000EACF0C9400000895CF93DF93CCEB07
:10186000D0E0188210923C0381E080933B031092F9
:10187000360361E084E10E94E91361E085E10E94A2
:10188000E913E9EBF0E080818E7F808380818D7F9A
:10189000808388E48093B80085E48883DF91CF91CA
:1018A0000895FC0190810180F281E02DF8948181FE
:1018B000892B81832281892F809528232283A7E089
:1018C000B0E01197F1F7218182238183A3E2B0E098
:1018D0001197F1F780817894EFECF0E03197F1F710
:1018E000982381E009F480E00895FC019081018053
:1018F000F281E02D892F809560FF12C0F89422813B
:10190000822382838181892B8183A3E2B0E01197B6
:10191000F1F78281982B9283789487ED90E011C043
:10192000F8942281822382838181892B8183AFEF86
:10193000B0E01197F1F78281982B928378948FE031
:1019400090E00197F1F70895CF92DF92EF92FF9226
:101950000F931F93CF93DF931F92CDB7DEB76C0128
:10196000E62E08E010E0FF24F39461E08F2D8E2135
:1019700009F460E0C60149830E94750CFF0C015018
:10198000110949810115110581F7411115C0F8941C
:10199000D6011196ED91FC91129791818C918095D1
:1019A000892381831196ED91FC91129792818C91FC
:1019B00080958923828378940F90DF91CF911F9136
:1019C0000F91FF90EF90DF90CF900895CF92DF922C
:1019D000EF92FF920F931F93CF93DF931F92CDB798
:1019E000DEB78C01F62E40E065E579830E94A40CF9
:1019F000CF2C7981D72E760188E0E80EF11CF60114
:101A000061916F0140E0C8010E94A40CCE14DF0474
:101A1000B1F70F90DF91CF911F910F91FF90EF9051
:101A2000DF90CF900895FC0190810180F281E02D3C
:101A3000F8948181292F20958223818378948DE7E2
:101A400043E050E0815021F1DA011197F1F7308144
:101A50003923C1F3F8948281822382838181892B87
:101A600081837894ABE7B7E01197F1F7F89481811F
:101A700028232183A3E1B1E01197F1F78081982316
:101A800081E009F080E07894E3E6F6E03197F1F741
:101A90000895882349F01092A9021092AA02109288
:101AA000AB021092AC0213C08091A9029091AA02DD
:101AB000A091AB02B091AC020196A11DB11D809323
:101AC000A9029093AA02A093AB02B093AC028091BA
:101AD000A9029091AA02A091AB02B091AC02803A07
:101AE0009648A140B10560F01092A9021092AA0296
:101AF0001092AB021092AC020E942D0C81E008956E
:101B000080E0089585ED8093BC0081E00E94490D3E
:101B10008091BC0084FF06C080E00E94490D8823AC
:101B2000B9F302C010923C0308951F920F920FB6B2
:101B30000F9211240BB60F922F933F934F935F9305
:101B40006F937F938F939F93AF93BF93EF93FF9385
:101B50008091B900887F803609F49CC068F588328E
:101B600009F45BC090F4803109F454C038F4882340
:101B700009F4F6C0883009F44DC0F6C0883109F484
:101B80004CC0803209F45DC0EFC0803409F468C0F5
:101B900048F4803309F455C0883309F0E5C08093D8
:101BA0003A03D8C0803509F44FC0883509F45DC0C8
:101BB000883409F0D9C0D6C0883909F4C7C0A8F460
:101BC000883709F467C038F4883609F463C0803771
:101BD00009F460C0C9C0883809F4B8C0803909F474
:101BE0005FC0803809F0C0C05BC0803B09F486C08C
:101BF00038F4803A09F466C0883A09F47FC0B4C06A
:101C0000803C09F4A7C0883C09F4A4C0883B09F4CF
:101C10008AC0AAC08091370310C090913903809187
:101C20003803981770F5E091390381E08E0F8093A7
:101C30003903F0E0EA5EFC4F80818093BB0085ECC5
:101C400086C080933A038EC0E091390381E08E0F05
:101C5000809339038091BB00F0E0EA5EFC4F808303
:101C600090913903809138036EC0E091390381E08F
:101C70008E0F809339038091BB00F0E0EA5EFC4F49
:101C8000808380913B0381116DC081E08093360396
:101C900084EA61C083E080933C031092F302CFCFCB
:101CA0008091F302803208F051C0E091F30281E0AC
:101CB0008E0F8093F3028091BB00F0E0ED52FD4F58
:101CC0008083BDCF85EC8093BC0010923C03809153
:101CD000F302803230F4E091F302F0E0ED52FD4F78
:101CE00010826091F30270E0E091D102F091D20293
:101CF00083ED92E019951092F30236C084E0809350
:101D00003C031092D0021092CF02E091CD02F091EC
:101D1000CE0219958091CF02811105C081E0809398
:101D2000CF021092AD02E091D00281E08E0F80933D
:101D3000D002F0E0E355FD4F80818093BB0090918D
:101D4000D0028091CF02981708F479CF85E880936C
:101D5000BC000AC085EC8093BC0010923C0304C018
:101D600010923A030E94820DFF91EF91BF91AF91C3
:101D70009F918F917F916F915F914F913F912F91A3
:101D80000F900BBE0F900FBE0F901F9018950F93E2
:101D90001F93CF93DF931091A702D0918502113248
:101DA00008F05EC0062F81E00E94490DC0913C03FF
:101DB000CC2339F080E00E94490D8823B9F3C5E0B7
:101DC00054C082E080933C0300933B038FEF8093E9
:101DD0003A031092390310933803A6E8B2E026E1E3
:101DE00033E0F9018E2F821B811718F48D918193B6
:101DF000F9CF10923703909137038D2F880F892BDD
:101E00008093370380913603813061F4109236035A
:101E1000809137038093BB008091BC0083FDF8CF95
:101E200085EC01C085EE8093BC0081E00E94490DE5
:101E300080913C03823031F480E00E94490D811191
:101E4000BECFF6CF80913A038F3F79F080913A036D
:101E5000803241F080913A03803331F0C4E005C014
:101E6000C1E003C0C2E001C0C3E01092A60210921C
:101E7000A7021092A8028C2FDF91CF911F910F9192
:101E8000089581E08093A802609385021092A602D3
:101E90001092A7020895862F413208F040E2642F85
:101EA0000E9429101092F4028093F5020895109276
:101EB000F4021092F5021092A6021092A7020C945E
:101EC0002D0CFC01848DDF01A80FB11DA35EBE4F58
:101ED0002C91848D90E001968F739927848FA68929
:101EE000B7892C93A089B1898C9180648C93938D50
:101EF000848D981306C00288F389E02D80818F7D40
:101F000080830895EF92FF920F931F93CF93DF93F7
:101F1000EC0181E0888F9B8D8C8D981305C0E8893A
:101F2000F989808185FD24C0F62E0B8D10E00F5FAE
:101F30001F4F0F731127E02E8C8DE8120CC00FB6C7
:101F400007FCFACFE889F989808185FFF5CFCE01BA
:101F50000E94610FF1CF8B8DFE01E80FF11DE35E52
:101F6000FE4FF0820B8FEA89FB898081806207C077
:101F7000EE89FF896083E889F989808180648083A4
:101F800081E090E0DF91CF911F910F91FF90EF9052
:101F90000895CF93DF93EC01888D8823C9F0EA89F7
:101FA000FB89808185FD05C0A889B9898C9186FD52
:101FB0000FC00FB607FCF5CF808185FFF2CFA8894F
:101FC000B9898C9185FFEDCFCE010E94610FE7CFDB
:101FD000DF91CF910895009769F0FC0101900020F6
:101FE000E9F73197AF01481B590BBC018DE393E032
:101FF0000C94C21280E090E00895FC01A089B189A0
:1020000082E08C93A485B5851C92A685B7858FEC5C
:102010008C93108EA489B58986E08C93A289B389AC
:102020008C9180618C93A289B3898C9188608C9308
:10203000A289B3898C9180688C930288F389E02D02
:1020400080818F7D8083089561E08AE397E00C941E
:10205000C70ECF93DF93D82FC62F81E00E94490D82
:1020600080913C03882329F080E00E94490D882359
:10207000B9F381E080933C0380933B039FEF9093FF
:102080003A03109239039C0F9093380380933703DF
:1020900080913703DD0FD82BD0933703809136031F
:1020A000813061F410923603809137038093BB0036
:1020B0008091BC0083FDF8CF85EC01C085EE809354
:1020C000BC0081E00E94490D80913C03813029F4DD
:1020D00080E00E94490D8823B9F3809139038C1761
:1020E00010F4C0913903A6E1B3E026EF32E0F90124
:1020F0008E2F821B8C1718F48D918193F9CF8C2F22
:10210000DF91CF9108958EE692E00C94EB0F8F92C1
:102110009F92AF92BF920F931F93CF93DF93CDB750
:10212000DEB7A1970FB6F894DEBF0FBECDBF19A2E0
:10213000423008F44AE08E010F5D1F4F842E912C2F
:10214000A12CB12CA50194010E94E62CE62FB90127
:10215000CA0101501109EA3014F4E05D01C0E95CE4
:10216000D801EC93232B242B252B61F7C8010E9467
:10217000EB0FA1960FB6F894DEBF0FBECDBFDF9177
:10218000CF911F910F91BF90AF909F908F90089526
:102190000F931F93CF93DF938C01C0E0D0E0F80141
:1021A000EC0FFD1F6491662371F0E0913D03F09107
:1021B0003E030190F081E02D8DE393E01995892B8A
:1021C00011F02196ECCFCE01DF91CF911F910F91AD
:1021D0000895CF93DF930E94C810EC010E948310F2
:1021E0008C0F9D1FDF91CF910895CF92DF92EF92D8
:1021F000FF92CF93DF936B017C01E0913D03F0915F
:102200003E030190F081E02D6DE28DE393E019959E
:10221000EC0166277727CB016C197D098E099F0990
:102220004AE00E9487108C0F9D1FDF91CF91FF9095
:10223000EF90DF90CF9008954F925F926F927F92D0
:102240008F929F92AF92BF92CF92DF92EF92FF92C6
:102250006B017C01B42E9B01AC010E94AB2C882346
:1022600019F081E792E027C026013701E89477F85A
:102270002FEF3FEF4FE75FE7C301B2010E94AB2CA6
:1022800081110DC02FEF3FEF4FE75FE7C301B201B0
:102290000E94F52A18161CF485E792E00CC02FEF77
:1022A0003FEF4FE75FE4C701B6010E94442C1816C8
:1022B00084F489E792E0FF90EF90DF90CF90BF9099
:1022C000AF909F908F907F906F905F904F900C9405
:1022D000EB0F2FEF3FEF4FE75FECC701B6010E9416
:1022E000F52A87FDE6CF20E030E0A901C701B6015D
:1022F0000E94F52A87FF11C0E0913D03F0913E0353
:102300000190F081E02D6DE28DE393E019954C0191
:10231000F7FAF094F7F8F09402C0812C912CA12CDC
:1023200060E070E080E09FE3AB1441F020E030E03B
:1023300040E251E40E94F92AA394F6CF9B01AC013C
:10234000C701B6010E94912A2B013C010E94662B15
:102350006B017C010E94922B9B01AC01C301B20175
:102360000E94902A2B013C014AE0C701B6010E945D
:1023700087107C01E80CF91CBB2031F08DE792E05E
:102380000E94EB0FE80EF91EDB2CDD2069F120E046
:1023900030E040E251E4C301B2010E94482C2B011D
:1023A0003C010E94612B4B01AA2497FCA094BA2CFB
:1023B000B7FE05C0C501B4010E94F51005C04AE092
:1023C000C501B4010E948710E80EF91EC501B401D1
:1023D0000E94942B9B01AC01C301B2010E94902A80
:1023E0002B013C01DA94D1CFC701FF90EF90DF9031
:1023F000CF90BF90AF909F908F907F906F905F90A5
:102400004F9008950C941C11CF93DF9342E00E94EB
:102410001C11EC010E9483108C0F9D1FDF91CF9146
:10242000089580917B00877F80937B0080E4809378
:102430007C0080917A00806480937A0080917A0099
:1024400086FDFCCF809178002091790090E0922B5E
:1024500008950F931F93CF93DF93C82F66E38AE30A
:1024600097E00E94410F6C2F8AE397E00E94A70B30
:1024700060E08AE397E00E94C70E42E050E066E326
:1024800070E08AE397E00E944B0FC9EED3E0209101
:10249000F50230E08091F402281B31092230310529
:1024A0004CF4219739F061E070E080E090E00E9408
:1024B000A214EDCF8AE397E00E944E0BC82F8AE367
:1024C00097E00E944E0B1C2F00E09801282BC901B9
:1024D000DF91CF911F910F910895AF92BF92CF924C
:1024E000DF92EF92FF920F931F93CF93DF93EC0154
:1024F0008B0180916607909167070E94130D8823D6
:10250000A1F1BE0180916607909167070E94E60CD9
:1025100040E06EEB80916607909167070E94A40CE3
:10252000E801680189E0C80ED11CA0906607B09050
:10253000670788E0E82EF12C01E010E0C5010E9459
:10254000510C8111102B000F81E0E81AF108B1F74E
:102550001993CC15DD0549F78091660790916707BF
:102560000E94130D91E0813009F090E0892FDF91F6
:10257000CF911F910F91FF90EF90DF90CF90BF9080
:10258000AF900895CF92DF92EF92FF920F931F9337
:10259000CF93DF936C017A018B01C0E0D0E0CE15C0
:1025A000DF0589F0D8016D918D01D601ED91FC9187
:1025B0000190F081E02DC6011995892B11F47E015F
:1025C00002C02196ECCFC701DF91CF911F910F91EF
:1025D000FF90EF90DF90CF9008953FB7F8948091EF
:1025E000FB079091FC07A091FD07B091FE0726B56F
:1025F000A89B05C02F3F19F00196A11DB11D3FBF3B
:10260000BA2FA92F982F8827820F911DA11DB11DC8
:10261000BC01CD0142E0660F771F881F991F4A95C4
:10262000D1F7089508950E946C2A8DE393E00E94EB
:10263000F10B21E0892B09F420E0822F08958AE92B
:1026400094E00E94F10B21E0892B09F420E0822F15
:1026500008950C94D4291F920F920FB60F92112453
:102660000BB60F922F933F934F935F936F937F938C
:102670008F939F93AF93BF93EF93FF938DE393E07B
:102680000E94610FFF91EF91BF91AF919F918F9148
:102690007F916F915F914F913F912F910F900BBE62
:1026A0000F900FBE0F901F9018951F920F920FB6AC
:1026B0000F9211240BB60F922F938F939F93EF934A
:1026C000FF93E0914D03F0914E038081E09153031D
:1026D000F091540382FD11C09081809156038F5F69
:1026E00020915703821751F0E0915603F0E0E35C2C
:1026F000FC4F958F8093560301C08081FF91EF912D
:102700009F918F912F910F900BBE0F900FBE0F9046
:102710001F9018951F920F920FB60F9211240BB6AF
:102720000F922F933F934F935F936F937F938F936A
:102730009F93AF93BF93EF93FF938AE994E00E9436
:10274000610FFF91EF91BF91AF919F918F917F9119
:102750006F915F914F913F912F910F900BBE0F9012
:102760000FBE0F901F9018951F920F920FB60F92E9
:1027700011240BB60F922F938F939F93EF93FF9398
:10278000E091AA04F091AB048081E091B004F09153
:10279000B10482FD11C090818091B3048F5F2091BC
:1027A000B404821751F0E091B304F0E0E656FB4F19
:1027B000958F8093B30401C08081FF91EF919F9129
:1027C0008F912F910F900BBE0F900FBE0F901F9007
:1027D0001895362F90E0FC01E856FA4F4491FC0121
:1027E000E85CFA4F2491FC01EE50FB4F9491992341
:1027F00009F46BC0442309F455C050E0FA01319745
:10280000E231F10508F04EC08827E556FF4F8F4FA3
:102810000C94082D809180008F7707C080918000F4
:102820008F7D03C080918000877F809380003AC0B5
:1028300084B58F7702C084B58F7D84BD33C080910D
:10284000B0008F7703C08091B0008F7D8093B0007F
:1028500029C0809190008F7707C0809190008F7D74
:1028600003C080919000877F809390001BC080916F
:10287000A0008F7707C08091A0008F7D03C080915A
:10288000A000877F8093A0000DC0809120018F77EA
:1028900007C0809120018F7D03C080912001877F38
:1028A00080932001E92FF0E0EE0FFF1FE258FA4F6E
:1028B000A591B4918FB7F894EC91311103C0209594
:1028C0002E2301C02E2B2C938FBF0895CF93DF931F
:1028D00090E0FC01E85CFA4F2491FC01EE50FB4FC4
:1028E0008491882361F190E0880F991FFC01E55BDA
:1028F000FD4FC591D491FC01E258FA4FA591B491D6
:10290000611109C09FB7F89488812095822388833C
:10291000EC912E230BC0623061F49FB7F89438819C
:10292000822F809583238883EC912E2B2C939FBF3D
:1029300006C08FB7F894E8812E2B28838FBFDF91D4
:10294000CF9108958F929F92AF92BF92CF92DF92D4
:10295000EF92FF926B017C010E94ED124B015C0132
:10296000C114D104E104F104F1F00E94ED12DC0184
:10297000CB0188199909AA09BB09883E9340A10592
:10298000B10570F321E0C21AD108E108F10888EE20
:10299000880E83E0981EA11CB11CC114D104E1046F
:1029A000F10419F7DDCFFF90EF90DF90CF90BF904B
:1029B000AF909F908F9008952FB7F8946091F7078C
:1029C0007091F8078091F9079091FA072FBF089549
:1029D0001F920F920FB60F9211242F933F938F9354
:1029E0009F93AF93BF938091F7079091F807A091C1
:1029F000F907B091FA073091F60723E0230F2D373E
:102A000020F40196A11DB11D05C026E8230F0296F2
:102A1000A11DB11D2093F6078093F7079093F80747
:102A2000A093F907B093FA078091FB079091FC07F8
:102A3000A091FD07B091FE070196A11DB11D8093E5
:102A4000FB079093FC07A093FD07B093FE07BF918F
:102A5000AF919F918F913F912F910F900FBE0F904B
:102A60001F9018950895CF93DF93CDB7DEB7A89741
:102A70000FB6F894DEBF0FBECDBF789484B58260E8
:102A800084BD84B5816084BD85B5826085BD85B512
:102A9000816085BD80916E00816080936E00109290
:102AA000810080918100826080938100809181000B
:102AB000816080938100809180008160809380009C
:102AC0008091B10084608093B1008091B0008160FA
:102AD0008093B000809191008260809391008091FA
:102AE000910081608093910080919000816080933B
:102AF00090008091A10082608093A1008091A1004C
:102B000081608093A1008091A00081608093A000EB
:102B10008091210182608093210180912101816057
:102B20008093210180912001816080932001809118
:102B30007A00846080937A0080917A00826080932A
:102B40007A0080917A00816080937A0080917A0087
:102B5000806880937A001092C10061E084E00E9456
:102B6000661461E089E00E94661484E492E00E94A9
:102B7000C8104AE068EE73E080E090E00E948710A1
:102B80008AE392E00E94C8104AE064EF71E080E0BE
:102B900090E00E9487108EE292E00E94C8104AE006
:102BA00068EE73E080E090E00E9487100E9483103E
:102BB000C12CD12C4BECA42E47E0B42E61E084E074
:102BC0000E94E913C5010197F1F760E084E00E94DB
:102BD000E913C5010197F1F72FEFC21AD20A48EEA7
:102BE000C41643E0D40651F78DE393E00E94FD0F35
:102BF0008CE293E00E94E91088E193E00E94E910E2
:102C00008AE994E00E94FD0F80EA8A8781EA8B8737
:102C10001C8689E08D87E6E0F2E0DE0111960190E6
:102C20000D928A95E1F7FE0131966E015AE0C50ECC
:102C3000D11C80E091918927EC15FD05D9F79DE025
:102C40009B8B9AE09C8B8A8B5091B5044091B60483
:102C5000852F90E0242F30E0281B390B541718F0F3
:102C6000215C3F4F02C02150310920313105CCF0A9
:102C700044E050E0B6018AE994E00E94C21249E0C3
:102C800050E0BE016F5F7F4F8AE994E00E94C2125C
:102C900043E050E0BE016E5E7F4F8AE994E00E94FF
:102CA000C2128AEF92E00E94C8104AE060E071E030
:102CB00080E090E00E9487100E948310E0916607F8
:102CC000F0916707138615861486DF011B963396ED
:102CD0001E92AE17BF07E1F71092650711E0BE0123
:102CE0006F5F7F4F80916607909167070E9428046D
:102CF000882309F44BC067E0CE0101960E94B80A10
:102D000098858913ECCF80916107811128C080914B
:102D10006607909167070E94130DBE016F5F7F4F9A
:102D200080916607909167070E94E60C40E064EB93
:102D300080916607909167070E94A40C80916607B6
:102D4000909167070E94510CE82E80916607909140
:102D500067070E94130DEE2011F40C948D20E09073
:102D60006207CE0101960E94D80A8E1518F4809150
:102D7000620704C0CE0101960E94D80A80936207C0
:102D8000809165078F5F80936507A9CF8091650764
:102D9000882309F4DDC081E0809380028AE080937B
:102DA0006207A12CB12C8FE5E82E9FE7992E2FE129
:102DB000822E3FE3732E8091650790E0A816B90636
:102DC0000CF094C06A2DC6010E940A0B1091620794
:102DD000193020F01D3018F01CE001C019E0C601C8
:102DE0000E94D80A811709F47DC0BE016F5F7F4F32
:102DF000C6010E94C50A882309F474C08A858031FF
:102E000009F470C01B3041F01C3021F01A3031F44D
:102E10007D8205C09D8203C0ED8201C08D828091BC
:102E20006607909167070E94130DB60180916607AF
:102E3000909167070E94E60C40E06EE4809166077F
:102E4000909167070E94A40C40E06B818091660717
:102E5000909167070E94A40C40E06C818091660706
:102E6000909167070E94A40C8A85803141F040E070
:102E70006D8180916607909167070E94A40C8091F4
:102E80006607909167070E94130DB601809166074F
:102E9000909167070E94E60C4091610768E4809179
:102EA0006607909167070E94A40C64E170E080E0DF
:102EB00090E00E94A21480916107882331F06AE0BB
:102EC00070E080E090E00E94A214809166079091EB
:102ED00067070E94130D80916207181708F4182FD6
:102EE000109362078FEFA81AB80A65CF1092630794
:102EF00080916607909167070E94130D40E06CEC8B
:102F000080916607909167070E94A40C4091610729
:102F100064E480916607909167070E94A40C8091F9
:102F200063078823A9F0E0916207E950E33040F499
:102F3000F0E0EE0FFF1FE85EFD4F6081718102C07F
:102F40006EEE72E0882777FD8095982F0E94A2147C
:102F500080915F07909160070E94570F60915E0714
:102F600080915F07909160070E94410F61E080911E
:102F70005F07909160070E94C70E882329F08CEDAF
:102F800092E00E94E91050C08EE10E94B80463E014
:102F900070E080E090E00E94A214B6E4CB2EB7E08F
:102FA000DB2E10EAD6011D921C92812F0E94B804DC
:102FB00060915E07772767FD709542E050E0809151
:102FC0005F07909160070E944B0F80915F0790917F
:102FD0006007DC01ED91FC910680F781E02D1995E9
:102FE000F6011082818380915F0790916007DC0178
:102FF000ED91FC910680F781E02D1995F601208175
:103000003181820F931FD6018D939D936D0161E0F5
:1030100080915F07909160070E94C70E1E5F103B72
:1030200009F681E0809382028AE397E00E94570FBD
:1030300084E48093310782EA90E30E9462056AE0AB
:1030400070E080E090E00E94A21411E010938302EF
:1030500083E297E00E943C09811105C08EE992E06D
:103060000E94C8100AC0109381021093280760E0E4
:1030700070E083E297E00E948F0A81E08093A406CB
:103080008EE18093A6069BE69093A5069093140785
:10309000809313078091A8069091A906853F91051A
:1030A00069F0843FB1E09B0749F0803D974031F0E3
:1030B00085EF90E09093A9068093A8068091B806CA
:1030C000823049F0843039F0883029F0803119F0AD
:1030D00082E08093B8068091C106982F977F943044
:1030E00039F0883029F0803119F084E08093C106EE
:1030F0006091A8067091A90680E090E00E94922B52
:1031000020E030E040E058E30E94482C609315072F
:103110007093160780931707909318078091C10644
:10312000883089F038F48430F9F487EF9CECA2E120
:10313000B9E312C08C3061F08031B1F484E29BE0DD
:10314000A8E1BAE309C084E29BE0A8E9B9E304C0BE
:103150008FE991E7A1EEB9E380931D0790931E07D5
:10316000A0931F07B09320076091B80670E080E03D
:1031700090E00E94922B20E030E040E058E30E9473
:10318000482C6093190770931A0780931B0790933C
:103190001C078AE397E00E94570F8091A4068130B4
:1031A00031F4809113070E940F07082F0CC0811182
:1031B0000AC021E0AE014F5F5F4F6FE080911307BF
:1031C0000E940B0609818091A406813031F4809120
:1031D00014070E940F07F82E0CC081110AC021E0CD
:1031E000AE014F5F5F4F6FE0809114070E940B06A6
:1031F000F98010E01F290D33184609F092C780911D
:10320000A706882331F08091AA068295880F807ED8
:1032100001C080E02091A8063091A906243F41E03A
:10322000340729F0203D374019F4886101C08860D7
:103230006091AB066370682B80E10E94D70660E066
:1032400081E10E94D7068091AC06811102C060E046
:1032500001C060E88091AD06882329F08091AE0618
:103260008F708064682B82E10E94D7068091B5063A
:10327000882311F060E201C060E08091B406811102
:1032800060618091B306811168608091B6068111FA
:1032900062608EE10E94D7068091AF06882311F00C
:1032A00060E201C060E08091B006811160618091B0
:1032B000B1068111686083E10E94D7068091BC0647
:1032C000882311F060E201C060E08091BB068111AB
:1032D00060618091BA06811168608FE10E94D70613
:1032E0008091B706882331F06091B9066295660F28
:1032F000607E01C060E08091B806883031F0803196
:1033000031F0843029F4606103C0686101C06860F5
:103310008091BD0687FD03C064608370682B80E2E6
:103320000E94D7068091BE06882349F06091BF06AF
:10333000637080E2689FB0011124606801C060E0A2
:1033400081E20E94D7068091C306882311F060E8CD
:1033500001C060E02091C206277094E0299F90018F
:1033600011249091C4069370A0E29A9FC001112489
:10337000822B682B80E20E949F06E091C106E850F4
:10338000E93028F4F0E0E15FFD4F608101C060E0CA
:1033900081E20E949F068091C606882311F080E298
:1033A00001C080E06091C7066370682B82E20E94D2
:1033B0009F066091C5066370660F660F83E20E94E8
:1033C0009F0660E084E20E949F068AE397E00E94E5
:1033D000570F66E38AE397E00E94410F66E08AE3B5
:1033E00097E00E94A70B60E48AE397E00E94A70B96
:1033F00060E08AE397E00E94A70B0E9424100E94DD
:10340000111211E01B8A1A8AA7E0AA2E8AE994E019
:103410000E94F10B892B09F4E8C28AE994E00E942A
:10342000D00B082F8091940690919506A091960656
:10343000B09197060196A11DB11D809394069093BB
:103440009506A0939606B0939706043209F4AAC293
:10345000E0918E06053234F40A3071F00D3009F037
:10346000AFC20AC00A3241F00C3209F0A9C2809101
:103470007B06802780937B06EF3008F085C2F0E062
:10348000E358F94F108280917C06882309F46EC1BD
:1034900020917D063FEB320F822F992787FD909573
:1034A000363010F4C79707C02156263018F48755D8
:1034B000910901C0C097282F2295207F30917E0668
:1034C0004FEB430F832F992787FD9095463010F4DB
:1034D000C79707C03156363018F48755910901C097
:1034E000C097820F90917B0689132CC18091A00612
:1034F0009091A106A091A206B091A3060196A11DEC
:10350000B11D8093A0069093A106A093A206B0934C
:10351000A30680918F06882399F080919806909158
:103520009906A0919A06B0919B060196A11DB11D26
:103530008093980690939906A0939A06B0939B0661
:10354000F0908C06FF2009F46BC0B1E0FB12D0C0F4
:1035500080911F0690912006A0912106B09122062D
:1035600080931B0690931C06A0931D06B0931E0625
:103570000E94DC1460932306709324068093250632
:1035800090932606F0921A06F092190680912D0665
:1035900090912E06A0912F06B091300680932906B7
:1035A00090932A06A0932B06B0932C060E94DC145D
:1035B00060933106709332068093330690933406FD
:1035C000F0922806F092270680918F06882309F44E
:1035D0008FC0E7E0F6E0A9EFB5E08A2D01900D92EB
:1035E0008A95E1F7EEE0F6E0A0E0B6E08A2D0190E2
:1035F0000D928A95E1F70E94DC1460931506709392
:1036000016068093170690931806F092F805F0922C
:10361000F70585E396E00E94450783E496E066C0DF
:1036200080912D0690912E06A0912F06B091300624
:103630008093290690932A06A0932B06B0932C061C
:103640000E94DC1460933106709332068093330637
:1036500090933406109328061093270680918F06C6
:10366000882321F1E7E0F6E0A9EFB5E08A2D01908B
:103670000D928A95E1F7EEE0F6E0A0E0B6E08A2D43
:1036800001900D928A95E1F70E94DC146093150673
:103690007093160680931706909318061093F805FA
:1036A0001093F70581E596E00E9445078091690631
:1036B00090916A06A0916B06B0916C0680936506A6
:1036C00090936606A0936706B09368060E94DC1488
:1036D000609361067093620680936306909364061C
:1036E0001093600610935F068DE696E00E944507F2
:1036F000E0909206F0909306E114F10409F444C1BD
:10370000E0919206F091930666A177A1D701969673
:103710008D919C9197970E94712A892B09F034C151
:10372000B701C70140960E947A2A0E94DC14F70173
:1037300060A371A382A393A321E025A324A3E2A401
:10374000F3A4DACF80919C0690919D06A0919E06ED
:10375000B0919F060196A11DB11D80939C06909388
:103760009D06A0939E06B0939F060EC180918D0684
:10377000811139C06AE572E08DE796E00E94712AF6
:10378000892B19F410938C060EC060E672E08DE769
:1037900096E00E94712A892B19F410928C0603C0BE
:1037A000B2E0B0938C068091900690919106909330
:1037B000930680939206E0909206F0909306E114AF
:1037C000F10409F4E1C0D7019696CD90DC9097976B
:1037D0006DE776E0C6010E94712A97FFC9C0F70124
:1037E00082A593A5E4CFE0918C06E23009F493C062
:1037F00090917D06992309F48EC0B0E2EB9FF00111
:103800001124E82B3197E932F10508F084C08827AC
:10381000EE58FF4F8F4F0C94082D8DE796E00E94D5
:10382000E40760932D0670932E0680932F069093E5
:10383000300671C081E0913409F043C043C067E0B5
:1038400076E009C081E0933509F080E080930D06B1
:1038500062C06EE076E08DE796E00E945C075BC098
:1038600081E0973509F080E08093140654C08DE71D
:1038700096E00E94E40760933F06709340068093B1
:1038800041069093420647C08DE796E00E94E40708
:1038900060934D0670934E0680934F0690935006AA
:1038A0003AC08DE796E00E94002960931F0670934E
:1038B000200680932106909322062DC081E091334B
:1038C0000CF480E080938F0626C08DE796E00E947E
:1038D00000296093690670936A0680936B06909343
:1038E0006C0619C08DE796E00E94E40760937706A6
:1038F000709378068093790690937A060CC08DE7D2
:1039000096E00E94E40760935B0670935C068093E8
:103910005D0690935E06E0909206F0909306E114A7
:10392000F10491F1E0919206F091930666A177A1DE
:10393000D70196968D919C9197970E94712A892B19
:1039400019F5F70120A531A580918D0690E0821729
:103950009307D4F02817390739F440E150E06DE7B8
:1039600076E0C7010E94812AF701E2A4F3A4D7CF31
:103970006DE776E0C6010E94712A1816190624F434
:10398000109293061092920680918D068F5F80931D
:103990008D0610928E0681E00A3209F080E0809355
:1039A0007C0634CD10928E0610928D0610927B0606
:1039B000F2E0F0938C0610927C0610928F0626CDD2
:1039C000EE3040F481E08E0F80938E06F0E0E358F5
:1039D000F94F008380917C06811118CD80917B0680
:1039E000B02EB826B0927B0611CD8091F7058823C2
:1039F00009F45FC01092F8056091F9057091FA051D
:103A000080E090E00E94922B6B017C016091FB05AD
:103A10007091FC058091FD059091FE050E94922B0E
:103A200028E23BE64EE65EE40E94F92A9B01AC01E7
:103A3000C701B6010E94912A2091FF05DC01CB014C
:103A40002111B0588093D2079093D307A093D40745
:103A5000B093D507609100067091010680E090E078
:103A60000E94922B6B017C0160910206709103060B
:103A700080910406909105060E94922B28E23BE675
:103A80004EE65EE40E94F92A9B01AC01C701B60133
:103A90000E94912A20910606DC01CB012111B05829
:103AA0008093D6079093D707A093D807B093D907F0
:103AB00010C01092D2071092D3071092D407109220
:103AC000D5071092D6071092D7071092D8071092F8
:103AD000D907809151068823D9F01092520660913F
:103AE0005706709158068091590690915A060E9487
:103AF000942B20E030E048EC52E40E94F92A6093D5
:103B0000DA077093DB078093DC079093DD0708C02A
:103B10001092DA071092DB071092DC071092DD0793
:103B200080911906882399F010921A0680911B063D
:103B300090911C06A0911D06B0911E068093EE0781
:103B40009093EF07A093F007B093F10708C010928D
:103B5000EE071092EF071092F0071092F107809194
:103B60002706882399F010922806809129069091C3
:103B70002A06A0912B06B0912C068093F207909311
:103B8000F307A093F407B093F50708C01092F2076B
:103B90001092F3071092F4071092F50780915F06D8
:103BA000882399F0109260068091650690916606D0
:103BB000A0916706B09168068093EA079093EB079F
:103BC000A093EC07B093ED0708C01092EA0710929B
:103BD000EB071092EC071092ED0780916D06882399
:103BE00099F010926E068091730690917406A091E0
:103BF0007506B09176068093E6079093E707A09349
:103C0000E807B093E90708C01092E6071092E707AB
:103C10001092E8071092E907809143068823D9F0B3
:103C2000109244066091490670914A0680914B06B5
:103C300090914C060E94942B20E030E048EC52E436
:103C40000E94F92A6093E2077093E3078093E407E8
:103C50009093E5070CC080E090E0A0E8BFEB809374
:103C6000E2079093E307A093E407B093E507809100
:103C70003506882309F11092360660913B06709153
:103C80003C0680913D0690913E060E94942B21EACD
:103C900032EB43E05FE30E94482C20E030E048EC48
:103CA00052E40E94F92A6093DE077093DF07809345
:103CB000E0079093E1070CC080E090E0A0E8BFEB44
:103CC0008093DE079093DF07A093E007B093E107AE
:103CD000BE016F5F7F4F88E20E948C064A8150E0F0
:103CE000542F44278981482B5093D0064093CF0608
:103CF0002C8130E0322F22278B81282B3093D20663
:103D00002093D1068E8190E0982F88276D81862B95
:103D10009093D4068093D306609121076623F1F037
:103D20006091070770910807461B570B5093D00608
:103D30004093CF064091090750910A07241B350B89
:103D40003093D2062093D10620910B0730910C07B7
:103D5000821B930B9093D4068093D306C0901907CF
:103D6000D0901A07E0901B07F0901C076091CF06D7
:103D70007091D006882777FD8095982F0E94942B0C
:103D80009B01AC01C701B6010E94482C6093AB07B0
:103D90007093AC078093AD079093AE076091D10606
:103DA0007091D206882777FD8095982F0E94942BDA
:103DB0009B01AC01C701B6010E94482C6093AF077C
:103DC0007093B0078093B1079093B2076091D306C8
:103DD0007091D406882777FD8095982F0E94942BA8
:103DE0009B01AC01C701B6010E94482C6093B30748
:103DF0007093B4078093B5079093B6078091A4069B
:103E0000813049F4AE014F5F5F4F68E28091130744
:103E10000E9441060BC0811109C026E0AE014F5F30
:103E20005F4F68E2809113070E940B066A8170E081
:103E3000762F66278981682B7093D6066093D50606
:103E4000CC80D12CDC2CCC248B81C82AD092D806F3
:103E5000C092D706EE80F12CFE2CEE248D81E82A4C
:103E6000F092DA06E092D90680901D0790901E0726
:103E7000A0901F07B0902007882777FD8095982F86
:103E80000E94942B9B01AC01C501B4010E94482CF7
:103E90006093B7077093B8078093B9079093BA07F8
:103EA000B601882777FD8095982F0E94942B9B015F
:103EB000AC01C501B4010E94482C6093BB0770930C
:103EC000BC078093BD079093BE07B701882777FD95
:103ED0008095982F0E94942B9B01AC01C501B401E1
:103EE0000E94482C6093BF077093C0078093C1075E
:103EF0009093C207BE016F5F7F4F88E10E948C06DE
:103F00004A8150E0542F44278981482B5093CA0698
:103F10004093C9062C8130E0322F22278B81282B39
:103F20003093CC062093CB068E8190E0982F882783
:103F30006D81862B9093CE068093CD0660912107EC
:103F40006623F1F06091010770910207461B570B41
:103F50005093CA064093C906409103075091040745
:103F6000241B350B3093CC062093CB0620910507FC
:103F700030910607821B930B9093CE068093CD065B
:103F8000C0901507D0901607E0901707F09018071B
:103F90006091C9067091CA06882777FD8095982F91
:103FA0000E94942B9B01AC01C701B6010E94482CD2
:103FB0006093C3077093C4078093C5079093C607A7
:103FC0006091CB067091CC06882777FD8095982F5D
:103FD0000E94942B9B01AC01C701B6010E94482CA2
:103FE0006093C7077093C8078093C9079093CA0767
:103FF0006091CD067091CE06882777FD8095982F29
:104000000E94942B9B01AC01C701B6010E94482C71
:104010006093CB077093CC078093CD079093CE0726
:1040200080918302882391F10E947905882349F0C9
:104030008091360790913707A0913807B0913907E2
:1040400004C080E090E0A0ECBFE7809387079093E6
:104050008807A0938907B0938A070E94790588236F
:1040600049F08091320790913307A0913407B091C5
:10407000350704C080E090E0A0ECBFE780938B0799
:1040800090938C07A0938D07B0938E078091820246
:10409000882309F4CEC56091540770915507DB0160
:1040A000AF70BB27CB0188279093550780935407A7
:1040B00080E090E040E050E09A0135952795220F8E
:1040C000331FF901EA5BF84F40FF04C020818227CB
:1040D000E8E008C02180312C82259325F9CFC90161
:1040E000E15049F09C01220F331F97FFF8CFC9011F
:1040F000F0E39F27F5CF4F5F5F4F40315105E1F669
:104100007093550760935407892F992782958F7074
:10411000A817B90709F08DC50DC0109361070C945D
:10412000AF168AE792E00E94E91085E692E00E94CD
:10413000E9104BC98091560790915707A0915807F5
:10414000B091590780939B0790939C07A0939D077C
:10415000B0939E0780915A0790915B07A0915C07EE
:10416000B0915D0780939F079093A007A093A1074C
:10417000B093A20788E10E94D5046B017C0188E01E
:104180000E94D5044B015C01C701B6010E94922B2D
:104190006B017C01609150077091510780E090E0C5
:1041A0000E94922B20E030E040E853E40E94482C2B
:1041B0009B01AC01C701B6010E94902A6B017C01F2
:1041C00060914A0770914B0780E090E00E94922B2B
:1041D00020E030E040E058E40E94482C2B013C01F4
:1041E00060914E0770914F0780E090E00E94922B03
:1041F0009B01AC01C701B6010E94482C20E030E0D1
:1042000040E85CE30E94482C9B01AC01C301B20171
:104210000E94912A6D8F7E8F8F8F98A3609148079F
:104220007091490780E090E00E94922B20E030E0FE
:1042300040E857E40E94482C2B013C0160914C0758
:1042400070914D0780E090E00E94922B9B01AC01A1
:10425000C701B6010E94482C20E030E040E05CE35A
:104260000E94482C9B01AC01C301B2010E94912A1B
:1042700069A37AA38BA39CA3609152077091530703
:1042800080E090E00E94922B9B01AC01C701B60137
:104290000E94482C20E030E040E054E30E94482C8B
:1042A00020E030E04AEF54E40E94912A2B013C01C7
:1042B000C501B4010E94922B6DA37EA38FA398A782
:1042C00020E030E04AEF54E4C301B2010E94F52A35
:1042D00087FFA5C4A7019601C701B6010E94482C1B
:1042E00020E030E040E050E30E94482C698F7A8F54
:1042F0008B8F9C8F20E030E04AEF54E4C301B20181
:104300000E94902A4B015C0120E030E044E752E437
:104310000E94482CA50194010E94482C20E030E026
:1043200040E85DE30E94482C6B017C01A5019401EB
:10433000C501B4010E94912AA50194010E94482C54
:104340004B015C0120E030E84BEB54ECC301B201BF
:104350000E94F52A87FF38C020E030E84BEB54E498
:10436000C301B2010E94912A6D8B7E8B8F8B988F37
:1043700020E030E040E751E40E94482C2D893E893E
:104380004F89588D0E94482C9B01AC01C701B60192
:104390000E94912A6B017C0120E030E040E051E472
:1043A0006D897E898F89988D0E94482C2D893E8940
:1043B0004F89588D0E94482C9B01AC01C501B40166
:1043C0000E94912A4B015C01298D3A8D4B8D5C8DA9
:1043D000C301B2010E94902A60935A0770935B0751
:1043E00080935C0790935D07A501940169A17AA170
:1043F0008BA19CA10E94902A9B01AC016DA17EA182
:104400008FA198A50E94482C20E030E040E055E3C1
:104410000E94482C4B015C01A70196016D8D7E8D99
:104420008F8D98A10E94902A9B01AC01C501B40117
:104430000E94902A20E030E040E058E30E94482C9F
:1044400060935607709357078093580790935907C6
:10445000BE016F5F7F4F80E090E00E946D12898106
:10446000882309F4CAC060E0CE010A960E940A0BB4
:10447000811105C060E070E08EEF92EC49C0BE0192
:104480006F5F7F4FCE010A960E94C50A882359F1BB
:10449000698128E0629FB00111248A81282F30E0D1
:1044A000322F2227330F330F330F262B372B8A85DA
:1044B0008031E1F4688570E08F81AB01481B5109C0
:1044C000CA019695982F8827979587950E94D22C98
:1044D00060517109207FF3E0220F331FFA95E1F755
:1044E000620F731F04C060E874EE01C0B901613847
:1044F00054EE75070CF4BECF882777FD8095982F72
:104500000E94942B20E030E040E05CE30E94482CC5
:104510006093830770938407809385079093860741
:1045200060E0CE010A960E940A0BCE010A960E9414
:10453000D80A082F882309F46CC0809166079091EF
:1045400067070E94130D882309F463C0BE01665FEC
:104550007F4F80916607909167070E94E60C40911B
:10456000610764E480916607909167070E94A40C3C
:1045700080916307882309F44CC0E7EFE00FE33034
:1045800040F4F0E0EE0FFF1FE85EFD4FC080D180E9
:1045900004C04EEEC42E42E0D42E809164078823DE
:1045A00021F180916107811120C00E94DC144B0130
:1045B0005C01EE24D7FCE094FE2CBE016F5F7F4FC0
:1045C000CE010A960E946D128981811122C00E943B
:1045D000DC14DC01CB018C199D09AE09BF098815DB
:1045E0009905AA05BB0548F314C0B601882777FDD5
:1045F0008095982F0E94A2140CC080E090E0AAE75A
:10460000B4E48093830790938407A0938507B093C5
:10461000860782E00E94291224E0969587952A95C4
:10462000E1F7BC0180E090E00E94922B20E030E0B6
:1046300048E454E40E94F92A609393077093940726
:10464000809395079093960784E00E9429125C015D
:10465000692F772780E090E00E94922B6B017C010C
:10466000B5017727882777FD8095982F0E94942B96
:1046700020E030E040E85BE30E94482C9B01AC0165
:10468000C701B6010E94912A60939707709398071B
:104690008093990790939A0780918102882311F162
:1046A000AE014F5F5F4FBE016E5E7F4F83E297E0CA
:1046B0000E949D096A897B897093A6076093A5076C
:1046C00049815A815093A4074093A30783E297E05E
:1046D0000E943F086093A7077093A8078093A907DB
:1046E0009093AA070E941112BC01882777FD80953C
:1046F000982F0E94942B60938F077093900780935C
:10470000910790939207C0909307D0909407E09000
:104710009507F09096072DEC3CEC4CE450E4C70173
:10472000B6010E94F52A181694F48090970790908D
:104730009807A0909907B0909A0720E030E040EAEF
:1047400051E4C501B4010E94F52A87FF03C010920D
:10475000840216C02AE939E949E550E4C701B601E7
:104760000E94442C181664F420E030E048EC51E438
:10477000C501B4010E94442C181614F4109384024D
:1047800020E030E0A901C701B6010E94F52A882384
:10479000A1F08EEC93E00E94C81060919307709195
:1047A0009407809195079091960742E050E00E940F
:1047B00002128BEC93E00E94C810C0909707D09033
:1047C0009807E0909907F0909A0720E030E048ECD5
:1047D00052E4C701B6010E94F52A181654F042E0CF
:1047E00050E0C701B6010E94021289EC93E00E94DA
:1047F000C8100E948310C0908B07D0908C07E09067
:104800008D07F0908E0720E030E0A901C701B601C6
:104810000E94442C18163CF442E050E0C701B60157
:104820000E94021204C086EC93E00E94C81083EC40
:1048300093E00E94C810C0908707D0908807E0904E
:104840008907F0908A0720E030E04AE754E4C70186
:10485000B6010E94F52A8823A9F026E636E646EE40
:104860005FE3C701B6010E94482C20E030E040E041
:1048700052E40E94912A42E050E00E94021280EC31
:1048800093E002C08DEB93E00E94C81088EB93E0A8
:104890000E94C8106091A7077091A8078091A9078E
:1048A0009091AA074AE00E94871086EB93E00E944D
:1048B000C8106091A3077091A40780E090E04AE0DF
:1048C0000E94871084EB93E00E94C8106091A507B6
:1048D0007091A60780E090E04AE00E94871082EB8A
:1048E00093E00E94C81060918F07709190078091AB
:1048F0009107909192070E9404128EEA93E00E9421
:10490000C8106091B7077091B8078091B90790916E
:10491000BA0742E050E00E9402128CEA93E00E9443
:10492000C8106091BB077091BC078091BD07909142
:10493000BE0742E050E00E9402128AEA93E00E9421
:10494000C8106091BF077091C0078091C107909116
:10495000C2070E94041287EA93E00E94C810609187
:10496000AB077091AC078091AD079091AE0742E024
:1049700050E00E94021285EA93E00E94C810609104
:10498000AF077091B0078091B1079091B20742E0F4
:1049900050E00E94021283EA93E00E94C8106091E6
:1049A000B3077091B4078091B5079091B6070E9444
:1049B000041280EA93E00E94C8106091C3077091CE
:1049C000C4078091C5079091C60742E050E00E945D
:1049D00002128EE993E00E94C8106091C70770919F
:1049E000C8078091C9079091CA0742E050E00E9431
:1049F00002128CE993E00E94C8106091CB0770917D
:104A0000CC078091CD079091CE070E94041260914F
:104A10009B0770919C0780919D0790919E0742E0B3
:104A200050E00E94021288E993E00E94C8102CEB2B
:104A300034E743E95CE360919F077091A0078091A0
:104A4000A1079091A2070E94482C20E030E040E0AE
:104A500052E40E94912A42E050E00E94021285E94D
:104A600093E00E94E9108BE893E00E94C81026E6CC
:104A700036E646EE5FE3609183077091840780918C
:104A80008507909186070E94482C20E030E040E0A6
:104A900052E40E94912A42E050E00E94021288E80B
:104AA00093E00E94E9106091EE077091EF0780910A
:104AB000F0079091F1074AE00E94871085E893E0A3
:104AC0000E94C8106091F2077091F3078091F4077B
:104AD0009091F5074AE00E94871082E893E00E94D7
:104AE000C8106091D2077091D3078091D40790913C
:104AF000D50746E050E00E9402128FE793E00E9443
:104B0000C8106091D6077091D7078091D80790910F
:104B1000D90746E050E00E9402128CE793E00E9421
:104B2000C8106091DA077091DB078091DC079091E3
:104B3000DD0746E050E00E94021289E793E00E9400
:104B4000C81086E793E00E94C8106091DE0770915C
:104B5000DF078091E0079091E10742E050E00E947A
:104B6000021280E793E00E94C8106091E207709102
:104B7000E3078091E4079091E50742E050E00E944E
:104B800002128AE693E00E94C8106091EA077091D1
:104B9000EB078091EC079091ED074AE00E948710A7
:104BA00087E693E00E94C8106091E6077091E707DE
:104BB0008091E8079091E9074AE00E94871085E616
:104BC00093E00E94E91089E593E00E94C81060918B
:104BD0009C0670919D0680919E0690919F064AE0EA
:104BE0000E9487100E9483108FE493E00E94C810F7
:104BF0000E94DC1428EE33E040E050E00E94E62CF6
:104C0000CA01B9014AE00E94871086E493E00E943D
:104C1000E9100E9483100E94F80B0C94021A812C58
:104C2000912C540175016401898E9A8EAB8EBC8ED5
:104C3000CBCB10929B0710929C0710929D0710926D
:104C40009E0780E090E0AAE7B4E480939F079093EA
:104C5000A007A093A107B093A207FACB10923D073B
:104C600010923C0788EE93E0A0E0B0E080933E070E
:104C700090933F07A0934007B093410722E232E0B0
:104C800030933B0720933A071092400310923F0362
:104C90008093410390934203A0934303B093440352
:104CA00022E332E030933E0320933D0345EC50E095
:104CB00050934A034093490344EC50E050934C0313
:104CC00040934B0340EC50E050934E0340934D0310
:104CD00041EC50E05093500340934F0342EC50E0BE
:104CE000509352034093510346EC50E050935403C9
:104CF0004093530310925603109257031092580397
:104D00001092590310929D0410929C0480939E046B
:104D100090939F04A093A004B093A10430939B04AC
:104D200020939A048DEC90E09093A7048093A604BE
:104D30008CEC90E09093A9048093A80488EC90E018
:104D40009093AB048093AA0489EC90E09093AD0417
:104D50008093AC048AEC90E09093AF048093AE040F
:104D60008EEC90E09093B1048093B0041092B30461
:104D70001092B4041092B5041092B60410928307F6
:104D800010928407109285071092860710928B0765
:104D900010928C0710928D0710928E0710928F0739
:104DA0001092900710929107109292071092970715
:104DB000109298071092990710929A0710929B07E9
:104DC00010929C0710929D0710929E0710929F07C9
:104DD0001092A0071092A1071092A2071092A607A6
:104DE0001092A5071092A7071092A8071092A90782
:104DF0001092AA071092B3071092B4071092B50749
:104E00001092B6071092BF071092C0071092C10708
:104E10001092C2071092CB071092CC071092CD07C8
:104E20001092CE071092D1071092D6071092D70792
:104E30001092D8071092D9071092DA071092DB0768
:104E40001092DC071092DD071092E2071092E30740
:104E50001092E4071092E5071092E6071092E70718
:104E60001092E8071092E9071092EA071092EB07F8
:104E70001092EC071092ED071092EE071092EF07D8
:104E80001092F0071092F1071092F2071092F307B8
:104E90001092F4071092F50780E68093820760E095
:104EA00082E00E946614EAE3F5E0E491E09374077F
:104EB000E4EFF4E0E491F0E0EE0FFF1FE852FB4F67
:104EC00085919491909376078093750710927F0750
:104ED0001092810710928007EFE7F7E0129287E0C7
:104EE000E737F807D9F78DE39BE09093730780933A
:104EF000720784E797E090936707809366071092A4
:104F000065071092610789E08093620781E08093D2
:104F100063078093640796E790935E072AE337E080
:104F20003093600720935F0722E432E03093240738
:104F30002093230799E39093260710922707109256
:104F4000280710922A071092290710922C07109216
:104F50002B0749E350E360E070E040932D07509346
:104F60002E0760932F07709330078093A4069BE66B
:104F70009093A5069EE19093A6068093A706809342
:104F8000B3068093B4068093B50625EF30E03093E6
:104F9000A9062093A80696E09093AA061092AB0665
:104FA0001092AC061092AD061092AE061092AF06AB
:104FB0001092B0061092B1061092B2068093B60617
:104FC0008093B7068093BA068093BB068093BC0695
:104FD00022E02093B8069093B9069FEF9093BD0608
:104FE0001092BE061092BF068093C00694E0909384
:104FF000C10697E09093C2061092C30693E0909387
:10500000C4069093C5061092C6061092C7068093F8
:10501000C806E4EAF6E020E030E011AE12AE13AECE
:1050200014AEDF01AB5BBF4F1D921D921D921C920F
:1050300013971C961D921D921D921C921397C901E5
:105040008C55994FDC01A35ABF4F11961C921E92AA
:10505000169611961C921E9216961D921C923496CC
:105060002E5F3F4F26303105C1F610922107109276
:10507000F7051092F8051092FA051092F9051092B2
:10508000FB051092FC051092FD051092FE05109292
:10509000FF0510920106109200061092020610926F
:1050A000030610920406109205061092060610924E
:1050B0000806109207061092090610920A0610922E
:1050C0000B0610920C0610920D0610920F0610920D
:1050D0000E061092100610921106109212061092EF
:1050E0001306109214061092190610921A061092C6
:1050F0001B0610921C0610921D0610921E0610929E
:105100002706109228061092290610922A0610925D
:105110002B0610922C06109235061092360610922D
:105120003B0610923C0610923D0610923E061092ED
:105130004306109244061092490610924A061092B5
:105140004B0610924C061092510610925206109285
:105150005706109258061092590610925A0610924D
:105160005F06109260061092650610926606109215
:1051700067061092680610926D0610926E061092E5
:1051800073061092740610927506109276061092AD
:105190007B0610927C0682E080938C0610928D062E
:1051A00010928E0610928F06109291061092900621
:1051B0001092930610929206109294061092950601
:1051C00010929606109297061092980610929906E1
:1051D00010929A0610929B0610929C0610929D06C1
:1051E00010929E0610929F061092A0061092A106A1
:1051F0001092A2061092A30610927D0608950895BB
:105200001F93FC0199278827BC01E8941191103263
:10521000E9F3193010F01E30C8F31B3251F01D3283
:1052200049F4689406C00E942A29610F711D811DEE
:10523000911D119110531A30B0F33EF49095809562
:10524000709561957F4F8F4F9F4F1F910895F894F0
:105250000C94332D592F482F372F262F660F771F89
:10526000881F991F660F771F881F991F620F731F72
:10527000841F951F660F771F881F991F0895CF936E
:10528000DF938230910510F482E090E0E091010814
:10529000F091020820E030E0C0E0D0E0309711F15A
:1052A0004081518148175907C0F04817590761F4E8
:1052B00082819381209719F09B838A832BC09093DE
:1052C00002088093010826C02115310519F0421704
:1052D000530718F49A01BE01DF01EF010280F38148
:1052E000E02DDCCF2115310509F1281B390B2430C5
:1052F000310590F412968D919C911397611571056B
:1053000021F0FB019383828304C090930208809371
:105310000108FD01329644C0FD01E20FF31F8193A5
:105320009193225031092D933C933AC02091FF076D
:1053300030910008232B41F42091020230910302A6
:10534000309300082093FF07209100023091010262
:105350002115310541F42DB73EB74091040250911B
:105360000502241B350BE091FF07F0910008E217BE
:10537000F307A0F42E1B3F0B2817390778F0AC0178
:105380004E5F5F4F2417350748F04E0F5F1F509355
:1053900000084093FF078193919302C0E0E0F0E0A2
:1053A000CF01DF91CF9108950F931F93CF93DF9398
:1053B000009709F48CC0FC0132971382128200918D
:1053C0000108109102080115110581F42081318135
:1053D000820F931F2091FF0730910008281739078B
:1053E00079F5F0930008E093FF0771C0D80140E021
:1053F00050E0AE17BF0750F412962D913C911397D1
:10540000AD012115310509F1D901F3CF9D01DA0173
:105410003383228360817181860F971F82179307E0
:1054200069F4EC0128813981260F371F2E5F3F4F29
:10543000318320838A819B8193838283452B29F446
:10544000F0930208E093010842C01396FC93EE9398
:105450001297ED01499159919E01240F351FE217D2
:10546000F30771F480819181840F951F0296119644
:105470009C938E938281938113969C938E93129723
:10548000E0E0F0E0D80112968D919C91139700977F
:1054900019F0F8018C01F6CF8D919C9198012E5F47
:1054A0003F4F820F931F2091FF073091000828176C
:1054B000390769F4309729F4109202081092010814
:1054C00002C013821282109300080093FF07DF913D
:1054D000CF911F910F91089581E090E0F8940C9482
:1054E000332DFB01DC018D91019080190110D9F35E
:1054F000990B0895FB01DC0101900D920020E1F76A
:105500000895FB01DC014150504048F001900D929C
:105510000020C9F701C01D9241505040E0F70895A6
:105520005058BB27AA270ED075C166D130F06BD179
:1055300020F031F49F3F11F41EF45BC10EF4E095AE
:10554000E7FB51C1E92F77D180F3BA1762077307E0
:105550008407950718F071F49EF58FC10EF4E0955D
:105560000B2EBA2FA02D0B01B90190010C01CA011D
:10557000A0011124FF27591B99F0593F50F4503EC8
:1055800068F11A16F040A22F232F342F4427585FBA
:10559000F3CF469537952795A795F0405395C9F7D2
:1055A0007EF41F16BA0B620B730B840BBAF091508A
:1055B000A1F0FF0FBB1F661F771F881FC2F70EC029
:1055C000BA0F621F731F841F48F4879577956795FC
:1055D000B795F7959E3F08F0B3CF9395880F08F0E5
:1055E0009927EE0F979587950895D9D008F481E013
:1055F00008950CD00FC107D140F0FED030F021F457
:105600005F3F19F0F0C0511139C1F3C014D198F3C4
:105610009923C9F35523B1F3951B550BBB27AA2733
:1056200062177307840738F09F5F5F4F220F331FA5
:10563000441FAA1FA9F333D00E2E3AF0E0E830D071
:1056400091505040E695001CCAF729D0FE2F27D074
:10565000660F771F881FBB1F261737074807AB0742
:10566000B0E809F0BB0B802DBF01FF2793585F4FB7
:105670002AF09E3F510568F0B6C000C15F3FECF3D1
:10568000983EDCF3869577956795B795F7959F5F7C
:10569000C9F7880F911D9695879597F90895E1E0D0
:1056A000660F771F881FBB1F621773078407BA072F
:1056B00020F0621B730B840BBA0BEE1F88F7E0958A
:1056C000089504D06894B111D9C00895BCD088F071
:1056D0009F5790F0B92F9927B751A0F0D1F0660FDE
:1056E000771F881F991F1AF0BA95C9F712C0B130F9
:1056F00081F0C3D0B1E00895C0C0672F782F88270C
:10570000B85F39F0B93FCCF3869577956795B39537
:10571000D9F73EF490958095709561957F4F8F4FA6
:105720009F4F0895E89409C097FB3EF490958095AB
:10573000709561957F4F8F4F9F4F9923A9F0F92F57
:1057400096E9BB279395F695879577956795B795D5
:10575000F111F8CFFAF4BB0F11F460FF1BC06F5FBB
:105760007F4F8F4F9F4F16C0882311F096E911C0CD
:10577000772321F09EE8872F762F05C0662371F0EE
:1057800096E8862F70E060E02AF09A95660F771F02
:10579000881FDAF7880F9695879597F90895990FDE
:1057A0000008550FAA0BE0E8FEEF16161706E807EB
:1057B000F907C0F012161306E407F50798F0621B0C
:1057C000730B840B950B39F40A2661F0232B242BE1
:1057D000252B21F408950A2609F4A140A6958FEF00
:1057E000811D811D089597F99F6780E870E060E052
:1057F00008959FEF80EC089500240A94161617066A
:1058000018060906089500240A94121613061406B1
:1058100005060895092E0394000C11F4882352F014
:10582000BB0F40F4BF2B11F460FF04C06F5F7F4FCC
:105830008F4F9F4F089557FD9058440F551F59F0B3
:105840005F3F71F04795880F97FB991F61F09F3F6D
:1058500079F087950895121613061406551FF2CF96
:105860004695F1DF08C0161617061806991FF1CFE6
:1058700086957105610508940895E894BB2766270D
:105880007727CB0197F908958ADF08F48FEF089501
:105890000BD0C0CFB1DF28F0B6DF18F0952309F0A8
:1058A000A2CFA7CF1124EACFC6DFA0F3959FD1F3F3
:1058B000950F50E0551F629FF001729FBB27F00DBE
:1058C000B11D639FAA27F00DB11DAA1F649F662713
:1058D000B00DA11D661F829F2227B00DA11D621F62
:1058E000739FB00DA11D621F839FA00D611D221F1C
:1058F000749F3327A00D611D231F849F600D211D00
:10590000822F762F6A2F11249F5750408AF0E1F0A2
:1059100088234AF0EE0FFF1FBB1F661F771F881FEB
:1059200091505040A9F79E3F510570F05CCFA6CF33
:105930005F3FECF3983EDCF3869577956795B795D6
:10594000F795E7959F5FC1F7FE2B880F911D969500
:10595000879597F9089523DF880B990B08950E9486
:10596000102DA59F900DB49F900DA49F800D911DAB
:1059700011240895B7FF0C94AF2C0E94AF2C821B0A
:10598000930B0895DB018F939F930E94AF2CBF91DF
:10599000AF91A29F800D911DA39F900DB29F900D7E
:1059A0001124089597FB072E16F4009407D077FD75
:1059B00009D00E941F2D07FC05D03EF490958195DB
:1059C0009F4F0895709561957F4F0895A1E21A2E1B
:1059D000AA1BBB1BFD010DC0AA1FBB1FEE1FFF1F93
:1059E000A217B307E407F50720F0A21BB30BE40BE3
:1059F000F50B661F771F881F991F1A9469F760952A
:105A00007095809590959B01AC01BD01CF010895E3
:105A1000EE0FFF1F881F8BBF0790F691E02D1994A2
:105A2000A29FB001B39FC001A39F700D811D1124DF
:105A3000911DB29F700D811D1124911D0895AA1B07
:105A4000BB1B51E107C0AA1FBB1FA617B70710F069
:105A5000A61BB70B881F991F5A95A9F7809590959B
:105A6000BC01CD01089512E0C0EFD2E000E006C015
:105A7000802FFE010E94082D2196011DC13FD107F4
:0A5A800080E00807A9F7F894FFCFB3
:105A8A0000000308200008020200000202000020B1
:105A9A0000000040000000605E00BC0077010000CA
:105AAA000000A70B6A0B620B4E0B3F0B3E0B00006C
:105ABA000000820FC212F10BD00BE30BC90F0000DA
:105ACA0000003215291342032F0ADF0300000000E9
