:100000000C945C050C948D050C948D050C948D0559
:100010000C948D050C948D050C948D050C948D0518
:100020000C948D050C948D050C9459110C9436117B
:100030000C948D050C948D050C948D050C948D05F8
:100040000C948D050C948D050C948D050C948D05E8
:100050000C948D050C948D050C948D050C94B507AE
:100060000C948D050C9422060C94F8050C948D05C7
:100070000C948D050C948D050C948D050C948D05B8
:100080000C948D050C948D050C948D050C948D05A8
:100090000C9481060C9457060C948D050C942F211A
:1000A0000C948D050C948D050C948D050C948D0588
:1000B0000C948D050C948D050C948D050C948D0578
:1000C0000C948D050C948D050C948D050C948D0568
:1000D0000C948D050C948D050C948D050C948D0558
:1000E0000C948D05E506E806D706DB06DF061F073C
:1000F000EC06F006F606FA06FE06040708070C07EB
:100100001F07120716071A07960DA80DAB0DB20DA3
:10011000B90DE70DEE0DFB0D080E140E140E140EA6
:10012000140E140E140E140E140E140E140E140EBF
:10013000140E140E140E140E140E140E140E140EAF
:10014000140E140E140E140E960DA30DA80DAB0D67
:10015000B20DB90DC00DCD0DDA0D0C9475200C94B7
:10016000AB0D0C9404070C94D01F0C94F6050C9462
:100170001F070C941A070C94F0060C94DF060C94DD
:1001800014180C94F41F0C94FC1F0C94EC060C94A3
:1001900062200C94CD0D0C9412070C94DB060C9489
:1001A000DA0D0C94D11F0C94E01F0C94A30D0C9449
:1001B000FE060C94FB0D0C942B240C94FF070C945E
:1001C000B90D0C94FA060C94471F0C94E8060C9495
:1001D0008F050C94E5060C94F6060C9494380C9458
:1001E000E4230C94080E0C94D7060C94DF050C94B1
:1001F000B20D0C9483200C94C00D0C94EE0D0C9455
:10020000140E0C9415180C9493380C9408070C9445
:1002100018180C9416070C940C070C94E70D0C940A
:10022000E0050C9439200C94A80D0C94960D2044F4
:1002300075726174696F6E3A200020537175617236
:10024000653A2000467265713A20002000456E64D0
:100250003A200020005061796C6F61643A200020E0
:100260000000002200250028002B002E0031003461
:100270000002010000050108010B012052696768B6
:10028000743A20002043757272656E743A20004CF7
:100290006566743A20000A466F756E642074616961
:1002A0006C206F66206C6F6720617420626C6F63D6
:1002B0006B3A200020626C6F636B73004361726461
:1002C0002073697A653A2000536F6D657468696EB2
:1002D000672077726F6E6720696E6974696C697ADE
:1002E000696E67205344436172642E2E2E0A457254
:1002F000726F723A200052657175657374696E672A
:10030000204453313842323020616C6C2074656D6A
:1003100070732E2E2E0045787465726E616C2054B9
:10032000656D702053656E736F7220466F756E64D5
:1003300000496E7465726E616C2054656D70205357
:10034000656E736F7220466F756E6400555620544B
:10035000656D702053656E736F7220466F756E64A5
:100360000054534C323536312054656D702053653E
:100370006E736F7220466F756E6400475053205441
:10038000656D702053656E736F7220466F756E6475
:1003900000437573746F6D2054656D702053656EE6
:1003A000736F7220466F756E64004D61696E2054E4
:1003B000656D702053656E736F7220466F756E6445
:1003C0000020002044533138423230206465766981
:1003D000636520666F756E643A20004572726F72B5
:1003E00020636F6E6E656374696E6720746F204D55
:1003F00053353630372E2E2E004F6F6F70732C20F2
:100400006E6F2054534C3235363120646574656309
:10041000746564202E2E2E20436865636B20796FEF
:10042000757220776972696E67206F722049324356
:1004300020414444522100446F75626C652D63680D
:1004400065636B20776972696E672E004661696C1F
:10045000656420746F20636F6D6D756E6963617480
:10046000652077697468204C534D394453312E0010
:10047000544C53323536313A2000202053485433FF
:10048000313A20004C534D394453313A2000204D2D
:1004900053353630373A2000445331384232303AFF
:1004A00020002D2D2D2D2D2D2D2D2D2D2D2D2D00E3
:1004B0000A53656E736F727320666F756E640051B8
:1004C0007569636B2D7374617274696E67206675EC
:1004D000656C2067617567652E2E2E00436F6E6612
:1004E00069677572696E67206675656C20676175EE
:1004F00067652E2E2E00436F6E6669677572696E92
:10050000672053485433312E2E2E00436F6E666998
:10051000677572696E67204C534D394453312E2EE6
:100520002E00436F6E6669677572696E672054535B
:100530004C323536312E2E2E00436F6E666967754C
:1005400072696E67204D53353630372E2E2E00439C
:100550006F6E6669677572696E6720445331384201
:100560003230732E2E2E00436F6E66696775726986
:100570006E6720476569676572732E2E2E00436F84
:100580006E6669677572696E672053444361726471
:100590002E2E2E00436F6E6669677572696E672036
:1005A0004750532E2E2E0048617264776172652089
:1005B00053657269616C2062756666657220736945
:1005C0007A653A20000A0D52657374617274696E1F
:1005D000672048414220436F6E74726F6C6C657285
:1005E000001F1C1F1E1F1E1F1F1E1F1E1F4578746D
:1005F00065726E616C3A2000496E7465726E616C52
:100600003A20004D61696E3A20002A2A2A2A2A2AB5
:100610002A2A2A2A2A2A2A2A2A2A0A0020577269DA
:100620007465204572726F72733A20004352432002
:100630004572726F72733A20002043524320414644
:100640005445523A20002A2A2A2A2A2A2A2A2A2AC1
:100650002A2A2A2A2A2A0A0D435243204245464F73
:1006600052453A20000A0D2A2A2A2A2A2A2A2A2A08
:100670002A2A2A2A2A2A2A2A2A2A2A2A2A2A2A0AFA
:100680000D2A2020202020435243204D49534D4124
:1006900054434820202020202A0A0D2A2A2A2A2AC8
:1006A0002A2A2A2A2A2A2A2A2A2A2A2A2A2A2A2AAA
:1006B0002A2A2A005374617475733A2000534463E4
:1006C000617264205772697465204572726F723A64
:1006D0002000204E4F5420656D7074792E2E2E20F0
:1006E000736B697070696E672E0053446361726446
:1006F00020626C6F636B20002F00534420426C6FAC
:10070000636B3A20000A53656E736F7220646174E4
:10071000612073697A653A200053442063617264F2
:10072000207061636B696E672073746172742061FD
:100730006464726573733A20004E756D6265722051
:100740006F6620737472756374757265732070615F
:10075000636B65643A20004C6F6767696E6720645D
:100760006174612E2E2E0052656164696E6720737C
:10077000656E736F72732E2E2E0000030205000348
:10078000050104060204207365636F6E64730A003A
:1007900055702074696D653A20002F002F00476561
:1007A000696765723A2000435243204552524F52C6
:1007B0003A2000206D00206D2C2056444F503A20E6
:1007C0000020736174732C2048444F503A2000205D
:1007D0006465672C2000206D70732C2000206D2C28
:1007E00020002C20002C20002C20002C20002C206D
:1007F000002C20435553543A20002C2055563A20C3
:10080000002C2054534C3A20002C204750533A20BF
:10081000002C2045783A20002C20496E3A200044D4
:100820005331384232300A0D4D61696E3A20002052
:1008300046200020506120002F002F00473A002F53
:10084000002F00413A002F002F004D3A002F002FBB
:10085000002F004C3A0058580020462000585800FD
:10086000252000250020562000566F6C74616765B6
:100870003A200000000A0B02090C0D0E08070304C1
:100880000100000000000000000000000000000067
:100890000000000000000000000000000000001246
:1008A0001110000000000000000000000000000027
:1008B000000000000000000000005EBCE2613FDDBF
:1008C00083C29C7E20A3FD1F419DC3217FFCA240CB
:1008D0001E5F01E3BD3E6082DC237D9FC1421CFEA2
:1008E000A0E1BF5D0380DE3C62BEE0025CDF8163AD
:1008F0003D7C22C09E1D43A1FF4618FAA427799B88
:10090000C584DA3866E5BB5907DB856739BAE40682
:10091000581947A5FB7826C49A653BD987045AB86D
:10092000E6A7F91B45C6987A24F8A6441A99C72564
:100930007B3A6486D85B05E7B98CD2306EEDB35153
:100940000F4E10F2AC2F7193CD114FADF3702ECC32
:1009500092D38D6F31B2EC0E50AFF1134DCE907239
:100960002C6D33D18F0C52B0EE326C8ED0530DEF14
:10097000B1F0AE4C1291CF2D73CA947628ABF51717
:10098000490856B4EA6937D58B5709EBB536688AFA
:10099000D495CB2977F4AA4816E9B7550B88D634F5
:1009A0006A2B7597C94A14F6A8742AC896154BA9DC
:1009B000F7B6E80A54D7896B3500002100240027D8
:1009C000002A002D0030003300010100000401075F
:1009D000010A01000020002300260029002C002F1E
:1009E00000320000010000030106010901050505B0
:1009F00005070508080808020202020A0A08080496
:100A000004040401010101010101010303030303C3
:100A1000030303040707070C0C0C0C0C0C0C0C0252
:100A200002020206060606060606060B0B0B0B0B59
:100A30000B0B0B0102102020080810204010204052
:100A40008002010201080402010102040810204092
:100A500080804020100804020180040201804020B0
:100A600010080402010804020101020408102040D9
:100A70008001020408102040804E414E494E4954E6
:100A800059494E46CDCCCC3D0AD7233C17B7D13877
:100A900077CC2B329595E6241FB14F0A00002041F8
:100AA0000000C84200401C4620BCBE4CCA1B0E5A67
:100AB000AEC59D749438933811241FBECFEFD1E298
:100AC000DEBFCDBF00E00CBF1CE0A6EDB2E001C070
:100AD0001D92AA3FB107E1F712E0A0E0B2E0ECE31B
:100AE000F4E800E00BBF02C007900D92A63DB107ED
:100AF000D9F715E0CBE5D5E000E006C02197010964
:100B0000802FFE010E940442CA35D10780E0080709
:100B1000A9F70E9489250C94B23D0C940000CF9255
:100B2000DF92EF92FF920F931F93CF93DF936C01AD
:100B30007A018B01C0E0D0E0CE15DF0589F0D80145
:100B40006D918D01D601ED91FC910190F081E02D28
:100B5000C6011995892B11F47E0102C02196ECCFB4
:100B6000C701DF91CF911F910F91FF90EF90DF9020
:100B7000CF9008953FB7F8948091F8029091F902D0
:100B8000A091FA02B091FB0226B5A89B05C02F3FA9
:100B900019F00196A11DB11D3FBFBA2FA92F982FA3
:100BA0008827820F911DA11DB11DBC01CD0142E01E
:100BB000660F771F881F991F4A95D1F708950895EA
:100BC0000E944D408FEB93E00E94832021E0892B0F
:100BD00009F420E0822F08958CE195E00E948320A3
:100BE00021E0892B09F420E0822F08950C94B53F71
:100BF0001F920F920FB60F9211240BB60F922F93E4
:100C00003F934F935F936F937F938F939F93AF9394
:100C1000BF93EF93FF938FEB93E00E94C323FF9169
:100C2000EF91BF91AF919F918F917F916F915F9164
:100C30004F913F912F910F900BBE0F900FBE0F90D1
:100C40001F9018951F920F920FB60F9211240BB69A
:100C50000F922F938F939F93EF93FF93E091CF0386
:100C6000F091D0038081E091D503F091D60382FD0D
:100C700011C090818091D8038F5F2091D903821792
:100C800051F0E091D803F0E0E154FC4F958F809350
:100C9000D80301C08081FF91EF919F918F912F9197
:100CA0000F900BBE0F900FBE0F901F9018951F92C4
:100CB0000F920FB60F9211240BB60F922F933F9302
:100CC0004F935F936F937F938F939F93AF93BF9354
:100CD000EF93FF938CE195E00E94C323FF91EF9186
:100CE000BF91AF919F918F917F916F915F914F9144
:100CF0003F912F910F900BBE0F900FBE0F901F9042
:100D000018951F920F920FB60F9211240BB60F92E7
:100D10002F938F939F93EF93FF93E0912C05F09186
:100D20002D058081E0913205F091330582FD11C0DF
:100D30009081809135058F5F20913605821751F0A3
:100D4000E0913505F0E0E45EFA4F958F809335052C
:100D500001C08081FF91EF919F918F912F910F9012
:100D60000BBE0F900FBE0F901F901895362F90E07E
:100D7000FC01ED58F74F4491FC01ED5CF54F2491D7
:100D8000FC01E351F64F9491992309F46BC044237D
:100D900009F455C050E0FA013197E231F10508F04D
:100DA0004EC08827EE58FF4F8F4F0C94044280911D
:100DB00080008F7707C0809180008F7D03C0809175
:100DC0008000877F809380003AC084B58F7702C00F
:100DD00084B58F7D84BD33C08091B0008F7703C010
:100DE0008091B0008F7D8093B00029C080919000E9
:100DF0008F7707C0809190008F7D03C08091900015
:100E0000877F809390001BC08091A0008F7707C0E0
:100E10008091A0008F7D03C08091A000877F809388
:100E2000A0000DC0809120018F7707C08091200124
:100E30008F7D03C080912001877F80932001E92F5F
:100E4000F0E0EE0FFF1FEF59FD4FA591B4918FB762
:100E5000F894EC91311103C020952E2301C02E2B64
:100E60002C938FBF0895CF93DF9390E0FC01ED5C4E
:100E7000F54F2491FC01E351F64F8491882361F1F1
:100E800090E0880F991FFC01E754F64FC591D4916B
:100E9000FC01EF59FD4FA591B491611109C09FB7B5
:100EA000F8948881209582238883EC912E230BC0AF
:100EB000623061F49FB7F8943881822F8095832344
:100EC0008883EC912E2B2C939FBF06C08FB7F8948C
:100ED000E8812E2B28838FBFDF91CF9108958F92C9
:100EE0009F92AF92BF92CF92DF92EF92FF926B01EF
:100EF0007C010E94BA054B015C01C114D104E104DC
:100F0000F104F1F00E94BA05DC01CB0188199909BE
:100F1000AA09BB09883E9340A105B10570F321E001
:100F2000C21AD108E108F10888EE880E83E0981E05
:100F3000A11CB11CC114D104E104F10419F7DDCFE7
:100F4000FF90EF90DF90CF90BF90AF909F908F90E9
:100F500008952FB7F8946091F4027091F502809192
:100F6000F6029091F7022FBF08951F920F920FB6CD
:100F70000F9211242F933F938F939F93AF93BF931F
:100F80008091F4029091F502A091F602B091F702DF
:100F90003091F30223E0230F2D3720F40196A11D99
:100FA000B11D05C026E8230F0296A11DB11D209397
:100FB000F3028093F4029093F502A093F602B093AB
:100FC000F7028091F8029091F902A091FA02B09193
:100FD000FB020196A11DB11D8093F8029093F902C6
:100FE000A093FA02B093FB02BF91AF919F918F91B2
:100FF0003F912F910F900FBE0F901F90189508955D
:10100000CF92DF92EF92FF92CF93DF936091E20253
:101010007091E30280E090E04AE00E94401483EA8D
:1010200092E00E94CD246AE070E08091E4020E9488
:10103000AE1583EA92E00E94CD246AE070E08091D0
:10104000E5020E94AE1588EA92E00E94CD246AE093
:1010500070E08091E6020E94AE1585EA92E00E945F
:10106000CD246AE070E08091E7020E94AE1585EA27
:1010700092E00E94CD246AE070E08091E8020E9434
:10108000AE1587EA92E00E94CD246091EA02709149
:10109000EB028091EC029091ED020E945C1720E03F
:1010A00030E0A9016091890C70918A0C80918B0CC1
:1010B00090918C0C0E94EA3D8823A1F089E698E08B
:1010C0000E944D246091890C70918A0C80918B0C48
:1010D00090918C0C42E050E00E94691785E698E000
:1010E0000E944D24C0908D0CD0908E0CE0908F0CFF
:1010F000F090900C20E030E048EC52E4C701B601DB
:101100000E94EA3D181654F042E050E0C701B601D3
:101110000E94691783E698E00E944D240E94DF2414
:10112000C090810CD090820CE090830CF090840CE5
:1011300020E030E0A901C701B6010E946F411816F6
:101140004CF442E050E0C701B6010E94691780E606
:1011500098E002C08DE598E00E944D24C090710C8B
:10116000D090720CE090730CF090740C20E030E0A2
:101170004AE754E4C701B6010E94EA3D8823A9F07A
:1011800026E636E646EE5FE3C701B6010E944F3E13
:1011900020E030E040E052E40E94724042E050E043
:1011A0000E94691789E598E002C086E598E00E94F0
:1011B000E32483E598E00E944D246091990C70919E
:1011C0009A0C80919B0C90919C0C4AE050E00E94FC
:1011D0008E1581E598E00E944D246091950C7091E8
:1011E000960C80E090E04AE00E9440148FE498E082
:1011F0000E944D246091970C7091980C80E090E0D3
:101200004AE00E9440148DE498E00E944D246091D1
:10121000850C7091860C8091870C9091880C0E94AF
:101220006B178AE498E00E944D246091A90C70919C
:10123000AA0C8091AB0C9091AC0C42E050E00E9463
:10124000691788E498E00E944D246091AD0C70917C
:10125000AE0C8091AF0C9091B00C42E050E00E9437
:10126000691786E498E00E944D246091B10C70915A
:10127000B20C8091B30C9091B40C0E946B1783E474
:1012800098E00E944D2460919D0C70919E0C80917D
:101290009F0C9091A00C42E050E00E94691781E4FD
:1012A00098E00E944D246091A10C7091A20C809155
:1012B000A30C9091A40C42E050E00E9469178FE3C8
:1012C00098E00E944D246091A50C7091A60C80912D
:1012D000A70C9091A80C0E946B178CE398E00E94D9
:1012E0004D246091B50C7091B60C8091B70C909123
:1012F000B80C42E050E00E9469178AE398E00E942F
:101300004D246091B90C7091BA0C8091BB0C9091F6
:10131000BC0C42E050E00E94691788E398E00E940C
:101320004D246091BD0C7091BE0C8091BF0C9091CA
:10133000C00C0E946B176091910C7091920C80917F
:10134000930C9091940C42E050E00E94691783E363
:1013500098E00E944D242CEB34E743E95CE3609174
:10136000790C70917A0C80917B0C90917C0C0E948E
:101370004F3E20E030E040E052E40E94724042E004
:1013800050E00E9469178FE298E00E94E3248FE109
:1013900098E00E944D2426E636E646EE5FE3609133
:1013A0005D0C70915E0C80915F0C9091600C0E94BE
:1013B0004F3E20E030E040E052E40E94724042E0C4
:1013C00050E00E94691788E198E00E944D2426E6CB
:1013D00036E646EE5FE36091610C7091620C80919D
:1013E000630C9091640C0E944F3E20E030E040E09E
:1013F00052E40E94724042E050E00E94691781E18D
:1014000098E00E944D2426E636E646EE5FE36091C2
:10141000650C7091660C8091670C9091680C0E942D
:101420004F3E20E030E040E052E40E94724042E053
:1014300050E00E94691789E098E00E944D2426E65A
:1014400036E646EE5FE36091690C70916A0C80911C
:101450006B0C90916C0C0E944F3E20E030E040E01D
:1014600052E40E94724042E050E00E94691781E01D
:1014700098E00E944D2426E636E646EE5FE3609152
:101480006D0C70916E0C80916F0C9091700C0E949D
:101490004F3E20E030E040E052E40E94724042E0E3
:1014A00050E00E9469178AEF97E00E944D2426E6DB
:1014B00036E646EE5FE36091750C7091760C809194
:1014C000770C9091780C0E944F3E20E030E040E095
:1014D00052E40E94724042E050E00E94691781EF9E
:1014E00097E00E944D2426E636E646EE5FE36091E3
:1014F0007D0C70917E0C80917F0C9091800C0E94ED
:101500004F3E20E030E040E052E40E94724042E072
:1015100050E00E9469178EEE97E00E94E3246091EC
:10152000E00C7091E10C8091E20C9091E30C4AE0A8
:1015300050E00E948E158BEE97E00E944D24609142
:10154000E40C7091E50C8091E60C9091E70C4AE078
:1015500050E00E948E1588EE97E00E944D24609125
:10156000C70C7091C80C8091C90C9091CA0C46E0D0
:1015700050E00E94691785EE97E00E944D2460912B
:10158000CB0C7091CC0C8091CD0C9091CE0C46E0A0
:1015900050E00E94691782EE97E00E944D2460910E
:1015A000CF0C7091D00C8091D10C9091D20C46E070
:1015B00050E00E9469178DED97E00E944D246091E4
:1015C000D30C7091D40C8091D50C9091D60C42E044
:1015D00050E00E94691786ED97E00E944D246091CB
:1015E000D70C7091D80C8091D90C9091DA0C42E014
:1015F00050E00E9469178FEC97E00E944D246AE04A
:1016000070E08091DF0C0E94AE1581EC97E00E94A3
:101610004D248091DB0C9091DC0CC4E6D0E0BE013F
:101620000E949B4180E090E00E94EE3D41E050E04E
:101630000E94691786EB97E00E944D248091DD0C93
:101640009091DE0CBE010E949B4180E090E00E94E0
:10165000EE3D41E050E00E94691783EB97E00E9465
:10166000E32487EA97E00E944D2460914A07709135
:101670004B0780914C0790914D070E945C178EE9B3
:1016800097E00E944D246091500C7091510C80E0C5
:1016900090E04AE00E9440148CE997E00E944D24BB
:1016A0006091520C7091530C80E090E04AE00E94EF
:1016B00040148AE997E00E944D248091540C909147
:1016C000550C6AE070E00E944C1780E997E00E9498
:1016D0004D240E94A90728EE33E040E050E00E942C
:1016E000C341CA01B9014AE050E00E948E1586E864
:1016F00097E0DF91CF91FF90EF90DF90CF900C9427
:10170000E3243F924F925F926F927F928F929F92CB
:10171000AF92BF92CF92DF92EF92FF920F931F93FF
:10172000CF93DF9302E0D1E017E08CE195E00E94D7
:101730008320892B09F4DEC28CE195E00E946220AF
:10174000C82F8091420790914307A0914407B09120
:1017500045070196A11DB11D809342079093430751
:10176000A0934407B0934507C43209F4A2C2E091A4
:101770003C07C53234F4CA3071F0CD3009F0A6C24E
:101780000AC0CA3241F0CC3209F0A0C280912907C8
:101790008C2780932907EF3008F07DC2F0E0E55DEB
:1017A000F84F108280912A07882309F46BC1209199
:1017B0002B073FEB320F822F992787FD909536300C
:1017C00010F4C79707C02156263018F487559109A1
:1017D00001C0C097282F2295207F30912C074FEB16
:1017E000430F832F992787FD9095463010F4C797B4
:1017F00007C03156363018F48755910901C0C0979B
:10180000820F90912907891329C180914E079091E9
:101810004F07A0915007B09151070196A11DB11D2E
:1018200080934E0790934F07A0935007B0935107B2
:1018300080913D07882399F0809146079091470752
:10184000A0914807B09149070196A11DB11D809351
:10185000460790934707A0934807B0934907F09035
:101860003A07FF2009F46BC021E0F212D0C080914A
:10187000CD069091CE06A091CF06B091D006809370
:10188000C9069093CA06A093CB06B093CC060E94DB
:10189000A9076093D1067093D2068093D3069093E4
:1018A000D406F092C806F092C7068091DB069091AC
:1018B000DC06A091DD06B091DE068093D7069093FA
:1018C000D806A093D906B093DA060E94A9076093C0
:1018D000DF067093E0068093E1069093E206F092B3
:1018E000D606F092D50680913D07882309F48FC073
:1018F000E5EBF6E0A7EAB6E0812F01900D928A951C
:10190000E1F7ECEBF6E0AEEAB6E0812F01900D9244
:101910008A95E1F70E94A9076093C3067093C406F5
:101920008093C5069093C606F092A606F092A5068F
:1019300083EE96E00E94761A81EF96E066C0809171
:10194000DB069091DC06A091DD06B091DE06809367
:10195000D7069093D806A093D906B093DA060E94D2
:10196000A9076093DF067093E0068093E1069093E9
:10197000E206D093D606D093D50680913D07882302
:1019800021F1E5EBF6E0A7EAB6E0812F01900D9298
:101990008A95E1F7ECEBF6E0AEEAB6E0812F019034
:1019A0000D928A95E1F70E94A9076093C306709390
:1019B000C4068093C5069093C606D093A606D0931E
:1019C000A5068FEF96E00E94761A809117079091F6
:1019D0001807A0911907B0911A07809313079093E5
:1019E0001407A0931507B09316070E94A9076093E8
:1019F0000F07709310078093110790931207D093ED
:101A00000E07D0930D078BE197E00E94761AE090C5
:101A10004007F0904107E114F10409F43CC1E09162
:101A20004007F091410766A177A1F70186A197A130
:101A30000E945240892B09F02EC1B701C701409680
:101A40000E945B400E94A907F70160A371A382A3D3
:101A500093A3D5A3D4A3E2A4F3A4DDCF80914A0736
:101A600090914B07A0914C07B0914D070196A11D95
:101A7000B11D80934A0790934B07A0934C07B093F6
:101A80004D0709C180913B07811136C06AEA72E0B7
:101A90008BE297E00E945240892B19F4D0933A07C9
:101AA0000DC060EB72E08BE297E00E945240892B00
:101AB00019F410923A0702C000933A0780913E074A
:101AC00090913F079093410780934007E090400733
:101AD000F0904107E114F10409F4DDC0F701C6A05C
:101AE000D7A06BE277E0C6010E94524097FFC7C0C3
:101AF000F70182A593A5E6CFE0913A07E23009F419
:101B000093C090912B07992309F48EC020E2E29FA5
:101B1000F0011124E82B3197E932F10508F084C077
:101B20008827EC57FF4F8F4F0C9404428BE297E0CD
:101B30000E94151B6093DB067093DC068093DD0624
:101B40009093DE0671C081E0913409F043C043C038
:101B500065EB76E009C081E0933509F080E0809381
:101B6000BB0662C06CEB76E08BE297E00E948D1AB8
:101B70005BC081E0973509F080E08093C20654C0D5
:101B80008BE297E00E94151B6093ED067093EE06C2
:101B90008093EF069093F00647C08BE297E00E9497
:101BA000151B6093FB067093FC068093FD069093D3
:101BB000FE063AC08BE297E00E948B3D6093CD0613
:101BC0007093CE068093CF069093D0062DC081E00F
:101BD00091330CF480E080933D0726C08BE297E0C0
:101BE0000E948B3D60931707709318078093190725
:101BF00090931A0719C08BE297E00E94151B60931F
:101C000025077093260780932707909328070CC019
:101C10008BE297E00E94151B6093090770930A07F7
:101C200080930B0790930C07E0904007F0904107DA
:101C3000E114F10481F1E0914007F091410766A1C0
:101C400077A1F70186A197A10E945240892B19F52F
:101C5000F70120A531A580913B0790E082179307FB
:101C6000D4F02817390739F440E150E06BE277E00F
:101C7000C7010E946240F701E2A4F3A4D9CF6BE24E
:101C800077E0C6010E9452401816190624F41092FB
:101C900041071092400780913B078F5F80933B077D
:101CA00010923C0781E0CA3209F080E080932A0755
:101CB0003CCD10923C0710923B07109229070093ED
:101CC0003A0710922A0710923D072FCDEE3040F4CC
:101CD00081E08E0F80933C07F0E0E55DF84FC08314
:101CE00080912A07811121CD80912907C827C093AF
:101CF00029071BCD8091A506882309F45FC01092A7
:101D0000A6066091A7067091A80680E090E00E9468
:101D1000EE3D6B017C016091A9067091AA0680914D
:101D2000AB069091AC060E94EE3D28E23BE64EE603
:101D30005EE40E94D6409B01AC01C701B6010E943F
:101D400072402091AD06DC01CB012111B058809387
:101D5000C70C9093C80CA093C90CB093CA0C6091A7
:101D6000AE067091AF0680E090E00E94EE3D6B0100
:101D70007C016091B0067091B1068091B20690919D
:101D8000B3060E94EE3D28E23BE64EE65EE40E948A
:101D9000D6409B01AC01C701B6010E947240209160
:101DA000B406DC01CB012111B0588093CB0C909389
:101DB000CC0CA093CD0CB093CE0C10C01092C70CDD
:101DC0001092C80C1092C90C1092CA0C1092CB0C35
:101DD0001092CC0C1092CD0C1092CE0C8091FF067C
:101DE0008823D9F0109200076091050770910607CB
:101DF00080910707909108070E94F03D20E030E0B5
:101E000048EC52E40E94D6406093CF0C7093D00C03
:101E10008093D10C9093D20C08C01092CF0C1092EA
:101E2000D00C1092D10C1092D20C8091C70688234E
:101E300009F442C00E94A9070091D1061091D20670
:101E40002091D3063091D406DC01CB01801B910B8D
:101E5000A20BB30B80369A4EA105B10568F510921E
:101E6000C8068091C9069091CA06A091CB06B09190
:101E7000CC068093E00C9093E10CA093E20CB0931D
:101E8000E30C8091D506882301F10E94A9070091F7
:101E9000DF061091E0062091E1063091E206DC01B8
:101EA000CB01801B910BA20BB30B803D9740A1058A
:101EB000B10508F4C0C009C01092E00C1092E10C0A
:101EC0001092E20C1092E30CDCCF1092E40C109212
:101ED000E50C1092E60C1092E70C80910D07882318
:101EE00039F010920E07809113078093DF0C02C027
:101EF0001092DF0C80911B078823C9F010921C07F9
:101F00006091210770912207809123079091240707
:101F10000E94F03D20E030E040E250E40E944F3E5D
:101F20000E9443417093DC0C6093DB0C04C0109260
:101F3000DC0C1092DB0C8091F1068823D9F0109212
:101F4000F2066091F7067091F8068091F90690917B
:101F5000FA060E94F03D20E030E048EC52E40E9496
:101F6000D6406093D70C7093D80C8093D90C909383
:101F7000DA0C0CC080E090E0A0E8BFEB8093D70CB7
:101F80009093D80CA093D90CB093DA0C8091E3060F
:101F9000882309F11092E4066091E9067091EA063F
:101FA0008091EB069091EC060E94F03D21EA32EB25
:101FB00043E05FE30E944F3E20E030E048EC52E413
:101FC0000E94D6406093D30C7093D40C8093D50CB0
:101FD0009093D60C0CC080E090E0A0E8BFEB80931B
:101FE000D30C9093D40CA093D50CB093D60C8091C5
:101FF0009D068823D9F010929E0660E070E089E883
:1020000096E00E94123C20E030E048EC52E40E944E
:102010004F3E20E030E040E250E40E944F3E0E94FC
:1020200043417093DE0C6093DD0C0EC11092DE0C08
:102030001092DD0C09C11092D6064090D706509040
:10204000D8066090D9067090DA064092E40C50925F
:10205000E50C6092E60C7092E70C8091E2029091A0
:10206000E302803D974009F038CF54E6C52ED12CCD
:10207000E12CF12CC301B201A70196010E94C341DA
:10208000CA01B901A70196010E94C341362E60E141
:10209000862E67E2962EA12CB12CC301B201A501B8
:1020A00094010E94C341CA01B901A70196010E948F
:1020B000C341062FC301B20120E432E44FE050E0F7
:1020C0000E94C341122F1092C8064090C90650903A
:1020D000CA066090CB067090CC06C301B201A50180
:1020E00094010E94C341922EA22EC301B201A70106
:1020F00096010E94C3412B013C01CA01B901A7010D
:1021000096010E94C3416B017C01B62EE201C053CF
:10211000D84F68E688E09CE00E94DB2280E090E0F7
:102120000E9484257AE0772E832D672D0E948F41AF
:10213000692FE0E18E9F600D112488E09CE00E94F1
:102140003920802F672D0E948F41692FF0E18F9FEA
:10215000600D112488E09CE00E943920812F672DBA
:102160000E948F41692F20E1829F600D112488E039
:102170009CE00E94392081E090E0E2E0EC1510F450
:1021800080E090E08E01081B190BF6013197E658AC
:10219000F84FC4909801290D311DC8019695879577
:1021A00096958795280F391FC80160E971E00E9454
:1021B0009B41260F371FC80164E670E00E949B41D7
:1021C000C901861B970B8C0D911D67E070E00E9482
:1021D0009B41009709F487E0DAE06D2F0E948F4160
:1021E000692F88E09CE00E9439208A2D6D2F0E9483
:1021F0008F41692FF0E18F9F600D112488E09CE0F2
:102200000E9439208B2D6D2F0E948F41692F20E174
:10221000829F600D112488E09CE00E9439208C2F61
:10222000805D6D2F0E948F41692FE0E18E9F600DD0
:10223000112488E09CE00E94392080E090E00E9418
:1022400084250E946E2449CEDF91CF911F910F917A
:10225000FF90EF90DF90CF90BF90AF909F908F90C6
:102260007F906F905F904F903F9008951F920F92D4
:102270000FB60F9211242F938F939F9320910601F5
:1022800027FD0DC08091F20287FF09C08091540C98
:102290009091550C01969093550C8093540C20937B
:1022A000F2029F918F912F910F900FBE0F901F9070
:1022B00018951F920F920FB60F9211242F933F93F0
:1022C0008F939F938091030181FD0EC09091F10245
:1022D00091FF0AC02091520C3091530C2F5F3F4F59
:1022E0003093530C2093520C80FD0EC09091F1025C
:1022F00090FF0AC02091500C3091510C2F5F3F4F3E
:102300003093510C2093500C8093F1029F918F9148
:102310003F912F910F900FBE0F901F901895DC01E9
:10232000FC0180E090E070E09F012A1B3B0B261728
:10233000370704F5419150E049279A01689413F852
:10234000359527951694E1F724273527982F882768
:10235000A90148275927C901982F88279295907F6E
:102360008427952745E0220F331F4A95E1F78227FE
:102370009327DACF08950F931F93CF93DF93D82F2E
:10238000C62F8A01682F88E09CE00E94DB228C2FF8
:10239000806890E00E94842561E088E09CE00E94D3
:1023A000612266E08D2F0E947A25C8EED3E08091ED
:1023B000760390E020917703821B910906975CF4E5
:1023C000219738F061E070E080E090E00E946F07B4
:1023D000EECF8FEF15C0CD2BE1F3E8010A5F1F4F61
:1023E0008091760390917703C017D10741F0891748
:1023F000D9F388E09CE00E94E01F8993F1CF86E04A
:10240000DF91CF911F910F910895AB019091720BC5
:10241000913029F4682F8091E20B0C94BB1191113B
:1024200006C026E0682F8091E20B0C9444250895A5
:10243000CF93DF93C82FD62F682F88E09CE00E94AF
:10244000DB226D2F88E09CE00E94392061E088E06B
:102450009CE00E94612261E08C2F0E947A25C8EEE8
:10246000D3E08091760390E020917703821B91095D
:10247000181619065CF0219738F061E070E080E0F2
:1024800090E00E946F07EDCF8FEF06C0CD2BE1F3F8
:1024900088E09CE00E94E01FDF91CF910895AF9209
:1024A000BF92CF92DF92EF92FF920F931F93CF9341
:1024B000DF938B01BC018091340C9091350C0E940C
:1024C0002C1D40E06EEB8091340C9091350C0E94F5
:1024D000EA1CE801680189E0C80ED11CA090340C08
:1024E000B090350C88E0E82EF12C01E010E0C50139
:1024F0000E94971C8111102B000F81E0E81AF1084F
:10250000B1F71993CC15DD0549F78091340C909102
:10251000350C0E94591D91E0813009F090E0892F1F
:10252000DF91CF911F910F91FF90EF90DF90CF90AF
:10253000BF90AF900895CF93DF9300D000D0CDB778
:10254000DEB78091720B813049F4AE014F5F5F4F6F
:1025500068E28091E10B0E94BB110BC0811109C0A0
:1025600026E0AE014F5F5F4F68E28091E10B0E9471
:1025700044258A8190E0982F88272981822B909387
:10258000A40B8093A30B8C8190E0982F88272B813C
:10259000822B9093A60B8093A50B8E8190E0982FB1
:1025A00088272D81822B9093A80B8093A70B2696CA
:1025B0000FB6F894DEBF0FBECDBFDF91CF91089567
:1025C000CF93DF931F92CDB7DEB7682F8091720B48
:1025D000813029F48091E10B0E9418120CC0811106
:1025E0000AC021E0AE014F5F5F4F8091E10B0E9476
:1025F0004425898100C00F90DF91CF9108951F93EA
:10260000CF93DF93182FD62F8091720B8130A9F4CE
:102610006091E20B88E09CE00E94DB22612F88E061
:102620009CE00E9439206D2F88E09CE00E943920B8
:10263000DF91CF911F910C946E24811114C0C09131
:10264000E20B60E08C2F0E94B606812F8F730E94F0
:102650007F1B8D2F0E947F1B61E08C2FDF91CF911C
:102660001F910C94B606DF91CF911F910895CF93DF
:10267000DF931F92CDB7DEB7682F8091720B813048
:1026800029F48091E20B0E9418120CC081110AC03B
:1026900021E0AE014F5F5F4F8091E20B0E94442525
:1026A000898100C00F90DF91CF910895CF93DF9380
:1026B00000D000D0CDB7DEB7BE016F5F7F4F88E29C
:1026C0000E9405128A8190E0982F88272981AC0109
:1026D000422B50939E0B40939D0B2C8130E0322F68
:1026E00022278B81282B3093A00B20939F0B8E8168
:1026F00090E0982F88276D81862B9093A20B809372
:10270000A10B6091EF0B6623F1F06091D50B7091F6
:10271000D60B461B570B50939E0B40939D0B40913D
:10272000D70B5091D80B241B350B3093A00B209363
:102730009F0B2091D90B3091DA0B821B930B909356
:10274000A20B8093A10B26960FB6F894DEBF0FBEA6
:10275000CDBFDF91CF910895CF93DF9300D000D00C
:10276000CDB7DEB7BE016F5F7F4F88E10E940512D3
:102770008A8190E0982F88272981AC01422B5093C1
:10278000980B4093970B2C8130E0322F22278B81BE
:10279000282B30939A0B2093990B8E8190E0982FE1
:1027A00088276D81862B90939C0B80939B0B609167
:1027B000EF0B6623F1F06091CF0B7091D00B461BAD
:1027C000570B5093980B4093970B4091D10B50911E
:1027D000D20B241B350B30939A0B2093990B20912D
:1027E000D30B3091D40B821B930B90939C0B809353
:1027F0009B0B26960FB6F894DEBF0FBECDBFDF91C0
:10280000CF910895CF93DF93EC016091FF0B88E0A7
:102810009CE00E94DB226D2F88E09CE00E94392022
:102820006C2F88E09CE00E943920DF91CF910C94BE
:102830006E24FC01A089B18982E08C93A485B585C2
:102840001C92A685B7858FEC8C93108EA489B589D0
:1028500086E08C93A289B3898C9180618C93A28944
:10286000B3898C9188608C93A289B3898C9180689C
:102870008C930288F389E02D80818F7D8083089579
:102880008F929F92AF92BF920F931F93CF93DF933C
:10289000CDB7DEB7A1970FB6F894DEBF0FBECDBFA0
:1028A00019A2423008F44AE08E010F5D1F4F842EBA
:1028B000912CA12CB12CA50194010E94C341E62FBB
:1028C000B901CA0101501109EA3014F4E05D01C0F8
:1028D000E95CD801EC93232B242B252B61F7C8014D
:1028E0000E94CD24A1960FB6F894DEBF0FBECDBFD7
:1028F000DF91CF911F910F91BF90AF909F908F90DC
:102900000895CF92DF92EF92FF92CF93DF936B0106
:102910007C01E091BF03F091C0030190F081E02DB4
:102920006DE28FEB93E01995EC0166277727CB01D9
:102930006C197D098E099F094AE00E9440148C0F92
:102940009D1FDF91CF91FF90EF90DF90CF90089582
:102950004F925F926F927F928F929F92AF92BF92AF
:10296000CF92DF92EF92FF926B017C01B42E9B011C
:10297000AC010E947341882319F086EB92E027C0D6
:1029800026013701E89477F82FEF3FEF4FE75FE735
:10299000C301B2010E94734181110DC02FEF3FEFBF
:1029A0004FE75FE7C301B2010E94EA3D18161CF42D
:1029B0008AEB92E00CC02FEF3FEF4FE75FE4C701D7
:1029C000B6010E946F41181684F48EEB92E0FF90DE
:1029D000EF90DF90CF90BF90AF909F908F907F90BF
:1029E0006F905F904F900C94CD242FEF3FEF4FE707
:1029F0005FECC701B6010E94EA3D87FDE6CF20E00B
:102A000030E0A901C701B6010E94EA3D87FF11C06D
:102A1000E091BF03F091C0030190F081E02D6DE2E1
:102A20008FEB93E019954C01F7FAF094F7F8F094D6
:102A300002C0812C912CA12C60E070E080E09FE32B
:102A4000AB1441F020E030E040E251E40E94D64077
:102A5000A394F6CF9B01AC01C701B6010E9472405E
:102A60002B013C010E9443416B017C010E94EE3D21
:102A70009B01AC01C301B2010E9471402B013C01DA
:102A80004AE0C701B6010E9440147C01E80CF91C21
:102A9000BB2031F082EC92E00E94CD24E80EF91EBA
:102AA000DB2CDD2069F120E030E040E251E4C3019D
:102AB000B2010E944F3E2B013C010E943E414B015E
:102AC000AA2497FCA094BA2CB7FE05C0C501B40196
:102AD0000E94811405C04AE0C501B4010E9440145F
:102AE000E80EF91EC501B4010E94F03D9B01AC0146
:102AF000C301B2010E9471402B013C01DA94D1CF95
:102B0000C701FF90EF90DF90CF90BF90AF909F9064
:102B10008F907F906F905F904F9008954115510571
:102B200051F4E091BF03F091C0030190F081E02DDA
:102B30008FEB93E019940C944014CF93DF93AB0187
:102B4000682F70E080E090E00E948E15EC010E94FA
:102B5000DF248C0F9D1FDF91CF910895AB01682F6B
:102B600070E080E090E00C948E15FB019C01285FE2
:102B70003F4FDC015D91CD014191541305C0A21777
:102B8000B307B9F781E0089580E008950F931F938C
:102B9000CF93DF93CDB7DEB729970FB6F894DEBF9A
:102BA0000FBECDBF8C018091340C9091350C0E94EA
:102BB000591D882331F0BE016F5F7F4FC8010E940D
:102BC0004F1281E09981911101C080E029960FB6E2
:102BD000F894DEBF0FBECDBFDF91CF911F910F9153
:102BE00008958091340C9091350C0E94591D40E05D
:102BF0006CEC8091340C9091350C0E94EA1C409151
:102C00002F0C64E48091340C9091350C0E94EA1CE6
:102C10008091310C8823A9F0E091300CE950E33029
:102C200040F4F0E0EE0FFF1FE85AFD4F6081718124
:102C300002C06EEE72E0882777FD8095982F0C9485
:102C40006F0708950F931F93CF93DF938C01EB01D0
:102C50008091340C9091350C0E94591D882369F0A5
:102C6000BE01C8010E944F12882339F068E0CE01EE
:102C70000E948A1C91E02885821390E0892FDF91C1
:102C8000CF911F910F910895CF93DF93CDB7DEB70A
:102C900029970FB6F894DEBF0FBECDBFBE016F5FA0
:102CA0007F4F0E942216882389F08D818F3361F037
:102CB00020F48F3159F489E00CC08F3519F08F372B
:102CC00039F004C08BE005C08AE003C080E001C099
:102CD0008CE029960FB6F894DEBF0FBECDBFDF9112
:102CE000CF910895AF92BF92CF92DF92EF92FF9271
:102CF0000F931F93CF93DF931F92CDB7DEB75C0185
:102D0000D62EE72EFC018585811105C0C5010E94E4
:102D1000591D811106C0F50113861586148680E0C1
:102D200065C040E060EFC5010E94EA1C01E0F12CA3
:102D3000C12C11E0C5010E94971C682FC501698351
:102D40000E94971C6981613019F48130B9F433C055
:102D50004F2D50E068131BC0F5018385181730F420
:102D6000E40FF51F8381802349F402C0181731F066
:102D700060E0193058F4F501148708C0F501EF0D33
:102D8000F11D8381802B838361E009C0C12EF50191
:102D9000E40FF51F9381802F809589238383C501DC
:102DA0000E94BB1C1F5F000F11F4F39401E0F7E0D9
:102DB000FF1508F0BFCF113408F4ADCFF501C3867D
:102DC000C11002C081E08587F5018381882309F461
:102DD000A2CFD5011396ED2DFE2D9501255F3F4F16
:102DE0008D918193A217B307D9F781E00F90DF91FE
:102DF000CF911F910F91FF90EF90DF90CF90BF90F8
:102E0000AF9008950F931F93CF93DF938C01D62F2C
:102E1000E091340CF091350C138615861486DF0191
:102E20001B9633961E92AE17BF07E1F7C0E0B801BC
:102E30008091340C9091350C0E947216882381F099
:102E4000CD130AC067E0C8010E948A1CF80197816F
:102E5000891302C081E004C0CF5FDC1740F780E037
:102E6000DF91CF911F910F910895CF93DF93BC0114
:102E7000882777FD8095982F97FF03C00E948114C3
:102E800003C04AE00E944014EC010E94DF248C0F32
:102E90009D1FDF91CF910895CF93DF93AB01BC01CC
:102EA00080E090E00E948E15EC010E94DF248C0FE0
:102EB0009D1FDF91CF910895CF93DF934AE00E9449
:102EC0004014EC010E94DF248C0F9D1FDF91CF91F5
:102ED00008950C94A814CF93DF9342E00E94A814A5
:102EE000EC010E94DF248C0F9D1FDF91CF9108958C
:102EF0000F931F93CF93DF93EC010E94A9078B01DF
:102F00000E94861B8F3F49F00E94A907601B710B2E
:102F10006C177D07A8F380E001C081E0DF91CF91BD
:102F20001F910F91089561E08091690B0C94B60692
:102F300080916B0B811101C0089580916C0B909171
:102F40006D0B9C012F5F3F4F30936D0B20936C0BEB
:102F50008230924018F40E94861BEFCF0E94931794
:102F600010926B0B0895CF92DF92EF92FF921F9316
:102F7000CF93DF93182F6A017B010E94981760E0BE
:102F80008091690B0E94B6068CE291E00E9478174E
:102F9000812F80640E94531CC8E1D0E0D701C60194
:102FA0000C2E04C0B695A795979587950A94D2F7ED
:102FB0000E94531C2897C83F8FEFD80779F7112339
:102FC00021F0183021F487E803C085E901C08FEFB4
:102FD0000E94531CC0E00E94861B80936F0B87FFEA
:102FE00004C0CF3F11F0CF5FF6CFDF91CF911F919B
:102FF000FF90EF90DF90CF900895FC01AC014E5F01
:103000005F4F8FEF91E32191822728E030E087FF27
:1030100003C0880F892701C0880F21503109B9F7F3
:10302000E417F50781F708950895FC016583089575
:103030000F931F93CF93DF938C01EB0188E2FB0189
:1030400011928A95E9F74BE050E064EC72E0CE0112
:103050000E9462401B8681E090E0A0E0B0E08C8797
:103060009D87AE87BF87F80182859385A485B58546
:10307000888B998BAA8BBB8B85E090E0A0E0B0E0B9
:103080008C8B9D8BAE8BBF8B1CA21DA21EA21FA280
:1030900080E090EDA4E8B6E4888F998FAA8FBB8F6B
:1030A0001C8E1D8E1E8E1F8E80E090E0A0E8BFE378
:1030B00088A399A3AAA3BBA3DF91CF911F910F91DE
:1030C000089580917B00877F80937B0080E48093CC
:1030D0007C0080917A00806480937A0080917A00ED
:1030E00086FDFCCF809178002091790090E0922BB2
:1030F00008950F931F93CF93DF93C82F66E388E063
:103100009CE00E94DB226C2F88E09CE00E9439202A
:1031100060E088E09CE00E94612242E050E066E3CB
:1031200070E088E09CE00E940A23C9EED3E0209181
:10313000760330E080917703281B31092230310576
:103140004CF4219739F061E070E080E090E00E945B
:103150006F07EDCF88E09CE00E94E01FC82F88E059
:103160009CE00E94E01F1C2F00E09801282BC90161
:10317000DF91CF911F910F9108950F931F93CF93DC
:10318000DF93CDB7DEB729970FB6F894DEBF0FBE39
:10319000CDBF8C01BE016F5F7F4F0E942216882336
:1031A00061F1698148E0649FB00111249A81292F5F
:1031B00030E0322F2227330F330F330F262B372BDC
:1031C000F80180818031E1F4688570E08F81AB0186
:1031D000481B5109CA019695982F8827979587957E
:1031E0000E94AF4160517109207F53E0220F331FCD
:1031F0005A95E1F7620F731F04C060E874EE01C0D6
:10320000B901613854EE75076CF0882777FD809519
:10321000982F0E94F03D20E030E040E05CE30E9407
:103220004F3E04C060E070E08EEF92EC29960FB63E
:10323000F894DEBF0FBECDBFDF91CF911F910F91EC
:103240000895CF92DF92EF92FF92CF93C82F80E440
:103250008C0F0E94EF248C2F8F708430C1F048F4C3
:10326000882381F08230F1F463E070E080E090E048
:1032700017C0863089F08830A9F46AE070E080E0F9
:1032800090E00EC08BE09EE00197F1F70BC064E088
:1032900070E080E090E004C066E070E080E090E0E4
:1032A0000E946F0780E00E94EF2460912C0C77272A
:1032B00067FD709543E050E080912D0C90912E0CAD
:1032C0000E940A2380912D0C90912E0CDC01ED912F
:1032D000FC910680F781E02D19956C01EE24D7FC56
:1032E000E094FE2C7601DD24CC2480912D0C90916D
:1032F0002E0CDC01ED91FC910680F781E02D1995F3
:10330000AA2797FDA095BA2FBA2FA92F982F882703
:10331000C80ED91EEA1EFB1E80912D0C90912E0C1A
:10332000DC01ED91FC910680F781E02D1995AA272B
:1033300097FDA095BA2FC80ED91EEA1EFB1E61E0AC
:1033400080912D0C90912E0C0E946122C701B60134
:10335000CF91FF90EF90DF90CF900895DF92EF92A2
:10336000FF920F931F93CF93DF9300D000D0CDB780
:10337000DEB780E094E20E94021464EF71E080E026
:1033800090E00E946F0766E08091FF0B0E947A2513
:103390008091760390E020917703821B9109069734
:1033A00009F05FC0CE0101967C018C0186E0D82E29
:1033B000DE0C88E09CE00E94E01FF80181938F0101
:1033C000DE12F7CFD9800A811B81C7010E94FD1749
:1033D000181347C0FC801D81EE80CE0104960E9428
:1033E000FD17E8123EC0602F70E07D2980E090E07C
:1033F0000E94EE3D20E030E04FE253E40E944F3E59
:1034000020E03FEF4FE757E40E94D64020E030E055
:1034100044E352E40E9471406093040C7093050CE5
:103420008093060C9093070C612F70E07F2980E059
:1034300090E00E94EE3D20E030E048EC52E40E9433
:103440004F3E20E03FEF4FE757E40E94D6406093A5
:10345000000C7093010C8093020C9093030C81E09C
:1034600001C080E026960FB6F894DEBF0FBECDBF38
:10347000DF91CF911F910F91FF90EF90DF90089512
:10348000CF93CFB7F89480910603811127C0E2E271
:10349000FAE08491E8E6FAE09491E82FF0E0EE0F8C
:1034A000FF1FE754F64FA591B491EC91E92321F465
:1034B00061E085E30E94B60661E085E30E94330780
:1034C0008CB580618CBD8CB580648CBD61E084E37B
:1034D0000E94330761E083E30E9433078091060373
:1034E0008F5F80930603CFBFCF910895CF93DF9373
:1034F000EC018A859B85AC85BD858E839F83A887DB
:10350000B9870E94A9076A837B838C839D8381E0AE
:1035100089838883DF91CF9108952F923F924F92B4
:103520005F926F927F928F929F92AF92BF92CF9253
:10353000DF92EF92FF920F931F93CF93DF93D82FD9
:10354000C92F8B010E948B3D24E630E040E050E023
:103550000E94C34149015A019B01AC0160E876E930
:1035600088E990E00E947F416B017C01F801918223
:103570008082ED2FFC2F2191822F992787FD909536
:10358000C0970A97C0F32E3239F51F0180E8882EC4
:1035900086E9982E88E9A82EB12C9AE0492E512C64
:1035A000612C712CF101C1911F01DD27C7FDD09560
:1035B000E097CA30D10580F4C501B401A30192019E
:1035C0000E94C34149015A01DE010E947741C60EA3
:1035D000D71EE81EF91EE6CFA5E0B0E0A7019601D0
:1035E0000E94063F6F5F7F4F8F4F9F4F23E030E079
:1035F00040E050E00E94C341F801228333834483BA
:1036000055831682DF91CF911F910F91FF90EF901C
:10361000DF90CF90BF90AF909F908F907F906F90F2
:103620005F904F903F902F900895FF920F931F93BC
:10363000CF93DF93EC01FF24F39488818D3211F056
:10364000F12C01C02196CE010E948B3D9B01AC0163
:10365000A4E6B0E00E94063FFE014991242F3327E3
:1036600027FD3095205331092A303105A8F34E3219
:1036700041F52181332727FD3095205331092A3028
:103680003105F8F44AE0429F8001439F100D112458
:10369000222717FD2095322F600F711F821F931F65
:1036A0000281112707FD1095005311090A301105F9
:1036B00040F4222717FD2095322F600F711F821FC3
:1036C000931FFF2039F090958095709561957F4FFD
:1036D0008F4F9F4FDF91CF911F910F91FF900895D2
:1036E0009CB5282F23709C7F922B9CBD2DB582FB0F
:1036F000992790F9822F8E7F892B8DBD08958EBDDD
:1037000000000DB407FEFDCF8EB50895809105032E
:103710008F3F11F40C947F1BF894E0910303F09118
:103720000403908180910203892B808328E080E04C
:10373000E0910003F091010330819091FF02392B59
:103740003083880FA091FD02B091FE024C91309120
:10375000FC02342309F0816030819095932390839B
:1037600000000000215021F778940895CF93DF9353
:103770000E94A907EB010E94861B80936F0B8F3F6D
:1037800049F40E94A9076C1B7D0B6D32714098F3C0
:103790008FE003C08E3F39F08DE080936A0B0E946A
:1037A000931780E001C081E0DF91CF910895CF921F
:1037B000DF92EF92FF920F931F93CF93DF938A01D3
:1037C0004130524008F061C020916B0B222399F0E8
:1037D000C090650BD090660BE090670BF090680B83
:1037E0006C157D058E059F0531F420916C0B309191
:1037F0006D0B232B49F16093650B7093660B8093DF
:10380000670B9093680B2091700B233039F029E0FF
:10381000660F771F881F991F2A95D1F7AB01BC014E
:1038200081E10E94B317882321F083E080936A0B23
:103830002CC00E94B61B882341F110926D0B109290
:103840006C0B81E080936B0BC0E0D0E0C017D10718
:1038500041F00E94861BFE01EE5AF84F828B2196A2
:10386000F5CF80916C0B90916D0BC80FD91FD09341
:103870006D0BC0936C0B80916E0B882319F0C115F2
:10388000D24038F00E94981704C00E94931780E03D
:1038900001C081E0DF91CF911F910F91FF90EF90D8
:1038A000DF90CF900895909105039F3F11F40C9401
:1038B0007F1BF89438E0E0910003F09101039081C0
:1038C0002091FF02422F409594239083A0910303FF
:1038D000B0910403909102034C9187FF02C0942B96
:1038E00002C0909594239C939081292B2083880F6C
:1038F000315009F70000000000000000E0910003D3
:10390000F091010390818091FF028095892380834B
:1039100078940895DC01E0E0615038F08D91E8275B
:10392000F0E0E754F74FE491F7CF8E2F0895FC01B4
:1039300090810180F281E02DF8948181892B81832F
:103940002281892F809528232283A7E0B0E0119758
:10395000F1F7218182238183A3E2B0E01197F1F78F
:1039600080817894EFECF0E03197F1F7982381E0D3
:1039700009F480E00895FC0190810180F281E02D3E
:10398000892F809560FF12C0F89422818223828360
:103990008181892B8183A3E2B0E01197F1F78281C5
:1039A000982B9283789487ED90E011C0F89422814F
:1039B000822382838181892B8183AFEFB0E01197CD
:1039C000F1F78281982B928378948FE090E00197B1
:1039D000F1F70895CF92DF92EF92FF920F931F932A
:1039E000CF93DF931F92CDB7DEB76C01E62E08E0D0
:1039F00010E0FF24F39461E08F2D8E2109F460E044
:103A0000C60149830E94BB1CFF0C0150110949816A
:103A10000115110581F7411115C0F894D6011196D1
:103A2000ED91FC91129791818C91809589238183EE
:103A30001196ED91FC91129792818C91809589233A
:103A4000828378940F90DF91CF911F910F91FF9017
:103A5000EF90DF90CF900895CF92DF92EF92FF9298
:103A60000F931F93CF93DF931F92CDB7DEB78C01D7
:103A7000F62E40E065E579830E94EA1CCF2C79811F
:103A8000D72E760188E0E80EF11CF60161916F01F6
:103A900040E0C8010E94EA1CCE14DF04B1F70F9089
:103AA000DF91CF911F910F91FF90EF90DF90CF901A
:103AB0000895FC0190810180F281E02DF8948181CC
:103AC000292F20958223818378948DE743E050E06D
:103AD000815021F1DA011197F1F730813923C1F3D7
:103AE000F8948281822382838181892B81837894D7
:103AF000ABE7B7E01197F1F7F89481812823218390
:103B0000A3E1B1E01197F1F78081982381E009F0FA
:103B100080E07894E3E6F6E03197F1F708958F922C
:103B20009F92AF92BF92CF92DF92EF92FF92FA01F3
:103B3000DC0116962D913C9117972115310549F01E
:103B40002130310519F448E850E905C048EE5DEF31
:103B500002C044E253E14617570708F4D0C04E179D
:103B60005F0708F4CCC02115310581F02130310503
:103B700039F437EE832E3FE0932EA12CB12C0CC0EC
:103B8000812C24E0922EA12CB12C06C0B7E18B2E03
:103B9000B5E79B2EA12CB12CDC0118968D919C9140
:103BA0001997892B39F4A4E0880C991CAA1CBB1C1A
:103BB000AA95D1F7DB01A50194010E94063F6B0194
:103BC0007C016AE0F694E794D794C7946A95D1F79C
:103BD000DF010E94063F4B015C017AE0B694A79496
:103BE000979487947A95D1F7C114D104E104F10434
:103BF00071F0C501B4014AE0660F771F881F991F55
:103C00004A95D1F7A70196010E94C34103C020E065
:103C100030E0A901DA01C9010196A11DB11DB695D7
:103C2000A7959795879581349105A105B10530F148
:103C300081389105A105B10530F1813C9105A105BF
:103C4000B10530F1813021E09207A105B10528F1DD
:103C5000893331E09307A105B10520F18B3941E0AB
:103C60009407A105B10518F18B399240A105B10562
:103C700018F1E0E0F0E0A0E0B0E022C0EEEBF1E00F
:103C8000A2EFB1E01DC0E1EDF2E0A4E1B2E018C0A6
:103C9000EBE7F3E0AFE3B2E013C0EEEFF3E0A0E751
:103CA000B2E00EC0ECEFF1E0AFE6B1E009C0EBEF3F
:103CB000F0E0A2EDB0E004C0E2E1F0E0A8E1B0E0A5
:103CC000A70196010E94063F6B017C01A0E2DA0E7B
:103CD000E11CF11CDF01A50194010E94063FA70130
:103CE0009601261B370B480B590BCA01B9012EE070
:103CF00096958795779567952A95D1F704C060E0EA
:103D000070E081E090E0FF90EF90DF90CF90BF9067
:103D1000AF909F908F9008950F931F93CF93DF9351
:103D2000EC018B018C81811103C0CE010E948B2399
:103D300023E030E040E050E060E8CE010E94E52260
:103D40002E813F81202B312B442737FD4095542F66
:103D500061E8CE010E94E52219870887CE01DF9134
:103D6000CF911F910F910C9404238F929F92AF9249
:103D7000BF92CF92DF92EF92FF920F931F93CF9358
:103D8000DF9300D01F921F92CDB7DEB78C016B017D
:103D90007A01FC018481811103C0C8010E948B2338
:103DA000F8018581811106C0A701B601C8010E94F2
:103DB00044235BC020E0F80186819781009799F049
:103DC000019741F458EC852E912C60EAA62E6CE800
:103DD000B62E10C034EF832E9924939448E1A42E7C
:103DE00046EFB42E07C084E6882E912C92EFA92EC0
:103DF00092E1B92EAE014F5F5F4FBE016D5F7F4F05
:103E0000C8012D830E9444238B819C812D81211127
:103E100024C08815990540F4F80120853185232BAD
:103E2000E1F460E170E00BC0A816B906B0F4F80147
:103E3000208531852031310581F460E070E0C801D2
:103E40000E948C1EAE014F5F5F4FBE016D5F7F4FC2
:103E5000C8010E94442321E0AECFF6019183808304
:103E600089819A81F701918380830F900F900F9041
:103E70000F900F90DF91CF911F910F91FF90EF90D6
:103E8000DF90CF90BF90AF909F908F900895EF926A
:103E9000FF920F931F93CF93DF9300D01F92CDB764
:103EA000DEB77C018B0184E2FB0111928A95E9F770
:103EB00084E290E0A0E0B0E0FB0180839183A283E4
:103EC000B383F70182859385A485B585FB0184833F
:103ED0009583A683B78385E090E0A0E0B0E080877B
:103EE0009187A287B3870E94A907F801608B718B25
:103EF000828B938BAE014F5F5F4FBE016D5F7F4F33
:103F0000C7010E94B51E49815A816B817C81C7011E
:103F10000E948F1D0E94EE3DF801648B758B868B8D
:103F2000978B11E020E030E040E857E40E94EA3D42
:103F3000811101C010E0812F0F900F900F900F9012
:103F4000DF91CF911F910F91FF90EF9008950F9304
:103F50001F93CF93DF93EC018B018C81811103C000
:103F6000CE010E948B2323E030E040E050E060E887
:103F7000CE010E94E52228853985202B312B44274C
:103F800037FD4095542F61E8CE010E94E5221F8342
:103F90000E83CE01DF91CF911F910F910C940423DA
:103FA0000895E091770380917603E81730F4F0E00C
:103FB000E858FC4F808190E008958FEF9FEF0895BF
:103FC0009091770380917603981750F4E92FF0E0F1
:103FD000E858FC4F208130E09F5F9093770302C048
:103FE0002FEF3FEFC90108958091760390E0209173
:103FF0007703821B91090895CF92DF92EF92FF928F
:104000000F931F93CF93DF937C018A0180912A0342
:10401000882389F0EB016B01C40ED51ECC15DD059C
:10402000F1F06991D701ED91FC910190F081E02DC3
:10403000C7011995F3CF842F413288F49091BE03C4
:10404000943069F440935103FB012FE233E0D9012E
:104050009A2F921B981718F491919D93F9CFC8014C
:10406000DF91CF911F910F91FF90EF90DF90CF9054
:10407000089520912A032223C9F020912903203298
:1040800040F021E030E0FC013383228380E090E0C7
:10409000089580912803E82FF0E0E85FFC4F6083EB
:1040A0008F5F809328038093290309C08091BE030A
:1040B000843029F481E08093510360932F0381E0E1
:1040C00090E00895FC01918D828D981759F0828DB2
:1040D000DF01A80FB11D5D968C91928D9F5F928F2D
:1040E00090E008958FEF9FEF0895FC01918D828DF0
:1040F000981731F0828DE80FF11D858D90E00895BD
:104100008FEF9FEF0895FC01918D828D981B892F71
:1041100090E0089580E090E0892B21F00E94E20574
:10412000811121C080E090E0892B21F00E94EC05F4
:1041300081111CC080E090E0892B41F080E090E08C
:10414000892B21F00E940000811113C080E090E0D3
:10415000892BA1F080E090E0892B81F00E94000083
:1041600081110AC008950E940000DCCF0E94000067
:10417000E1CF0E940000EACF0C9400000895CF9395
:10418000DF93CCEBD0E018821092BE0381E08093E5
:10419000BD031092B80361E084E10E94B60661E0BD
:1041A00085E10E94B606E9EBF0E080818E7F808396
:1041B00080818D7F808388E48093B80085E4888344
:1041C000DF91CF910895882349F010922B0310922C
:1041D0002C0310922D0310922E0313C080912B03F9
:1041E00090912C03A0912D03B0912E030196A11D57
:1041F000B11D80932B0390932C03A0932D03B093B8
:104200002E0380912B0390912C03A0912D03B0914C
:104210002E03803A9648A140B10560F010922B031E
:1042200010922C0310922D0310922E030E94BF2097
:1042300081E0089580E0089585ED8093BC0081E0E1
:104240000E94E3208091BC0084FF06C080E00E94B1
:10425000E3208823B9F302C01092BE0308951F9291
:104260000F920FB60F9211240BB60F922F933F931C
:104270004F935F936F937F938F939F93AF93BF936E
:10428000EF93FF938091B900887F803609F49CC03A
:1042900068F5883209F45BC090F4803109F454C0A9
:1042A00038F4882309F4F6C0883009F44DC0F6C00C
:1042B000883109F44CC0803209F45DC0EFC080340D
:1042C00009F468C048F4803309F455C0883309F014
:1042D000E5C08093BC03D8C0803509F44FC0883551
:1042E00009F45DC0883409F0D9C0D6C0883909F412
:1042F000C7C0A8F4883709F467C038F4883609F4D1
:1043000063C0803709F460C0C9C0883809F4B8C0F8
:10431000803909F45FC0803809F0C0C05BC0803BC1
:1043200009F486C038F4803A09F466C0883A09F482
:104330007FC0B4C0803C09F4A7C0883C09F4A4C085
:10434000883B09F48AC0AAC08091B90310C090913B
:10435000BB038091BA03981770F5E091BB0381E02D
:104360008E0F8093BB03F0E0E856FC4F8081809372
:10437000BB0085EC86C08093BC038EC0E091BB037C
:1043800081E08E0F8093BB038091BB00F0E0E85684
:10439000FC4F80839091BB038091BA036EC0E09183
:1043A000BB0381E08E0F8093BB038091BB00F0E0E4
:1043B000E856FC4F80838091BD0381116DC081E080
:1043C0008093B80384EA61C083E08093BE031092B7
:1043D0007503CFCF80917503803208F051C0E09112
:1043E000750381E08E0F809375038091BB00F0E030
:1043F000EB5AFC4F8083BDCF85EC8093BC001092BC
:10440000BE0380917503803230F4E0917503F0E0D3
:10441000EB5AFC4F10826091750370E0E0915303FA
:10442000F091540385E593E019951092750336C019
:1044300084E08093BE031092520310925103E091E6
:104440004F03F0915003199580915103811105C0DC
:1044500081E08093510310922F03E091520381E099
:104460008E0F80935203F0E0E15DFC4F80818093DA
:10447000BB009091520380915103981708F479CFB3
:1044800085E88093BC000AC085EC8093BC00109244
:10449000BE0304C01092BC030E941C21FF91EF9147
:1044A000BF91AF919F918F917F916F915F914F914C
:1044B0003F912F910F900BBE0F900FBE0F901F904A
:1044C00018950F931F93CF93DF9310912903D091E9
:1044D0000703113208F05EC0062F81E00E94E3203E
:1044E000C091BE03CC2339F080E00E94E3208823F2
:1044F000B9F3C5E054C082E08093BE030093BD03CE
:104500008FEF8093BC031092BB031093BA03A8E013
:10451000B3E028E933E0F9018E2F821B811718F4EC
:104520008D918193F9CF1092B9039091B9038D2F9A
:10453000880F892B8093B9038091B803813061F48F
:104540001092B8038091B9038093BB008091BC00A6
:1045500083FDF8CF85EC01C085EE8093BC0081E03F
:104560000E94E3208091BE03823031F480E00E94FB
:10457000E3208111BECFF6CF8091BC038F3F79F04D
:104580008091BC03803241F08091BC03803331F0D4
:10459000C4E005C0C1E003C0C2E001C0C3E01092A6
:1045A00028031092290310922A038C2FDF91CF91B8
:1045B0001F910F91089581E080932A036093070370
:1045C000109228031092290308951F93CF93DF932D
:1045D0001F92CDB7DEB7162FFC01638188E09CE007
:1045E00029830E94DB22612F88E09CE00E94392011
:1045F0002981622F88E09CE00E9439200F90DF9192
:10460000CF911F910C946E2420E030E0A90160E866
:104610000C94E522862F413208F040E2642F0E947C
:104620007324109277038093760308951F93CF939A
:10463000DF93EC01162F6B8188E09CE00E94DB2267
:10464000612F88E09CE00E9439200E946E246B81DB
:10465000772767FD709542E050E088E09CE00E947B
:104660000A2388E09CE00E94E01FEC0188E09CE0C7
:104670000E94E01F20E030E0382FC9018C2B9D2BD9
:10468000DF91CF911F910895EF92FF920F931F93A7
:10469000CF93DF93EC017B018A0123E030E040E01F
:1046A00050E060E80E94E5228E819F81009739F0FA
:1046B000019751F468E770E080E090E009C06FE096
:1046C00070E080E090E004C062EC71E080E090E097
:1046D0000E946F076CEACE010E941623F7019183B6
:1046E00080836EEACE010E941623F80191838083B5
:1046F000CE01DF91CF911F910F91FF90EF900C941D
:1047000004231092770310927603109228031092DC
:1047100029030C94BF20CF93DF93EC0188E09CE049
:104720000E9481236B8188E09CE00E94DB226AE08A
:1047300088E09CE00E9439200E946E246B817727DC
:1047400067FD709541E050E088E09CE00E940A23FC
:1047500088E09CE00E94E01F8A7089F081E08C83F1
:104760006E817F81CE010E94A71F68857985CE0169
:104770000E948C1ECE010E94042381E001C080E0D3
:10478000DF91CF910895FC01848DDF01A80FB11D49
:10479000A35EBE4F2C91848D90E001968F73992774
:1047A000848FA689B7892C93A089B1898C91806464
:1047B0008C93938D848D981306C00288F389E02D25
:1047C00080818F7D80830895EF92FF920F931F93D6
:1047D000CF93DF93EC0181E0888F9B8D8C8D9813B4
:1047E00005C0E889F989808185FD24C0F62E0B8DEE
:1047F00010E00F5F1F4F0F731127E02E8C8DE81212
:104800000CC00FB607FCFACFE889F989808185FFD3
:10481000F5CFCE010E94C323F1CF8B8DFE01E80FAF
:10482000F11DE35EFE4FF0820B8FEA89FB898081E8
:10483000806207C0EE89FF896083E889F9898081F9
:104840008064808381E090E0DF91CF911F910F9190
:10485000FF90EF900895CF93DF93EC01888D88232C
:10486000C9F0EA89FB89808185FD05C0A889B989DD
:104870008C9186FD0FC00FB607FCF5CF808185FFB8
:10488000F2CFA889B9898C9185FFEDCFCE010E9426
:10489000C323E7CFDF91CF9108950F931F93CF9359
:1048A000DF938C01C0E0D0E0F801EC0FFD1F6491B4
:1048B000662371F0E091BF03F091C0030190F08195
:1048C000E02D8FEB93E01995892B11F02196ECCF19
:1048D000CE01DF91CF911F910F91089561E088E0A3
:1048E0009CE00C946122CF93DF93D82FC62F81E0F8
:1048F0000E94E3208091BE03882329F080E00E947B
:10490000E3208823B9F381E08093BE038093BD0345
:104910009FEF9093BC031092BB039C0F9093BA033C
:104920008093B9038091B903DD0FD82BD093B903DD
:104930008091B803813061F41092B8038091B9037B
:104940008093BB008091BC0083FDF8CF85EC01C053
:1049500085EE8093BC0081E00E94E3208091BE033D
:10496000813029F480E00E94E3208823B9F380910C
:10497000BB038C1710F4C091BB03A8E9B3E028E790
:1049800033E0F9018E2F821B8C1718F48D918193DF
:10499000F9CF8C2FDF91CF910895009769F0FC013A
:1049A00001900020E9F73197AF01481B590BBC017A
:1049B0008FEB93E00C948F0580E090E0089582EDFA
:1049C00092E00C94CD24CF93DF930E944D24EC0110
:1049D0000E94DF248C0F9D1FDF91CF9108951F93BC
:1049E000CF93DF93182FC4E1DCE0688D898D9A8D19
:1049F0000E94DB22898D9A8DDC01ED91FC91019062
:104A0000F081E02D612F199561E0898D9A8DDF91FC
:104A1000CF911F910C9461221F93CF93DF93182F96
:104A2000D62F8091720B8130A9F46091E10B88E060
:104A30009CE00E94DB22612F88E09CE00E943920EC
:104A40006D2F88E09CE00E943920DF91CF911F916B
:104A50000C946E24811114C0C091E10B60E08C2F86
:104A60000E94B606812F8F730E947F1B8D2F0E949C
:104A70007F1B61E08C2FDF91CF911F910C94B606C4
:104A8000DF91CF911F910895CF92DF92EF92FF9225
:104A90001F93CF93DF93182F6A01C22F6F73D62F06
:104AA000D0688091E10B181304C0223010F0D62F8B
:104AB000D06C60E0812F0E94B6068D2F0E947F1B74
:104AC0007601D0E0C7018C199D098C179D073CF435
:104AD00080E00E947F1BF70181937F01F3CF61E0AB
:104AE000812FDF91CF911F91FF90EF90DF90CF90BA
:104AF0000C94B606613208F060E20E9473241092B2
:104B00007703809376030895682F88E09CE00C94E7
:104B10003920CF93DF93CDB7DEB7EB970FB6F8947C
:104B2000DEBF0FBECDBF789484B5826084BD84B5EE
:104B3000816084BD85B5826085BD85B5816085BD98
:104B400080916E00816080936E0010928100809150
:104B500081008260809381008091810081608093D8
:104B60008100809180008160809380008091B100FD
:104B700084608093B1008091B00081608093B00028
:104B8000809191008260809391008091910081607A
:104B9000809391008091900081608093900080913B
:104BA000A10082608093A1008091A1008160809328
:104BB000A1008091A00081608093A00080912101DC
:104BC0008260809321018091210181608093210185
:104BD0008091200181608093200180917A0084601F
:104BE00080937A0080917A00826080937A0080912D
:104BF0007A00816080937A0080917A008068809347
:104C00007A001092C10061E08DE20E94330761E0FA
:104C10008BE00E94330761E08EE20E94330761E07F
:104C200085E00E94330761E087E20E94330761E07C
:104C300086E10E94330760E086E10E94B60661E0EB
:104C400087E10E94330760E087E10E94B60661E0D9
:104C500088E10E94330760E088E10E94B60661E0C7
:104C600087E20E94B6068FEB93E00E94191485EC50
:104C700095E00E94E32488E09CE00E94812368E69E
:104C800088E09CE00E94DB226EE088E09CE00E94CD
:104C900039200E946E2441E050E068E670E088E030
:104CA0009CE00E940A2390917603809177039817E5
:104CB000F1F388E09CE00E94E01F182F0E946E2410
:104CC00068E688E09CE00E94DB226EE088E09CE0E1
:104CD0000E943920612F6B7388E09CE00E9439208C
:104CE0000E946E2480ED97E09093D7028093D602C5
:104CF00081E08093D8028093D9021092DA02109258
:104D0000DB021092DC0286E08093DD0280E795E30F
:104D1000ADE6B8E38093DE029093DF02A093E00259
:104D2000B093E10280910401886680930401809130
:104D3000050180668093050180910501877F80933E
:104D40000501809104018068809304018091050130
:104D50008068809305010F9A179A999AA19A809179
:104D60000A01806880930A0180910B01806880931A
:104D70000B016A9A729A61E088E30E94330784E427
:104D800092E00E944D244AE068EE73E080E090E0FB
:104D90000E9440148AE392E00E944D244AE050E0D1
:104DA00064EF71E080E090E00E948E158EE292E068
:104DB0000E944D246AE070E088EE93E00E944C1758
:104DC00000E010E06BECE62E67E0F62E61E088E391
:104DD0000E94B606C7010197F1F760E088E30E94E0
:104DE000B606C7010197F1F70F5F1F4F083E23E09A
:104DF000120761F787EA95E00E944D2480E091E078
:104E00000E94351784E995E00E94E3248CE195E047
:104E10000E94191480EA898B81EA8A8B1B8A89E0B7
:104E20008C8BE6E4F2E08E010F5F1F4FD8010190FA
:104E30000D928A95E1F79E01265F3F4FF80180E0D1
:104E400091918927E217F307D9F79DE09E8F9AE0A9
:104E50009F8F8D8F5091370540913805252F30E079
:104E6000842F90E0821B930B541710F0CF9601C053
:104E7000019740970CF463C044E050E0BE016F5EC0
:104E80007F4F8CE195E00E948F0549E050E0B8012A
:104E90008CE195E00E948F0543E050E0BE01635E27
:104EA0007F4F8CE195E00E948F058BE992E00E9494
:104EB000CD24CE0141967C0154E0D52ED80E60E180
:104EC00070E0D7018D917D010E94AE158FE592E0D3
:104ED0000E944D24DE10F3CF0E94DF2485E592E08E
:104EE0000E944D24780149E0D42ED00E60E170E09C
:104EF000F70181917F010E94AE1583E592E00E9447
:104F00004D24DE10F3CF0E94DF248DE492E00E9456
:104F10004D249E01235E3F4F790133E0D32EDE0CFA
:104F200060E170E0D7018D917D010E94AE158BE4A8
:104F300092E00E944D24DE10F3CF0E94DF2480EA2D
:104F4000898381EA8A831B8283E08C8387E38D8F48
:104F500081E08E8F1F8E8DE08A8B8AE08B8B86E3BB
:104F6000898B5091370540913805252F30E0842FEB
:104F700090E0821B930B541710F0CF9601C001975D
:104F80004097CCF044E050E0B8018CE195E00E94FD
:104F90008F0543E050E0BE01635E7F4F8CE195E0FA
:104FA0000E948F0543E050E0BE016F5E7F4F8CE1B1
:104FB00095E00E948F058EE795E00E94E324109211
:104FC000700B10926E0B10926B0B10926A0B10927A
:104FD000710B85E38093690B8FEF8093EF028093D1
:104FE000EE02809305030E94A9077B0161E0809196
:104FF000690B0E9433070E9493170E94401A83E0B6
:105000000E94701B2AE0D22E8FEF0E94531CDA946C
:10501000D110FACF60E08091690B0E94B60640E0A3
:1050200050E0BA0180E00E94B317D82E80936F0B36
:10503000E1E08E1749F00E94A9076E197F09613DD2
:10504000774068F381E04EC04AEA51E060E070E0EA
:1050500088E00E94B31782FF03C0D092700B10C08B
:1050600094E0D92E0E94861B80936F0BDA94D110A6
:10507000F9CF8A3A11F082E035C082E08093700B5C
:105080008091700B823021F0812C912C540105C04D
:10509000812C912CA12C80E4B82E40E050E0BA0184
:1050A00087E30E94B317B501A40189E20E94B317F8
:1050B00080936F0B882349F00E94A9076E197F091E
:1050C000613D774050F388E00DC08091700B8230D5
:1050D00031F540E050E0BA018AE30E94B31788231B
:1050E00081F086E080936A0B0E94931788EC92E02F
:1050F0000E944D2460E170E080916A0B0E949D1532
:105100007CC00E94861B807C803C19F483E08093E5
:10511000700B0E94861B0E94861B0E94861B0E94A9
:105120009317809105038F3F11F00C94EF3180E0CD
:105130000E94701B0C94EF310E94B61B882311F45F
:105140000C94003278016E0121E1C20ED11C0E9444
:10515000861BD7018D937D01AC15BD05C1F70E945B
:10516000861B0E94861B0E9493178981807C11F008
:105170000C9403324F81437050E0542F4427550F55
:10518000550F8885B4E08B9FC0011124482B592B03
:1051900089858295869586958370482B4F5F5F4FF2
:1051A00060E070E02A852370220F8B8587FB8827BB
:1051B00080F9282B8E818F7090E0820F911D0797C8
:1051C00004C0440F551F661F771F8A95D2F7CB0185
:1051D000BA01615071098109910960935207709376
:1051E000530780935407909355074AE050E00E947C
:1051F0008E1584EB92E00E94E324809052079090F9
:105200005307A0905407B09055074EE950E061E075
:1052100070E080E090E00E94D71B44E6E42E47E077
:10522000F42EF7018EE98E0D9191911107C08E1326
:10523000FBCF812C912C5401839415C04EE950E092
:10524000C501B4010E94D71BE4E6F7E08EE9382ED1
:105250003E0C8191882311F40C9431328114910415
:10526000A104B104B1F08092560790925707A09222
:105270005807B092590786E992E00E944D24609148
:1052800056077091570780915807909159070E94CF
:105290005C1787E695E00E94E32462E08EE00E94BE
:1052A000330762E08FE00E94330762E085E40E94EA
:1052B0003307F8948091680086608093680080913D
:1052C0006C00866080936C0080916D008068809394
:1052D0006D0078948FE495E00E94E3247E01EDE177
:1052E000EE0EF11C88E0D7011D928A95E9F7E09156
:1052F000340CF091350C138615861486DF011B964D
:1053000033961E92AE17BF07E1F71092330CCC24F0
:10531000C394B8018091340C9091350C0E947216A0
:10532000882309F450C067E0C8010E948A1C988550
:105330008913EFCF80912F0C811126C08091340CFE
:105340009091350C0E94591DB8018091340C9091B8
:10535000350C0E942C1D40E064EB8091340C909140
:10536000350C0E94EA1C8091340C9091350C0E94FF
:10537000971CD82E8091340C9091350C0E94591DA9
:10538000DD2011F40C948232D090300C8981803170
:1053900011F40C948C38C8010E9444168D1518F431
:1053A0008091300C08C08981803111F48CE003C0F9
:1053B000C8010E9444168093300C8091330C8F5F9B
:1053C0008093330CA6CF8091330C80933F028823C7
:1053D00009F440C181E080935A0C8093ED0CC12CFC
:1053E00088E0982E9E0CDD24D39480913F02C8164D
:1053F00008F06FC06C2DC7010E94021783EC93E088
:105400000E944D24570160E170E0F50181915F0138
:105410000E94AE1581EC93E00E944D249A10F3CFC8
:105420000E94DF2460E072E0C7010E94B515882366
:1054300029F0D09238028AEA93E047C060E372E034
:10544000C7010E94B515882329F0D0923E0281E958
:1054500093E03BC068E172E0C7010E94B515882364
:1054600029F0D0923B028BE793E02FC068E072E016
:10547000C7010E94B515882329F0D0923C0281E62D
:1054800093E023C060E172E0C7010E94B515882354
:1054900029F0D0923D028CE493E017C060E272E004
:1054A000C7010E94B515882329F0D092390281E303
:1054B00093E00BC068E272E0C7010E94B515882333
:1054C00031F0D0923A0286E193E00E94E324C39443
:1054D0008CCF8CE08093300CC12CD12CEFE5EE2EDC
:1054E000FFE7BF2EAFE1AA2EBFE39B2E8091330CC6
:1054F00090E0C816D9060CF0A5C06C2DCE014196DF
:105500000E9402178091300C893038F0F82EFCE0B0
:10551000F81728F47CE0F72E02C069E0F62E89899E
:10552000803129F0CE0141960E94441601C08CE0E2
:105530008F1509F483C0B801CE0141960E9422164E
:10554000882309F47BC08989803109F477C02BE076
:10555000F21651F03CE0F31629F04AE0F41206C0CE
:105560009D8205C0BD8203C0ED8201C0AD828091E5
:10557000340C9091350C0E94591DBE016F5E7F4F17
:105580008091340C9091350C0E942C1D40E06EE40B
:105590008091340C9091350C0E94EA1C40E06B81A4
:1055A0008091340C9091350C0E94EA1C40E06C8193
:1055B0008091340C9091350C0E94EA1C89898031CD
:1055C00041F040E06D818091340C9091350C0E9447
:1055D000EA1C8091340C9091350C0E94591DBE013B
:1055E0006F5E7F4F8091340C9091350C0E942C1D82
:1055F00040912F0C68E48091340C9091350C0E94FE
:10560000EA1C64E170E080E090E00E946F07809106
:105610002F0C882331F06AE070E080E090E00E9477
:105620006F078091340C9091350C0E94591D809128
:10563000300CF81608F4F82EF092300C8FEFC81AE0
:10564000D80A54CF1092310C86EF92E00E94E324E6
:105650000E94F11589E395E00E94E32480912D0CCE
:1056600090912E0C0E94812360912C0C80912D0C26
:1056700090912E0C0E94DB2261E080912D0C909184
:105680002E0C0E946122882329F08BED93E00E946A
:10569000E32453C08EE10E94EF2463E070E080E0D9
:1056A00090E00E946F0704E11CE050EAF52ED8015B
:1056B0001D921C928F2D0E94EF2460912C0C772755
:1056C00067FD709542E050E080912D0C90912E0C7A
:1056D0000E940A2380912D0C90912E0CDC01ED91FB
:1056E000FC910680F781E02D1995F80110828183E5
:1056F00080912D0C90912E0CDC01ED91FC91068097
:10570000F781E02D1995F80120813181820F931FD7
:10571000D8018D939D938D0161E080912D0C909126
:105720002E0C0E946122F394F394B0EBFB12BFCFD6
:1057300081E08093580C8093EB0C82E295E00E940C
:10574000E32481EF9BE00E948B23811105C089EF48
:1057500093E00E944D240DC081E080935B0C809308
:10576000EE0C8093F60B60E070E081EF9BE00E940E
:10577000A71F8BE095E00E94E32481E08093720BE9
:105780008EE18093740B9BE69093730B9093E20BE6
:105790008093E10B8091760B9091770B853F91057B
:1057A00069F0843FE1E09E0749F0803D974031F089
:1057B00085EF90E09093770B8093760B8091860B2A
:1057C000823049F0843039F0883029F0803119F086
:1057D00082E08093860B80918F0B982F977F943077
:1057E00039F0883029F0803119F084E080938F0BF4
:1057F0006091760B7091770B80E090E00E94EE3D17
:1058000020E030E040E058E30E944F3E6093E30B1D
:105810007093E40B8093E50B9093E60B80918F0BD4
:10582000883089F038F48430F9F487EF9CECA2E1F9
:10583000B9E312C08C3061F08031B1F484E29BE0B6
:10584000A8E1BAE309C084E29BE0A8E9B9E304C097
:105850008FE991E7A1EEB9E38093EB0B9093EC0B0A
:10586000A093ED0BB093EE0B6091860B70E080E09F
:1058700090E00E94EE3D20E030E040E058E30E94DE
:105880004F3E6093E70B7093E80B8093E90B909386
:10589000EA0B88E09CE00E9481238FE00E94E012E6
:1058A000182F8FE00E943713212F30E0382B2D3333
:1058B000384609F02BC68091750B882331F0809112
:1058C000780B8295880F807E01C080E02091760B56
:1058D0003091770B243F91E0390729F0203D374084
:1058E00019F4886101C088606091790B6370682B3E
:1058F00080E10E94FF1260E081E10E94FF1280912E
:105900007A0B811102C060E001C060E880917B0BDE
:10591000882329F080917C0B8F708064682B82E152
:105920000E94FF128091830B882311F060E201C076
:1059300060E08091820B811160618091810B811107
:1059400068608091840B811162608EE10E94FF1279
:1059500080917D0B882311F060E201C060E08091AE
:105960007E0B8111606180917F0B8111686083E102
:105970000E94FF1280918A0B882311F060E201C01F
:1059800060E08091890B811160618091880B8111A9
:1059900068608FE10E94FF128091850B882331F0AF
:1059A0006091870B6295660F607E01C060E0809118
:1059B000860B883031F0803131F0843029F4606119
:1059C00003C0686101C0686080918B0B87FD03C0D4
:1059D00064608370682B80E20E94FF1280918C0BC0
:1059E000882349F060918D0B6370B0E26B9FB0012A
:1059F0001124606801C060E081E20E94FF12809182
:105A0000910B882311F060E801C060E02091900BB9
:105A10002770E4E02E9F900111249091920B9370D7
:105A2000F0E29F9FC0011124822B682B80E20E942C
:105A30000C25E0918F0BE850E93028F4F0E0E15BB1
:105A4000FD4F608101C060E081E20E940C258091E1
:105A5000940B882311F080E201C080E06091950BE7
:105A60006370682B82E20E940C256091930B637037
:105A7000660F660F83E20E940C2560E084E20E94BC
:105A80000C2581E08093560C8093E90C198A1A8AC0
:105A90001B8A1C8A1D8A1E8A1F8A188E198E1A8ECE
:105AA0001B8E1C8E19821A821B821C821D821E82F2
:105AB0001F82188619861A861B861C8683E20E941E
:105AC0003713682F626083E20E94FF126FE38EE259
:105AD0000E94FF128FE20E9437138F73C82E2EE1AF
